:100000000C9413060C945A060C945A060C94D0289F
:100010000C945A060C945A060C945A060C945A06E0
:100020000C945A060C945A060C946B300C943F3185
:100030000C94912B0C945A060C945A060C945A0664
:100040000C945A060C945A060C945A060C945A06B0
:100050000C945A060C94042C0C945A060C945A06D0
:100060000C945A060C945A060C945A060C945A0690
:100070000C945A060C945A060C945A060C945A0680
:100080000C945A060C945A060C945A060C945A0670
:100090000C945A060C945A060C945A060C945A0660
:1000A0000C945A060C945A060C945A060005010545
:1000B0000205030504050505000601060206030600
:1000C00004060506000701070207030704070507E2
:1000D00000080108020803080408050800090109CE
:1000E00002090309040905090000010002000300D8
:1000F00004000500000101010201030104010501E2
:1001000000020102020203020402050200030103CD
:1001100002030303040305030004010402040304AF
:1001200004040504808182838485868788898A8B7C
:100130008C8D8E8F9091929394A0A1A2A3A4A5A63A
:10014000A7A8A9AAABACADAEAFB0B1B2B3B4C0C1B1
:10015000C2C3C4C5C6C7C8C9CACBCCCDCECFD0D107
:10016000D2D3D4004350534C4B000A0A00556E645E
:1001700065660041646A0A004C6F776572005261DF
:1001800069736500426173650A00426173650A0024
:100190004C41594552000A0A00556E646566004E8E
:1001A000756D700047616D65004D6F757365004436
:1001B000766F72616B00517772740057494E004D33
:1001C000414300004D4F4445000A0A00775D1E0080
:1001D0001F00200021002200290014001A0008003E
:1001E000150017002B0004001600070009000A0084
:1001F000E1001D001B00060019000500E0000100E1
:10020000E200655D2A00A8006E5D2700260025003B
:10021000240023002F00130012000C0018001C0003
:10022000340033000F000E000D000B00E500380015
:10023000370036001000110001000100E400665D87
:100240002C000000165C010001000100010001000B
:100250002B0033003600370013001C00010004009F
:100260001200080018000C00E100340014000D001A
:100270000E001B00E300E200E000655D2A00A8001C
:1002800001000100010001000100010001000F0058
:10029000150006000A0009002800160011001700CA
:1002A0000B000700E5001D0019001A0010000500F2
:1002B000675DE600E400665D2C00000001000100BF
:1002C000010001000100010001001E001F002000CC
:1002D0002100220024021F0238022F0230025600A1
:1002E00035022002220236023702570001000100C7
:1002F00001000100010001000100010001000100F6
:1003000001000100E300270026002500240023004F
:1003100031021E022102270226023402350031007A
:100320002E0030002F002D0201000100010001000D
:10033000280001000100010001000100010001008E
:100340003A003B003C003D003E003F0039007B008E
:100350007A007C007D000100735D6D5D765D745DEB
:100360006F5D725D01000100010001004C000100A1
:1003700001000100010001000100010045004400EE
:10038000430042004100400001004B004F0052007A
:100390005100500001004E006B5D695D685D6A5D53
:1003A000010001000100010001000100015D0000E9
:1003B000000000000000000000000000635D645DBC
:1003C000000069000000000000000000705D68008F
:1003D000000000000000000000000000010001001B
:1003E000010001000100000000000000000000000A
:1003F00000000000715D0000000000000000A80087
:10040000000000000000AE00755D0000000000006C
:10041000B400B700B60000000100010001000100B7
:1004200001000000010001000100010001000100C5
:10043000010001000100FE00FF00010001000100B9
:100440000100F100F20001000100010001000100C3
:10045000010001000100010001000100635D0100D5
:100460000100010001000100010001000100010084
:100470000100ED000100010001000100F000EE00AC
:10048000EF00F90001000100010001000100FA0085
:10049000010001000100010001000100290001002C
:1004A00001000100010001002B000100010001001A
:1004B0000100010001000100010001000100010034
:1004C000E100010001000100010001000100E20063
:1004D000E00001002C00010001000100010001000A
:1004E0000100010001000100010001000100010004
:1004F000635D010001000100010001000100010035
:1005000001000100010001000100010028000100BC
:100510002A000100010001000100010001000100AA
:1005200001000100010001000100010001000100C3
:1005300001000100010001000100010001000100B3
:10054000010001000100010001000100635D0100E4
:10055000010001005400010001005300010055009A
:10056000610060005F000100010057005E005D0057
:100570005C002A00010056005B005A00590062002E
:1005800001000100010001005800010000AE00AFB1
:1005900000DA0281FFD9F1DB20A4A62EAF00A0C0B3
:1005A00000A1C800AED580A81FD300408D14200044
:1005B00007087F0807003E5B4F5B3E003E6B4F6BBA
:1005C0003E001C3E7C3E1C00183C7E3C18001C5724
:1005D0007D571C001C5E7F5E1C0000183C1800004C
:1005E000FFE7C3E7FF00001824180000FFE7DBE780
:1005F000FF0030483A060E00262979292600407F60
:1006000005050700407F05253F005A3CE73C5A009E
:100610007F3E1C1C0800081C1C3E7F0014227F2209
:1006200014005F5F005F5F0006097F017F000066C6
:1006300089956A0060606060600094A2FFA29400E7
:1006400008047E04080010207E20100008082A1CE0
:100650000800081C2A0808001E10101010000C1EAC
:100660000C1E0C0030383E383000060E3E0E0600E0
:1006700000000000000000005F000000000700070D
:100680000000147F147F1400242A7F2A12002313F1
:100690000864620036495620500000080703000035
:1006A000001C224100000041221C00002A1C7F1C6B
:1006B0002A0008083E080800008070300000080882
:1006C0000808080000006060000020100804020014
:1006D0003E5149453E0000427F4000007249494971
:1006E00046002141494D33001814127F1000274560
:1006F000454539003C4A494931004121110907006B
:10070000364949493600464949291E00000014006F
:1007100000000040340000000008142241001414BE
:1007200014141400004122140800020159090600A3
:100730003E415D594E007C1211127C007F494949AF
:1007400036003E41414122007F4141413E007F4908
:10075000494941007F09090901003E4141517300A7
:100760007F0808087F0000417F4100002040413F92
:1007700001007F08142241007F40404040007F027A
:100780001C027F007F0408107F003E4141413E0073
:100790007F09090906003E4151215E007F091929A0
:1007A000460026494949320003017F0103003F40CA
:1007B00040403F001F2040201F003F4038403F0086
:1007C0006314081463000304780403006159494D5D
:1007D0004300007F41414100020408102000004115
:1007E00041417F00040201020400404040404000BB
:1007F0000003070800002054547840007F28444438
:100800003800384444442800384444287F00385491
:100810005454180000087E09020018A4A49C780013
:100820007F080404780000447D4000002040403DE3
:1008300000007F102844000000417F4000007C043D
:10084000780478007C080404780038444444380074
:10085000FC182424180018242418FC007C08040424
:10086000080048545454240004043F4424003C40ED
:1008700040207C001C2040201C003C4030403C00BC
:100880004428102844004C9090907C004464544CC0
:1008900044000008364100000000770000000041DD
:1008A000360800000201020402003C2623263C0018
:1008B000000000000000404040F0F8F8FF38FFF86A
:1008C000F83FF8F8FF38FFF8F8F04040400000002B
:1008D00000000080C0C0C0800000C0C080000000D8
:1008E00080C0C000C0C0000080C0C0000000000088
:1008F000C0C0C0C0C000C0C00000000000000000B8
:1009000000000000000000000000000000000000E7
:1009100000000000000000000000000000000000D7
:10092000000000000000000000000000000000C007
:10093000F0F8FC3E1E06010000007F4141417F00AF
:100940007F4141417F000080C0E07E5B4F5BFEC085
:100950000000C000DCD7DEDEDED7DC00C000000017
:100960000000000000000000000000000000000087
:10097000000000000000494949FFFFFFFFE0DFBF22
:10098000BF00BFBFDFE0FFFFFFFF49494900000094
:1009900000001F3F6060E0BF1F007F7F071E381E02
:1009A000077F7F007F7F0E1F3B716000000000000B
:1009B0007F7F0C0C0C007E7E007F7E0303007F7E19
:1009C00003037E7E03037F7E000F3E703C063C7077
:1009D0003E0F00327B49493F7E007F7E0303001EAD
:1009E0003F69696F2600000000000000000000035E
:1009F0000F1F3F3C7870600000007F4141417F0045
:100A00007F4141417F00307B7F7830202030787FEC
:100A10003B0003000F7F0F0F0F7F0F00030000004C
:100A200000000000000000000000000000000000C6
:100A3000000000000000010101070F0F7F0F7F0F72
:100A40000F7E0F0F7F0F7F0F0F07010101000000C6
:100A50000000000000000001010000000000000094
:100A60000000000000000000000000000000000086
:100A70000000000000000000000000000000000076
:100A80000000000000000000000000000000000066
:100A90000000000000000000000000000000000056
:100AA0000000000000000000000000000000000046
:100AB0000000000000000000000000000000000036
:100AC0000000000000000000000000000000000026
:100AD0000000000000000000000000000000000016
:100AE0000000000000000000000000000000000006
:100AF0000C0353006F0066006C00650000001A03D1
:100B00004A006F00730065006600410064006100E8
:100B10006D00630069006B00000004030904090212
:100B20003B00020100A0FA090400000103010100DA
:100B30000921110100012240000705810308000A74
:100B40000904010001030000000921110100012234
:100B50007B000705820320000A120100020000004A
:100B60000832FC870201000102000105010902A10F
:100B70000185020901A100050919012908150025AF
:100B8000019508750181020501093009311581259A
:100B90007F95027508810609381581257F950175B5
:100BA000088106050C0A38021581257F9501750814
:100BB0008106C0C005010980A101850319012AB77A
:100BC00000150126B700950175108100C0050C09BC
:100BD00001A101850419012AA002150126A0029590
:100BE0000175108100C005010906A101050719E082
:100BF00029E7150025019508750181029501750801
:100C000081010507190029FF150026FF00950675CB
:100C100008810005081901290595057501910295BE
:100C20000175039101C011241FBECFEFDAE0DEBFD2
:100C3000CDBF04B603FE27C08091440590914505C1
:100C4000A0914605B09147058730904BA740B04B27
:100C5000D1F4109244051092450510924605109269
:100C6000470514BE84B7877F84BF0FB6F894A89554
:100C700080916000886180936000109260000FBED8
:100C8000E0E0F8E3099511E0A0E0B1E0E6EFFBE673
:100C900002C005900D92A83EB107D9F725E0A8EE55
:100CA000B1E001C01D92A434B207E1F70E94931D88
:100CB0000C94CE350C940000CF93C82F0E94A71A35
:100CC0008111C3E08C2FCF9108950E94A71A60E094
:100CD000882309F493C089EC91E00E94842360E0AA
:100CE00084EC91E00E94962360E083EC91E00E9406
:100CF000962380910F0360E080FF1CC08FEB91E092
:100D00000E94962360912302709124028091250213
:100D1000909126020E94920A853009F440C068F43E
:100D2000882399F08130B9F160E089E991E00E946F
:100D3000842310C08BEB91E0E3CF8630A1F18730A4
:100D400099F760E08FE991E003C060E086EB91E005
:100D50000E94962360E086E991E00E94842360E08F
:100D600080E991E00E94962360911F027091200219
:100D700080912102909122020E94920A8230D1F148
:100D8000B0F4882379F18130D1F060E08DE691E014
:100D90000E94962319C060E08FEA91E0D9CF60E00D
:100DA00089EA91E0D5CF60E084EA91E0D1CF833049
:100DB000E9F0843051F760E083E791E003C060E040
:100DC0008AE891E00E94842360E08AE691E00E9434
:100DD00084230E94622A81FB662760F984E691E001
:100DE0000C94962360E084E891E0ECCF60E08EE71D
:100DF00091E0E8CF60E088E791E0E4CF84E291E021
:100E00000C948423CF93FB018B362DE5920709F4D4
:100E100015C108F04FC084362DE5920709F49FC034
:100E2000E8F48C37910509F427C150F48A3791050D
:100E300009F456C18B37910509F442C1C1E00BC0DA
:100E40008D37910509F42CC183369D45B9F7C281D0
:100E500080E0C11189C08C2FCF91089587363DE580
:100E6000930709F4A5C058F485363DE5930709F4C6
:100E70008BC086369D4511F7C28183E087C0C28151
:100E800020910F0389363DE5930709F4B6C008F4B5
:100E900099C02170CC2309F4CDC08AE4222309F43F
:100EA0009DC081E00E947B180E94200C80E50E947A
:100EB000840BC4CF81372DE5920709F459C050F552
:100EC0008E362DE5920709F42CC1A8F48C362DE559
:100ED000920709F4C1C08D369D4509F0AFCFC2819C
:100EE00083EECC2309F416C10E94840B81EE0E948C
:100EF000840B86E1CAC08F362DE5920709F400C144
:100F000080379D4509F09ACFC28185E0CC2309F452
:100F1000A2CF2AC084372DE5920709F41AC190F4B4
:100F200082372DE5920709F408C183379D4509F002
:100F300085CFC28180EECC2309F407C10E94840BC7
:100F400088E3A3C086372DE5920709F40EC1B0F0FF
:100F500087379D4509F072CFC28182EEF0C0C28111
:100F600081E0CC2309F477CF0E949E09C0E073CFC3
:100F7000C28186E0CC2309F46ECFF6CFC281CC23A8
:100F800009F469CF87E0F0CFC28182E0CC2341F041
:100F90000E94DC0F44E063E082E00E940C0AE6CF8E
:100FA0000E94FD0F44E063E082E00E940C0A53CFF0
:100FB000C28184E0CC2319F00E94DC0FD7CF0E94BD
:100FC000FD0F49CF2170CC2361F0222309F469CFB2
:100FD00084E00E947B180E94200C80E50E94840B14
:100FE0003ACF84E0211101C081E00E947B180E9469
:100FF000270C80E50E94D20B21CF2170CC2381F0F9
:10100000222339F084E00E947B180E94200C8FE498
:10101000E5CF81E00E947B180E94200C8FE447CF2F
:1010200084E0211101C081E00E947B180E94270CFE
:101030008FE4E0CF8AE42223E9F2D6CFC281809107
:101040000F038170CC2321F08111E3CF8DE4C6CF53
:101050008111E9CF8DE4CECFC28181E0CC2331F084
:101060000E947B180E94200C8AE2B8CF0E947B1855
:101070000E94270C8AE2BECFC28181E0CC2341F0DE
:101080000E947B180E94200C86E00E94840B6ECF89
:101090000E947B180E94270C86E00E94D20BDBCEB8
:1010A000C28181E0CC2331F00E947B180E94200C89
:1010B00089E1EBCF0E947B180E94270C89E1EDCFDC
:1010C000C28181E0CC2331F00E947B180E94200C69
:1010D0008BE1DBCF0E947B180E94270C8BE1DDCFD8
:1010E000C28181E0CC2331F00E947B180E94200C49
:1010F0008DE1CBCF0E947B180E94270C8DE1CDCFD4
:10110000C28183EECC2319F00E94840BD1CF0E94C0
:10111000D20BD4CF0E94D20B81EE0E94D20B86E17B
:10112000BCCFC28183EECC2321F00E94840B8CE2E1
:10113000ACCF0E94D20B8CE2B0CFC28181EECC2327
:1011400021F10E94840B8BE2A0CF0E94D20B88E396
:10115000A4CFC28180EECC2321F00E94840B89E0D1
:1011600094CF0E94D20B89E098CFC28180EECC232D
:1011700031F00E94840B81EE0E94840BB9CF0E9453
:10118000D20B81EE0E94D20BB9CF0E94D20B8BE220
:1011900084CF811108C089EA611101C08AEA0E94E6
:1011A000180C81E008958130E1F78DE193E0611141
:1011B00002C08DE191E00E943E09F3CF9C013A9577
:1011C00021153F4150F5FC01EE27F170BC01662767
:1011D0007270AC01442754709C012227387094FF30
:1011E0000EC080E1EF2B09F480E0672B09F08062EC
:1011F000452B09F08064232B89F08068089581E0F5
:10120000EF2B09F480E0672B09F08260452B09F091
:101210008460232B19F08860089580E00895CF93AF
:10122000DF93EC010E94DE089E01205E3109283028
:10123000310510F0209739F40E94200C8C2FDF919B
:10124000CF910C94840B0E94FD0EF8CFCF93DF93C7
:10125000EC010E94D20BCE010E94DE089E01205EAE
:1012600031092830310510F0CD2B21F4DF91CF91D9
:101270000C94270CDF91CF910C94040FCF93DF9344
:10128000EC010E940F098FE39CE90197F1F700C080
:101290000000CE01DF91CF910C94260981E00895E2
:1012A0000C94020708950C9452091F93CF93DF9377
:1012B00000D000D00F92CDB7DEB749835A836B833D
:1012C0003091F40189819A8131111DC06623B9F0F2
:1012D0002223A9F00E94CF10182F682F89819A81AC
:1012E0000E94781069817A81812F0F900F900F9062
:1012F0000F900F90DF91CF911F910C94CC170E940B
:10130000A610182FEFCF0E94CF1069817A81EDCF00
:10131000FC01262F408151816281738184810C946C
:10132000550981E00895CF93DF93EC0160E00E94BE
:101330008809BE01DF91CF910C945309CF92DF92BF
:10134000EF92FF92C12CD12C7601C39404C0CC0C37
:10135000DD1CEE1CFF1C8A95D2F78C2D0E942C15EB
:10136000C701B601FF90EF90DF90CF900C947A0FF9
:101370008F929F92AF92BF92CF92DF92EF92FF92A5
:101380000F931F936B017C0181E090E0A0E0B0E03F
:101390004C015D0104C0880C991CAA1CBB1C4A9519
:1013A000D2F7B501A4014C015D0104C0880C991C61
:1013B000AA1CBB1C2A95D2F7482959296A297B29DE
:1013C00004C0880F991FAA1FBB1F0A95D2F78A0174
:1013D0009B010C211D212E213F21041715072607F3
:1013E000370789F48C299D29AE29BF29BC01CD017D
:1013F0001F910F91FF90EF90DF90CF90BF90AF9033
:101400009F908F90089580959095A095B0958C2190
:101410009D21AE21BF21EACF0F93382F262F609157
:101420001F02709120028091210290912202042FCC
:10143000432F0E94B8090F910C94B60F0E94C11857
:101440000E94E60A0C94E6180E94AC200C94E9185D
:1014500008950E94210F0E94280A2FEF84E39CE048
:10146000215080409040E1F700C000000C94282CEF
:101470000F931F93CF93DF938C0161E00E94880943
:10148000EC01F8018281882319F0CE010E945220DC
:10149000B801CE010E9450098823A9F1B801CE01FC
:1014A0000E947B25882379F1B801CE010E94CD25C9
:1014B000882349F1B801CE010E94F726882319F14B
:1014C000F8018281882361F0CB35FDE5DF0721F14A
:1014D00070F4C115ECE5DE07A1F0CF3DDC45C9F0A5
:1014E000C801DF91CF911F910F910C944E09CC351B
:1014F0008DE5D807A1F0CD35DD4591F70E945A144E
:10150000EFCF0E94290A80E0DF91CF911F910F91C8
:1015100008950E94C315F7CF0E946314E1CF0E9483
:101520006614DECFCF92DF92EF92FF926C01EE2431
:10153000FF2420E0C114D104E104F10419F0C70133
:10154000B60120E1C72ED82EE92EFF24C114D10404
:10155000E104F10419F0285FC701B6016B017C01B9
:1015600054E0F694E794D794C7945A95D1F7C114F0
:10157000D104E104F10419F02C5FC701B6016B013D
:101580007C0142E0F694E794D794C7944A95D1F74A
:10159000C114D104E104F10419F02E5FC701B601B2
:1015A0009695879577956795672B682B692B09F03A
:1015B0002F5F822FFF90EF90DF90CF9008950895D6
:1015C0000C94DF0A81E008950C94E20A0895CF9309
:1015D000C82F0E94E00A8C2FCF910C94E40ACF937D
:1015E000DF93EC012881898141E050E0022E01C0A7
:1015F000440F0A94EAF7A82FB0E0A651BE4F9C9181
:101600003A813323D9F03091F6013323D1F030E021
:1016100066E0869F200D311D1124220F331FF90132
:10162000E355FF4FE491E983F901E455FF4FE4915D
:10163000E883492B4C93DF91CF910895392F3423C0
:10164000E4CF40954923F6CFCF93DF93CDB7DEB7F4
:101650002B970FB6F894DEBF0FBECDBF4F835887D0
:1016600069877A878B8761110E9489148A859B8597
:10167000892B29F08F81988589238F3F61F51E8200
:101680001D8285E0FE013796DE01119601900D92D4
:101690008A95E1F78C819D81892B89F449815A8152
:1016A0006B817C818D819E810E9463132B960FB686
:1016B000F894DEBF0FBECDBFDF91CF910895898131
:1016C0009A8189238F3F51F3CE0101960E9491099F
:1016D0008111E4CFEBCFCE0107960E94EF0ACFCF66
:1016E000FC01808191810E94111192959F7096302A
:1016F00051F4863F41F08091F60191E08927809373
:10170000F6019093F5010895CF93C82F882309F42B
:1017100047C08CEF8C0F813AA0F46C2F80910001B0
:10172000909101010E94BC2A882329F08C2F0E94ED
:1017300004140E94AC148C2F0E94FD13CF910C94C2
:10174000AC1480E28C0F883048F4C77081E001C08F
:10175000880FCA95EAF70E946C14F0CFEBE5EC0F06
:10176000E33040F4F0E0E757FE4F808190E0CF9106
:101770000C947E2AE8E5EC0FE73150F4F0E0EE0F30
:10178000FF1FE55AFE4F80819181CF910C94942ADE
:10179000CD3E30F08C2F0E94211ECF910C94F41E70
:1017A000CF910895882361F19CEF980F913A20F42E
:1017B0000E9404140C94AC1490E2980F983050F4EA
:1017C000877091E001C0990F8A95EAF7892F0E94EE
:1017D0007214F0CF9BE5980F933020F490E080E0F6
:1017E0000C947E2A98E5980F973120F490E080E0E1
:1017F0000C94942A8D3E20F00E947B1E0C94F41EC3
:1018000008951F93CF93DF93182FEB010E94840B51
:10181000209731F4812FDF91CF911F910C94D20B3F
:101820008FE99FE00197F1F700C000002197F0CF0A
:101830006AE070E0893311F460E570E00C94010C0B
:10184000882321F00E946C140C94AC140895882312
:1018500021F00E9472140C94AC1408954F925F9280
:101860006F927F92BF92CF92DF92EF92FF920F938F
:101870001F93CF93DF936C01C62F172FFC01D281EA
:10188000058102950F700E944114E82E8823B1F063
:10189000DD2309F1812F807F803441F090E29C0F9D
:1018A0009830C8F0803611F4C63FA9F082E00E945B
:1018B000FD140E94411491E0E82EE926B12EB29465
:1018C0009FE0B922FBE0FB15B0F1EB2DF0E0E05317
:1018D000FA4C0C944535E12CF1CF012F0F70812F7C
:1018E000807F11F00295007FDD23A9F0002359F0DD
:1018F00080E28C0F883010F0C11109C0802F0E9447
:101900006C140E94AC148C2F0E94840B14C0802F86
:101910000E947C14F6CF8C2F0E94D20B002359F02A
:1019200080E28C0F883010F0C11139C0802F0E94E6
:1019300072140E94AC142B2D2850330B2430310527
:1019400020F40E944F2A0E94E70ADD2339F0107F1D
:10195000103611F4C63F11F00E943414EE2009F441
:10196000FFC10E94171480FDFBC1F60112820E9484
:1019700011140E94DC0FC6010E94D50E0E941114A2
:10198000DF91CF911F910F91FF90EF90DF90CF905B
:10199000BF907F906F905F904F900C94FD0F802FC1
:1019A0000E948214C6CF212F2F70F22E812F807FAC
:1019B000803219F0F29480EFF822CC2369F0C13024
:1019C00049F1DD2391F1002351F1F601858180FF7A
:1019D0009ACF8F70858323C0DD2381F0011106C06B
:1019E0000E948F148F290E94200CA5CF0130C1F7CF
:1019F0000E948F148F290E9495149DCF011106C05B
:101A00000E94A2148F2D0E94270C95CF013009F45B
:101A100092CFF6CFDD2329F0063008F08CCF8F2D42
:101A2000E2CF053008F087CFEDCF002359F3C9335B
:101A300009F02DC1FFEF27EE33E0F1502040304098
:101A4000E1F700C000008C2F0E94D20B74CF812FD1
:101A500086958695837069F0813009F06CCF8C2F64
:101A6000912F9370D11102C090E080E00E94942ADF
:101A700062CF8C2F912F9370D11102C090E080E043
:101A80000E947E2A58CF8C2FDD2329F00E94211E30
:101A90000E94F41E50CF0E947B1EFACF812F8370CC
:101AA00009F043C0D11147CF2C2F229526952770DE
:101AB000220F220F6C2F6F70462E512C712C612C2F
:101AC000022E04C0440C551C661C771C0A94D2F7E5
:101AD00060E070E0CB01C4FF0FC06FE070E080E019
:101AE00090E004C0660F771F881F991F2A95D2F7D0
:101AF0006095709580959095212F26952695237059
:101B00006429752986299729223049F058F4213013
:101B100019F00E948E0F0FCF0E947C0F0CCF0E94F5
:101B2000A00F09CF0E947A0F06CF8695DD2311F012
:101B3000812F8170882309F4FECE2C2F22952695C3
:101B40002770220F220F6C2F6F70462E512C712C94
:101B5000612C022E04C0440C551C661C771C0A9490
:101B6000D2F760E070E0CB01C4FF0FC06FE070E01F
:101B700080E090E004C0660F771F881F991F2A95A8
:101B8000D2F76095709580959095212F2695269592
:101B900023706429752986299729223049F058F441
:101BA000213019F00E945310C6CE0E944110C3CEBE
:101BB0000E946510C0CE0E94B60FBDCE012F0F70DF
:101BC000DD2329F0802F0E94DC0F8C2F0CCF8C2F6F
:101BD0000E94270C802F0E94FD0FADCEC23F91F1D5
:101BE00060F4C03FD1F0C13F31F1DD2309F443C0BF
:101BF000011189CE812F8F7122C0C33F41F1C43FB3
:101C0000A1F7DD2371F1012F0F71802F0E94DC0FEE
:101C100063E0802F0E94E2148ECEDD2341F0053078
:101C200008F089CE812F8F710E94201084CE06305B
:101C300008F081CEF7CF812F8F71DD2361F20E94F2
:101C4000DC0F79CE812F8F71DD23C9F3C4CFDD2363
:101C500029F0812F8F710E94C70F6DCE0E94C20F95
:101C60006ACE81E00E94FD14023008F464CE82E066
:101C70000E94FD1460CE002379F0C93341F49FEF38
:101C8000E7EEF3E09150E040F040E1F7DACE8FE389
:101C90009CE90197F1F7D5CE812F8F719CCFE0E1C0
:101CA000EC0FE73090F5F0E0E452FA4C0C94453537
:101CB000DD2309F440CE8091F60191E089278093DD
:101CC000F60139CED093F60136CE81E08D27F7CFDD
:101CD000D11131CE81E0F3CFD1112DCE1092F6018A
:101CE0002ACEDD2319F00E941B1425CE0E94271452
:101CF00022CEDD2339F08091F5018823E1F21092A4
:101D0000F50119CE0530B8F216CE8091F501002309
:101D1000D9F0882341F08091F60191E089278093E2
:101D2000F6011092F501D111EECDEFE3FCE9319708
:101D3000F1F700C000008C2F0E94D20B86E0F60164
:101D400011928A95E9F7F7CD882309F4F4CDD111E2
:101D5000F2CD8091F60191E089278093F601CFCFF3
:101D6000DF91CF911F910F91FF90EF90DF90CF9077
:101D7000BF907F906F905F904F9008950F931F9347
:101D8000CF93DF93EC01688179818A810E941B11D6
:101D90008C010E9477100E94790FB801CE01DF916B
:101DA000CF911F910F910C942E0CCF93DF93EC01E8
:101DB0008B819C81892B29F08881998189238F3F90
:101DC00059F4DF91CF910895CE010E94BE0ECE014D
:101DD000DF91CF910C949309CE010E94380A8111B2
:101DE000F3CF0E944114882361F38A81882349F349
:101DF00082E0DF91CF910C94FD14882321F00E94A2
:101E00007C140C94AC140895882321F00E94821451
:101E10000C94AC14089590E080E00E947E2A90E03B
:101E200080E00E94942A0E9489140E948C140E94CF
:101E3000AC140E941B200C94F41E0E940B140C94F2
:101E40000B0F0E9479140C941D0FE92FE295EF708F
:101E5000E250EE3070F4F0E0ED51FA4C0C94453560
:101E6000803F19F020F4883E20F481E00895843FFB
:101E7000E1F380E00895883EC0F3813FD1F7F5CFCC
:101E800093FB882780F90895FC01808191810E944D
:101E900011110C94250FCF93DF9300D000D00F9237
:101EA000CDB7DEB70F900F900F900F900F90DF918E
:101EB000CF910895CF93DF9300D000D000D0CDB75D
:101EC000DEB726960FB6F894DEBF0FBECDBFDF910A
:101ED000CF91089508950C946A0F0E946B0F609340
:101EE00023027093240280932502909326020C947F
:101EF0000B0F08950C946D0F0F931F930091230205
:101F0000109124022091250230912602602B712B22
:101F1000822B932B1F910F910C946D0F0F931F9396
:101F20000091230210912402209125023091260273
:101F300060237123822393231F910F910C946D0FC3
:101F40000F931F93009123021091240220912502E8
:101F50003091260260277127822793271F910F91C6
:101F60000C946D0F0C946A0F0C94B20F0E94B40F76
:101F700060931F02709320028093210290932202AB
:101F80000C940B0F60E070E0CB010C94B60F0F9334
:101F90001F9341E050E060E070E08A019B0104C0C3
:101FA000000F111F221F331F8A95D2F7C901B801F4
:101FB0001F910F910C94B60F0F931F9341E050E0C7
:101FC00060E070E004C0440F551F661F771F8A95BC
:101FD000D2F780911F0290912002A0912102B0912E
:101FE00022028A019B01082B192B2A2B3B2BC901AA
:101FF000B8011F910F910C94B60F0F931F9341E0FE
:1020000050E060E070E004C0440F551F661F771F6A
:102010008A95D2F7CB01BA0160957095809590951D
:1020200000911F0210912002209121023091220282
:1020300060237123822393231F910F910C94B60F79
:102040000F931F9341E050E060E070E004C0440F44
:10205000551F661F771F8A95D2F780911F029091B6
:102060002002A0912102B09122028A019B0108273F
:1020700019272A273B27C901B8011F910F910C94FA
:10208000B60F0F931F9300911F0210912002209111
:10209000210230912202602B712B822B932B1F91F6
:1020A0000F910C94B60F0F931F9300911F02109184
:1020B0002002209121023091220260237123822389
:1020C00093231F910F910C94B60F0F931F930091C0
:1020D0001F021091200220912102309122026027DC
:1020E0007127822793271F910F910C94B60F0895A3
:1020F000E92FEE0FE90FEE0F8E0F982F977041E04A
:1021000001C0440F9A95EAF786958695869595E0E5
:10211000899FF0011124E950FE4F30E020E070E08B
:102120005191DF011197CB01022E02C09695879540
:102130000A94E2F7817081958527842385278C9303
:102140002F5F3F4F2530310559F70895E92FEE0FE6
:10215000E90FEE0F8E0F982F9770869586958695CE
:1021600025E0829FF0011124E950FE4F50E040E04D
:1021700080E0219130E0092E02C0369527950A941F
:10218000E2F721703327042E01C0220F0A94EAF7E8
:10219000822B4F5F5F4F4530510559F70895BF922D
:1021A000CF92DF92EF92FF920F931F93CF93DF9323
:1021B0008C01C0901F02D0902002E0902102F0908C
:1021C00022028091230290912402A0912502B091D5
:1021D0002602C82AD92AEA2AFB2ACFE1D0E0BC2E5F
:1021E000D701C6010C2E04C0B695A7959795879583
:1021F0000A94D2F780FD0EC0219788F7B12C8B2D61
:10220000DF91CF911F910F91FF90EF90DF90CF90D2
:10221000BF900895B8018C2F0E94E017019761F3D9
:10222000EECFCF93DF93EC010E94CF10BE01DF9180
:10223000CF910C94E0171F93CF93DF93EB01909114
:10224000F401992331F0CB01DF91CF911F910C94D0
:102250001111882379F0CB010E94CF10182F682F1D
:10226000CE010E947810BE01812FDF91CF911F9186
:102270000C94E017CB010E94A610182FF4CF1F93E7
:10228000CF93DF93C091270216E0809128028C1330
:1022900004C0DF91CF911F910895D0E01C9FF00101
:1022A0001D9FF00D1124E75DFD4F4081518162813A
:1022B0007381848195810E945A0F2196C770E5CF62
:1022C0004091590250915A0260915B0270915C02F8
:1022D00080915D0290915E020C945A0F1F93CF93F0
:1022E000DF9380915E02807FA9F480915B02882356
:1022F00089F080912702C091280260915902709163
:102300005A02A0915C02B0915D02D62FD72316E04D
:10231000C81304C0DF91CF911F91089590E01097EA
:1023200011F0DF3F19F401968770F2CF189F9001EA
:10233000199F300D1124F901E75DFD4F41814713CD
:10234000F2CF40814613EFCF42814111ECCF438160
:1023500054814A1B5B0B4436510528F780915E027D
:102360008F70806180935E02F901E25DFD4F808194
:102370008F708061808389E592E00E94D50EDF91A5
:10238000CF911F910C943F11AF92BF92CF92DF92E9
:10239000EF92FF920F931F93CF93DF93CDB7DEB7EA
:1023A00061970FB6F894DEBF0FBECDBF8C0185E0FC
:1023B000F801DE011D9601900D928A95E1F7F80172
:1023C000E28089E5C82E82E0D82E60915C0270918F
:1023D0005D026115710509F45AC19091590220916D
:1023E0005A02892F82238F3F09F451C140815181C4
:1023F000A380B480F0905B02F501E61BF70BFF2091
:1024000009F4F6C080915E02382F307FE436F10582
:1024100008F0AFC0311179C0FE2C251323C09413EE
:1024200021C0E1101FC08F70806180935E020E9406
:102430006011C6010E94D50E80915E02F80185836D
:102440008F2D61960FB6F894DEBF0FBECDBFDF9122
:10245000CF911F910F91FF90EF90DF90CF90BF90A1
:10246000AF900895AB2829F0842F85238F3F09F082
:1024700027C180E0F82FF170DF2E80FF3CC08091F3
:1024800027022091280236E0821315C04D875E870F
:102490008D859E850E941111292F22952F70223043
:1024A000F0F0243018F59F70F1F0F8019581907FDD
:1024B000D1F4D12C1EC090E0389FF001399FF00D6F
:1024C0001124E75DFD4F6181651306C060816413CF
:1024D00003C06281E6120FC001968770D5CF9F704E
:1024E00011F0882331F3805E883018F3C8010E9410
:1024F000D50EFD2CA5CFEE2009F4A2CF80915E026F
:10250000816080935E02F12C9BCF251306C094134B
:1025100004C0F801EE2009F487C0C8010E94440FEE
:10252000882319F1EE2009F180915E02803270F06B
:102530002091590230915A0238872F831986BB8621
:10254000AA868C87CE0107960E94D50E86E0F801F8
:10255000A9E5B2E001900D928A95E1F70E946E1113
:102560000E946011FF24F3946BCFC8010E94D50E26
:10257000F9CF311113C07A2DB98AA88A6E2D8989B5
:102580000E944B0F89E592E00E94D50E86E0F6018D
:1025900011928A95E9F70E946011B5CF25130FC0FB
:1025A00094130DC0E1100BC0F8018583C8010E948F
:1025B000D50E86E0F60111928A95E9F741CFC80160
:1025C0000E94440F882389F2EE2079F280915E0206
:1025D000803208F4BBCF2091590230915A023A83DD
:1025E00029831B82BD82AC828E83CE010196ACCF43
:1025F000E436F10508F03EC0FE2CEE2009F4B5CF1C
:1026000025132AC0941328C080915E0280FD1BC050
:10261000982F907FC1F0F8018583903F31F0982F7B
:10262000907F905F8F70892B8583C8010E94D50EA3
:1026300086E0F801A9E5B2E001900D928A95E1F7F4
:102640000E946011FDCE86E0F801A9E5B2E001909C
:102650000D928A95E1F7F4CEC8010E94440F8111D2
:1026600075CF80915E02816080935E02C8010E94F6
:10267000D50EE6CE7A2DB98AA88A6E2D89890E9458
:102680004B0F86E0F60111928A95E9F7D9CFEE203B
:1026900009F46BCFC8010E94440FF82E882309F477
:1026A00064CF86E0F801A9E5B2E001900D928A9529
:1026B000E1F789E592E00E94700B0E946E11C0CF95
:1026C00081E08E25D7CE1F93CF93DF93CDB7DEB7B2
:1026D0002C970FB6F894DEBF0FBECDBF4F8358873F
:1026E00069877A878B879C87CE0107960E94C411E1
:1026F000882369F08A859B85892B39F04F8158851D
:10270000842F85238F3F09F071C016E05FC086E0FB
:10271000FE013796DE01119601900D928A95E1F740
:102720008A859B85892B89F38F81988589238F3FA3
:1027300061F32091280230E0C90101968770992742
:10274000409127024817190671F40E94210F109238
:1027500028021092270286E0E9E5F2E0DF011D92EF
:102760008A95E9F7D2CF96E0929FD001939FB00D62
:102770001124A75DBD4FFE01319601900D929A95EF
:10278000E1F7809328020E943F11BFCF819FC001D3
:102790001124875D9D4F0E94C4118823E9F0E091C8
:1027A00027021E9FF0011124E75DFD4F40815181FA
:1027B00062817381848195810E945A0F80912702E2
:1027C00090E00196877099278093270280912702D5
:1027D000909128028913DACF2C960FB6F894DEBFB9
:1027E0000FBECDBFDF91CF911F91089569857A8586
:1027F0008B859C850E945A0F88CF682F809100019D
:10280000909101010C94F22A682F8091000190911F
:1028100001010C94F42A80910001909101010C9423
:10282000F62A809160028595859585950895809119
:1028300060028770089582E080935F0281E0809358
:10284000F601089510925F021092F60108958091AA
:102850005F02823021F481E080935F02089583302B
:1028600011F40C942214089580915F02823021F4B7
:1028700083E080935F020895813011F40C94221458
:10288000089590916002977081E009F480E00895C6
:1028900090910F0392FB222720F9281751F080FB1B
:1028A00092F990930F0380910E0390910F030C9473
:1028B0003F15089580910F0382FB882780F991E0EE
:1028C00089270C94481481E00C94481480E00C94FF
:1028D000481480916C02089590916C02892B80932A
:1028E0006C020895809590916C02982390936C02ED
:1028F000089510926C02089590916B02892B809339
:102900006B020895809590916B02982390936B02CF
:10291000089510926B02089510926A0208958091B2
:102920006102089508950C94921490910F0392FD02
:1029300008C090916102981721F0809361020C9475
:102940009314089580916102882329F01092610206
:1029500080E00C9493140895E0910001F09101013E
:1029600080916C028083E0910001F09101018081EF
:1029700090916B02892B8083E0910001F09101011D
:10298000808190916A02892B8083909161029923C2
:1029900081F0E0910001F09101018081892B808319
:1029A00080910001909101010E94AA2A81110E9448
:1029B000A21480910001909101010C94652A089560
:1029C0000C94DF1490910F0392FD10C098E0899F42
:1029D00090011124622B609360020E94DC0F8091B1
:1029E00060028595859585950C94E0140C94DC0F18
:1029F0001092600280E00C94E01490916002809547
:102A0000892380936002282F277039F4282F082EFD
:102A1000000C330B9217130621F490910F0392FFD1
:102A200007C08595859585950E94FD0F0C94F81437
:102A3000089590E080E00E94943521E0893E9E4F09
:102A400009F020E0822F089582E090E00C948C350C
:102A500083E090E00C948C35682F83E090E00C9438
:102A60009A35CF9384E090E00E948C35C82F82E2A3
:102A700090E00E948C35982F8C2FCF910895CF93A2
:102A8000C92F682F84E090E00E949A356C2F82E273
:102A900090E0CF910C949A35AB01BC018FE090E0AF
:102AA0000C94AC35AB01BC0183E190E00C94AC35E7
:102AB00060E070E0CB010C94521560E070E0CB0157
:102AC0000E944C150C94581569EE7EEF90E080E062
:102AD0000E94B83560E082E090E00E949A3560E0A4
:102AE00083E090E00E949A35109223021092240213
:102AF000109225021092260260E084E090E00E948D
:102B00009A3560E082E290E00E949A3560E085E0CC
:102B100090E00E949A3560E086E090E00E949A354D
:102B20006FEF87E090E00E949A3540E050E0BA01F4
:102B300088E090E00E94AC3560E08DE090E00E947B
:102B40009A3540E050E0BA0188E190E00E94AC354F
:102B500060E087E190E00E949A3540E050E0BA01E1
:102B60008CE190E00E94AC3570E060E080E290E0A3
:102B70000E94B83540E050E0BA0188E190E00E9440
:102B8000AC350C945D150C946415682F8EE090E0C4
:102B90000C949A350E94CD2B609380027093810231
:102BA000809382029093830260937C0270937D02F3
:102BB00080937E0290937F0208950E94CD2B6093B4
:102BC00080027093810280938202909383026093CB
:102BD00078027093790280937A0290937B02089531
:102BE00085B7806885BF85B7806885BF08950895DB
:102BF00008950C94F71508950C94FB150E94F01598
:102C00008EEB98E10E944C2C0E94F8150C94F9155B
:102C10000C94A71A089508950E940A160C940B1696
:102C20000E94B82B0E94FD2A0E949A190E94FE2140
:102C300080E00E945B220E94F0200C94FC159F9281
:102C4000AF92BF92CF92DF92EF92FF920F931F93BA
:102C5000CF93DF93CDB7DEB72A970FB6F894DEBFD8
:102C60000FBECDBF0E941D1AC82E81110E94CA1529
:102C70008EE6A82E82E0B82E10E000E0902E802F85
:102C80000E94EB18E82EF501F1905F01F81609F4A7
:102C90005CC08091840281FD0E94F1188F2D8E25E9
:102CA000D12CFF24F394982F9F2109F449C00E944E
:102CB0000816882399F0DE829F82EF2081E009F4D4
:102CC00080E088870E94C12B8160782F9A8789874E
:102CD0004E815F8168858A850E94240BF801E25944
:102CE000FD4F8081F826F0820E944D21182F81111E
:102CF0000E94DD150E94D524C11001C011110E944F
:102D00009B230E940F1F0E944F2A90916D028917EA
:102D100099F10E944F2A80936D022A960FB6F8947B
:102D2000DEBF0FBECDBFDF91CF911F910F91FF90FE
:102D3000EF90DF90CF90BF90AF909F900C94E70AF8
:102D4000D394FF0CF6E0DF12AECF0F5F1F4F0A30B7
:102D5000110509F093CF8FEF89838A831B820E942C
:102D6000C12B8160782F9D838C8349815A816B812F
:102D70008D810E94240BB8CF2A960FB6F894DEBF3F
:102D80000FBECDBFDF91CF911F910F91FF90EF90BC
:102D9000DF90CF90BF90AF909F900895CF93DF9337
:102DA0000E94E417EC01811522E5920708F047C064
:102DB000811531E5930708F0BAC0883E910530F5DA
:102DC000803E910508F092C0883A910588F4853AD2
:102DD000910508F084C08130910509F487C00097FF
:102DE00009F484C0049708F081C0D0E0C0E07EC040
:102DF0008F3B9105D0F7C85AD0E0CC0FDD1FC457E8
:102E0000DE4F0990D881C02DD46470C081159042E6
:102E100050F4C11581E0D80708F068C0CD3ED10557
:102E200020F3D06563C0C11590E4D907F0F2C11555
:102E300020E5D20708F05EC0DF70D06A57C0811568
:102E400036E5930718F5811545E5940708F087C026
:102E5000C11584E5D80708F07DC09C2F96959695FE
:102E60009E0123703327C115D34508F465C0C1E026
:102E7000D0E002C0CC0FDD1F2A95E2F730E2939F2D
:102E8000C0011124C82BD92BDA6830C0C11589E5DF
:102E9000D80768F4C11598E5D90708F06AC0C115CC
:102EA00027E5D20708F0A1CFDD27D0661FC0C115E6
:102EB0003AE5D30708F462C0CE01905681159042DE
:102EC00008F093CF8D2F8F710E947B1890E0982F80
:102ED000882788279F719C012C2BE90148C0C55A7F
:102EE000D0E0C654DE4FC881D0E0D064CE01DF917F
:102EF000CF910895CE01E4E096958795EA95E1F7A4
:102F000083702C2F26952695237090E2299F90019F
:102F10001124382B8C2F8370C1E0D0E002C0CC0F7D
:102F2000DD1F8A95E2F7C22BD32BDC68DFCFD82FC9
:102F3000CC27C16FD06ADACFC1E0D0E002C0CC0F9D
:102F4000DD1F2A95E2F720E2929FC0011124C82BD1
:102F5000D92BEBCFDC2FCC27C46FD06AC7CF0E9410
:102F60007B18C82FD0E0DC2FCC27CC27DF71D062B4
:102F7000BDCFDC2FCC27C06FD06AB8CF8C2F8F701D
:102F80000E947B1834E0D695C7953A95E1F7CF704B
:102F90009C2FEC01D069AACF972F70E026E0929F7A
:102FA000600D711D1124FB019CE3899FE00DF11D53
:102FB0001124EE0FFF1FE453FE4F85919491089565
:102FC0000E94CC170C94CE1682389105B1F1B0F462
:102FD0008133910509F475C048F48932910509F4EB
:102FE00069C08A32910509F473C00895853391054B
:102FF00009F459C08933910501F10895833E910583
:10300000A9F138F4803E9105F9F0823E910549F12D
:103010000895863E9105A9F1873E9105C9F1843E48
:10302000910519F520910F0321FF1FC080910E0318
:1030300084FD14C087EE90E0089520910E03237064
:10304000A1F080EE90E0089520910E0320FD47C08E
:1030500030910F0330FF09C024FF44C090E080E0AE
:1030600004C020910E0322FDF7CF089520910E0396
:1030700022FD3BC030910F0330FDE3CF24FFF5CF9D
:10308000EDCF20910E0323FFF0CF24FDE7CFD2CF69
:1030900020910E0323FD2CC030910F0331FFEECFA2
:1030A00084EE90E0089520910E0325FFDECF89E2A3
:1030B00090E0089520910E0325FFD7CF85E390E09F
:1030C000089520910E0326FFD0CF8AE290E0089564
:1030D00020910E0326FFC9CF81E390E0089589E394
:1030E00090E0089583EE90E0089582EE90E00895D8
:1030F00086EE90E0089590910E0392FF06C0282F6F
:1031000028712830F9F4877F846093FF06C0282F48
:1031100028712831F1F4877E846120910F0320FF0C
:1031200006C0382F38713830D9F4877F816021FF8D
:1031300006C0282F28712831D1F4877E816194FD43
:10314000877E0895282F24712430F9F68B7F8860BC
:10315000DCCF282F2471243101F78B7E8861DDCFED
:10316000382F3171313019F78E7F8860E0CF282FEA
:103170002171213121F78E7E8861E1CF80E00895B1
:1031800008950E941915811102C00E94C3150E9462
:103190002415809384020E94311590930F0380932D
:1031A0000E030E94C0180E942815682F70E090E05E
:1031B00080E00E947A0F60911F027091200280913E
:1031C0002102909122020C94B40F08950C94E518FA
:1031D00008950C94E818E82FF0E0E65EFC4F80813B
:1031E0000895089580EA8A95F1F7089500C008953A
:1031F0000C94F218F894E82FE295EF70F0E031A10A
:10320000282F2F7081E090E001C0880F2A95EAF7FF
:10321000982F9095932391A392A1892B82A37894C0
:10322000089508950C941119CF93DF93C3ECD1E066
:1032300089918F3F11F00E94FA1881E0C83CD807AD
:10324000B9F7CDEBD1E089918F3F11F00E94FA18C8
:1032500081E0C33CD807B9F7DF91CF910895CF92B1
:10326000DF92EF92FF920F931F93CF93DF93EC01C6
:10327000D62E062F10E0C8018D539E4F7C01FC0115
:1032800080818F3F09F44BC0F894E82FE295EF70EE
:10329000F0E091A18F7021E030E001C0220F8A950B
:1032A000EAF7892F822B81A382A12095282322A3CC
:1032B00078940E94F618EDEBF1E030E020E0C12CAC
:1032C00051E041914F3FA1F1A42FA295AF70B0E022
:1032D00090968C9190E04F7002C0959587954A9595
:1032E000E2F780FD25C0852F022E01C0880F0A94C9
:1032F000EAF7C82A2F5F3F4F2630310511F7F70153
:1033000080818F3F11F00E94FA1861E0C11001C066
:1033100060E08D2D0E94F818C00FD11FC882DF9188
:10332000CF911F910F91FF90EF90DF90CF90089574
:1033300080E0DFCF0E94C11A8091020180910201DA
:1033400095E0811190E09093250385E0891B80939F
:1033500024030E941419E0E1F3E0AAE1B3E0119222
:103360001D9283E0EA31F807D1F785E00E94701AD8
:103370000E941E0A0C94CB1AFF920F931F93CF93B7
:10338000DF9300D000D00F92CDB7DEB70E94A71A0E
:10339000F82E60912503882309F442C08E010F5F47
:1033A0001F4F85E0F80111928A95E9F7862F90E08A
:1033B000B801865E9C4F0E94D91AE09124039E01B9
:1033C0002A5F3F4FF0E0882311F1BF01665E7C4F1A
:1033D000D801F12CFB014191BF019D91491731F0BA
:1033E000AF0141505109FA019083F82EA217B3079B
:1033F00089F70E94240A8F2D0F900F900F900F9045
:103400000F90DF91CF911F910F91FF900895E65E8D
:10341000FC4FD80111921D92A217B307D9F7E9CF3B
:1034200070E0665E7C4F8091240390E0865E9C4F46
:103430000E94661B0E941219DECFEF92FF920F933B
:103440001F93CF93DF93CDB7DEB72A970FB6F894CB
:10345000DEBF0FBECDBF8E010F5F1F4F8AE0F801A8
:1034600011928A95E9F7F12C6F2DC8010E942F194E
:10347000F394F5E0FF12F8CF4AE050E0B80180E1A4
:1034800093E00E9476357C0121E0892B09F420E04D
:10349000E114F10441F08AE0F801A0E1B3E0019009
:1034A0000D928A95E1F76091250370E0665E7C4F8E
:1034B00045E080E193E00E94711A81E090E0EF28FE
:1034C00011F40E94BC192A960FB6F894DEBF0FBE05
:1034D000CDBFDF91CF911F910F91FF90EF90089595
:1034E0000895FF920F931F93CF93DF93F82E092F28
:1034F000162FD72FC42F222349F081E08093870213
:103500000E94C12B9093860280938502809187024E
:103510008823A1F080918502909186020E94D92B88
:10352000059760F0EF2DF02FA12FBD2FCE0FDF2FCD
:10353000D11DEC17FD0741F410928702DF91CF9166
:103540001F910F91FF90089581918D93F2CF8091FB
:103550008A02811107C00E94F632882351F081E06F
:1035600080938A0281E090918A02913009F080E094
:10357000089582E080938A020E94F132F3CF0C9486
:10358000A71A0E94BF1A809302010E94A71A8111F4
:103590000C940F1B08950E94A71A811102C00C946D
:1035A000111B089581E090918B029A3008F080E021
:1035B00008950F931F93CF93DF93EC018B018091BC
:1035C0008B028A30B8F4B801CE010E94641BC82F68
:1035D000811122C080918B028F3FB9F40E94C12BD0
:1035E00090938902809388028C2FDF91CF911F9155
:1035F0000F91089580918802909189020E94D92BA1
:10360000843F914000F7C0E0EFCF8F5F80938B0243
:103610008A3020F7C1E0E8CF10928B02E5CF0C94FE
:1036200089280C948C28EF92FF920F931F93CF93CD
:10363000DF937901C82F880FDD0B41155105A9F0E3
:103640008AE08C9FF0018D9FF00D1124ED5FFE4FFD
:103650008381948184579D4F228130E04217530724
:1036600008F49A01A9010E948335CE010E9496298F
:10367000892B11F501151105E9F08AE08C9FF00105
:103680008D9FF00D1124ED5FFE4F458150E0041732
:10369000150708F4A8018AE08C9FF0018D9FF00DBA
:1036A0001124ED5FFE4F6681778164577D4FC7011E
:1036B0000E94833581E001C080E0DF91CF911F91AE
:1036C0000F91FF90EF9008950C94041D0C94301D01
:1036D0000F931F93CF93DF9300D000D0CDB7DEB709
:1036E0006091AA027091AB028091AC029091AD0200
:1036F0000E94E82B11E0643671058105910518F1EF
:103700000E94232B6E5F7F4F8F4F9F4F69837A8379
:103710008B839C8310E000E030E020E044E050E048
:10372000BE016F5F7F4F84E00E94131B182F882318
:1037300051F00E94CD2B6093AA027093AB0280934C
:10374000AC029093AD02812F0F900F900F900F90CD
:10375000DF91CF911F910F9108957F928F929F9249
:10376000AF92BF92CF92DF92EF92FF920F931F938F
:10377000CF93DF930F92CDB7DEB7762E4A01590172
:10378000680101E010E09E012F5F3F4F50E040E0F4
:1037900070E060E00E94131B182F882309F43EC0DC
:1037A000F40160817181828193810E94E82B6436EB
:1037B00071058105910558F18701950150E040E0C0
:1037C00070E060E0872D0E94131BB82EB701C60180
:1037D0000E94FF2111E09981981310E01B2139F01C
:1037E0000E94CD2BF4016083718382839383812FA8
:1037F0000F90DF91CF911F910F91FF90EF90DF908D
:10380000CF90BF90AF909F908F907F900895B70119
:10381000C6010E94FF2199818913CECFA701B6016D
:10382000C5010E948335E3CFEF92FF920F931F9360
:10383000CF93DF930F92CDB7DEB70091CD011091FA
:10384000CE01095F1F4FEE24E394F12C9E012F5F00
:103850003F4F46EA52E063E082E00E94AD1B182F22
:10386000882321F0CE0101960E94BF21812F0F9065
:10387000DF91CF911F910F91FF90EF900895CF921C
:10388000DF92EF92FF920F931F93CF93DF9300D0BD
:1038900000D00F92CDB7DEB76B010091CD01109132
:1038A000CE010F5F1F4F85E0E82EF12C9E012F5FA8
:1038B0003F4F42EA52E061E080E00E94AD1B882366
:1038C00049F095E0FE013196ADE9B2E001900D922C
:1038D0009A95E1F795E0EDE9F2E0D60101900D92BD
:1038E0009A95E1F70F900F900F900F900F90DF9146
:1038F000CF911F910F91FF90EF90DF90CF9008959F
:103900000F931F93CF93DF930F92CDB7DEB70E9433
:10391000D224082F8983E091CD01F091CE01148546
:103920006091AE027091AF028091B0029091B102AD
:103930000E94E82B643671058105910530F4812FD2
:1039400090E011E008171906C9F010E000E030E03F
:1039500020E041E050E0BE016F5F7F4F85E00E94B4
:10396000131B182F882351F00E94CD2B6093AE02B9
:103970007093AF028093B0029093B102812F0F90A9
:10398000DF91CF911F910F910895AF92BF92CF9287
:10399000DF92EF92FF920F931F93CF93DF937C01FF
:1039A0005B016A010E94D21A01E010E0882311F045
:1039B0000AE010E0C1E0D0E0F894B501C701F601DB
:1039C00009957894811104C021960C171D075CF4A9
:1039D000DF91CF911F910F91FF90EF90DF90CF90EB
:1039E000BF90AF900895CC9F9001CD9F300D300DCA
:1039F000112490E080E045E34A95F1F7000001963C
:103A000082179307C1F7D8CF0F931F93CF93DF93FC
:103A1000EC018B014FE35CE10E94C51C8823D1F0CF
:103A200044E15CE1B801CE010E94C51C882391F0FD
:103A300048E65BE1B801CE010E94C51C882351F025
:103A400040E85CE1B801CE01DF91CF911F910F9169
:103A50000C94C51C80E0DF91CF911F910F910895C8
:103A6000CF92DF92EF92FF920F931F93CF93DF934A
:103A70000F92CDB7DEB7F8940091CD011091CE0131
:103A8000C801019625E0FB01DC0101900D922A9509
:103A9000E1F765E070E00E94FF21F80180837894EF
:103AA000F894CE0101960E94B6218981F80187839E
:103AB00061E070E0CE0101960E94FF21F80186834B
:103AC0007894F8946085718582859385C090990279
:103AD000D0909A02E0909B02F0909C026C157D05BC
:103AE0008E059F0551F06093990270939A0280931E
:103AF0009B0290939C020E94062B7894F894F80104
:103B00008485882369F00E949B2378940F90DF912D
:103B1000CF911F910F91FF90EF90DF90CF9008957C
:103B20000E94B724F2CF0E943E2B0E94AA2D0E9431
:103B3000C32D0E94D52D0E940C16FBCF8091B80298
:103B400080FF12C06091440185E0689FB00111249C
:103B5000759567957595679560387105A8F5611538
:103B60007105A1F1862F089581FF09C0609144017C
:103B700085E0689FB001112475956795EDCF609140
:103B8000440182FD0AC08091B7028823D1F0909150
:103B9000430160914401891728F085E0689FB001D6
:103BA0001124DACF869FB001112485E0869F900111
:103BB000879F300D1124692F70E0C9010E941235D2
:103BC000CBCF65E070E0CECF8FE7089581E0089518
:103BD0008091B80280FF0CC06091400170E0759543
:103BE0006795759567956115710549F1862F08955B
:103BF00081FF06C06091400170E075956795F3CF35
:103C00006091400182FD0BC09091B6029923A1F012
:103C100060913F0180914001961738F0682F70E065
:103C20006038710500F38FE70895899FC001112462
:103C300070E00E941235F4CF61E070E0D7CF81E0F0
:103C400008958D3E31F40E949E1D81958093BC02A3
:103C500008958E3E19F40E949E1DF8CF8F3E31F4D8
:103C60000E949E1D81958093BB020895803F19F4A8
:103C70000E949E1DF8CF893F29F40E94E81D809381
:103C8000BD0208958A3F21F40E94E81D8195F7CF77
:103C90008B3F31F40E94E81D81958093BE02089508
:103CA0008C3F19F40E94E81DF8CF9FE0980F9830E0
:103CB00070F4815F990B21E030E001C0220F8A95FA
:103CC000EAF78091BA02822B8093BA0208958D3F61
:103CD00031F48091B80281608093B80208958E3FDC
:103CE00021F48091B8028260F7CF8F3FB9F78091BD
:103CF000B8028460F1CF4091BB028D3E59F48091AF
:103D0000BC0287FF0DC01092BC0241110BC0109283
:103D1000B70208C08E3E81F48091BC0218169CF355
:103D2000442381F08091BD029091BE02892B09F05D
:103D30005AC01092B60208958F3E49F447FFF0CF63
:103D40001092BB028091BC028111ECCFE0CF803F8A
:103D500019F41416ACF3E4CF9091BD02893F29F415
:103D60001916F4F61092BD02DBCF8A3F19F497FFC3
:103D7000D7CFF8CF9091BE028B3F29F497FFD0CFD9
:103D80001092BE02CDCF8C3F19F41916CCF3C8CFD8
:103D90009FE0980F983090F4815F990B21E030E01C
:103DA000B90102C0660F771F8A95E2F7CB018095B3
:103DB0009091BA0289238093BA02B2CF8D3F31F439
:103DC0008091B8028E7F8093B802AACF8E3F21F4F3
:103DD0008091B8028D7FF7CF8F3F09F0A1CF8091FE
:103DE000B8028B7FF0CF08950E94C12B9C01909167
:103DF000BB028091BC02982B21F03093B502209336
:103E0000B4029091BD028091BE02982B21F03093B4
:103E1000B3022093B20289EB92E00C94702AEF92E5
:103E2000FF920F931F93CF93DF9300D000D000D069
:103E3000CDB7DEB786E0E9EBF2E0DE011196019046
:103E40000D928A95E1F7E090BB02F090BC020091E0
:103E5000BD021091BE021092BB021092BC021092E1
:103E6000BD021092BE028E2D8F2991F08091B40276
:103E70009091B5020E94D92BAC019091B702992381
:103E800009F43FC0809145018417150608F447C026
:103E9000802F812B91F08091B2029091B3020E9409
:103EA000D92BAC019091B602992309F477C0809187
:103EB00041018417150608F47FC08091BB029091E0
:103EC000BC02892B9091BD02892B9091BE02892B57
:103ED00011F00E94F41E86E0FE013196A9EBB2E0DB
:103EE00001900D928A95E1F726960FB6F894DEBF01
:103EF0000FBECDBFDF91CF911F910F91FF90EF903B
:103F00000895209146018AE0289F900111242417EA
:103F1000350708F0BDCF9F5F9093B70202C09F3F67
:103F2000D1F7EE2059F00E949E1D9FEF1E140CF455
:103F300091E0899F802D11248093BB02FF2059F0CE
:103F40000E949E1D9FEF1F140CF491E0899F802D0D
:103F500011248093BC023091BB02332309F498CF23
:103F60002091BC02222309F493CF45EB3403C00116
:103F70001124992359F09093BB0245EB240390013F
:103F80001124332339F03093BC0282CF81E0809337
:103F9000BB02F3CF81E08093BC027ACF2091420133
:103FA0008AE0289F900111242417350708F085CF57
:103FB0009F5F9093B60202C09F3FD1F7002359F054
:103FC0000E94E81D9FEF10160CF491E0899F802D50
:103FD00011248093BD02112359F00E94E81D9FEF28
:103FE00011160CF491E0899F802D11248093BE025C
:103FF0003091BD02332309F460CF2091BE02222309
:1040000009F45BCF45EB3403C0011124992359F027
:104010009093BD0245EB240390011124332339F022
:104020003093BE024ACF81E08093BD02F3CF81E09E
:104030008093BE0242CF86E0E9EBF2E0DF011D9201
:104040008A95E9F71092B7021092B6021092B80260
:1040500008959C013056211540E2340748F0305E47
:10406000211540E1340720F0315C21153F4178F4FF
:1040700099279C01245031092432310578F02752C8
:10408000310981E02E30310550F080E008958F3FF6
:10409000910579F370F390E080E0EBCF81E0089533
:1040A0000C942920CF92DF92EF92FF92CF93DF936F
:1040B0000E945020882309F448C08091BF0290914B
:1040C000C0020097E1F10E94D92B9C0150E040E032
:1040D00060E67AEE80E090E00E942635CA01B901E0
:1040E00025E030E040E050E00E9426356091C102BA
:1040F0002F3F310519F010F02FEF30E0C62FD0E040
:104100002C1B3D0BB90190E080E00E94B63327EAFA
:1041100039E747E45DE30E9485340E9470336B0108
:104120007C01BE01DD0F880B990B0E94B833A701FB
:1041300096010E9404330E9487336093C1020E945B
:10414000C12B9093C0028093BF02DF91CF91FF906B
:10415000EF90DF90CF900895CF92DF92EF92FF9291
:10416000CF93DF938091BF029091C0020E94D92B20
:10417000893E934060F16091C102C62FD0E066276E
:1041800077276C1B7D0B072E000C880B990B0E9468
:10419000B83327EA39E747E45DE30E9485346B01D1
:1041A0007C01BE01DD0F880B990B0E94B8339B0187
:1041B000AC01C701B6010E9404330E9487336093AB
:1041C000C1020E94C12B9093C0028093BF02DF9175
:1041D000CF91FF90EF90DF90CF9008950C94C90895
:1041E00080910201811106C084EF8093480185EF20
:1041F0008093470120914801A22FA295AF70B0E0B3
:1042000091963C9191972F7081E090E0BC01022E35
:1042100001C0660F0A94EAF7462F40954323919612
:104220004C93919792963C919297362B92963C9311
:10423000929740914701E42FE295EF70F0E031A1B1
:104240004F70042E01C0880F0A94EAF7982F9095BA
:10425000932391A392A1892B82A390968C9190E0B5
:1042600002C0959587952A95E2F7817020A130E0EC
:1042700002C0359527954A95E2F792E020FF90E03D
:10428000892B8093C7029091020181E09827909337
:10429000C302891B8093C2020895CF93E091C702A5
:1042A000EE0FEE0F20914801A22FA295AF70B0E063
:1042B00090968C9190E02F7002C0959587952A95E5
:1042C000E2F78170992740914701A42FA295AF7022
:1042D000B0E090962C9130E04F7002C03595279554
:1042E0004A95E2F7A9014170552720FF02C042E03C
:1042F00050E0842BE82BE093C702C091C302EF701B
:10430000F0E0E153FE4F80819091C602890F8093C7
:10431000C60220E0823064F0EC2FF0E0EC53FD4F59
:1043200080818F5F808360E08C2F0E94EE2021E0EF
:104330008091C6028F3F64F4EC2FF0E0EC53FD4F08
:1043400080818150808361E08C2F0E94EE2021E0EB
:104350008091C602082E000C990B62E070E00E946A
:1043600012358093C602822FCF910895E091C30247
:10437000F0E0EC53FD4F2081FC0120830895FF9273
:104380000F931F93CF93DF93D091C2020D2F10E0B4
:104390000C531D4FFC01C081F8018081C81BFC2E0D
:1043A00080E01F147CF09C2FC7FD90E0C91BC11159
:1043B00014C08823E9F0DF91CF911F910F91FF90F6
:1043C0000C94DD15FA94F80180818F5F808360E0A2
:1043D0008D2F0E94EE2081E0E4CFCF5FF801808135
:1043E0008150808361E08D2F0E94EE2081E0DFCF3D
:1043F000DF91CF911F910F91FF9008950895FC01D7
:10440000680F791F8FEF91E36E177F0709F4089506
:104410002191822728E030E087FF06C0880F892796
:1044200021503109C9F7F0CF880FFACFCF92DF9230
:10443000EF92FF920F931F93CF93DF936C017B0159
:1044400064E670E088E70E942727EC0197FD12C020
:1044500010E000E0F601E00FF11F849164E670E0E7
:104460000E94A127EC01892B29F40F5F1F4F0E1525
:104470001F0581F70E942428CE01DF91CF911F9163
:104480000F91FF90EF90DF90CF900895E7E2F3E077
:1044900080E092E0DF019C011D9221503040E1F765
:1044A000F0932E05E0932D058FEF9FEF9093F4028C
:1044B0008093F30208950E945C068093EF0280FDD2
:1044C0000FC080E88093EE020E9421276DE070E02B
:1044D00083EA95E00E941622892B21F080E008955E
:1044E00080E2F0CF8091EF0263E070E081FD26C0B2
:1044F00080EA95E00E941622892B81F76DE070E03A
:1045000080E995E00E941622892B41F70E94CD2B6D
:10451000605A75418F4F9F4F6093290570932A050C
:1045200080932B0590932C050E94462281E0809376
:10453000F2028093F1021092F00208958DE995E065
:10454000D9CF2091EE0236E0839FC0011124629FF3
:10455000800D911D1124811522E0920714F090E046
:1045600080E0895D9C4F90932E0580932D050895E2
:1045700020912D0530912E05215233404091EE02BD
:10458000642F70E0C9010E94FE34481B463010F4CD
:10459000240F311D211582E0380710F030E020E0B3
:1045A000295D3C4F30932E0520932D0508951F93D0
:1045B000CF93DF93162F8A3031F481E0DF91CF91D2
:1045C0001F910C9451238D3011F480E0F7CFC091EE
:1045D0002D05D0912E0596E0FE01A8ECB2E00190E9
:1045E0000D929A95E1F7803EC8F086E0FE011192A7
:1045F0008A95E9F711111EC0C0912D05D0912E05A5
:1046000046E050E0BE0188EC92E00E947635892BAE
:10461000F9F4DF91CF911F910C94B822F6E08F9FAF
:10462000B001112460557A4F46E050E0CE010E945F
:104630006D35E0CFE0912D05F0912E059F012A5FA9
:104640003F4F2E173F07C1F2808180958193F9CFAC
:10465000C752D340CE0125E0969587952A95E1F77C
:1046600021E030E0A90102C0440F551F8A95E2F70E
:10467000CA014091F3025091F402842B952B2596A8
:1046800045E0D695C7954A95E1F702C0220F331F42
:10469000CA95E2F7822B932B9093F4028093F30256
:1046A000B8CFCF93382FE0912D05F0912E05E7522A
:1046B000F3402091EE02622F70E0CF010E94FE34A1
:1046C000281B822F332369F066E00E94F234C82F42
:1046D000C15010F4CF91089560E080E20E94D7228B
:1046E000F7CF9F01280F311D2115324018F080E0CF
:1046F000F0E0E0E08E0F9F2F911D895D9C4F90931D
:104700002E0580932D05E6CF1F93CF93DF93EC0109
:10471000162FFE018491811104C0DF91CF911F916A
:104720000895612F0E94D7222196F3CF0E948423FF
:1047300081E00C9451238091F202811103C0809199
:10474000F10208950E94CD2B605A75418F4F9F4F03
:104750006093290570932A0580932B0590932C056F
:104760008091F1028111EBCF62E070E08EE895E07C
:104770000E941622892B19F781E08093F102DFCF86
:104780002F923F925F926F927F928F929F92AF9201
:10479000BF92CF92DF92EF92FF920F931F93CF932E
:1047A000DF938091F202882369F02091F302309127
:1047B000F4022115310531F08091F00261E070E0E2
:1047C000882399F0DF91CF911F910F91FF90EF9087
:1047D000DF90CF90BF90AF909F908F907F906F9021
:1047E0005F903F902F9008958F5F082F10E01B017E
:1047F000082E02C0220C331C0A94E2F7A9014221C0
:104800005321452B89F39091EF0290FD44C082958E
:10481000880F807680934B019801369527953695C1
:10482000279520934E01815E80934C0110924F0199
:1048300024E630E047E050E069E471E088E70E9458
:10484000D027892B09F0BECFA80125E0440F551FC2
:104850002A95E1F78091EF0280FD2BC0495D5C4F06
:1048600004E610E020E230E060E488E70E94F727E9
:10487000892B09F0A7CF0E949B23E101C095D09519
:104880008091F3029091F402C823D923D093F402CB
:10489000C093F30297CF880F880F880F80934B0146
:1048A00010924E01895F80934C0183E080934F0109
:1048B000BFCFEEECF2E080E2DF011D928A95E9F7CE
:1048C000A3EEB1E00FED11E087EEC82E81E0D82E07
:1048D00097E0592E772473948D91E80129918E01E8
:1048E000240F352F311D295D3C4FE82FF0E0E253B6
:1048F000FD4F90E080E0652C681A872C082E01C0DF
:10490000880C0A94EAF77901A12CE701B9907E019D
:10491000B820662D6A196770962E062E000C770B4C
:10492000DB2D01C0DD0F9A94EAF77195619571094D
:104930006770772701C0B6946A95EAF7BD2A60814F
:10494000962E9B289082A39468E0A612DECF019653
:1049500031968830910579F6CA16DB0609F0BCCF8E
:1049600004E610E020E230E04EEC52E07DCF809192
:10497000F1029091F202911103C091E0892708950C
:10498000882369F062E070E08CE895E00E941622CE
:10499000892B19F08091F10208951092F102809113
:1049A000F102EBCF8091F10208950F931F93809154
:1049B000F202882389F180912705909128050E94B1
:1049C000D92BC29760F00E94C12B90932805809349
:1049D000270560E080E00E94A1220E9465060E94F7
:1049E000C0238091F1028823B9F00E94CD2B009161
:1049F000290510912A0520912B0530912C05601B6B
:104A0000710B820B930B6F3F7F4F8F4F9F4720F4AB
:104A10001F910F910C94B7241F910F9108950F933C
:104A20001F93CF93DF93C42FD22FFC018281882361
:104A3000C9F04093F7020E94C12B9093F602809335
:104A4000F50280E28C0F883008F050C0C77081E01A
:104A500001C0880FCA95EAF7DF91CF911F910F919E
:104A60000C94200C1091F702141335C08091F502BC
:104A70009091F6020E94D92B8436910560F5C0E230
:104A8000CD0F1D17B9F080E2810F883040F4177008
:104A900081E001C0880F1A95EAF70E94270CC83000
:104AA00048F481E09D2F977001C0880F9A95EAF72E
:104AB0000E94200C802F0E94180CC830B8F4D770C8
:104AC00081E001C0880FDA95EAF7DF91CF911F915D
:104AD0000F910C94270C80E28C0F883038F4C7704B
:104AE00081E001C0880FCA95EAF7EFCFDF91CF913F
:104AF0001F910F9108950F939C01CB01243F4CE52A
:104B0000340759F1A8F4293DFCE53F0701F12A3D9E
:104B10004CE53407D1F1283D3C4591F406E221EE05
:104B200041EE68ED7CE50E940F2580E00F9108952D
:104B3000263FFCE53F07E9F0B0F0273F3C45F9F0A0
:104B4000FC018281882339F11092F702EFCF07E24E
:104B500025EE45EE69ED7CE5E6CF06E221EE40EE7E
:104B600064EF7CE5E0CF07E225EE44EE65EF7CE5FF
:104B7000DACF06E221EE42EE66EF7CE5D4CF07E223
:104B800025EE46EE67EF7CE5CECF08E221E045EE6C
:104B90006AED7CE5C8CF81E0C9CFCF93DF93EC010C
:104BA000FB018281882309F420C1C430FDE5DF07C1
:104BB000C8F5CB3F9CE5D90730F49E0122503C4517
:104BC0002431310598F50E94311590930F0380939D
:104BD0000E03C031FCE5DF0709F4E0C008F061C056
:104BE000C8309CE5D90709F4CBC088F5C430FCE592
:104BF000DF0709F4B3C0E8F4C2309CE5D90709F433
:104C0000A7C080910E038260C330DC4509F4A3C0C5
:104C100080910E0390910F030E943F150E94210F77
:104C200080E004C0C236EDE5DE0769F2DF91CF9186
:104C3000089580910E038061C630FCE5DF0709F41A
:104C40008AC008F48FC080910E03806284C0809176
:104C50000E038D7FCC309CE5D90709F47CC070F43D
:104C600080910E038C60CA30FCE5DF0709F473C045
:104C700008F48AC080910E038E7F6DC080910E0370
:104C8000877FCE309CE5D90709F465C080910E037B
:104C90008B7FCF30DC4508F45EC080910E038F7EA1
:104CA0005AC0CD3FFCE5DF0709F474C040F5C431BC
:104CB0009CE5D90709F48AC058F4C231FCE5DF0746
:104CC00009F474C008F46EC080910E03837F43C062
:104CD000CB3F9CE5D90709F449C008F04DC0C53168
:104CE000DC4509F095CF80910E0382FB992790F95E
:104CF00021E0922790FB82F990FB83F92CC0C13010
:104D00008DE5D80709F458C088F480910F038360BB
:104D1000CF3FECE5DE0769F180910F038D7FC11570
:104D2000DD4538F180910F038C7F23C0C3308DE5C2
:104D3000D80709F458C008F452C0C236DD4509F05E
:104D400067CF90910E03892F8F7E94FF806103C0FF
:104D500080910E03816080930E035ACF80910E03E1
:104D60008460F9CF80910E038860F5CF80910F03A6
:104D7000816080930F034CCF80910F038260F9CF45
:104D800080910E038064E7CF0E94210F80910E0373
:104D90008068E1CF80910F038E7FEBCF80910E036F
:104DA0008F7DD9CF80910E038F7BD5CF0E94210FAD
:104DB00080910E038F77CFCF80910F03982F90951E
:104DC00091708E7F892B90FB81F9D3CF0E94210FA8
:104DD00090910E03892F97FB87F98058BCCF81E013
:104DE0000E94C51515CF80E0FBCF81E01FCFCF9388
:104DF000DF93EB0186319C4511F50E9469149A817D
:104E0000992399F08A7A91E009F490E09093F8025E
:104E1000811109C089E20E94FD130E94AC1480E058
:104E2000DF91CF91089585E3F6CF8091F80281114B
:104E300004C089E20E940414F0CF85E3FBCF81E037
:104E4000EFCF1092B9008CE08093B80008959F9244
:104E5000AF92BF92CF92DF92EF92FF920F931F9388
:104E6000CF93DF93B82EEB010E94C12B6C01EE248F
:104E7000E394F12CC431D10560F025E0E22EF12C51
:104E8000CF3FDC0731F0CE0164E170E00E94FE34D8
:104E90007B0184EAA82E94E8992E1092BC00A0927F
:104EA000BC000E94C12B8C018091BC0087FF0DC00B
:104EB0008091B900887F883039F18091B900887F6E
:104EC000803111F10FEF1FEF09C00E94C12B801B31
:104ED000910B8E159F0540F30EEF1FEFCF3FDC07C0
:104EE000E1F2C6010E94D92B8C179D07B0F2C801D0
:104EF000DF91CF911F910F91FF90EF90DF90CF90B6
:104F0000BF90AF909F900895B092BB009092BC006C
:104F10000E94C12B8C018091BC0087FF0AC0809148
:104F2000B900887F883111F0803461F610E000E02C
:104F3000DECF0E94C12B801B910B8E159F0558F36D
:104F4000CBCF0F931F93CF93DF93EB018093BB00E5
:104F500084E88093BC000E94C12B8C018091BC002E
:104F600087FF11C02091B900287F81E090E02832AE
:104F700011F490E080E0919581959109DF91CF91B6
:104F80001F910F910895CF3FDC0741F30E94C12B81
:104F9000801B910B8C179D0708F38EEF9FEFEECFD0
:104FA000CF92DF92EF92FF920F931F93CF93DF93F5
:104FB0006B018A017901B9010E942727E6010C0DD6
:104FC0001D1DC017D10761F424E92093BC00DF91B7
:104FD000CF911F910F91FF90EF90DF90CF900895A8
:104FE00097FDF2CFB70189910E94A127EACFCF9216
:104FF000DF92EF92FF920F931F93CF93DF93C62F11
:105000006A017901B8010E94272797FD0CC0B801F9
:105010008C2F0E94A127E601EC0CFD1CCE15DF05AC
:1050200011F097FF0CC024E92093BC00DF91CF91D1
:105030001F910F91FF90EF90DF90CF900895B801EE
:1050400089910E94A127EACF84E98093BC0008954A
:105050008EE14A9B02C08150E1F74A9BFECF089542
:105060005A9880E28A95F1F75A9A0895FC013BE03C
:105070003A95F1F798E020E080E031E040E14A9590
:10508000F1F7880F4A9B02C08160232742E04A95CE
:10509000F1F7000040E14A95F1F7915079F790E17E
:1050A0009A95F1F799B132E03A95F1F7000040E1B5
:1050B0004A95F1F792FB992790F992272081920F58
:1050C00090830895EF92FF920F931F93CF93DF93F6
:1050D0000F92CDB7DEB719828C017C01E60EF11C70
:1050E0000E151F0561F481E09981911180E00F9008
:1050F000DF91CF911F910F91FF90EF9008950E9443
:105100002828CE0101960E943628F80181938F014C
:10511000E7CF529A5A9A089552985A9AEA9AE9E62B
:10512000F0E080818F7C808308956150770B91E05F
:1051300001C0990F6A95EAF720E031E0911108C0AB
:10514000222391F05A9A80E28A95F1F75A980895AD
:10515000492F482339F05A9A232740E24A95F1F71C
:105160009695ECCF5A98F9CF5A98EDCFFF920F93BE
:105170001F93CF93DF93EC018C01060F111DC01715
:10518000D10731F4DF91CF911F910F91FF900895D6
:10519000F9900E94302868E08F2D0E949528EFCF6B
:1051A0001F920F920FB60F921124EF92FF920F935E
:1051B0001F932F933F934F935F936F937F938F939F
:1051C0009F93AF93BF93EF93FF93CF93DF930F9290
:1051D000CDB7DEB719820E942828CE0101960E9421
:1051E0003628A82FA695A695A695282F2295257036
:1051F0009A2F9570290F922F937026952695920FCE
:10520000982797708981982B09F075C0A73008F00E
:1052100072C080E18A95F1F75A9A529AB2E0BA9533
:10522000F1F700C05A98EA2EF12CEAE0AE9FD001C7
:105230001124AD5FBE4F1896ED91FC9119973097F0
:10524000B1F06091CD017091CE0116962D913C91F7
:105250001797260F371F13968D919C911497680FFF
:10526000791F15964C91159712968C9109958AE0A5
:105270008E9DF0018F9DF00D1124ED5FFE4F658135
:10528000662351F02091CD013091CE018681978126
:10529000820F931F0E94B6280E943028F0E1FA95F1
:1052A000F1F75A9852985A9A80E18A95F1F78AE074
:1052B0008E9D80018F9D100D11240D5F1E4FD80112
:1052C00012966C911297662371F12091CD01309165
:1052D000CE0113968D919C91820F931F0E9462289C
:1052E000D801ED91FC91882311F088E001C082E0A3
:1052F00080830E9428280F90DF91CF91FF91EF913A
:10530000BF91AF919F918F917F916F915F914F91DD
:105310003F912F911F910F91FF90EF900F900FBE33
:105320000F901F901895ED91FC91DFCF0F931F9375
:10533000CF93DF93EC0107970CF0A9C08AE08C9F14
:10534000F0018D9FF00D1124ED5FFE4F8081918162
:10535000892B09F49CC0F894529A5A9885E08A9552
:10536000F1F700008C2F869585709C2F9570890F22
:10537000982F937086958695890F8E0193E0000F84
:10538000111F9A95E1F7082B0E94302800C068E0B1
:10539000802F0E949528A0E1AA95F1F752985A9A79
:1053A0004A9B27C087E090E04A9925C08AE08C9FFD
:1053B00080018D9F100D11240D5F1E4FF801658136
:1053C0006623A1F12091CD013091CE018681978194
:1053D000820F931F0E946228811128C0529A5A9A04
:1053E000D801ED91FC9182E08083789482E090E096
:1053F00016C000C0D5CF0197B9F4529A5A9A8AE0E4
:105400008C9FF0018D9FF00D1124ED5FFE4F0190F8
:10541000F081E02D81E08083789481E090E0DF915D
:10542000CF911F910F91089500C0BECF0E942828F0
:10543000B0E2BA95F1F75A98529AE0E1EA95F1F79D
:105440008AE08C9FF0018D9FF00D1124ED5FFE4FDF
:105450006281662351F02091CD013091CE0183818C
:105460009481820F931F0E94B6280E9430288AE000
:105470008C9FF0018D9FF00D1124ED5FFE4F019088
:10548000F081E02D1082789490E080E0C8CF84E035
:1054900090E0C5CF9093FF028093FE0208950E9492
:1054A000A71A811103C08091F9020895E091FE02CC
:1054B000F091FF02309721F00190F081E02D0994E6
:1054C00080E008950E944F2A0895E091FE02F09135
:1054D000FF02309721F00280F381E02D09940895B6
:1054E000E091FE02F091FF02309739F022E0DC01FA
:1054F0002C930480F581E02D099408952091FC02FD
:105500003091FD022817390771F09093FD028093C6
:10551000FC02E091FE02F091FF02309721F006803C
:10552000F781E02D099408952091FA023091FB0251
:105530002817390771F09093FB028093FA02E091EB
:10554000FE02F091FF02309721F00084F185E02DFA
:10555000099408959C012E5F3F4FAC01485F5F4F57
:1055600080E02417350709F40895F90191919F010E
:105570009923B9F38F5FF5CF662349F0FC0132968A
:1055800008962191261729F0E817F907D1F780E04E
:10559000089581E008959C01FC0132969FEF80E020
:1055A0004191461751F09F3F19F4411101C0982FC6
:1055B0008F5F8630A9F79F3F09F40895290F311DA9
:1055C00097FD3A95F90162830895FC013296089699
:1055D0002191261303C0DF0111971C92E817F907E8
:1055E000B9F708950C94CB2A0C94E52A029626E08C
:1055F000FC0111922A95E9F7089510922F05109257
:10560000300510923105109232050895CF92DF9245
:10561000EF92FF926B017C010E94A71A81110EC0CC
:105620000E94CD2BC61AD70AE80AF90AC0922F05A4
:10563000D0923005E0923105F0923205FF90EF9064
:10564000DF90CF9008950F931F930E94A71A88238D
:1056500021F01F910F910C94CD2B0E94CD2B009126
:105660002F05109130052091310530913205600FE2
:10567000711F821F931F1F910F9108950895089520
:1056800008950C94402B80913B05843049F10E9491
:10569000412B80E00E94E70A1092000388E190E02D
:1056A00020E40FB6F894A895809360000FBE209375
:1056B000600083B7817F846083BF83B7816083BFCD
:1056C0007894889583B78E7F83BF0FB6F894A8959A
:1056D00080916000886180936000109260000FBE2E
:1056E00008950895CF930E943F2B0E941D1A0E9497
:1056F000712BC0E08C2F0E94EB18811105C0CF5F89
:10570000CA30C1F7CF91089581E0FCCF08950C9481
:10571000862B0E94210F0E944F2A0E94E70A0C94B8
:10572000872B1F921FB61F9211248F939F93AF93C5
:10573000BF9380910003811113C080913305909134
:105740003405A0913505B09136054196A11DB11DD6
:105750008093330590933405A0933505B0933605B7
:10576000BF91AF919F918F911F901FBE1F90189571
:1057700082E084BD93E095BD9AEF97BD80936E0063
:1057800008952FB7F8948091330590913405A09136
:105790003505B09136052FBF08952FB7F894609165
:1057A00033057091340580913505909136052FBFF2
:1057B00008959C014FB7F89480913305909134057A
:1057C000A0913505B09136054FBF821B930B08950C
:1057D000CF92DF92EF92FF922FB7F894C0903305EB
:1057E000D0903405E0903505F09036052FBFA70125
:1057F0009601261B370B480B590BCA01B901FF90C4
:10580000EF90DF90CF90089578941F921FB61F926B
:1058100011248F939F93AF93BF9380913305909101
:105820003405A0913505B09136050196A11DB11D35
:105830008093330590933405A0933505B0933605D6
:10584000BF91AF919F918F911F901FBE1F90189590
:1058500081E08093E00080E28093D8001092C9003C
:105860008FE19EE40197F1F700C0000087E090EB24
:10587000DC018093440590934505A0934605B093C1
:10588000470588E19CE00FB6F894A89580936000E6
:105890000FBE90936000FFCF9093E9018093E801E1
:1058A000089580910C03089590913B05943031F553
:1058B00080930103709303036093020382E080935B
:1058C000E9008FEF9091E800815095FD06C095EDBD
:1058D0009A95F1F700008111F5CF8091E80085FFDE
:1058E0000DC050E040E063E070E081E093E00E9492
:1058F000602E8091E8008E778093E8000895BC01C7
:1059000084E00C94542CBC0183E00C94542C9C0136
:1059100082E08093E9009FEF8091E800915085FD3F
:1059200006C085ED8A95F1F700009111F5CF8091C1
:10593000E80085FF0CC050E040E066E070E0C9017F
:105940000E94602E8091E8008E778093E800089591
:10595000CF93DF93EC0181E08093E9008FEF90918A
:10596000E800815095FD06C095ED9A95F1F700008D
:105970008111F5CF8091E80085FF14C050E040E030
:1059800068E070E0CE010E94602E8091E8008E7782
:105990008093E80088E0FE01A4E0B3E001900D925E
:1059A0008A95E1F7DF91CF91089580913A058111B1
:1059B00009C00E94F02F0E944D308091E200846067
:1059C0008093E200089510923A050895089508958D
:1059D000089542E061EC81E00E946C2F42E261ECAC
:1059E00082E00C946C2F80913D05833009F45FC0F8
:1059F00030F48130C1F1823009F49BC008958A30BF
:105A000009F487C08B3009F46DC0893009F04EC0AD
:105A100080913C05813209F049C080914005909108
:105A20004105029708F042C08091E800877F80938B
:105A3000E8008091E80082FF35C09091F3008091EA
:105A4000F200029729F48091F1008B7F813021F4DC
:105A50008091F10080930C038091E8008B77809314
:105A6000E8000C94A02F80913C05813AF9F48091D4
:105A7000E800877F8093E800809140059091410580
:105A8000892B61F468E084E093E070E00E94AF2E1F
:105A90008091E8008B778093E800089560E090E0C3
:105AA00080E0F3CF80913B058111C3CF08958091B1
:105AB0003C05813AD9F78091400590914105892BA9
:105AC000A9F78091E800877F8093E8008091E80043
:105AD00080FFFCCF80915A018093F1008091E80013
