:100000000C94F3060C942B070C942B070C941A2BCE
:100010000C942B070C942B070C942B070C942B0798
:100020000C942B070C942B070C9478320C944C33C3
:100030000C94402D0C942B070C942B070C942B073D
:100040000C942B070C942B070C942B070C942B0768
:100050000C942B070C94E32D0C942B070C942B077A
:100060000C942B070C942B070C942B070C942B0748
:100070000C942B070C942B070C942B070C942B0738
:100080000C942B070C942B070C942B070C942B0728
:100090000C942B070C942B070C942B070C942B0718
:1000A0000C942B070C942B070C942B0700050105CF
:1000B0000205030504050505000601060206030600
:1000C00004060506000701070207030704070507E2
:1000D00000080108020803080408050800090109CE
:1000E00002090309040905090000010002000300D8
:1000F00004000500000101010201030104010501E2
:1001000000020102020203020402050200030103CD
:1001100002030303040305030004010402040304AF
:1001200004040504000000000000000000000000BE
:1001300000000000000000000000000000000000BF
:10014000000000000000000000000000800080802F
:1001500080000000000080C040404060202030103F
:10016000101018080C040404040484040404040C8F
:10017000080808081810302060C0000000000000C7
:10018000000000000000000000000000000000006F
:10019000000000000000000000000000000000005F
:1001A000000000000000000000000000000000004F
:1001B000000000000000000000000000000000003F
:1001C00000000000000040A0A0A0A000BBAAABA8B7
:1001D000BB00000000000000000000000000000064
:1001E0000000000000000000003F40808080808010
:1001F000808080800080C0F0F81F010101030202AE
:1002000002020202020202020202010000000000D9
:1002100000000000000000000000000000000000DE
:1002200000000000000000000000000000000000CE
:1002300000000000000000000000000000000000BE
:100240000000000000000E0404060400B88889883D
:100250008B00000000000003010101010101010108
:100260000101010101010131090503030100000041
:1002700000000000010303070F1E38E00000010228
:100280000202020206040404040000000000000050
:10029000000000000000000000000000000000005E
:1002A000000000000000000000000000000000004E
:1002B000000000000000000000000000000000003E
:1002C0000000000000000000000000000300030028
:1002D00003000000000000000000181010101010B3
:1002E000302020202060404040404040406020209E
:1002F0002020301010180808080C04070202060419
:10030000040404040404040C0808000000000000B5
:1003100000000000000000000000000000000000DD
:10032000000000004350534C4B000A0A00556E6415
:1003300065660041646A0A0053796D626C00467517
:100340006E637300426173650A00426173650A005F
:100350004C41594552000A0A00556E646566004ECC
:10036000756D700047616D65004D6F757365004474
:10037000766F72616B00517772740057494E004D71
:10038000414300004D4F4445000A0A0029001E0069
:100390001F002000210022002B0014001A0008007A
:1003A00015001700290004001600070009000A00C4
:1003B000E1001D001B00060019000500E00001001F
:1003C000E200B45D2A00A800BD5D270026002500DC
:1003D000240023002F00130012000C0018001C0042
:1003E000340002570F000E000D000B00E50038002E
:1003F000370036001000110028000100E400B55D50
:100400002C000000165C0100010001000100010049
:100410002B0033003600370013001C0001000400DD
:100420001200080018000C00E100340014000D0058
:100430000E001B00E300E200E000B45D2A00A8000B
:1004400001000100010001000100010001000F0096
:10045000150006000A000900280016001100170008
:100460000B000700E5001D0019001A001000050030
:10047000B65DE600E400B55D2C000000010001005F
:10048000010001000100010001001E001F0020000A
:100490002100220024021F0238022F0230025600DF
:1004A0003502200222023602370257000100010005
:1004B0000100010001000100010001000100010034
:1004C00001000100E300270026002500240023008E
:1004D00031021E02210227022602340235003100B9
:1004E0002E0030002F002D0201000100010001004C
:1004F00028000100010001000100010001000100CD
:100500003A003B003C003D003E003F0039007B00CC
:100510007A007C007D000100C25DBC5DC55DC35DED
:10052000BE5DC15D01000100010001004C00010041
:10053000010001000100010001000100450044002C
:10054000430042004100400001004B004F005200B8
:100550005100500001004E00BA5DB85DB75DB95D55
:10056000010001000100010001000100015D000027
:10057000000000000000000000000000B25DB35D5C
:10058000000069000000000000000000BF5D68007E
:100590000000000000000000000000000100010059
:1005A0000100010001000000000000000000000048
:1005B00000000000C05D00000000B700B600A80009
:1005C000000000000000AE00C45D0000000000005C
:1005D000B400C85DC75D000001000100010001001A
:1005E0000100000001000100010001000100010004
:1005F000010001000100FE00FF00010001000100F8
:100600000100F100F2000100010001000100010001
:10061000010001000100010001000100B25D0100C4
:1006200001000100010001000100010001000100C2
:100630000100ED000100010001000100F000EE00EA
:10064000EF00F90001000100010001000100FA00C3
:1006500001000100010001000100010029001E004D
:100660001F002000210022002B00010001000100DA
:1006700001000100E0000100010001000100010093
:10068000E100010001000100010001000100010082
:10069000E20001002C0001000100270026002500D7
:1006A00024002300010001000100010001000100FD
:1006B000B25D0100520001000100010001004F0085
:1006C000510050000100010001000100280001005C
:1006D0002A000100010001000100010001000100E9
:1006E0000100010001000100010001000100010002
:1006F00001000100010001000100010001000100F2
:10070000010001000100010001000100B25D0100D3
:10071000010001000100010001000100540055002A
:10072000610060005F005300010056005E005D0044
:100730005C000100010057005B005A005900630093
:1007400001000100620058002A00010000AE00AF65
:1007500000DA0281FFD9F1DB20A4A62EAF00A0C0F1
:1007600000A1C800AED580A81FD300408D14200082
:1007700007087F0807003E5B4F5B3E003E6B4F6BF8
:100780003E001C3E7C3E1C00183C7E3C18001C5762
:100790007D571C001C5E7F5E1C0000183C1800008A
:1007A000FFE7C3E7FF00001824180000FFE7DBE7BE
:1007B000FF0030483A060E00262979292600407F9E
:1007C00005050700407F05253F005A3CE73C5A00DD
:1007D0007F3E1C1C0800081C1C3E7F0014227F2248
:1007E00014005F5F005F5F0006097F017F00006605
:1007F00089956A0060606060600094A2FFA2940026
:1008000008047E04080010207E20100008082A1C1E
:100810000800081C2A0808001E10101010000C1EEA
:100820000C1E0C0030383E383000060E3E0E06001E
:1008300000000000000000005F000000000700074B
:100840000000147F147F1400242A7F2A120023132F
:100850000864620036495620500000080703000073
:10086000001C224100000041221C00002A1C7F1CA9
:100870002A0008083E0808000080703000000808C0
:100880000808080000006060000020100804020052
:100890003E5149453E0000427F40000072494949AF
:1008A00046002141494D33001814127F100027459E
:1008B000454539003C4A49493100412111090700A9
:1008C000364949493600464949291E0000001400AE
:1008D00000000040340000000008142241001414FD
:1008E00014141400004122140800020159090600E2
:1008F0003E415D594E007C1211127C007F494949EE
:1009000036003E41414122007F4141413E007F4946
:10091000494941007F09090901003E4141517300E5
:100920007F0808087F0000417F4100002040413FD0
:1009300001007F08142241007F40404040007F02B8
:100940001C027F007F0408107F003E4141413E00B1
:100950007F09090906003E4151215E007F091929DE
:10096000460026494949320003017F0103003F4008
:1009700040403F001F2040201F003F4038403F00C4
:100980006314081463000304780403006159494D9B
:100990004300007F41414100020408102000004153
:1009A00041417F00040201020400404040404000F9
:1009B0000003070800002054547840007F28444476
:1009C0003800384444442800384444287F003854D0
:1009D0005454180000087E09020018A4A49C780052
:1009E0007F080404780000447D4000002040403D22
:1009F00000007F102844000000417F4000007C047C
:100A0000780478007C0804047800384444443800B2
:100A1000FC182424180018242418FC007C08040462
:100A2000080048545454240004043F4424003C402B
:100A300040207C001C2040201C003C4030403C00FA
:100A40004428102844004C9090907C004464544CFE
:100A5000440000083641000000007700000000411B
:100A6000360800000201020402003C2623263C0056
:100A7000000000000000404040F0F8F8FF38FFF8A8
:100A8000F83FF8F8FF38FFF8F8F040404000000069
:100A900000000080C0C0C0800000C0C08000000016
:100AA00080C0C000C0C0000080C0C00000000000C6
:100AB000C0C0C0C0C000C0C00000000000000000F6
:100AC0000000000000000000000000000000000026
:100AD0000000000000000000000000000000000016
:100AE000000000000000000000000000000000C046
:100AF000F0F8FC3E1E06010000007F4141417F00EE
:100B00007F4141417F000080C0E07E5B4F5BFEC0C3
:100B10000000C000DCD7DEDEDED7DC00C000000055
:100B200000000000000000000000000000000000C5
:100B3000000000000000494949FFFFFFFFE0DFBF60
:100B4000BF00BFBFDFE0FFFFFFFF494949000000D2
:100B500000001F3F6060E0BF1F007F7F071E381E40
:100B6000077F7F007F7F0E1F3B7160000000000049
:100B70007F7F0C0C0C007E7E007F7E0303007F7E57
:100B800003037E7E03037F7E000F3E703C063C70B5
:100B90003E0F00327B49493F7E007F7E0303001EEB
:100BA0003F69696F2600000000000000000000039C
:100BB0000F1F3F3C7870600000007F4141417F0083
:100BC0007F4141417F00307B7F7830202030787F2B
:100BD0003B0003000F7F0F0F0F7F0F00030000008B
:100BE0000000000000000000000000000000000005
:100BF000000000000000010101070F0F7F0F7F0FB1
:100C00000F7E0F0F7F0F7F0F0F0701010100000004
:100C100000000000000000010100000000000000D2
:100C200000000000000000000000000000000000C4
:100C300000000000000000000000000000000000B4
:100C400000000000000000000000000000000000A4
:100C50000000000000000000000000000000000094
:100C60000000000000000000000000000000000084
:100C70000000000000000000000000000000000074
:100C80000000000000000000000000000000000064
:100C90000000000000000000000000000000000054
:100CA0000000000000000000000000000000000044
:100CB0000C0353006F0066006C00650000001A030F
:100CC0004A006F0073006500660041006400610027
:100CD0006D00630069006B00000004030904090251
:100CE0003B00020100A0FA09040000010301010019
:100CF00009211101000122400007058103080001BC
:100D00000904010001030000000921110100012272
:100D10007B00070582032000011201000200000091
:100D20000832FC870201000102000105010902A14D
:100D30000185020901A100050919012908150025ED
:100D400001950875018102050109300931158125D8
:100D50007F95027508810609381581257F950175F3
:100D6000088106050C0A38021581257F9501750852
:100D70008106C0C005010980A101850319012AB7B8
:100D800000150126B700950175108100C0050C09FA
:100D900001A101850419012AA002150126A00295CE
:100DA0000175108100C005010906A101050719E0C0
:100DB00029E715002501950875018102950175083F
:100DC00081010507190029FF150026FF009506750A
:100DD00008810005081901290595057501910295FD
:100DE0000175039101C011241FBECFEFDAE0DEBF11
:100DF000CDBF04B603FE18C08091720590917305B3
:100E0000A0917405B09175058730904BA740B04B09
:100E100059F4109272051092730510927405109295
:100E20007505E0E0F8E3099512E0A0E0B1E0ECEE32
:100E3000FBE602C005900D92AE30B107D9F725E070
:100E4000AEE0B2E001C01D92A237B207E1F70E9406
:100E5000FA1D0C94D7350C940000CF93C82F0E9434
:100E60005E1B8111C3E08C2FCF9108950E945E1B01
:100E7000882309F48DC060E089E893E00E940D2288
:100E800060E084E893E00E941F2260E083E893E042
:100E90000E941F228091420360E080FF17C08FE70D
:100EA00093E00E941F2280914202909143020E948F
:100EB000770B8530E1F168F4882399F0813099F15E
:100EC00060E089E593E00E940D2210C08BE793E07B
:100ED000E8CF863081F1873099F760E08FE593E0C5
:100EE00003C060E086E793E00E941F2260E086E591
:100EF00093E00E940D2260E080E593E00E941F22B3
:100F000080914002909141020E94770B8230E1F182
:100F1000B0F4882389F18130D1F060E08DE293E074
:100F20000E941F2219C060E08FE693E0DDCF60E0F1
:100F300089E693E0D9CF60E084E693E0D5CF8330B3
:100F4000F9F0843051F760E083E393E003C060E0A0
:100F50008AE493E00E940D2260E08AE293E00E941E
:100F60000D220E94542C81FB662760F984E293E0F5
:100F70000E941F2280E0089560E084E493E0EACFBD
:100F800060E08EE393E0E6CF60E088E393E0E2CFB9
:100F900060E072E084E291E00E942522EBCFCF93E3
:100FA000FB018B3B2DE5920709F430C108F059C0D5
:100FB000843B2DE5920709F4C4C020F58C379105D8
:100FC00009F434C150F48A37910509F459C18B37BB
:100FD000910509F445C1C1E0A1C0823B2DE592070E
:100FE00009F498C008F09DC08D379105A1F7C28122
:100FF00081E0CC2309F42EC10E9413190E94350D03
:1010000089E11DC1873B2DE5920709F4B4C080F446
:10101000853B2DE5920709F4A0C0863B9D45D9F696
:10102000C28184E0CC2309F4A3C00E94B3107FC026
:10103000C28120914203893B3DE5930709F4CEC06C
:1010400008F4B5C02170CC2309F4DCC08DE4222360
:1010500009F49FC081E00E9413190E94350D8FE4AE
:10106000C9C0823C2DE5920709F43AC140F58E3B98
:101070002DE5920709F414C190F48C3B2DE59207FD
:1010800009F418C18D3B9D4509F0A5CFC28183EEBF
:10109000CC2309F421C10E94960C8CE2D0C0C281FD
:1010A000803C2DE5920709F448C008F442C081EE67
:1010B000CC2309F440C10E94960C8BE2C0C0853C51
:1010C0002DE5920709F424C170F4833C2DE59207C5
:1010D00009F412C1843C9D4509F07DCFC281CC2327
:1010E000E9F087E022C0873C2DE5920709F427C18B
:1010F00008F41EC1883C9D4509F06DCFC28180EE89
:10110000CC2309F42EC10E94960C81EE0E94960C0D
:1011100087E195C0C28180E0C11107C08C2FCF91BB
:101120000895C28181E0CC23C9F30E94A50AC0E0E2
:10113000F5CF85E0CC2391F3F8CF86E0CC2371F393
:10114000F4CFC28182E0CC2359F00E94B31044E076
:1011500063E082E00E94DC0AEACFC28183E0F3CF41
:101160000E94C31044E063E082E00E94DC0AD6CF14
:101170000E94C310D3CFC281809142038170CC23DF
:1011800059F0882389F184E00E9413190E94350DDB
:1011900080E50E94960CC2CF882391F184E00E94E2
:1011A00013190E943C0D80E50E94E20C14CF2170BF
:1011B000CC2351F0222309F44DCF84E00E9413196F
:1011C0000E94350D8FE4E5CF84E0211101C081E05C
:1011D0000E9413190E943C0D8FE4E6CF2170CC23AE
:1011E00061F08AE42223A9F281E00E9413190E948F
:1011F000350D80E50E94960CEECE8AE42223A1F202
:1012000081E0CDCF8DE4222379F2E1CFC28181E06C
:10121000CC2331F00E9413190E94350D8AE2B9CF18
:101220000E9413190E943C0D8AE2BECFC28181E068
:10123000CC2341F00E9413190E94350D86E00E94D4
:10124000960C75CF0E9413190E943C0D86E00E94F7
:10125000E20C64CF0E9413190E943C0D89E1F7CF84
:10126000C28181E0CC2331F00E9413190E94350D18
:101270008BE1E5CF0E9413190E943C0D8BE1E7CF73
:10128000C28181E0CC2331F00E9413190E94350DF8
:101290008DE1D5CF0E9413190E943C0D8DE1D7CF6F
:1012A000C28183EECC2319F00E94960CA9CE0E9435
:1012B000E20CD4CFC28183EECC2339F00E94960C8D
:1012C00081EE0E94960C86E1BACF0E94E20C81EE7C
:1012D0000E94E20C86E1BBCF0E94E20C8CE2B7CF09
:1012E000C28180EECC2321F00E94960C88E3A7CF28
:1012F0000E94E20C88E3ABCFC28180EECC2321F0C8
:101300000E94960C89E09BCF0E94E20C89E09FCF5F
:10131000C28180EECC2331F00E94960C81EE0E94B7
:10132000960CB6CF0E94E20C81EE0E94E20CB6CF82
:10133000C28182EEBDCE0E94E20C8BE288CFC281D8
:1013400082EECC2339F00E94960C81EE0E94960C1E
:1013500081E575CF0E94E20C81EE0E94E20C81E5EE
:1013600076CF0E94E20C81EE0E94E20C87E16FCF03
:10137000811108C089EA611101C08AEA0E942C0D1E
:1013800081E008958130E1F78DE193E0611102C0C1
:101390008DE191E00E944E0AF3CF9C013A95211510
:1013A0003F4150F5FC01EE27F170BC0166277270D9
:1013B000AC01442754709C012227387094FF0EC062
:1013C00080E1EF2B09F480E0672B09F08062452B68
:1013D00009F08064232B89F08068089581E0EF2B69
:1013E00009F480E0672B09F08260452B09F08460E6
:1013F000232B19F08860089580E00895CF93DF9340
:10140000EB010E94CD09FE010995DF91CF9108956E
:10141000CF93DF93EC01805E9109089720F06CEF89
:101420007FE0209711F465E37DE0CE010E94FE0984
:101430008C2F0E94960CDF91CF910895CF93DF936C
:10144000EC010E94E20CCE01805E9109089720F029
:1014500063E070E1209711F46CE37DE0CE010E941F
:10146000FE09DF91CF9108950F931F93CF93DF93E0
:101470008C01EB010E94080A209741F4C8010E94E8
:101480001E0ADF91CF911F910F9108958FE99FE080
:101490000197F1F700C000002197EECF6AE070E0FD
:1014A0008933910511F460E570E00E94340A0895D3
:1014B00081E008950E94CF07089508950E945D0A73
:1014C0000895A5E0B0E0E7E6FAE00C944E354983D4
:1014D0005A8330911D0289819A81311119C0662386
:1014E00099F0222389F00E947911182F682F8981A1
:1014F0009A810E94551169817A81812F0E94511829
:101500002596E3E00C946A350E946711182FF3CFFB
:101510000E94791169817A81F1CFFC01262F4081E7
:1015200051816281738184810E94610A089581E002
:101530000895CF93DF93EC0160E00E948D0ABE0115
:101540000E945E0ADF91CF910895CF93DF93C1E0AF
:10155000D0E002C0CC0FDD1F8A95E2F78C2F0E94ED
:10156000C115CE010E947510DF91CF910895E1E081
:10157000F0E0DF0102C0AA0FBB1F6A95E2F7BD01D0
:10158000DF0102C0AA0FBB1F4A95E2F7AD01462B4F
:10159000572B02C0EE0FFF1F2A95E2F79A0128236E
:1015A00039232417350719F48E2B9F2B0895E095C6
:1015B000F0958E239F230895242F462F682F809126
:1015C0004002909141020E94B70A0E94991008952A
:1015D0000E94B81908950E94BC19089508950E94A8
:1015E00020100E94EE0A2FEF84E39CE021508040FF
:1015F0009040E1F700C0000008950E94EF0A0E94A9
:10160000072E08950E94EF0A0E942B2E08950F9333
:101610001F93CF93DF938C0161E00E948D0AEC0150
:10162000B8010E94F228B801CE010E945A0A811125
:1016300006C080E0DF91CF911F910F910895B8010E
:10164000CE010E9413298823A1F3B801CE010E9484
:10165000C626882371F3B801CE010E94342888235E
:1016600041F3B801CE010E94DA23882311F3B801B7
:10167000CE010E94A6278823E1F2F8018281882307
:1016800061F0CB35FDE5DF0701F158F4C115ECE55C
:10169000DE0791F0CF3DDC4591F0C8010E94580A69
:1016A000C9CFCD358DE5D80769F090F0C83ADD4552
:1016B000A1F70E94020BBDCF0E94FD0ABACF0E9483
:1016C0005B16F7CF0E949A15E8CF0E94A415E5CFCC
:1016D0000E94A815E2CF0E941D2D0E94AE0B0E9411
:1016E000812308950E94B20B0E94222D0895292F74
:1016F000332740E02115310511F0C90148E09C0174
:1017000064E0369527956A95E1F72115310511F0CA
:101710004C5FC9019C013695279536952795211573
:10172000310511F04E5FC90196958795892B09F017
:101730004F5F842F089508950E949B0B089581E0C8
:1017400008950E949F0B08950895CF93C82F0E947B
:101750009C0B8C2F0E94A10BCF91089580E00E94DA
:10176000A50B08950E94402C0E94A50B0895CF93CD
:101770000E94402CC82F809110028C1779F0C093E2
:1017800010020E94AC2D609311027093120280939C
:101790001302909314028C2F0E94A50BCF910895F1
:1017A000442319F080911F0208959C0143E036956F
:1017B00027954A95E1F7620F731F8770992721E0FB
:1017C00030E001C0220F8A95EAF7FB019081922355
:1017D00081E009F480E00895FC01E770FF2721E033
:1017E00030E001C0220FEA95EAF733E0969587953D
:1017F0003A95E1F7FB01E80FF91F8081442319F0C6
:10180000282B2083089520952823FBCF0F931F9327
:10181000CF93DF938C01DC0111968C9111978A3064
:1018200048F5CC91C63030F5D0E0B6E08B9FC00DC6
:10183000D11D1124F801428165E172E0CE010E94C0
:10184000D00B40E0882389F0CE01880F991FFC015E
:10185000E355FF4FE491D8011196EC931197FC01E9
:10186000E455FF4FE491EC9341E065E172E0CE0175
:101870000E94EC0BDF91CF911F910F910895ABE087
:10188000B0E0E5E4FCE00C944F354F83588769875E
:101890007A878B8761110E94E5148A859B85892B45
:1018A00029F08F81988589238F3F39F51E821D820B
:1018B00085E0FE013796DE01119601900D928A9522
:1018C000E1F78C819D81892B61F449815A816B817B
:1018D0007C818D819E810E94E5132B96E2E00C9421
:1018E0006B3589819A8189238F3F79F3CE010196E7
:1018F0000E94970A8111E9CFF0CFCE0107960E948E
:10190000060CD4CFFC01808191810E94AB1192958D
:101910009F70963051F4863F41F080911F0291E014
:10192000892780931F0290931E020895CF93C82F9A
:101930008823B9F08CEF8C0F813AA8F46C2F80913A
:101940003601909137010E94AE2C882329F08C2F0C
:101950000E947C140E9406158C2F0E9474140E9411
:101960000615CF91089580E28C0F883048F4C77037
:1019700081E001C0880FCA95EAF70E94C514EFCF35
:10198000EBE5EC0FE33040F4F0E0EB54FE4F8081E8
:1019900090E00E94702CE5CFE8E5EC0FE73150F4C1
:1019A000F0E0EE0FFF1FE957FE4F808191810E940A
:1019B000862CD7CFCD3EA8F28C2F0E947E1E0E948F
:1019C000511FCFCF882379F19CEF980F913A28F4DB
:1019D0000E947C140E940615089590E2980F98309A
:1019E00050F4877091E001C0990F8A95EAF7892F2A
:1019F0000E94CB14EFCF9BE5980F933028F490E032
:101A000080E00E94702C089598E5980F973128F493
:101A100090E080E00E94862C08958D3E20F00E9488
:101A2000D81E0E94511F08951F93CF93DF93182F44
:101A3000EB010E94960C209739F4812F0E94E20C52
:101A4000DF91CF911F9108958FE99FE00197F1F702
:101A500000C000002197EFCF6AE070E0893311F4F5
:101A600060E570E00E94140D0895882321F00E9423
:101A7000C5140E9406150895882321F00E94CB14F6
:101A80000E9406150895B0E0A0E0E9E4FDE00C94A2
:101A900048356C01C62F172FFC01D28105810295B4
:101AA0000F700E94BB14E82E8823D1F0DD2329F1AA
:101AB000812F807F803441F090E29C0F9830E8F0D5
:101AC000803611F4C63FC9F08091420382FF15C0F1
:101AD00082E00E9469150E94BB1491E0E82EE9267D
:101AE000B12EB2949FE0B922FBE0FB15C0F1EB2DC3
:101AF000F0E0E752FA4C0C943935E12CF1CF012F8C
:101B00000F70812F807F11F00295007FDD2399F007
:101B1000002359F080E28C0F883010F0C11107C00B
:101B2000802F0E94C5140E9406158C2F6DC0802F37
:101B30000E94D814F8CF8C2F0E94E20C002379F079
:101B400080E28C0F883010F0C11104C0802F0E94F9
:101B5000CB1403C0802F0E94DE140E9406152B2D8B
:101B60002850330B2430310520F40E94402C0E9471
:101B7000A50BDD2339F0107F103611F4C63F11F0AC
:101B80000E94AE14EE2089F00E94911480FD0DC0D9
:101B9000F60112820E948B140E94B310C6010E94AB
:101BA000D20F0E948B140E94C310CDB7DEB7E9E0BC
:101BB0000C946435212F2F70F22E812F807F80327C
:101BC00019F0F29480EFF822CC2381F0C13009F4AF
:101BD00044C0DD2309F44CC0002309F443C0F601DE
:101BE000858180FFA2CF8F7085833CC080914203A6
:101BF00082FD15C0DD2359F0FF2029F08F2D0E94B2
:101C0000C5140E94061580E00E94960CA8CF80E0C3
:101C10000E94E20CFF2009F4A2CF8F2D98CFDD2384
:101C200081F0011106C00E94E8148F290E94350D31
:101C300096CF0130C1F70E94E8148F290E94EF145B
:101C40008ECF011106C00E94FC148F2D0E943C0D06
:101C500086CF013009F483CFF6CFDD2329F006309B
:101C600008F07DCF8F2DE2CF053008F078CFEDCF93
:101C7000002359F3C93309F014C1FFEF27EE33E015
:101C8000F15020403040E1F700C000008C2F0E944E
:101C9000E20C65CF812F86958695837069F081303F
:101CA00009F05DCF8C2F912F9370D11102C090E07D
:101CB00080E00E94862C53CF8C2F912F9370D111EE
:101CC00002C090E080E00E94702C49CF8C2FDD2371
:101CD00029F00E947E1E0E94511F41CF0E94D81EF3
:101CE000FACF812F8370A9F5D11139CF2C2F2295EE
:101CF00026952770220F220F4C2F4F7050E0022E96
:101D000002C0440F551F0A94E2F790E080E0C4FF40
:101D100009C08FE090E002C0880F991F2A95E2F772
:101D200080959095212F269526952370842B952BB1
:101D3000223049F058F4213019F00E9481100FCF61
:101D40000E9478100CCF0E948A1009CF0E94751053
:101D500006CF8695DD2311F0812F8170882309F449
:101D6000FECE2C2F229526952770220F220F4C2F66
:101D70004F7050E0022E02C0440F551F0A94E2F744
:101D800090E080E0C4FF09C08FE090E002C0880FBF
:101D9000991F2A95E2F780959095212F26952695F3
:101DA0002370842B952B223049F058F4213019F000
:101DB0000E94EE10D4CE0E94E510D1CE0E94F71002
:101DC000CECE0E949910CBCE012F0F70DD2329F0CB
:101DD000802F0E94B3108C2F29CF8C2F0E943C0D96
:101DE000802F0E94C310BBCEC23F41F160F4C03FC0
:101DF000B9F0C13F81F0DD2309F447C0011195CE50
:101E0000812F8F711FC0C33F01F1C43FA1F78091A3
:101E1000420382FD24C0812F8F71DD2311F312C094
:101E2000DD2341F0053008F09ACE812F8F710E949A
:101E3000D51095CE063008F092CEF7CF812F8F7156
:101E4000D111CFCF0E94B3108ACEDD2329F0812F8C
:101E50008F710E94A71083CE0E94A21080CEDD2336
:101E600051F0012F0F71802F0E94B31063E0802F7B
:101E70000E944B1574CE81E00E946915023008F46F
:101E80006ECE82E00E9469156ACE002379F0C933D4
:101E900041F49FEFE7EEF3E09150E040F040E1F7CE
:101EA000F3CE8FE39CE90197F1F7EECE812F8F718E
:101EB00098CFE0E1EC0FE73090F5F0E0EB51FA4C11
:101EC0000C943935DD2309F44ACE80911F0291E04C
:101ED000892780931F0243CED0931F0240CE81E01A
:101EE0008D27F7CFD1113BCE81E0F3CFD11137CE83
:101EF00010921F0234CEDD2319F00E9495142FCECC
:101F00000E94A1142CCEDD2339F080911E0288237B
:101F1000E1F210921E0223CE0530B8F220CE80915D
:101F20001E020023D9F0882341F080911F0291E026
:101F3000892780931F0210921E02D111F6CDEFE384
:101F4000FCE93197F1F700C000008C2F0E94E20CF1
:101F500086E0F60111928A95E9F701CE882309F40B
:101F6000FECDD111FCCD80911F0291E08927809395
:101F70001F02CFCF0F931F93CF93DF93EC016881A4
:101F800079818A810E94B6118C010E9400110E9401
:101F90007410B801CE010E94430DDF91CF911F91C3
:101FA0000F910895CF93DF93EC018B819C81892B56
:101FB00029F08881998189238F3F51F4DF91CF9156
:101FC0000895CE010E94BA0FCE010E94990AF6CF61
:101FD000CE010E94070B8111F4CF0E94BB1488230D
:101FE00069F38A81882351F38091420382FFE6CF0F
:101FF00082E00E946915E2CF882321F00E94D81464
:102000000E9406150895882321F00E94DE140E9484
:102010000615089590E080E00E94702C90E080E02A
:102020000E94862C0E94E5140E9406150E946D1FD6
:102030000E94511F08950E9484140E940A1008955E
:102040000E94D2140E941B10089592959F709630A2
:1020500091F058F4925F9F70923058F4803F19F0DD
:1020600030F4883E30F481E008959A5FF4CF843FE5
:10207000D1F380E00895883EB0F3813FD1F7F3CFEC
:10208000FC0183819481892B29F0808191818923AE
:102090008F3F11F480E00895808191810E94AB11FF
:1020A0000E9425100895A5E0B0E0E9E5F0E10C9468
:1020B0004F352596E2E00C946B35A6E0B0E0E3E600
:1020C000F0E10C944F352696E2E00C946B350895C0
:1020D0000E94671008950E946810909343028093B5
:1020E00042020E940A10089508950E946B100895FC
:1020F0002091420230914302822B932B0E946B105D
:1021000008952091420230914302822393230E943A
:102110006B10089520914202309143028227932749
:102120000E946B1008950E94671008950E949310FA
:1021300008950E94961090934102809340020E945D
:102140000A10089590E080E00E949910089521E01F
:1021500030E0A90102C0440F551F8A95E2F7CA0179
:102160000E949910089521E030E002C0220F331F31
:102170008A95E2F78091400290914102822B932B45
:102180000E949910089521E030E002C0220F331F11
:102190008A95E2F720953095809140029091410216
:1021A000822393230E949910089521E030E002C019
:1021B000220F331F8A95E2F78091400290914102ED
:1021C000822793270E949910089520914002309110
:1021D0004102822B932B0E94991008952091400276
:1021E00030914102822393230E94991008952091F7
:1021F000400230914102822793270E94991008954E
:102200000895262F277091E001C0990F2A95EAF7CB
:1022100023E0769567952A95E1F7660F771F660F9D
:10222000771FFA01E60FF71F50E040E0682F70E0DB
:102230008191DF0111979B01042E02C036952795ED
:102240000A94E2F7217021952827292328272C9327
:102250004F5F5F4F4430510559F70895A82FA7707D
:1022600023E0969587952A95E1F7880F991F880FA7
:10227000991FFB01E80FF91F50E040E080E0219139
:1022800030E00A2E02C0369527950A94E2F72170B5
:102290003327042E01C0220F0A94EAF7822B4F5FE6
:1022A0005F4F4430510559F70895262F9A3070F446
:1022B000863060F4682F70E086E0989F600D711D95
:1022C000112440E252E0822F0E9401110895292F2B
:1022D0009A3068F4863058F490E060E272E036E0BC
:1022E000239F800D911D11240E942E11089580E0DE
:1022F0000895B0E0A0E0EFE7F1E10C9448357C01EF
:10230000009140021091410280914202909143025B
:10231000082B192BCFE0D0E0CC24C394D12CBC2EB9
:10232000C6010C2E02C0880F991F0A94E2F7802381
:102330009123892B49F4219790F7B12C8B2DCDB7A0
:10234000DEB7E9E00C946435B7018C2F0E946C185D
:10235000019789F3F3CFCF93DF93EC010E947911BA
:10236000BE010E946C18DF91CF9108951F93CF9307
:10237000DF93EB0190911D02992339F0CB010E946C
:10238000AB11DF91CF911F910895882369F0CB01A4
:102390000E947911182F682FCE010E945511BE019D
:1023A000812F0E946C18EDCFCB010E946711182F6E
:1023B000F6CF1F93CF93DF93C091440216E0809134
:1023C00045028C1304C0DF91CF911F910895D0E096
:1023D0001C9FF0011D9FF00D1124EA5BFD4F408111
:1023E000518162817381848195810E945D10219663
:1023F000C770E5CF409176025091770260917802E4
:102400007091790280917A0290917B020E945D1016
:1024100008951F93CF93DF9380917B02807F09F013
:1024200049C080917802882309F444C08091440215
:10243000C09145026091760270917702A091790275
:10244000B0917A02D62FD72316E0C81799F190E001
:10245000109711F0DF3F19F401968770F6CF189F9F
:102460009001199F300D1124F901EA5BFD4F418164
:102470004713F2CF40814613EFCF42814111ECCF99
:10248000438154814A1B5B0B4F3A510528F78091D9
:102490007B028F70806180937B02F901E55BFD4FC9
:1024A00080818F708061808386E792E00E94D20FE6
:1024B0000E94D911DF91CF911F910895A1E1B0E061
:1024C000E4E6F2E10C9447358C0185E0F801DE0189
:1024D0001D9601900D928A95E1F7F801E28086E75A
:1024E000C82E82E0D82E6091790270917A0261152F
:1024F000710509F44EC19091760220917702892FDF
:1025000082238F3F09F445C140815181A380B4806B
:10251000F0907802F501E61BF70BFF2009F4EAC002
:1025200080917B02382F307FEF3AF10508F0A3C08D
:1025300031116DC0FE2C251316C0941314C0E11088
:1025400012C08F70806180937B020E94FA11C601D5
:102550000E94D20F80917B02F80185838F2D6196B6
:10256000EAE00C946335A114B10429F0842F85238B
:102570008F3F09F027C180E0F82FF170DF2E80FF38
:102580003CC0809144022091450236E0821315C080
:102590004D875E878D859E850E94AB11292F2295E0
:1025A0002F702230F0F0243018F59F70F1F0F80110
:1025B0009581907FD1F4D12C1EC090E0389FF0011E
:1025C000399FF00D1124EA5BFD4F6181651306C050
:1025D0006081641303C06281E6120FC001968770A8
:1025E000D5CF9F7011F0882331F3805E883018F3C7
:1025F000C8010E94D20FFD2CB1CFEE2009F4AECF5E
:1026000080917B02816080937B02F12CA7CF251300
:1026100006C0941304C0F801EE2009F487C0C80175
:102620000E944010882319F1EE2009F180917B026D
:10263000803270F0209176023091770238872F83B4
:102640001986BB86AA868C87CE0107960E94D20F78
:1026500086E0F801A6E7B2E001900D928A95E1F7D5
:102660000E9409120E94FA11FF24F39477CFC80147
:102670000E94D20FF9CF311113C07A2DB98AA88ADE
:102680006E2D89890E94531086E792E00E94D20F36
:1026900086E0F60111928A95E9F70E94FA11B5CF0A
:1026A00025130FC094130DC0E1100BC0F8018583F2
:1026B000C8010E94D20F86E0F60111928A95E9F7CF
:1026C0004DCFC8010E944010882389F2EE2079F294
:1026D00080917B02803208F4BBCF2091760230914A
:1026E00077023A8329831B82BD82AC828E83CE011E
:1026F0000196ACCFEF3AF10508F03EC0FE2CEE207B
:1027000009F4B5CF25132AC0941328C080917B0209
:1027100080FD1BC0982F907FC1F0F8018583903F0A
:1027200031F0982F907F905F8F70892B8583C8013F
:102730000E94D20F86E0F801A6E7B2E001900D9268
:102740008A95E1F70E94FA1109CF86E0F801A6E721
:10275000B2E001900D928A95E1F700CFC8010E9486
:102760004010811175CF80917B02816080937B0244
:10277000C8010E94D20FF2CE7A2DB98AA88A6E2D96
:1027800089890E94531086E0F60111928A95E9F733
:10279000D9CFEE2009F46BCFC8010E944010F82E6B
:1027A000882309F464CF86E0F801A6E7B2E001903F
:1027B0000D928A95E1F786E792E00E94820C0E94D2
:1027C0000912C0CF81E08E25D7CEACE0B0E0EBEEB1
:1027D000F3E10C944E354F83588769877A878B874E
:1027E0009C87CE0107960E945E12882369F08A8535
:1027F0009B85892B39F04F815885842F85238F3F06
:1028000009F06BC016E05FC086E0FE013796DE017E
:10281000119601900D928A95E1F78A859B85892B07
:1028200089F38F81988589238F3F61F32091450239
:1028300030E0C901019687709927409144024817FA
:10284000190671F40E942010109245021092440261
:1028500086E0E6E7F2E0DF011D928A95E9F7D2CF44
:1028600096E0929FD001939FB00D1124AA5BBD4FBB
:10287000FE01319601900D929A95E1F78093450201
:102880000E94D911BFCF819FC00111248A5B9D4F47
:102890000E945E128823E9F0E09144021E9FF0013D
:1028A0001124EA5BFD4F40815181628173818481F3
:1028B00095810E945D108091440290E0019687709E
:1028C0009927809344028091440290914502891394
:1028D000DACF2C96E3E00C946A3569857A858B858E
:1028E0009C850E945D108ECF682F8091360190915B
:1028F00037010E94E42C0895682F80913601909151
:1029000037010E94E72C089580913601909137019C
:102910000E94EA2C0895809185028595859585957C
:102920000895809185028770089582E080938402E3
:1029300081E080931F0208951092840210921F027A
:10294000089580918402823021F481E08093840292
:102950000895833011F40E949C140895809184029C
:10296000823021F483E0809384020895813011F451
:102970000E949C14089590918502977081E009F45B
:1029800080E0089580919002089590919002892BA3
:10299000809390020895809590919002982390934F
:1029A0009002089510929002089580918F020895E8
:1029B00090918F02892B80938F020895809590913A
:1029C0008F02982390938F02089510928F0208959A
:1029D00080918602089508950E94EB1408959091C5
:1029E000420392FF08C090918602981721F08093CD
:1029F00086020E94EC14089580918602882329F0B3
:102A00001092860280E00E94EC140895CF93DF9329
:102A1000E0913601F0913701809190028083E0913E
:102A20003601F0913701808190918F02892B80834C
:102A300090918602992381F0E0913601F09137015F
:102A40008081892B808380913601909137010E948B
:102A50009C2C81110E94FC14C0913601D091370149
:102A600048E050E06CE772E0CE010E947F35892B90
:102A700059F088E0FE01ACE7B2E001900D928A9532
:102A8000E1F7CE010E94572CDF91CF910895089570
:102A90000E94471508959091420392FF11C098E05B
:102AA000899F90011124622B609385020E94B310CC
:102AB000809185028595859585950E944815089594
:102AC0000E94B31008951092850280E00E9448157C
:102AD0000895909185028095892380938502282FFF
:102AE000277091F4282F082E000C330B9217130631
:102AF00059F09091420392FF07C085958595859581
:102B00000E94C3100E94631508959091420392FBA6
:102B1000222720F9281769F080FB92F9909342034D
:102B200080914103909142030E94D51582E00E945A
:102B3000691508958091420382FB882780F991E00E
:102B400089270E948515089581E00E9485150895C2
:102B500080E00E948515089590E080E00E949D35F8
:102B600021E0883E9E4F09F020E0822F089582E008
:102B700090E00E949535089583E090E00E9495359D
:102B80000895682F83E090E00E94A3350895CF93C5
:102B900084E090E00E949535C82F82E290E00E9488
:102BA0009535982F8C2FCF910895CF93C92F682FEB
:102BB00084E090E00E94A3356C2F82E290E00E94B6
:102BC000A335CF910895AB01BC018FE090E00E9446
:102BD000B5350895AB01BC0183E190E00E94B535A5
:102BE000089560E070E0CB010E94EA15089560E06E
:102BF00070E0CB010E94E3150E94F115089568EE84
:102C00007EEF90E080E00E94C13560E082E090E0DD
:102C10000E94A33560E083E090E00E94A33510920B
:102C200043021092420260E084E090E00E94A335EB
:102C300064E082E290E00E94A33560E085E090E0ED
:102C40000E94A33560E086E090E00E94A3356FEF1C
:102C500087E090E00E94A33540E050E0BA0188E0B0
:102C600090E00E94B53560E08DE090E00E94A335D1
:102C700040E050E0BA0188E190E00E94B53560E0A4
:102C800087E190E00E94A33540E050E0BA018CE17A
:102C900090E00E94B53570E060E080E290E00E9434
:102CA000C13540E050E0BA0188E190E00E94B535BE
:102CB0000E94F71508950E94FF150895682F8EE071
:102CC00090E00E94A33508950E94AC2D6093A50268
:102CD0007093A6028093A7029093A8026093A1022A
:102CE0007093A2028093A3029093A40208950E947D
:102CF000AC2D6093A5027093A6028093A7029093D7
:102D0000A80260939D0270939E0280939F0290930D
:102D1000A0020895089508950E948B1608950895BD
:102D20000E948F16089586E999E10E94362C0E9430
:102D30008A160E948C1608950E945E1B08950895BD
:102D400008950E949F160E94A01608950E94991946
:102D50000E94A40B08950E94972D0E9456190E946C
:102D6000791B0E94BF1A0E94A6160E948B2080E049
:102D70000E94E3200E9452250E94831B0E9490160D
:102D800008950E945E1B882321F00E946E290E94F4
:102D90008A270895AAE0B0E0E0EDF6E10C9447350B
:102DA0000E94E21A83E9A82E82E0B82E750110E095
:102DB000F70101917F01812F0E94BF191F5F1A3017
:102DC00009F441C00817A1F38091A90281FD0E9476
:102DD000C5190E949C16C82E10E0812F0E94BF19B1
:102DE000082FF50181915F01081731F1D02ED82607
:102DF000F12CEE24E3948D2D8E21B1F0CC20A1F0A6
:102E0000FE821F8391E0802F8E2109F490E0988745
:102E10000E94A02D8160782F9A8789874E815F81DB
:102E200068858A850E943F0CF394EE0CF6E0FF1251
:102E3000E2CFF501319700831F5F1A3071F60E94CF
:102E4000641611E021C00813BFCF0E94A02D8C0191
:102E5000809191029091920208171907A1F08FEFCB
:102E600089838A831B820E94A02D8160782F9D8395
:102E70008C8349815A816B818D810E943F0C109314
:102E800092020093910210E00E94C1160E94D62582
:102E9000082F81110E9477160E94A223111101C0F0
:102EA00001110E9465220E948F1F0E94B70B2A9673
:102EB000EAE00C946335CF93DF930E947118EC0124
:102EC000811522E5920708F048C0811531E5930786
:102ED00008F0B0C0883E910530F5803E910508F0BD
:102EE00092C0883A910588F4853A910508F084C02B
:102EF0008130910509F487C0009709F484C00497D4
:102F000008F081C0D0E0C0E07EC08F3B9105D0F7D3
:102F1000C85AD0E0CC0FDD1FC854DE4F0990D881CD
:102F2000C02DD46470C0811540E2940750F4C115DF
:102F300081E0D80708F067C0CD3ED10518F3D06511
:102F400062C0811520E49207E8F2811530E593070D
:102F500008F05DC0DF70D06A56C08115964518F53F
:102F6000C11585E5D80708F07EC0C11524E5D20754
:102F700008F074C09E01237033279C2F9695969578
:102F8000C115D34508F45BC0C1E0D0E002C0CC0F4E
:102F9000DD1F2A95E2F730E2939FC0011124C82B70
:102FA000D92BDA6830C0C11589E5D80768F4C11596
:102FB00028E5D20708F062C0C11537E5D30708F04D
:102FC000A1CFDD27D0661FC0C1154AE5D40708F49C
:102FD0005AC0CE0190568115904208F093CF8D2FA4
:102FE0008F710E94131990E0982F882788279F716E
:102FF0009C012C2BE90140C0C55AD0E0CA51DE4FDC
:10300000C881D0E0D064CE01DF91CF910895837064
:10301000992721E030E002C0220F331F8A95E2F7A2
:10302000C695C69540E2C49FE0011124C22BD32B64
:10303000DD68E9CFD82FCC27C16FD06AE4CFC1E0DB
:10304000D0E002C0CC0FDD1F2A95E2F720E2929F6C
:10305000C0011124C82BD92BDC68D5CFDC2FCC279D
:10306000C46FD06AD0CF8C2F0E941319C82FD0E024
:10307000DC2FCC27CC27DF71D062C5CFDC2FCC274B
:10308000C06FD06AC0CF8C2F8F700E94131934E0AC
:10309000D695C7953A95E1F7CF709C2FEC01D06992
:1030A000B2CF972F7A30A8F4663098F470E026E01B
:1030B000929F600D711D1124FB019CE3899FE00D1F
:1030C000F11D1124EE0FFF1FE457FC4F85919491E1
:1030D000089580E090E008950E9451180E945B17C7
:1030E000089582389105B9F1B0F48133910509F45E
:1030F0007DC048F48932910509F46DC08A3291058A
:1031000009F47BC008958533910509F45FC08933C4
:10311000910509F10895833E9105D9F138F4803E77
:10312000910529F1823E910579F10895863E910538
:10313000D9F1873E910509F43EC0843E910541F5E1
:103140002091420321FF24C08091410384FD19C0D6
:1031500087EE90E0089520914103237009F05AC052
:103160002091420323FF14C089E290E0089520914A
:10317000410320FD38C03091420330FF09C024FFD5
:1031800043C090E080E008952091410322FDF7CFF5
:1031900008952091410322FD3AC03091420330FD51
:1031A00039C024FFF5CFEDCF2091410323FFF0CFAD
:1031B00024FDE7CFCDCF2091410323FD2EC03091D8
:1031C000420331FFEECF84EE90E008952091410359
:1031D00025FFDECFC9CF2091410325FD21C02091DD
:1031E000420323FFD5CF89E390E0D2CF2091410362
:1031F00026FFCECF8AE290E008952091410326FF7A
:10320000C7CF81E390E0089583EE90E0089582EEC9
:1032100090E0089580EE90E0089586EE90E00895A5
:1032200085E390E008959091410392FF06C0282F16
:1032300028712830F9F4877F846093FF06C0282F17
:1032400028712831F1F4877E84612091420320FFA8
:1032500006C0382F38713830D9F4877F816021FF5C
:1032600006C0282F28712831D1F4877E816194FD12
:10327000877E0895282F24712430F9F68B7F88608B
:10328000DCCF282F2471243101F78B7E8861DDCFBC
:10329000382F3171313019F78E7F8860E0CF282FB9
:1032A0002171213121F78E7E8861E1CF10923D039B
:1032B00010923E0310923F03109240030895CF9264
:1032C000DF92EF92FF926B017C010E945E1B8111E5
:1032D0000EC00E94AC2DC61AD70AE80AF90AC0929D
:1032E0003D03D0923E03E0923F03F0924003FF90F3
:1032F000EF90DF90CF9008950F931F930E945E1B75
:10330000882329F00E94AC2D1F910F9108950E94EF
:10331000AC2D00913D0310913E0320913F0330916D
:103320004003600F711F821F931FEECF80E008954E
:1033300008950E94AC15811102C00E945B160E9484
:10334000B7158093A9020E94C715909342038093FA
:1033500041030E9498190E94BC1590E00E947510CC
:1033600080914002909141020E9496100895089524
:103370000E94B719089508950E94BB190895E82F77
:10338000F0E0E25BFC4F80810895089580EA8A9521
:10339000F1F7089500C008950E94C6190895089590
:1033A0000E94CF190895A5E0B0E0E9EDF9E10C9491
:1033B0004B350E945E1BF82E60915803882309F458
:1033C00040C085E0E82E8E010F5F1F4FF8018E2D63
:1033D00011928A95E9F7862F90E0B801825B9C4FA5
:1033E0000E94911B8823B9F08091430390E045E04F
:1033F00050E0B801825B9C4F0E947F3521E0209312
:10340000AA02892B91F4F12C0E94EB0A8F2D2596AC
:10341000E6E00C9467358091AA028823A1F3F801B5
:103420001192EA94E9F71092AA02A0914303B0E046
:10343000A25BBC4F85E0F80101900D928A95E1F7FF
:10344000E3CF70E0625B7C4F8091430390E0825B4E
:103450009C4F0E94181C0E94D019D8CFF894E82FD6
:10346000E295EF70F0E031A1282F2F7081E090E01D
:1034700001C0880F2A95EAF7982F9095932391A37E
:1034800092A1892B82A378940895CF93DF93CFEEF6
:10349000D1E089918F3F11F00E942E1A81E0C43F44
:1034A000D807B9F7C9EED1E089918F3F11F00E949A
:1034B0002E1A81E0CF3ED807B9F7DF91CF9108955A
:1034C000B0E0A0E0E6E6FAE10C944935EC01D62E36
:1034D000062F10E0C80181519E4F7C01FC018081C4
:1034E0008F3F09F445C0F894E82FE295EF70F0E0C3
:1034F00091A18F7021E030E001C0220F8A95EAF798
:10350000892F822B81A382A12095282322A378943E
:103510000E94CA19E9EEF1E04FEE51E031E0C12C12
:1035200021912F3F51F1A22FA295AF70B0E090965C
:103530008C9190E02F7002C0959587952A95E2F7BF
:1035400080FD1BC0832FC82A330F4E175F0741F73A
:10355000F70180818F3F11F00E942E1A61E0C110A7
:1035600001C060E08D2D0E94CC19C00FD11FC88210
:10357000CDB7DEB7E8E00C94653580E0E4CF80910C
:1035800038018091380195E0811190E090935803C3
:1035900085E0891B809343030E94451A8AE0EEE48C
:1035A000F3E0DF01982F1D929A95E9F7E4E4F3E048
:1035B000DF011D928A95E9F785E00E94201B0E9499
:1035C000E80A0895AAE0B0E0E8EEFAE10C944C3580
:1035D0008E010F5F1F4F8AE0F80111928A95E9F77B
:1035E000F12C6F2DC8010E94601AF394F5E0FF12D0
:1035F000F8CF4AE050E0B80184E493E00E947F35C0
:1036000021E0009709F420E0892B41F08AE0F801DD
:10361000A4E4B3E001900D928A95E1F7609158031C
:1036200070E0625B7C4F45E084E493E00E94211BE4
:10363000182F0E94D319812B2A96E5E00C94683547
:103640000895CF92DF92EF92FF920F931F93CF9343
:103650006C017B01042F222349F081E08093AD02AD
:103660000E94A02D9093AC028093AB02C091AD025A
:10367000C1110AC0C0E08C2FCF911F910F91FF9014
:10368000EF90DF90CF9008958091AB029091AC02C3
:103690000E94B82D059770F310E0A801B601C7018C
:1036A0000E947F35892B41F0A801B601C7010E9415
:1036B0008C351092AD02DFCFC0E0FBCF8091B0021D
:1036C000811107C00E94F834882351F081E0809373
:1036D000B00281E09091B002913009F080E008954D
:1036E00082E08093B0020E94F334F3CF0E945E1B0D
:1036F00008950E94761B809338010E945E1B811101
:103700000E94C71B08950E945E1B811102C00E9487
:10371000CA1B089581E09091B1029A3008F080E0D0
:1037200008950F931F93CF93DF93EC018B0180914A
:10373000B1028A30B8F4B801CE010E94151CC82F1E
:10374000811122C08091B1028F3FB9F40E94A02D57
:103750009093AF028093AE028C2FDF91CF911F9197
:103760000F9108958091AE029091AF020E94B82D02
:10377000843F914000F7C0E0EFCF8F5F8093B102AC
:103780008A3020F7C1E0E8CF1092B102E5CF0E9465
:10379000D42A08950E94D72A0895B0E0A0E0E3ED6E
:1037A000FBE10C944A357901C82F880FDD0B4115D8
:1037B0005105A9F0FE0193E0EE0FFF1F9A95E1F786
:1037C000E75CFE4F818192818E549D4F208130E0D5
:1037D0004217530708F49A01A9010E948C35CE01C3
:1037E0000E94C02BD82E8823D1F001151105B9F005
:1037F00083E0CC0FDD1F8A95E1F7FE01E75CFE4F09
:10380000438150E00417150708F4A801C75CDE4F98
:103810006C817D816E547D4FC7010E948C358D2D4A
:10382000CDB7DEB7E7E00C9466350E94731D0895AE
:103830000E949C1D0895A4E0B0E0E1E2FCE10C943C
:103840004D356091D0027091D1028091D202909159
:10385000D3020E94C72D11E06436710581059105E0
:1038600018F10E947C196E5F7F4F8F4F9F4F6983C5
:103870007A838B839C8310E000E030E020E044E01A
:1038800050E0BE016F5F7F4F84E00E94CD1B182F78
:10389000882351F00E94AC2D6093D0027093D10226
:1038A0008093D2029093D302812F2496E4E00C946B
:1038B0006935A1E0B0E0EFE5FCE10C944435762EEB
:1038C0004A015901680101E010E09E012F5F3F4F5E
:1038D00050E040E070E060E00E94CD1B182F88238C
:1038E00099F1F40160817181828193810E94C72DD9
:1038F000643671058105910500F18701950150E05D
:1039000040E070E060E0872D0E94CD1BB82EB7012B
:10391000C6010E948C2011E09981981310E01B21B0
:1039200039F00E94AC2DF40160837183828393830C
:10393000812F2196EDE00C946035B701C6010E94FD
:103940008C2099818913D9CFA701B601C5010E94A6
:103950008C35EECFA1E0B0E0E0EBFCE10C944B3510
:103960000091F4011091F501095F1F4FEE24E394DB
:10397000F12C9E012F5F3F4F4CEC52E063E082E060
:103980000E94591C182F882321F0CE0101960E9415
:103990006626812F2196E6E00C946735A5E0B0E01D
:1039A000E4EDFCE10C9449356B010091F4011091B8
:1039B000F5010F5F1F4F85E0E82EF12C9E012F5F70
:1039C0003F4F48EC52E061E080E00E94591C8823A0
:1039D00049F095E0FE013196A3ECB2E001900D9222
:1039E0009A95E1F795E0E3ECF2E0D60101900D92B3
:1039F0009A95E1F72596E8E00C946535B0E0A0E0F3
:103A0000E4E0FDE10C9447357C015B016A010E9412
:103A10008A1B01E010E0882311F00AE010E0C1E009
:103A2000D0E0B501C701F6010995811104C02196C6
:103A30000C171D072CF4CDB7DEB7EAE00C94633504
:103A4000CC9F9001CD9F300D300D112490E080E08F
:103A500045E34A95F1F70000019682179307C1F7F5
:103A6000E0CFA1E0B0E0E7E3FDE10C944D350E942A
:103A70009C23082F8983E091F401F091F5011485CE
:103A80006091D4027091D5028091D6029091D702B4
:103A90000E94C72D643671058105910530F4812F90
:103AA00090E011E008171906C9F010E000E030E0DE
:103AB00020E041E050E0BE016F5F7F4F85E00E9453
:103AC000CD1B182F882351F00E94AC2D6093D40297
:103AD0007093D5028093D6029093D702812F2196BE
:103AE000E4E00C9469350F931F93CF93DF93EC01BF
:103AF0008B014EEC5CE10E94FE1C811106C080E04F
:103B0000DF91CF911F910F9108954AEA5CE1B801CE
:103B1000CE010E94FE1C882391F34BE15CE1B801C9
:103B2000CE010E94FE1C882351F341E35DE1B80100
:103B3000CE010E94FE1CE4CFA1E0B0E0E2EAFDE18C
:103B40000C9449350091F4011091F501C8010196DA
:103B500025E0FB01DC0101900D922A95E1F765E07B
:103B600070E00E948C20F8018083CE0101960E94B3
:103B70005B268981F801878361E070E0CE010196C0
:103B80000E948C20F80186836085718582859385EB
:103B9000C090BF02D090C002E090C102F090C2027B
:103BA0006C157D058E059F0551F06093BF027093E3
:103BB000C0028093C1029093C2020E945F19F80173
:103BC0008485882331F00E9465222196E8E00C94D8
:103BD00065350E948123F9CF0E94CE2F0E94AB163B
:103BE0000E94DB2F08950E94E02F0E94CA160E94B7
:103BF000FA2F08950E94392D0E94B42F0E94931627
:103C00000E94EC1D0E94F31D0E94A116FBCF809123
:103C1000DE0280FF0DC060916E0170E0660F771FBD
:103C20006038710570F56115710569F1862F089589
:103C300081FF07C060916E0184E0689FB00111248C
:103C4000EFCF60916E0182FD0AC08091DD02882372
:103C5000A9F020916D0160916E01821710F088E04B
:103C6000ECCF869FC001112433E0880F991F3A954D
:103C7000E1F7622F70E00E942535D2CF68E070E056
:103C8000D5CF8FE7089581E008958091DE0280FF0F
:103C90000CC060916A0170E07595679575956795A0
:103CA0006115710549F1862F089581FF06C0609165
:103CB0006A0170E075956795F3CF60916A0182FDA6
:103CC0000BC09091DC029923A1F060916901809171
:103CD0006A01961738F0682F70E06038710500F3BC
:103CE0008FE70895899FC001112470E00E94253557
:103CF000F4CF61E070E0D7CF81E008958D3E31F4DC
:103D00000E94071E81958093E20208958E3E19F469
:103D10000E94071EF8CF8F3E31F40E94071E819546
:103D20008093E1020895803F19F40E94071EF8CFA6
:103D3000893F29F40E94451E8093E30208958A3F3B
:103D400021F40E94451E8195F7CF8B3F31F40E94EC
:103D5000451E81958093E40208958C3F19F40E94DA
:103D6000451EF8CF9FE0980F983070F4815F990B53
:103D700021E030E001C0220F8A95EAF78091E0024D
:103D8000822B8093E00208958D3F31F48091DE0212
:103D900081608093DE0208958E3F21F48091DE02DF
:103DA0008260F7CF8F3FB9F78091DE028460F1CF58
:103DB0004091E1028D3E59F48091E20287FF0DC0EF
:103DC0001092E20241110BC01092DD0208C08E3E3B
:103DD00081F48091E20218169CF3442381F08091D3
:103DE000E3029091E402892B09F05AC01092DC02A0
:103DF00008958F3E49F447FFF0CF1092E102809181
:103E0000E2028111ECCFE0CF803F19F41416ACF33D
:103E1000E4CF9091E302893F29F41916F4F6109249
:103E2000E302DBCF8A3F19F497FFD7CFF8CF909109
:103E3000E4028B3F29F497FFD0CF1092E402CDCF5C
:103E40008C3F19F41916CCF3C8CF9FE0980F983027
:103E500090F4815F990B21E030E0B90102C0660F58
:103E6000771F8A95E2F7CB0180959091E002892334
:103E70008093E002B2CF8D3F31F48091DE028E7FDD
:103E80008093DE02AACF8E3F21F48091DE028D7FE7
:103E9000F7CF8F3F09F0A1CF8091DE028B7FF0CF6B
:103EA00008950E94A02D9C019091E1028091E20270
:103EB000982B21F03093DB022093DA029091E302F9
:103EC0008091E402982B21F03093D9022093D802FC
:103ED0008FED92E00E94622C089586E0EFEDF2E013
:103EE000DF011D928A95E9F71092DD021092DC0243
:103EF0001092DE020895FC01828181110EC083813F
:103F000081110BC08481811108C091E085818111EC
:103F100001C090E0892F8170089581E0FCCFA6E078
:103F2000B0E0E5E9FFE10C944E3586E0EFEDF2E01C
:103F3000DE01119601900D928A95E1F71092E1024F
:103F40001092E2021092E3021092E4028B819C81B3
:103F5000892B89F08091DA029091DB020E94B82DC2
:103F6000AC019091DD029923C9F180916F01841712
:103F7000150608F440C08D819E81892B91F08091B7
:103F8000D8029091D9020E94B82DAC019091DC0228
:103F9000992309F471C080916B018417150608F408
:103FA00079C0BE016F5F7F4F8FED92E00E94F12CD0
:103FB000811105C08FED92E00E947B1F81110E944C
:103FC000511F86E0FE013196AFEDB2E001900D92F7
:103FD0008A95E1F72696E3E00C946A35209170010A
:103FE0008AE0289F900111242417350720F69F5F4F
:103FF0009093DD0202C09F3FD1F71B81112359F03E
:104000000E94071E9FEF11160CF491E0899F802DEE
:1040100011248093E1021C81112359F00E94071E94
:104020009FEF11160CF491E0899F802D112480934D
:10403000E2023091E102332309F49DCF2091E202A4
:10404000222309F498CF45EB3403C00111249923AE
:1040500059F09093E10245EB24039001112433239E
:1040600039F03093E20287CF81E08093E102F3CF11
:1040700081E08093E2027FCF20916C018AE0289F4B
:10408000900111242417350708F08BCF9F5F909380
:10409000DC0202C09F3FD1F71D81112359F00E941D
:1040A000451E9FEF11160CF491E0899F802D11247D
:1040B0008093E3021E81112359F00E94451E9FEF59
:1040C00011160CF491E0899F802D11248093E40255
:1040D0003091E302332309F464CF2091E4022223D8
:1040E00009F45FCF45EB3403C0011124992359F043
:1040F0009093E30245EB240390011124332339F01C
:104100003093E4024ECF81E08093E302F3CF81E06D
:104110008093E40246CF0895FC01680F791F8FEF6A
:1041200091E36E177F0709F408952191822728E013
:1041300030E087FF06C0880F892721503109C9F771
:10414000F0CF880FFACFB0E0A0E0E9EAF0E20C94FB
:1041500049356C017B0164E670E088E70E94942990
:10416000EC0197FD12C010E000E0F601E00FF11F36
:10417000849164E670E00E94002AEC01892B29F406
:104180000F5F1F4F0E151F0581F70E94762ACE0183
:10419000CDB7DEB7E8E00C9465350895E9E5F3E0C6
:1041A00080E092E0DF019C011D9221503040E1F758
:1041B000F0936005E0935F058FEF9FEF90931103FD
:1041C0008093100308950E94CD200E942D078093B4
:1041D0000C0380FD0FC080E880930B030E948E29A2
:1041E0006DE070E083E697E00E94A320892B21F028
:1041F00080E0089580E2F0CF80910C0363E070E0EE
:1042000081FD26C080E697E00E94A320892B81F7DC
:104210006DE070E080E597E00E94A320892B41F7D4
:104220000E94AC2D605A75418F4F9F4F60935B0584
:1042300070935C0580935D0590935E050E94CE208F
:1042400081E080930F0380930E0310920D03089575
:104250008DE597E0D9CF20910B0336E0839FC00115
:104260001124629F800D911D1124811522E0920777
:1042700014F090E080E0875A9C4F90936005809303
:104280005F05089520915F05309160052355334007
:1042900040910B03642F70E0C9010E941135481B47
:1042A000463010F4240F311D211582E0380710F03C
:1042B00030E020E0275A3C4F3093600520935F05A3
:1042C00008951F93CF93DF93162F8A3039F481E03E
:1042D0000E94DA21DF91CF911F9108958D3011F462
:1042E00080E0F6CFC0915F05D091600596E0FE01B9
:1042F000A5EEB2E001900D929A95E1F7803EB8F0FC
:1043000086E0FE0111928A95E9F711111CC0C09157
:104310005F05D091600546E050E0BE0185EE92E079
:104320000E947F35892BE9F40E944221D3CFF6E029
:104330008F9FB00111246059784F46E050E0CE01C4
:104340000E947635E2CFE0915F05F09160059F0114
:104350002A5F3F4F2E173F07D1F2808180958193CE
:10436000F9CFC955D340CE0125E0969587952A957A
:10437000E1F721E030E0A90102C0440F551F8A9502
:10438000E2F7CA014091100350911103842B952B41
:10439000259645E0D695C7954A95E1F702C0220FCC
:1043A000331FCA95E2F7822B932B909311038093CE
:1043B0001003BACFCF93382FE0915F05F0916005DD
:1043C000E955F34020910B03622F70E0CF010E946A
:1043D0001135281B822F332369F066E00E940535D2
:1043E000C82FC15010F4CF91089560E080E20E9480
:1043F0006121F7CF9F01280F311D2115324018F0A0
:1044000080E0F0E0E0E08E0F9F2F911D875A9C4FD7
:104410009093600580935F05E6CF1F93CF93DF9362
:10442000EC01162FFE018491811104C0DF91CF9120
:104430001F910895612F0E9461212196F3CF0E9460
:104440000D2281E00E94DA210895CF93DF9320911D
:104450005F053091600529553340A901460F571F6C
:104460004130524020F060E072E0621B730B4091DB
:10447000100350911103FC01C901620F731FC1E0C9
:10448000D0E08617970738F050931103409310033C
:10449000DF91CF9108952491DC01A75ABC4F3C9144
:1044A000321781F02C939C01A5E036952795AA95AB
:1044B000E1F7DE0102C0AA0FBB1F2A95E2F79D01BA
:1044C0004A2B532B01963196DCCF80910F0381113B
:1044D00003C080910E0308950E94AC2D605A75416F
:1044E0008F4F9F4F60935B0570935C0580935D05D4
:1044F00090935E0580910E038111EBCF62E070E036
:104500008EE497E00E94A320892B19F781E0809325
:104510000E03DFCF2F923F925F926F927F928F9226
:104520009F92AF92BF92CF92DF92EF92FF920F9342
:104530001F93CF93DF9380910F03882369F020911D
:104540001003309111032115310531F080910D03D5
:1045500061E070E0882399F0DF91CF911F910F9176
:10456000FF90EF90DF90CF90BF90AF909F908F9093
:104570007F906F905F903F902F9008958F5F082FEE
:1045800010E01B01082E02C0220C331C0A94E2F733
:10459000A90142215321452B89F390910C0390FDF1
:1045A00044C08295880F8076809373019801369578
:1045B00027953695279520937601815E8093740127
:1045C0001092770124E630E047E050E061E771E0C7
:1045D00088E70E942E2A892B09F0BECFA80125E08A
:1045E000440F551F2A95E1F780910C0380FD2BC0E5
:1045F000475A5C4F04E610E020E230E060E488E7D0
:104600000E944F2A892B09F0A7CF0E946522E10161
:10461000C095D0958091100390911103C823D923A0
:10462000D0931103C093100397CF880F880F880F82
:104630008093730110927601895F8093740183E007
:1046400080937701BFCFEBEEF2E080E2DF011D92B5
:104650008A95E9F7AAEFB1E006EF11E08EEFC82ED8
:1046600081E0D82E97E0592E772473948D91E8013C
:1046700029918E01240F352F311D275A3C4FE82FE9
:10468000F0E0E551FD4F90E080E0652C681A872C42
:10469000082E01C0880C0A94EAF77901A12CE701E1
:1046A000B9907E01B820662D6A196770962E062E85
:1046B000000C770BDB2D01C0DD0F9A94EAF77195A2
:1046C000619571096770772701C0B6946A95EAF71A
:1046D000BD2A6081962E9B289082A39468E0A61242
:1046E000DECF019631968830910579F6CA16DB0641
:1046F00009F0BCCF04E610E020E230E04BEE52E0DF
:104700007DCF80910E0390910F03911103C091E032
:1047100089270895882369F062E070E08CE497E0CF
:104720000E94A320892B19F080910E030895109206
:104730000E0380910E03EBCF80910E0308950E942B
:10474000360708950F931F9380910F03882379F103
:104750008091590590915A050E94B82DC29760F03A
:104760000E94A02D90935A058093590560E080E047
:104770000E942B210E949F230E948A2280910E0377
:104780008823A9F00E94AC2D00915B0510915C0577
:1047900020915D0530915E05601B710B820B930BC0
:1047A0006F3F7F4F8F4F9F4710F40E9481231F91CF
:1047B0000F910895CF93DF93EC01FB018281882351
:1047C00009F464C1C430FDE5DF07E0F5CB3F9CE5AB
:1047D000D90730F49E0122503C4524313105D8F5EB
:1047E0000E94C7159093420380934103C231ECE5C8
:1047F000DE0709F41FC108F06EC0C9308CE5D80788
:1048000009F4F2C008F03FC0C530ECE5DE0709F45A
:10481000DBC058F5C3308CE5D80709F4CDC008F0EB
:10482000CFC0809141038160C230DC4509F4AEC045
:1048300080914103909142030E94D5150E9420105F
:1048400080E009C0C63AEDE5DE0751F238F4C23621
:104850009DE5D90729F2DF91CF9108959E012E5A47
:104860003D4523303105B8F7BBCF809141038062CD
:10487000C730FCE5DF0709F489C008F4B1C08091B6
:104880004103806483C0CD309CE5D90709F4BAC0E8
:1048900070F4809141038E7FCB30FCE5DF0709F493
:1048A00075C008F4A7C0809141038D7F6FC0CF30E1
:1048B0009CE5D90709F4B6C008F4A8C0C031FCE5EE
:1048C000DF0709F4B3C0C131DC4509F0B1CF8091F5
:1048D00041038F7B5BC0C1159DE5D90709F4B4C0C6
:1048E00098F5CB3FFCE5DF0709F472C0B8F4C4319A
:1048F0009CE5D90709F4B6C008F4A2C0C531DC456F
:1049000009F096CF8091410382FB992790F921E02D
:10491000922790FB82F990FB83F938C0CD3F8CE55C
:10492000D80709F477C008F457C0CE3FECE5DE079E
:1049300009F474C0809142038360CF3FDC4509F0E5
:1049400077CF8093420374CFC2368DE5D80709F440
:1049500096C068F4C230EDE5DE0709F48CC008F4B7
:1049600077C0C330DD4509F063CF80E085C0CE3A23
:104970009DE5D907E9F068F490914103892F8E7F76
:1049800090FF8160C63ADD4509F052CF8093410324
:104990004FCFCF3A8DE5D80789F1C03BDD4509F00F
:1049A00047CF90914203892F877F93FF8860C9CFBB
:1049B000809142038860C5CF809141038260E6CF39
:1049C000809141038460E2CF809141038860DECF13
:1049D000809142038160B5CF809142038260B1CF64
:1049E000809141038061D2CF0E94201080914103C9
:1049F0008068CCCF809141038C60C8CF8091420306
:104A0000877F9FCF809141038B7FC0CF80914103EF
:104A1000877FBCCF809142038E7F93CF80914203EA
:104A20008D7F8FCF809141038F7EB0CF80914103E6
:104A30008F7DACCF0E942010809141038F77A6CF4D
:104A400080914103837FA2CF809142038C7F79CFF5
:104A500080914203982F909591708E7F892B90FBC7
:104A600081F96FCF0E94201090914103892F97FB0D
:104A700087F980588BCF81E00E945E16D9CE909145
:104A80004103892F8F7E94FF806180CF81E0E3CE48
:104A90008FE891E00197F1F700C0000008950E94AF
:104AA000B80908950F931F93CF93DF939091380126
:104AB00081E0982790931603282F291B2093150334
:104AC00090913801809317039091380180931403DB
:104AD00080913801811106C084EF8093790185EFC0
:104AE0008093780120917901E22FE295EF70F0E058
:104AF00061A12F7081E090E0AC0101C0440F2A95C4
:104B0000EAF7342F3095362331A322A1242B22A398
:104B100020917801E22FE295EF70F0E031A12F7043
:104B200001C0880F2A95EAF7982F9095932391A3B7
:104B300092A1892B82A30E944825609117034AE124
:104B400053E0C9E7D1E008E711E0FA0126C0299156
:104B5000822F82958F7090E0DC0190968C9190E08E
:104B60002F7002C0959587952A95E2F78170D8013C
:104B70009D918D01292F22952F7030E0D9019096BB
:104B80002C9130E09F7002C0359527959A95E2F7F9
:104B900090E020FD92E0892B81938E2F841B861755
:104BA000B0F2DF91CF911F910F910895CF92DF92D4
:104BB000FF920F931F93CF93DF9310E000E082E00A
:104BC000C82ED12C80911703181748F0802FDF9141
:104BD000CF911F910F91FF90DF90CF900895C12F3B
:104BE000D0E0FE01E758FE4F8081E82FE295EF709C
:104BF000F0E0E0A1F0E08F7002C0F595E7958A95AE
:104C0000E2F7E170DE01A858BE4F4C91A42FA295A7
:104C1000AF70B0E090968C9190E04F7002C0959587
:104C200087954A95E2F780FD44C080E08E2BDE0137
:104C3000A65EBC4FEC919E2F93709817C1F1EE0FBA
:104C4000EE0FE82BEC93F0901603F10EEF70F0E00E
:104C5000E250FE4FC85EDC4F80819881890F8883C7
:104C600020E0823064F0EF2DF0E0EE5EFC4F8081BA
:104C70008F5F808360E08F2D0E944F2521E0888127
:104C80008F3F64F4EF2DF0E0EE5EFC4F80818150A9
:104C9000808361E08F2D0E944F2521E08881082EBE
:104CA000000C990BB6010E9425358883022B1F5FEB
:104CB00089CF82E0BBCF4091170350E0609116038B
:104CC00070E06E5E7C4F0E948C350895B0E0A0E0ED
:104CD000ECE6F6E20C9449356C01D0E080E090916E
:104CE0001403D91740F081110E947716CDB7DEB7B3
:104CF000E8E00C946535F0901503FD0E0F2D10E0E3
:104D00000E5E1C4FF601ED0FF11DC081F801908180
:104D1000C91BEC2E1E1444F09C2FC7FD90E0C91B4C
:104D2000C1110DC0DF5FDBCFEA94F80180818F5F96
:104D3000808360E08F2D0E944F2581E0EBCFCF5F15
:104D4000F80180818150808361E08F2D0E944F2582
:104D500081E0E6CF8832910548F48E319105A0F4C8
:104D6000049750F082E00E94D8140EC08D32910555
:104D7000C9F320F48A9741F080E008958C349105BE
:104D800019F08D329240C1F781E00895EF92FF92C1
:104D90000F931F93CF93DF93EC017B018D3A9D45D9
:104DA00069F4FB011281112319F00E949C2710E085
:104DB000812FCDB7DEB7E6E00C9467350E94C214B0
:104DC000082F0E94E814082B0E946927811107C050
:104DD000023211F011E0ECCF0E946D27FBCF0E9450
:104DE0006027F70112811123A9F30D7909F059C049
:104DF000C115F5E5DF0708F5C11523E5D207C0F6B3
:104E0000C11580E5D807A0F4C115E0E4DE0778F508
:104E1000C63ED10569F20E94E514CE010E94AA2681
:104E2000C82F882309F43DC00E9406151C2FC0CF4F
:104E3000C115F2E5DF0778F7BBCFC11529E5D20729
:104E4000E8F4C11588E5D80708F0B2CFC431E5E52C
:104E5000DE0709F4ADCFF8F2CE0196558F3F9105EC
:104E600009F0C8F6C13FF6E5DF0708F0B3CFF70158
:104E70008581807F09F4AECFDD27CDCFCE0190565E
:104E80008115904240F6F7018581807FA9F78D2F2B
:104E90008F71823191F040F4C1EED0E0823009F49C
:104EA000BACF0E947D2784CF843109F481CFC6EE2A
:104EB000D2E1863109F4AFCFF4CFC5EED0E0ABCF6D
:104EC0000E94A02D88579C4E90931D0380931C0335
:104ED000089580911E030895089580911E03811105
:104EE0000BC00E94D2140E94FC140E94602781E033
:104EF00080931E030E946C27089580911E038823CF
:104F000041F082E20E94031010921E0380E00E9492
:104F10006C27089580911E03882369F00E94A02DBC
:104F200020911C0330911D03821B930B8F3F9F47E1
:104F300010F40E947D27089580911E03882319F0A4
:104F40000E947D2708950E946D270895CF93DF93D7
:104F5000EB0186319C4511F50E94C2149A81992378
:104F600099F08A7A91E009F490E090931F038111FF
:104F700009C089E20E9474140E94061580E0DF9146
:104F8000CF91089585E3F6CF80911F03811104C06E
:104F900089E20E947C14F0CF85E3FBCF81E0EFCF64
:104FA0000F931F93CF93DF93C42FD22FFC018281E5
:104FB0008823C9F0409322030E94A02D90932103DF
:104FC0008093200380E28C0F883040F4C77081E02A
:104FD00001C0880FCA95EAF70E94350DDF91CF9185
:104FE0001F910F91089510912203141332C08091E4
:104FF0002003909121030E94B82D8F3A910548F526
:10500000C0E2CD0F1D17B9F080E2810F883040F467
:10501000177081E001C0880F1A95EAF70E943C0DD5
:10502000C83048F481E09D2F977001C0880F9A9591
:10503000EAF70E94350D802F0E942C0DC83070F6C3
:10504000D77081E001C0880FDA95EAF70E943C0D25
:10505000C5CF80E28C0F883008F6C77081E001C0B0
:10506000880FCA95EAF7F2CF0F939C01CB01243F3A
:105070004CE5340759F1A8F4293DFCE53F0701F15F
:105080002A3D4CE53407D1F1283D3C4591F406E238
:1050900021EE41EE68ED7CE50E94D02780E00F9183
:1050A0000895263FFCE53F07E9F0B0F0273F3C4577
:1050B000F9F0FC018281882339F110922203EFCFAD
:1050C00007E225EE45EE69ED7CE5E6CF06E221EE4E
:1050D00040EE64EF7CE5E0CF07E225EE44EE65EFBD
:1050E0007CE5DACF06E221EE42EE66EF7CE5D4CF36
:1050F00007E225EE46EE67EF7CE5CECF08E221E041
:1051000045EE6AED7CE5C8CF81E0C9CFCF93DF9350
:10511000EC01EA85FB85309719F06C857D85099552
:105120008B810E94DE148C810E94CB140E94061594
:1051300086E0FE0111928A95E9F7DF91CF910895FB
:10514000CF93DF93EC018D8181FD12C082608D834E
:105150008B810E94D8148C810E94C5140E94061570
:10516000E885F985309721F06C857D85CE0109951C
:1051700010922603109225038D8180FD03C0CE017D
:105180000E948628DF91CF910895CF93DF93EC01A1
:105190008A81823041F4FB01828193810E94080A56
:1051A0008D8182608D83DF91CF910895FB01808195
:1051B00091810E94080A0895FC018281813061F486
:1051C0008FE39CE90197F1F700C00000FB018081AB
:1051D00091810E941E0A08958230E9F7FB018281C5
:1051E0009381F7CFFB0122812223E1F0E091250397
:1051F000F09126033097B1F0E817F90799F02EE007
:10520000E29FF0011124DF01AB5FBE4F2C912460BF
:105210002C93E050FF4F91838083CF010E94A02800
:105220000E94E5140895EF92FF920F931F93CF937E
:10523000DF938C0197558F3F910511F008F041C025
:105240007801FF248EE0089FF0011124EF01C05087
:10525000DF4FDB0112962C91EB5FFE4F808120FB2C
:1052600080F98083222399F10E94A02D909324033A
:10527000809323038A818F5F8A830E94C2148B8369
:105280000E94D5149B81892B8B830E94E8148C8308
:10529000EE81FF81309721F06C857D85CE010995E7
:1052A0008EE08E9DF0018F9DF00D1124E050FF4F98
:1052B000858181FF02C010E000E010932603009377
:1052C000250381E0CDB7DEB7E6E00C9467358D812C
:1052D00081FFF7CFCE010E948628F3CF809125036E
:1052E00090912603892BC9F0809123039091240388
:1052F0000E94B82D803B910580F0809125032EE01F
:10530000829FC0011124FC01EB5FFE4F208122FD32
:1053100004C080509F4F0E94A02808951092B900A9
:105320008CE08093B8000895B0E0A0E0EAE9F9E2EB
:105330000C944635B82EEB010E94A02D6C01EE2492
:10534000E394F12CC431D10560F025E0E22EF12C7C
:10535000CF3FDC0731F0CE0164E170E00E941135EF
:105360007B0184EAA82E94E8992E1092BC00A092AA
:10537000BC000E94A02D8C018091BC0087FF0DC055
:105380008091B900887F8830F9F08091B900887FDA
:105390008031D1F00FEF1FEF08C0C8010E94B82D77
:1053A000E816F90648F70EEF1FEFCF3FDC07E9F2EA
:1053B000C6010E94B82DC817D907B8F6C801CDB7E5
:1053C000DEB7EBE00C946235B092BB009092BC006B
:1053D0000E94A02D8C018091BC0087FF0AC08091A3
:1053E000B900887F883111F08034A1F610E000E028
:1053F000E5CFC8010E94B82DE816F90660F7D3CFB3
:105400000F931F93CF93DF93EB018093BB0084E84E
:105410008093BC000E94A02D8C018091BC0087FF6E
:1054200011C02091B900287F81E090E0283211F46A
:1054300090E080E0919581959109DF91CF911F9146
:105440000F910895CF3FDC0741F3C8010E94B82DAA
:10545000C817D90710F78EEF9FEFEFCFB0E0A0E0AD
:10546000E4E3FAE20C9449356B018A017901B90150
:105470000E949429E6010C0D1D1DC017D10711F0E3
:1054800097FF08C024E92093BC00CDB7DEB7E8E061
:105490000C946535B70189910E94002AEECFB0E0E7
:1054A000A0E0E5E5FAE20C944935C62F6A017901DE
:1054B000B8010E94942997FD0CC0B8018C2F0E945E
:1054C000002AE601EC0CFD1CCE15DF0511F097FF5C
:1054D00008C024E92093BC00CDB7DEB7E8E00C9407
:1054E0006535B80189910E94002AEECF84E9809346
:1054F000BC0008958EE14A9B02C08150E1F74A9BAF
:10550000FECF08955A9880E28A95F1F75A9A089545
:10551000FC013BE03A95F1F798E020E080E031E0D3
:1055200040E14A95F1F7880F4A9B02C0816023272A
:1055300042E04A95F1F7000040E14A95F1F79150B9
:1055400079F790E19A95F1F799B132E03A95F1F750
:10555000000040E14A95F1F792FB992790F99227D4
:105560002081920F90830895A1E0B0E0EAEBFAE287
:105570000C944B3519828C017C01E60EF11C0E1542
:105580001F0541F481E09981911180E02196E6E0C8
:105590000C9467350E947A2ACE0101960E94882ACF
:1055A000F80181938F01EBCF529A5A9A089552983D
:1055B0005A9AEA9AE9E6F0E080818F7C8083089528
:1055C0006150770B91E001C0990F6A95EAF720E0EE
:1055D00031E0911108C0222391F05A9A80E28A9515
:1055E000F1F75A980895492F482339F05A9A2327FA
:1055F00040E24A95F1F79695ECCF5A98F9CF5A9830
:10560000EDCFFF920F931F93CF93DF93EC018C01AB
:10561000060F111DC017D10729F4CDB7DEB7E5E09D
:105620000C946835F9900E94822A68E08F2D0E94C0
:10563000E02AF0CF1F920F920FB60F9211240F9312
:105640001F932F933F934F935F936F937F938F930A
:105650009F93AF93BF93EF93FF93CF93DF930F92FB
:10566000CDB7DEB719820E947A2ACE0101960E9438
:10567000882A082F069506950695282F22952570CD
:10568000902F9570290F922F937026952695920F43
:10569000982797708981982B09F05CC0073008F033
:1056A00059C080E18A95F1F75A9A529A82E08A9518
:1056B000F1F700C05A9888E0089F80011124D801B2
:1056C000A75CBE4F1696ED91FC9117973097A9F005
:1056D0006091F4017091F50114962D913C9115970C
:1056E000260F371F11968D919C911297680F791F85
:1056F00013964C9113978C910995F801E75CFE4F36
:105700006381662351F02091F4013091F501848189
:105710009581820F931F0E94012B0E94822A80E1B3
:105720008A95F1F75A9852985A9A80E18A95F1F73A
:10573000F801E75CFE4F6081662351F02091F4018F
:105740003091F50181819281820F931F0E94B42ACA
:105750000E947A2A0F90DF91CF91FF91EF91BF9134
:10576000AF919F918F917F916F915F914F913F91F9
:105770002F911F910F910F900FBE0F901F901895B2
:105780000F931F93CF93DF93EC0107970CF04CC05E
:10579000F894529A5A9885E08A95F1F700009C2F68
:1057A000969595708C2F8570980F892F837096959C
:1057B000969523E0CC0FDD1F2A95E1F7980F8E0117
:1057C000092B0E94822A00C068E0802F0E94E02AF4
:1057D00080E18A95F1F752985A9A4A9B1EC087E059
:1057E00090E04A991CC0FE01E75CFE4F638166238E
:1057F000F9F02091F4013091F50184819581820FB7
:10580000931F0E94B42A811113C0529A5A9A789415
:10581000DF91CF911F910F91089500C0DECF0197C6
:1058200029F4529A5A9A789480E0F2CF00C0D9CFE6
:105830000E947A2A80E28A95F1F75A98529A80E17A
:105840008A95F1F7C75CDE4F6881662351F020919D
:10585000F4013091F50189819A81820F931F0E9492
:10586000012B0E94822A789481E0D2CF90930F027C
:1058700080930E02089590932D0380932C03089536
:105880000E945E1B811103C0809127030895E0915F
:105890002C03F0912D03309729F00190F081E02D39
:1058A0000995089580E008950E94402C0895E091A4
:1058B0002C03F0912D03309721F00280F381E02D2D
:1058C00009950895E0912C03F0912D03309739F05C
:1058D00022E0DC012C930480F581E02D09950895E8
:1058E00020912A0330912B032817390771F09093E8
:1058F0002B0380932A03E0912C03F0912D03309722
:1059000021F00680F781E02D099508952091280364
:10591000309129032817390771F090932903809358
:105920002803E0912C03F0912D03309721F000849F
:10593000F185E02D099508959C012E5F3F4FAC0144
:10594000485F5F4F80E02417350709F40895F90197
:1059500091919F019923B9F38F5FF5CF662349F0A9
:10596000FC01329608962191261729F0E817F907CD
:10597000D1F780E0089581E008959C01FC01329602
:105980009FEF80E04191461751F09F3F19F441117C
:1059900001C0982F8F5F8630A9F79F3F09F40895C3
:1059A000290F311D97FD3A95F90162830895FC0195
:1059B000329608962191261303C0DF0111971C929D
:1059C000E817F907B9F708950E94BD2C08950E94C1
:1059D000D72C0895029626E0FC0111922A95E9F74A
:1059E000089546E050E00E947F3521E0892B09F4BC
:1059F00020E0822F089508950E94FB2C08958111C4
:105A000006C081E080932E030E94FC2C089582E062
:105A1000F9CF83E080932E030E94FC2C08950E940E
:105A2000FF2C089581E080932E030E94FC2C0895A2
:105A30000E94122D0895089508950E941C2D089526
:105A4000089508950E941B2D0895CF930E94202D44
:105A50000E94E21A0E94212DC0E08C2F0E94BF19E3
:105A6000811105C0CF5FCA30C1F7CF91089581E0A1
:105A7000FCCF85B7806885BF85B7806885BF0895EE
:105A80001F921FB61F9211248F939F93AF93BF93C2
:105A900080912F03811113C080916105909162055F
:105AA000A0916305B09164054196A11DB11D80933D
:105AB000610590936205A0936305B0936405BF915F
:105AC000AF919F918F911F901FBE1F90189580914D
:105AD0006905843031F10E946B0B10922F0388E12D
