:100000000C9413060C945A060C945A060C9423284C
:100010000C945A060C945A060C945A060C945A06E0
:100020000C945A060C945A060C94BE2F0C949230E1
:100030000C94E42A0C945A060C945A060C945A0612
:100040000C945A060C945A060C945A060C945A06B0
:100050000C945A060C94572B0C945A060C945A067E
:100060000C945A060C945A060C945A060C945A0690
:100070000C945A060C945A060C945A060C945A0680
:100080000C945A060C945A060C945A060C945A0670
:100090000C945A060C945A060C945A060C945A0660
:1000A0000C945A060C945A060C945A060005010545
:1000B0000205030504050505000601060206030600
:1000C00004060506000701070207030704070507E2
:1000D00000080108020803080408050800090109CE
:1000E00002090309040905090000010002000300D8
:1000F00004000500000101010201030104010501E2
:1001000000020102020203020402050200030103CD
:1001100002030303040305030004010402040304AF
:1001200004040504808182838485868788898A8B7C
:100130008C8D8E8F9091929394A0A1A2A3A4A5A63A
:10014000A7A8A9AAABACADAEAFB0B1B2B3B4C0C1B1
:10015000C2C3C4C5C6C7C8C9CACBCCCDCECFD0D107
:10016000D2D3D4004350534C4B000A0A00556E645E
:1001700065660041646A0A004C6F776572005261DF
:1001800069736500426173650A00426173650A0024
:100190004C41594552000A0A00556E646566004E8E
:1001A000756D700047616D65004D6F757365004436
:1001B000766F72616B00517772740057494E004D33
:1001C000414300004D4F4445000A0A0029001E002B
:1001D0001F00200021002200290014001A0008003E
:1001E000150017002B0004001600070009000A0084
:1001F000E1001D001B00060019000500E0000100E1
:10020000E200655D2A00A8006E5D2700260025003B
:10021000240023002F00130012000C0018001C0003
:10022000340033000F000E000D000B00E500380015
:10023000370036001000110001000100E400665D87
:100240002C000000165C010001000100010001000B
:100250002B0033003600370013001C00010004009F
:100260001200080018000C00E100340014000D001A
:100270000E001B00E300E200E000655D2A00A8001C
:1002800001000100010001000100010001000F0058
:10029000150006000A0009002800160011001700CA
:1002A0000B000700E5001D0019001A0010000500F2
:1002B000675DE600E400665D2C00000001000100BF
:1002C000010001000100010001001E001F002000CC
:1002D0002100220024021F0238022F0230025600A1
:1002E00035022002220236023702570001000100C7
:1002F00001000100010001000100010001000100F6
:1003000001000100E300270026002500240023004F
:1003100031021E022102270226023402350031007A
:100320002E0030002F002D0201000100010001000D
:10033000280001000100010001000100010001008E
:100340003A003B003C003D003E003F0039007B008E
:100350007A007C007D000100735D6D5D765D745DEB
:100360006F5D725D01000100010001004C000100A1
:1003700001000100010001000100010045004400EE
:10038000430042004100400001004B004F0052007A
:100390005100500001004E006B5D695D685D6A5D53
:1003A000010001000100010001000100015D0000E9
:1003B000000000000000000000000000635D645DBC
:1003C000000069000000000000000000705D68008F
:1003D000000000000000000000000000010001001B
:1003E000010001000100000000000000000000000A
:1003F00000000000715D00000000B700B600A8001A
:10040000000000000000AE00755D0000000000006C
:10041000B400795D785D0000010001000100010079
:1004200001000000010001000100010001000100C5
:10043000010001000100FE00FF00010001000100B9
:100440000100F100F20001000100010001000100C3
:10045000010001000100010001000100635D0100D5
:100460000100010001000100010001000100010084
:100470000100ED000100010001000100F000EE00AC
:10048000EF00F90001000100010001000100FA0085
:10049000010001000100010001000100290001002C
:1004A00001000100010001002B000100010001001A
:1004B0000100010001000100010001000100010034
:1004C000E100010001000100010001000100E20063
:1004D000E00001002C00010001000100010001000A
:1004E0000100010001000100010001000100010004
:1004F000635D010001000100010001000100010035
:1005000001000100010001000100010028000100BC
:100510002A000100010001000100010001000100AA
:1005200001000100010001000100010001000100C3
:1005300001000100010001000100010001000100B3
:10054000010001000100010001000100635D0100E4
:10055000010001005400010001005300010055009A
:10056000610060005F000100010057005E005D0057
:100570005C002A00010056005B005A00590062002E
:1005800001000100010001005800010000AE00AFB1
:1005900000DA0281FFD9F1DB20A4A62EAF00A0C0B3
:1005A00000A1C800AED580A81FD300408D14200044
:1005B00007087F0807003E5B4F5B3E003E6B4F6BBA
:1005C0003E001C3E7C3E1C00183C7E3C18001C5724
:1005D0007D571C001C5E7F5E1C0000183C1800004C
:1005E000FFE7C3E7FF00001824180000FFE7DBE780
:1005F000FF0030483A060E00262979292600407F60
:1006000005050700407F05253F005A3CE73C5A009E
:100610007F3E1C1C0800081C1C3E7F0014227F2209
:1006200014005F5F005F5F0006097F017F000066C6
:1006300089956A0060606060600094A2FFA29400E7
:1006400008047E04080010207E20100008082A1CE0
:100650000800081C2A0808001E10101010000C1EAC
:100660000C1E0C0030383E383000060E3E0E0600E0
:1006700000000000000000005F000000000700070D
:100680000000147F147F1400242A7F2A12002313F1
:100690000864620036495620500000080703000035
:1006A000001C224100000041221C00002A1C7F1C6B
:1006B0002A0008083E080800008070300000080882
:1006C0000808080000006060000020100804020014
:1006D0003E5149453E0000427F4000007249494971
:1006E00046002141494D33001814127F1000274560
:1006F000454539003C4A494931004121110907006B
:10070000364949493600464949291E00000014006F
:1007100000000040340000000008142241001414BE
:1007200014141400004122140800020159090600A3
:100730003E415D594E007C1211127C007F494949AF
:1007400036003E41414122007F4141413E007F4908
:10075000494941007F09090901003E4141517300A7
:100760007F0808087F0000417F4100002040413F92
:1007700001007F08142241007F40404040007F027A
:100780001C027F007F0408107F003E4141413E0073
:100790007F09090906003E4151215E007F091929A0
:1007A000460026494949320003017F0103003F40CA
:1007B00040403F001F2040201F003F4038403F0086
:1007C0006314081463000304780403006159494D5D
:1007D0004300007F41414100020408102000004115
:1007E00041417F00040201020400404040404000BB
:1007F0000003070800002054547840007F28444438
:100800003800384444442800384444287F00385491
:100810005454180000087E09020018A4A49C780013
:100820007F080404780000447D4000002040403DE3
:1008300000007F102844000000417F4000007C043D
:10084000780478007C080404780038444444380074
:10085000FC182424180018242418FC007C08040424
:10086000080048545454240004043F4424003C40ED
:1008700040207C001C2040201C003C4030403C00BC
:100880004428102844004C9090907C004464544CC0
:1008900044000008364100000000770000000041DD
:1008A000360800000201020402003C2623263C0018
:1008B000000000000000404040F0F8F8FF38FFF86A
:1008C000F83FF8F8FF38FFF8F8F04040400000002B
:1008D00000000080C0C0C0800000C0C080000000D8
:1008E00080C0C000C0C0000080C0C0000000000088
:1008F000C0C0C0C0C000C0C00000000000000000B8
:1009000000000000000000000000000000000000E7
:1009100000000000000000000000000000000000D7
:10092000000000000000000000000000000000C007
:10093000F0F8FC3E1E06010000007F4141417F00AF
:100940007F4141417F000080C0E07E5B4F5BFEC085
:100950000000C000DCD7DEDEDED7DC00C000000017
:100960000000000000000000000000000000000087
:10097000000000000000494949FFFFFFFFE0DFBF22
:10098000BF00BFBFDFE0FFFFFFFF49494900000094
:1009900000001F3F6060E0BF1F007F7F071E381E02
:1009A000077F7F007F7F0E1F3B716000000000000B
:1009B0007F7F0C0C0C007E7E007F7E0303007F7E19
:1009C00003037E7E03037F7E000F3E703C063C7077
:1009D0003E0F00327B49493F7E007F7E0303001EAD
:1009E0003F69696F2600000000000000000000035E
:1009F0000F1F3F3C7870600000007F4141417F0045
:100A00007F4141417F00307B7F7830202030787FEC
:100A10003B0003000F7F0F0F0F7F0F00030000004C
:100A200000000000000000000000000000000000C6
:100A3000000000000000010101070F0F7F0F7F0F72
:100A40000F7E0F0F7F0F7F0F0F07010101000000C6
:100A50000000000000000001010000000000000094
:100A60000000000000000000000000000000000086
:100A70000000000000000000000000000000000076
:100A80000000000000000000000000000000000066
:100A90000000000000000000000000000000000056
:100AA0000000000000000000000000000000000046
:100AB0000000000000000000000000000000000036
:100AC0000000000000000000000000000000000026
:100AD0000000000000000000000000000000000016
:100AE0000000000000000000000000000000000006
:100AF0000C0353006F0066006C00650000001A03D1
:100B00004A006F00730065006600410064006100E8
:100B10006D00630069006B00000004030904090212
:100B20003B00020100A0FA090400000103010100DA
:100B30000921110100012240000705810308000A74
:100B40000904010001030000000921110100012234
:100B50007B000705820320000A120100020000004A
:100B60000832FC870201000102000105010902A10F
:100B70000185020901A100050919012908150025AF
:100B8000019508750181020501093009311581259A
:100B90007F95027508810609381581257F950175B5
:100BA000088106050C0A38021581257F9501750814
:100BB0008106C0C005010980A101850319012AB77A
:100BC00000150126B700950175108100C0050C09BC
:100BD00001A101850419012AA002150126A0029590
:100BE0000175108100C005010906A101050719E082
:100BF00029E7150025019508750181029501750801
:100C000081010507190029FF150026FF00950675CB
:100C100008810005081901290595057501910295BE
:100C20000175039101C011241FBECFEFDAE0DEBFD2
:100C3000CDBF04B603FE27C08091410590914205C7
:100C4000A0914305B09144058730904BA740B04B2D
:100C5000D1F4109241051092420510924305109272
:100C6000440514BE84B7877F84BF0FB6F894A89557
:100C700080916000886180936000109260000FBED8
:100C8000E0E0F8E3099511E0A0E0B1E0ECE3F6E67E
:100C900002C005900D92A83EB107D9F725E0A8EE55
:100CA000B1E001C01D92A134B207E1F70E94AB1D73
:100CB0000C94F1320C940000CF93C82F0E94BF1AFD
:100CC0008111C3E08C2FCF9108950E94BF1A60E07C
:100CD000882309F493C089EC91E00E94D72260E058
:100CE00084EC91E00E94E92260E083EC91E00E94B4
:100CF000E92280910C0360E080FF1CC08FEB91E043
:100D00000E94E922609123027091240280912502C1
:100D1000909126020E94AA0A853009F440C068F426
:100D2000882399F08130B9F160E089E991E00E946F
:100D3000D72210C08BEB91E0E3CF8630A1F1873052
:100D400099F760E08FE991E003C060E086EB91E005
:100D50000E94E92260E086E991E00E94D72260E0EB
:100D600080E991E00E94E92260911F0270912002C7
:100D700080912102909122020E94AA0A8230D1F130
:100D8000B0F4882379F18130D1F060E08DE691E014
:100D90000E94E92219C060E08FEA91E0D9CF60E0BB
:100DA00089EA91E0D5CF60E084EA91E0D1CF833049
:100DB000E9F0843051F760E083E791E003C060E040
:100DC0008AE891E00E94D72260E08AE691E00E94E2
:100DD000D7220E94B52981FB662760F984E691E05D
:100DE0000C94E92260E084E891E0ECCF60E08EE7CB
:100DF00091E0E8CF60E088E791E0E4CF84E291E021
:100E00000C94D722CF93FB018C362DE5920709F481
:100E100030C108F059C085362DE5920709F4C4C0E9
:100E200020F58C37910509F434C150F48A379105C7
:100E300009F459C18B37910509F445C1C1E0A1C03E
:100E400083362DE5920709F498C008F09DC08D37D0
:100E50009105A1F7C28181E0CC2309F42EC10E9443
:100E600093180E94380C89E11DC188362DE5920740
:100E700009F4B4C080F486362DE5920709F4A0C0C9
:100E800087369D45D9F6C28184E0CC2309F4A3C0FE
:100E90000E94F40F7FC0C28120910C038A363DE589
:100EA000930709F4CEC008F4B5C02170CC2309F42F
:100EB000DCC08DE4222309F49FC081E00E949318D6
:100EC0000E94380C8FE4C9C083372DE5920709F4DE
:100ED0003AC140F58F362DE5920709F414C190F41C
:100EE0008D362DE5920709F418C18E369D4509F01F
:100EF000A5CFC28183EECC2309F421C10E949C0BB3
:100F00008CE2D0C0C28181372DE5920709F448C038
:100F100008F442C081EECC2309F440C10E949C0B2E
:100F20008BE2C0C086372DE5920709F424C170F426
:100F300084372DE5920709F412C185379D4509F0E4
:100F40007DCFC281CC23E9F087E022C088372DE530
:100F5000920709F427C108F41EC189379D4509F09D
:100F60006DCFC28180EECC2309F42EC10E949C0B70
:100F700081EE0E949C0B87E195C0C28180E0C11187
:100F800007C08C2FCF910895C28181E0CC23C9F393
:100F90000E94C009C0E0F5CF85E0CC2391F3F8CFE3
:100FA00086E0CC2371F3F4CFC28182E0CC2359F0E8
:100FB0000E94F40F44E063E082E00E942E0AEACF30
:100FC000C28183E0F3CF0E94151044E063E082E029
:100FD0000E942E0AD6CF0E941510D3CFC2818091D5
:100FE0000C038170CC2359F0882389F184E00E949E
:100FF00093180E94380C80E50E949C0BC2CF882376
:1010000091F184E00E9493180E943F0C80E50E94B9
:10101000EA0B14CF2170CC2351F0222309F44DCFD9
:1010200084E00E9493180E94380C8FE4E5CF84E09E
:10103000211101C081E00E9493180E943F0C8FE4AF
:10104000E6CF2170CC2361F08AE42223A9F281E06B
:101050000E9493180E94380C80E50E949C0BEECEF3
:101060008AE42223A1F281E0CDCF8DE4222379F21C
:10107000E1CFC28181E0CC2331F00E9493180E941D
:10108000380C8AE2B9CF0E9493180E943F0C8AE282
:10109000BECFC28181E0CC2341F00E9493180E9410
:1010A000380C86E00E949C0B75CF0E9493180E941A
:1010B0003F0C86E00E94EA0B64CF0E9493180E94C6
:1010C0003F0C89E1F7CFC28181E0CC2331F00E944F
:1010D00093180E94380C8BE1E5CF0E9493180E9470
:1010E0003F0C8BE1E7CFC28181E0CC2331F00E943D
:1010F00093180E94380C8DE1D5CF0E9493180E945E
:101100003F0C8DE1D7CFC28183EECC2319F00E9432
:101110009C0BA9CE0E94EA0BD4CFC28183EECC23D4
:1011200039F00E949C0B81EE0E949C0B86E1BACFA5
:101130000E94EA0B81EE0E94EA0B86E1BBCF0E947F
:10114000EA0B8CE2B7CFC28180EECC2321F00E9463
:101150009C0B88E3A7CF0E94EA0B88E3ABCFC28148
:1011600080EECC2321F00E949C0B89E09BCF0E9453
:10117000EA0B89E09FCFC28180EECC2331F00E9440
:101180009C0B81EE0E949C0BB6CF0E94EA0B81EE75
:101190000E94EA0BB6CFC28182EEBDCE0E94EA0B5E
:1011A0008BE288CFC28182EECC2339F00E949C0B67
:1011B00081EE0E949C0B81E575CF0E94EA0B81EEC7
:1011C0000E94EA0B81E576CF0E94EA0B81EE0E9435
:1011D000EA0B87E16FCF811108C089EA611101C074
:1011E0008AEA0E94300C81E008958130E1F78DE1B8
:1011F00093E0611102C08DE191E00E946009F3CF9C
:101200009C013A9521153F4150F5FC01EE27F17004
:10121000BC0166277270AC01442754709C012227E0
:10122000387094FF0EC080E1EF2B09F480E0672B4B
:1012300009F08062452B09F08064232B89F08068D7
:10124000089581E0EF2B09F480E0672B09F08260BC
:10125000452B09F08460232B19F08860089580E005
:101260000895CF93DF93EC010E9400099E01205E58
:1012700031092830310510F0209739F40E94380CDC
:101280008C2FDF91CF910C949C0B0E94150FF8CFFF
:10129000CF93DF93EC010E94EA0BCE010E9400097C
:1012A0009E01205E31092830310510F0CD2B21F44C
:1012B000DF91CF910C943F0CDF91CF910C941C0FD8
:1012C000CF93DF93EC010E9431098FE39CE90197F2
:1012D000F1F700C00000CE01DF91CF910C944809D6
:1012E00081E008950C94020708950C9474091F93EB
:1012F000CF93DF9300D000D00F92CDB7DEB74983F4
:101300005A836B833091F40189819A8131111DC018
:101310006623B9F02223A9F00E94E710182F682F46
:1013200089819A810E94901069817A81812F0F9022
:101330000F900F900F900F90DF91CF911F910C9411
:10134000E4170E94BE10182FEFCF0E94E7106981AA
:101350007A81EDCFFC01262F40815181628173811A
:1013600084810C94770981E00895CF93DF93EC0199
:1013700060E00E94AA09BE01DF91CF910C9475092B
:10138000CF92DF92EF92FF92C12CD12C7601C394C1
:1013900004C0CC0CDD1CEE1CFF1C8A95D2F78C2DF2
:1013A0000E944415C701B601FF90EF90DF90CF90E7
:1013B0000C94920F8F929F92AF92BF92CF92DF9236
:1013C000EF92FF920F931F936B017C0181E090E0FD
:1013D000A0E0B0E04C015D0104C0880C991CAA1C7F
:1013E000BB1C4A95D2F7B501A4014C015D0104C0B4
:1013F000880C991CAA1CBB1C2A95D2F7482959298C
:101400006A297B2904C0880F991FAA1FBB1F0A9550
:10141000D2F78A019B010C211D212E213F210417A7
:1014200015072607370789F48C299D29AE29BF297E
:10143000BC01CD011F910F91FF90EF90DF90CF90F5
:10144000BF90AF909F908F90089580959095A095B4
:10145000B0958C219D21AE21BF21EACF0F93382F6B
:10146000262F60911F02709120028091210290919D
:101470002202042F432F0E94DA090F910C94CE0F01
:101480000E94D9180E94FE0A0C94FE180C940119AF
:1014900008950E94390F0E94480A2FEF84E39CE0D0
:1014A000215080409040E1F700C000000C947B2B5D
:1014B0000F931F93CF93DF938C0161E00E94AA09E1
:1014C000EC01B8010E9472098823A9F1B801CE018C
:1014D0000E94CE24882379F1B801CE010E942025F4
:1014E000882349F1B801CE010E944A26882319F1C8
:1014F000F8018281882361F0CB35FDE5DF0721F11A
:1015000070F4C115ECE5DE07A1F0CF3DDC45C9F074
:10151000C801DF91CF911F910F910C947009CC35C8
:101520008DE5D807A1F0CD35DD4591F70E94721405
:10153000EFCF0E94490A80E0DF91CF911F910F9178
:1015400008950E94DB15F7CF0E947B14E1CF0E9423
:101550007E14DECFCF92DF92EF92FF926C01EE24E9
:10156000FF2420E0C114D104E104F10419F0C70103
:10157000B60120E1C72ED82EE92EFF24C114D104D4
:10158000E104F10419F0285FC701B6016B017C0189
:1015900054E0F694E794D794C7945A95D1F7C114C0
:1015A000D104E104F10419F02C5FC701B6016B010D
:1015B0007C0142E0F694E794D794C7944A95D1F71A
:1015C000C114D104E104F10419F02E5FC701B60182
:1015D0009695879577956795672B682B692B09F00A
:1015E0002F5F822FFF90EF90DF90CF9008950895A6
:1015F0000C94F70A81E008950C94FA0A0895CF93A9
:10160000C82F0E94F80A8C2FCF910C94FC0ACF931C
:10161000DF93EC012881898141E050E0022E01C076
:10162000440F0A94EAF7A82FB0E0A651BE4F9C9150
:101630003A813323D9F03091F6013323D1F030E0F1
:1016400066E0869F200D311D1124220F331FF90102
:10165000E355FF4FE491E983F901E455FF4FE4912D
:10166000E883492B4C93DF91CF910895392F342390
:10167000E4CF40954923F6CFCF93DF93CDB7DEB7C4
:101680002B970FB6F894DEBF0FBECDBF4F835887A0
:1016900069877A878B8761110E94A1148A859B854F
:1016A000892B29F08F81988589238F3F61F51E82D0
:1016B0001D8285E0FE013796DE01119601900D92A4
:1016C0008A95E1F78C819D81892B89F449815A8122
:1016D0006B817C818D819E810E947B132B960FB63E
:1016E000F894DEBF0FBECDBFDF91CF910895898101
:1016F0009A8189238F3F51F3CE0101960E94B3094D
:101700008111E4CFEBCFCE0107960E94070BCFCF1C
:10171000FC01808191810E94291192959F709630E1
:1017200051F4863F41F08091F60191E08927809342
:10173000F6019093F5010895CF93C82F882309F4FB
:1017400047C08CEF8C0F813AA0F46C2F8091000180
:10175000909101010E940F2A882329F08C2F0E946A
:101760001C140E94C4148C2F0E941514CF910C9449
:10177000C41480E28C0F883048F4C77081E001C047
:10178000880FCA95EAF70E948414F0CFEBE5EC0FBE
:10179000E33040F4F0E0E757FE4F808190E0CF91D6
:1017A0000C94D129E8E5EC0FE73150F4F0E0EE0FAE
:1017B000FF1FE55AFE4F80819181CF910C94E7295C
:1017C000CD3E30F08C2F0E94391ECF910C940C1F0F
:1017D000CF910895882361F19CEF980F913A20F4FE
:1017E0000E941C140C94C41490E2980F983050F48A
:1017F000877091E001C0990F8A95EAF7892F0E94BE
:101800008A14F0CF9BE5980F933020F490E080E0AD
:101810000C94D12998E5980F973120F490E080E05E
:101820000C94E7298D3E20F00E94931E0C940C1F0F
:1018300008951F93CF93DF93182FEB010E949C0B09
:10184000209731F4812FDF91CF911F910C94EA0BF7
:101850008FE99FE00197F1F700C000002197F0CFDA
:101860006AE070E0893311F460E570E00C94190CC3
:10187000882321F00E9484140C94C41408958823B2
:1018800021F00E948A140C94C41408954F925F9220
:101890006F927F92BF92CF92DF92EF92FF920F935F
:1018A0001F93CF93DF936C01C62F172FFC01D281BA
:1018B000058102950F700E945914E82E8823B1F01B
:1018C000DD2309F1812F807F803441F090E29C0F6D
:1018D0009830C8F0803611F4C63FA9F082E00E942B
:1018E00015150E94591491E0E82EE926B12EB29404
:1018F0009FE0B922FBE0FB15B0F1EB2DF0E0ED50DD
:10190000FD4C0C948A32E12CF1CF012F0F70812F06
:10191000807F11F00295007FDD23A9F0002359F0AC
:1019200080E28C0F883010F0C11109C0802F0E9416
:1019300084140E94C4148C2F0E949C0B14C0802F0E
:101940000E949414F6CF8C2F0E94EA0B002359F0CA
:1019500080E28C0F883010F0C11139C0802F0E94B6
:101960008A140E94C4142B2D2850330B24303105C7
:1019700020F40E94A2290E94FF0ADD2339F0107F83
:10198000103611F4C63F11F00E944C14EE2009F4F9
:10199000FFC10E942F1480FDFBC1F60112820E943C
:1019A00029140E94F40FC6010E94ED0E0E94291412
:1019B000DF91CF911F910F91FF90EF90DF90CF902B
:1019C000BF907F906F905F904F900C941510802F78
:1019D0000E949A14C6CF212F2F70F22E812F807F64
:1019E000803219F0F29480EFF822CC2369F0C130F4
:1019F00049F1DD2391F1002351F1F601858180FF4A
:101A00009ACF8F70858323C0DD2381F0011106C03A
:101A10000E94A7148F290E94380CA5CF0130C1F76E
:101A20000E94A7148F290E94AD149DCF011106C0FA
:101A30000E94BA148F2D0E943F0C95CF013009F4FB
:101A400092CFF6CFDD2329F0063008F08CCF8F2D12
:101A5000E2CF053008F087CFEDCF002359F3C9332B
:101A600009F02DC1FFEF27EE33E0F1502040304068
:101A7000E1F700C000008C2F0E94EA0B74CF812F89
:101A800086958695837069F0813009F06CCF8C2F34
:101A9000912F9370D11102C090E080E00E94E7295D
:101AA00062CF8C2F912F9370D11102C090E080E013
:101AB0000E94D12958CF8C2FDD2329F00E94391E96
:101AC0000E940C1F50CF0E94931EFACF812F83706B
:101AD00009F043C0D11147CF2C2F229526952770AE
:101AE000220F220F6C2F6F70462E512C712C612CFF
:101AF000022E04C0440C551C661C771C0A94D2F7B5
:101B000060E070E0CB01C4FF0FC06FE070E080E0E8
:101B100090E004C0660F771F881F991F2A95D2F79F
:101B20006095709580959095212F26952695237028
:101B30006429752986299729223049F058F42130E3
:101B400019F00E94A60F0FCF0E94940F0CCF0E9495
:101B5000B80F09CF0E94920F06CF8695DD2311F0B2
:101B6000812F8170882309F4FECE2C2F2295269593
:101B70002770220F220F6C2F6F70462E512C712C64
:101B8000612C022E04C0440C551C661C771C0A9460
:101B9000D2F760E070E0CB01C4FF0FC06FE070E0EF
:101BA00080E090E004C0660F771F881F991F2A9578
:101BB000D2F76095709580959095212F2695269562
:101BC00023706429752986299729223049F058F411
:101BD000213019F00E946B10C6CE0E945910C3CE5E
:101BE0000E947D10C0CE0E94CE0FBDCE012F0F707F
:101BF000DD2329F0802F0E94F40F8C2F0CCF8C2F27
:101C00000E943F0C802F0E941510ADCEC23F91F173
:101C100060F4C03FD1F0C13F31F1DD2309F443C08E
:101C2000011189CE812F8F7122C0C33F41F1C43F82
:101C3000A1F7DD2371F1012F0F71802F0E94F40FA6
:101C400063E0802F0E94FA148ECEDD2341F0053030
:101C500008F089CE812F8F710E94381084CE063013
:101C600008F081CEF7CF812F8F71DD2361F20E94C2
:101C7000F40F79CE812F8F71DD23C9F3C4CFDD231B
:101C800029F0812F8F710E94DF0F6DCE0E94DA0F35
:101C90006ACE81E00E941515023008F464CE82E01D
:101CA0000E94151560CE002379F0C93341F49FEFEF
:101CB000E7EEF3E09150E040F040E1F7DACE8FE359
:101CC0009CE90197F1F7D5CE812F8F719CCFE0E190
:101CD000EC0FE73090F5F0E0E150FD4C0C948A32C7
:101CE000DD2309F440CE8091F60191E089278093AD
:101CF000F60139CED093F60136CE81E08D27F7CFAD
:101D0000D11131CE81E0F3CFD1112DCE1092F60159
:101D10002ACEDD2319F00E94331425CE0E943F14F1
:101D200022CEDD2339F08091F5018823E1F2109273
:101D3000F50119CE0530B8F216CE8091F5010023D9
:101D4000D9F0882341F08091F60191E089278093B2
:101D5000F6011092F501D111EECDEFE3FCE93197D8
:101D6000F1F700C000008C2F0E94EA0B86E0F6011C
:101D700011928A95E9F7F7CD882309F4F4CDD111B2
:101D8000F2CD8091F60191E089278093F601CFCFC3
:101D9000DF91CF911F910F91FF90EF90DF90CF9047
:101DA000BF907F906F905F904F9008950F931F9317
:101DB000CF93DF93EC01688179818A810E9433118E
:101DC0008C010E948F100E94910FB801CE01DF910B
:101DD000CF911F910F910C94460CCF93DF93EC01A0
:101DE0008B819C81892B29F08881998189238F3F60
:101DF00059F4DF91CF910895CE010E94D60ECE0105
:101E0000DF91CF910C94B509CE010E94580A81113F
:101E1000F3CF0E945914882361F38A81882349F300
:101E200082E0DF91CF910C941515882321F00E9458
:101E300094140C94C4140895882321F00E949A14D9
:101E40000C94C414089590E080E00E94D12990E0A1
:101E500080E00E94E7290E94A1140E94A4140E941D
:101E6000C4140E9433200C940C1F0E9423140C9461
:101E7000230F0E9491140C94350FE92FE295EF7017
:101E8000E250EE3070F4F0E0EA5FFC4C0C948A32E1
:101E9000803F19F020F4883E20F481E00895843FCB
:101EA000E1F380E00895883EC0F3813FD1F7F5CF9C
:101EB00093FB882780F90895FC01808191810E941D
:101EC00029110C943D0FCF93DF9300D000D00F92D7
:101ED000CDB7DEB70F900F900F900F900F90DF915E
:101EE000CF910895CF93DF9300D000D000D0CDB72D
:101EF000DEB726960FB6F894DEBF0FBECDBFDF91DA
:101F0000CF91089508950C94820F0E94830F6093DF
:101F100023027093240280932502909326020C944E
:101F2000230F08950C94850F0F931F9300912302A4
:101F3000109124022091250230912602602B712BF2
:101F4000822B932B1F910F910C94850F0F931F934E
:101F50000091230210912402209125023091260243
:101F600060237123822393231F910F910C94850F7B
:101F70000F931F93009123021091240220912502B8
:101F80003091260260277127822793271F910F9196
:101F90000C94850F0C94820F0C94CA0F0E94CC0FE6
:101FA00060931F027093200280932102909322027B
:101FB0000C94230F60E070E0CB010C94CE0F0F93D4
:101FC0001F9341E050E060E070E08A019B0104C093
:101FD000000F111F221F331F8A95D2F7C901B801C4
:101FE0001F910F910C94CE0F0F931F9341E050E07F
:101FF00060E070E004C0440F551F661F771F8A958C
:10200000D2F780911F0290912002A0912102B091FD
:1020100022028A019B01082B192B2A2B3B2BC90179
:10202000B8011F910F910C94CE0F0F931F9341E0B5
:1020300050E060E070E004C0440F551F661F771F3A
:102040008A95D2F7CB01BA016095709580959095ED
:1020500000911F0210912002209121023091220252
:1020600060237123822393231F910F910C94CE0F31
:102070000F931F9341E050E060E070E004C0440F14
:10208000551F661F771F8A95D2F780911F02909186
:102090002002A0912102B09122028A019B0108270F
:1020A00019272A273B27C901B8011F910F910C94CA
:1020B000CE0F0F931F9300911F02109120022091C9
:1020C000210230912202602B712B822B932B1F91C6
:1020D0000F910C94CE0F0F931F9300911F0210913C
:1020E0002002209121023091220260237123822359
:1020F00093231F910F910C94CE0F0F931F93009178
:102100001F021091200220912102309122026027AB
:102110007127822793271F910F910C94CE0F08955A
:10212000E92FEE0FE90FEE0F8E0F982F977041E019
:1021300001C0440F9A95EAF786958695869595E0B5
:10214000899FF0011124E950FE4F30E020E070E05B
:102150005191DF011197CB01022E02C09695879510
:102160000A94E2F7817081958527842385278C93D3
:102170002F5F3F4F2530310559F70895E92FEE0FB6
:10218000E90FEE0F8E0F982F97708695869586959E
:1021900025E0829FF0011124E950FE4F50E040E01D
:1021A00080E0219130E0092E02C0369527950A94EF
:1021B000E2F721703327042E01C0220F0A94EAF7B8
:1021C000822B4F5F5F4F4530510559F70895BF92FD
:1021D000CF92DF92EF92FF920F931F93CF93DF93F3
:1021E0008C01C0901F02D0902002E0902102F0905C
:1021F00022028091230290912402A0912502B091A5
:102200002602C82AD92AEA2AFB2ACFE1D0E0BC2E2E
:10221000D701C6010C2E04C0B695A7959795879552
:102220000A94D2F780FD0EC0219788F7B12C8B2D30
:10223000DF91CF911F910F91FF90EF90DF90CF90A2
:10224000BF900895B8018C2F0E94F817019761F391
:10225000EECFCF93DF93EC010E94E710BE01DF9138
:10226000CF910C94F8171F93CF93DF93EB019091CC
:10227000F401992331F0CB01DF91CF911F910C94A0
:102280002911882379F0CB010E94E710182F682FBD
:10229000CE010E949010BE01812FDF91CF911F913E
:1022A0000C94F817CB010E94BE10182FF4CF1F9387
:1022B000CF93DF93C091270216E0809128028C1300
:1022C00004C0DF91CF911F910895D0E01C9FF001D1
:1022D0001D9FF00D1124E75DFD4F4081518162810A
:1022E0007381848195810E94720F2196C770E5CF1A
:1022F0004091590250915A0260915B0270915C02C8
:1023000080915D0290915E020C94720F1F93CF93A7
:10231000DF9380915E02807FA9F480915B02882325
:1023200089F080912702C091280260915902709132
:102330005A02A0915C02B0915D02D62FD72316E01D
:10234000C81304C0DF91CF911F91089590E01097BA
:1023500011F0DF3F19F401968770F2CF189F9001BA
:10236000199F300D1124F901E75DFD4F418147139D
:10237000F2CF40814613EFCF42814111ECCF438130
:1023800054814A1B5B0B4436510528F780915E024D
:102390008F70806180935E02F901E25DFD4F808164
:1023A0008F708061808389E592E00E94ED0EDF915D
:1023B000CF911F910C945711AF92BF92CF92DF92A1
:1023C000EF92FF920F931F93CF93DF93CDB7DEB7BA
:1023D00061970FB6F894DEBF0FBECDBF8C0185E0CC
:1023E000F801DE011D9601900D928A95E1F7F80142
:1023F000E28089E5C82E82E0D82E60915C0270915F
:102400005D026115710509F45AC19091590220913C
:102410005A02892F82238F3F09F451C14081518193
:10242000A380B480F0905B02F501E61BF70BFF2060
:1024300009F4F6C080915E02382F307FE436F10552
:1024400008F0AFC0311179C0FE2C251323C09413BE
:1024500021C0E1101FC08F70806180935E020E94D6
:102460007811C6010E94ED0E80915E02F80185830D
:102470008F2D61960FB6F894DEBF0FBECDBFDF91F2
:10248000CF911F910F91FF90EF90DF90CF90BF9071
:10249000AF900895AB2829F0842F85238F3F09F052
:1024A00027C180E0F82FF170DF2E80FF3CC08091C3
:1024B00027022091280236E0821315C04D875E87DF
:1024C0008D859E850E942911292F22952F702230FB
:1024D000F0F0243018F59F70F1F0F8019581907FAD
:1024E000D1F4D12C1EC090E0389FF001399FF00D3F
:1024F0001124E75DFD4F6181651306C0608164139F
:1025000003C06281E6120FC001968770D5CF9F701D
:1025100011F0882331F3805E883018F3C8010E94DF
:10252000ED0EFD2CA5CFEE2009F4A2CF80915E0226
:10253000816080935E02F12C9BCF251306C094131B
:1025400004C0F801EE2009F487C0C8010E945C0FA6
:10255000882319F1EE2009F180915E02803270F03B
:102560002091590230915A0238872F831986BB86F1
:10257000AA868C87CE0107960E94ED0E86E0F801B0
:10258000A9E5B2E001900D928A95E1F70E948611CB
:102590000E947811FF24F3946BCFC8010E94ED0EC6
:1025A000F9CF311113C07A2DB98AA88A6E2D898985
:1025B0000E94630F89E592E00E94ED0E86E0F6012D
:1025C00011928A95E9F70E947811B5CF25130FC0B3
:1025D00094130DC0E1100BC0F8018583C8010E945F
:1025E000ED0E86E0F60111928A95E9F741CFC80118
:1025F0000E945C0F882389F2EE2079F280915E02BE
:10260000803208F4BBCF2091590230915A023A83AC
:1026100029831B82BD82AC828E83CE010196ACCF12
:10262000E436F10508F03EC0FE2CEE2009F4B5CFEB
:1026300025132AC0941328C080915E0280FD1BC020
:10264000982F907FC1F0F8018583903F31F0982F4B
:10265000907F905F8F70892B8583C8010E94ED0E5B
:1026600086E0F801A9E5B2E001900D928A95E1F7C4
:102670000E947811FDCE86E0F801A9E5B2E0019054
:102680000D928A95E1F7F4CEC8010E945C0F81118A
:1026900075CF80915E02816080935E02C8010E94C6
:1026A000ED0EE6CE7A2DB98AA88A6E2D89890E9410
:1026B000630F86E0F60111928A95E9F7D9CFEE20F3
:1026C00009F46BCFC8010E945C0FF82E882309F42F
:1026D00064CF86E0F801A9E5B2E001900D928A95F9
:1026E000E1F789E592E00E94880B0E948611C0CF35
:1026F00081E08E25D7CE1F93CF93DF93CDB7DEB782
:102700002C970FB6F894DEBF0FBECDBF4F8358870E
:1027100069877A878B879C87CE0107960E94DC1198
:10272000882369F08A859B85892B39F04F815885EC
:10273000842F85238F3F09F071C016E05FC086E0CB
:10274000FE013796DE01119601900D928A95E1F710
:102750008A859B85892B89F38F81988589238F3F73
:1027600061F32091280230E0C90101968770992712
:10277000409127024817190671F40E94390F1092F0
:1027800028021092270286E0E9E5F2E0DF011D92BF
:102790008A95E9F7D2CF96E0929FD001939FB00D32
:1027A0001124A75DBD4FFE01319601900D929A95BF
:1027B000E1F7809328020E945711BFCF819FC0018B
:1027C0001124875D9D4F0E94DC118823E9F0E09180
:1027D00027021E9FF0011124E75DFD4F40815181CA
:1027E00062817381848195810E94720F809127029A
:1027F00090E00196877099278093270280912702A5
:10280000909128028913DACF2C960FB6F894DEBF88
:102810000FBECDBFDF91CF911F91089569857A8555
:102820008B859C850E94720F88CF682F8091000154
:10283000909101010C94452A682F8091000190919C
:1028400001010C94472A80910001909101010C94A0
:10285000492A809160028595859585950895809196
:1028600060028770089582E080935F0281E0809328
:10287000F601089510925F021092F601089580917A
:102880005F02823021F481E080935F0208958330FB
:1028900011F40C943A14089580915F02823021F46F
:1028A00083E080935F020895813011F40C943A1410
:1028B000089590916002977081E009F480E0089596
:1028C00090910C0392FB222720F9281751F080FBEE
:1028D00092F990930C0380910B0390910C030C944C
:1028E0005715089580910C0382FB882780F991E0A9
:1028F00089270C94601481E00C94601480E00C949F
:10290000601480916C02089590916C02892B8093E1
:102910006C020895809590916C02982390936C02BC
:10292000089510926C02089590916B02892B809308
:102930006B020895809590916B02982390936B029F
:10294000089510926B02089510926A020895809182
:102950006102089508950C94AA1490910C0392FDBD
:1029600008C090916102981721F0809361020C9445
:10297000AB14089580916102882329F010926102BE
:1029800080E00C94AB140895E0910001F0910101F6
:1029900080916C028083E0910001F09101018081BF
:1029A00090916B02892B8083E0910001F0910101ED
:1029B000808190916A02892B808390916102992392
:1029C00081F0E0910001F09101018081892B8083E9
:1029D00080910001909101010E94FD2981110E94C6
:1029E000BA1480910001909101010C94B8290895C6
:1029F0000C94F71490910C0392FD10C098E0899FFD
:102A000090011124622B609360020E94F40F809168
:102A100060028595859585950C94F8140C94F40FB7
:102A20001092600280E00C94F814909160028095FE
:102A3000892380936002282F277039F4282F082ECD
:102A4000000C330B9217130621F490910C0392FFA4
:102A500007C08595859585950E9415100C941015D5
:102A6000089590E080E00E94B73221E0893E9E4FB9
:102A700009F020E0822F089582E090E00C94AF32BC
:102A800083E090E00C94AF32682F83E090E00C94E8
:102A9000BD32CF9384E090E00E94AF32C82F82E233
:102AA00090E00E94AF32982F8C2FCF910895CF9352
:102AB000C92F682F84E090E00E94BD326C2F82E223
:102AC00090E0CF910C94BD32AB01BC018FE090E05F
:102AD0000C94CF32AB01BC0183E190E00C94CF3277
:102AE00060E070E0CB010C946A1560E070E0CB010F
:102AF0000E9464150C94701569EE7EEF90E080E002
:102B00000E94DB3260E082E090E00E94BD3260E033
:102B100083E090E00E94BD321092230210922402C2
:102B2000109225021092260260E084E090E00E945C
:102B3000BD3260E082E290E00E94BD3260E085E05C
:102B400090E00E94BD3260E086E090E00E94BD32DD
:102B50006FEF87E090E00E94BD3240E050E0BA01A4
:102B600088E090E00E94CF3260E08DE090E00E942B
:102B7000BD3240E050E0BA0188E190E00E94CF32DF
:102B800060E087E190E00E94BD3240E050E0BA0191
:102B90008CE190E00E94CF3270E060E080E290E053
:102BA0000E94DB3240E050E0BA0188E190E00E94F0
:102BB000CF320C9475150C947C15682F8EE090E044
:102BC0000C94BD320E94202B60938002709381028E
:102BD000809382029093830260937C0270937D02C3
:102BE00080937E0290937F0208950E94202B609331
:102BF000800270938102809382029093830260939B
:102C000078027093790280937A0290937B02089500
:102C100085B7806885BF85B7806885BF08950895AA
:102C200008950C940F1608950C9413160E9408161C
:102C300086ED98E10E949F2B0E9410160C941116AD
:102C40000C94BF1A089508950E9422160C9423161E
:102C50000E940B2B0E94502A0E94B2190E945121FF
:102C600080E00E94AE210E9443200C9414169F9293
:102C7000AF92BF92CF92DF92EF92FF920F931F938A
:102C8000CF93DF93CDB7DEB72A970FB6F894DEBFA8
:102C90000FBECDBF0E94351AC82E81110E94E215C9
:102CA0008EE6A82E82E0B82E10E000E0902E802F55
:102CB0000E940319E82EF501F1905F01F81609F45E
:102CC0005CC08091840281FD0E9409198F2D8E25A0
:102CD000D12CFF24F394982F9F2109F449C00E941E
:102CE0002016882399F0DE829F82EF2081E009F48C
:102CF00080E088870E94142B8160782F9A878987CB
:102D00004E815F8168858A850E943C0BF801E259FB
:102D1000FD4F8081F826F0820E94A020182F81119B
:102D20000E94F5150E942824C11001C011110E94B3
:102D3000EE220E94271F0E94A22990916D028917FE
:102D400099F10E94A22980936D022A960FB6F894F9
:102D5000DEBF0FBECDBFDF91CF911F910F91FF90CE
:102D6000EF90DF90CF90BF90AF909F900C94FF0AB0
:102D7000D394FF0CF6E0DF12AECF0F5F1F4F0A3087
:102D8000110509F093CF8FEF89838A831B820E94FC
:102D9000142B8160782F9D838C8349815A816B81AC
:102DA0008D810E943C0BB8CF2A960FB6F894DEBFF7
:102DB0000FBECDBFDF91CF911F910F91FF90EF908C
:102DC000DF90CF90BF90AF909F900895CF93DF9307
:102DD0000E94FC17EC01811522E5920708F047C01C
:102DE000811531E5930708F0BAC0883E910530F5AA
:102DF000803E910508F092C0883A910588F4853AA2
:102E0000910508F084C08130910509F487C00097CE
:102E100009F484C0049708F081C0D0E0C0E07EC00F
:102E20008F3B9105D0F7C85AD0E0CC0FDD1FC457B7
:102E3000DE4F0990D881C02DD46470C081159042B6
:102E400050F4C11581E0D80708F068C0CD3ED10527
:102E500020F3D06563C0C11590E4D907F0F2C11525
:102E600020E5D20708F05EC0DF70D06A57C0811538
:102E700036E5930718F5811545E5940708F087C0F6
:102E8000C11584E5D80708F07DC09C2F96959695CE
:102E90009E0123703327C115D34508F465C0C1E0F6
:102EA000D0E002C0CC0FDD1F2A95E2F730E2939FFD
:102EB000C0011124C82BD92BDA6830C0C11589E5AF
:102EC000D80768F4C11598E5D90708F06AC0C1159C
:102ED00027E5D20708F0A1CFDD27D0661FC0C115B6
:102EE0003AE5D30708F462C0CE01905681159042AE
:102EF00008F093CF8D2F8F710E94931890E0982F38
:102F0000882788279F719C012C2BE90148C0C55A4E
:102F1000D0E0C654DE4FC881D0E0D064CE01DF914E
:102F2000CF910895CE01E4E096958795EA95E1F773
:102F300083702C2F26952695237090E2299F90016F
:102F40001124382B8C2F8370C1E0D0E002C0CC0F4D
:102F5000DD1F8A95E2F7C22BD32BDC68DFCFD82F99
:102F6000CC27C16FD06ADACFC1E0D0E002C0CC0F6D
:102F7000DD1F2A95E2F720E2929FC0011124C82BA1
:102F8000D92BEBCFDC2FCC27C46FD06AC7CF0E94E0
:102F90009318C82FD0E0DC2FCC27CC27DF71D0626C
:102FA000BDCFDC2FCC27C06FD06AB8CF8C2F8F70ED
:102FB0000E94931834E0D695C7953A95E1F7CF7003
:102FC0009C2FEC01D069AACF972F70E026E0929F4A
:102FD000600D711D1124FB019CE3899FE00DF11D23
:102FE0001124EE0FFF1FE453FE4F85919491089535
:102FF0000E94E4170C94E61682389105B1F1B0F402
:103000008133910509F475C048F48932910509F4BA
:1030100069C08A32910509F473C00895853391051A
:1030200009F459C08933910501F10895833E910552
:10303000A9F138F4803E9105F9F0823E910549F1FD
:103040000895863E9105A9F1873E9105C9F1843E18
:10305000910519F520910C0321FF1FC080910B03EE
:1030600084FD14C087EE90E0089520910B03237037
:10307000A1F080EE90E0089520910B0320FD47C061
:1030800030910C0330FF09C024FF44C090E080E081
:1030900004C020910B0322FDF7CF089520910B036C
:1030A00022FD3BC030910C0330FDE3CF24FFF5CF70
:1030B000EDCF20910B0323FFF0CF24FDE7CFD2CF3C
:1030C00020910B0323FD2CC030910C0331FFEECF78
:1030D00084EE90E0089520910B0325FFDECF89E276
:1030E00090E0089520910B0325FFD7CF85E390E072
:1030F000089520910B0326FFD0CF8AE290E0089537
:1031000020910B0326FFC9CF81E390E0089589E366
:1031100090E0089583EE90E0089582EE90E00895A7
:1031200086EE90E0089590910B0392FF06C0282F41
:1031300028712830F9F4877F846093FF06C0282F18
:1031400028712831F1F4877E846120910C0320FFDF
:1031500006C0382F38713830D9F4877F816021FF5D
:1031600006C0282F28712831D1F4877E816194FD13
:10317000877E0895282F24712430F9F68B7F88608C
:10318000DCCF282F2471243101F78B7E8861DDCFBD
:10319000382F3171313019F78E7F8860E0CF282FBA
:1031A0002171213121F78E7E8861E1CF80E0089581
:1031B00008950E943115811102C00E94DB150E9402
:1031C0003C15809384020E94491590930C038093D0
:1031D0000B030E94D8180E944015682F70E090E001
:1031E00080E00E94920F60911F02709120028091F6
:1031F0002102909122020C94CC0F08950C94FD189A
:1032000008950C940019E82FF0E0E95EFC4F8081EE
:103210000895089580EA8A95F1F7089500C0089509
:103220000C940A19F894E82FE295EF70F0E031A1C0
:10323000282F2F7081E090E001C0880F2A95EAF7CF
:10324000982F9095932391A392A1892B82A3789490
:10325000089508950C942919CF93DF93C3ECD1E01E
:1032600089918F3F11F00E94121981E0C83CD80764
:10327000B9F7CDEBD1E089918F3F11F00E9412197F
:1032800081E0C33CD807B9F7DF91CF910895CF9281
:10329000DF92EF92FF920F931F93CF93DF93EC0196
:1032A000D62E062F10E0C8018D539E4F7C01FC01E5
:1032B00080818F3F09F44BC0F894E82FE295EF70BE
:1032C000F0E091A18F7021E030E001C0220F8A95DB
:1032D000EAF7892F822B81A382A12095282322A39C
:1032E00078940E940E19EDEBF1E030E020E0C12C63
:1032F00051E041914F3FA1F1A42FA295AF70B0E0F2
:1033000090968C9190E04F7002C0959587954A9564
:10331000E2F780FD25C0852F022E01C0880F0A9498
:10332000EAF7C82A2F5F3F4F2630310511F7F70122
:1033300080818F3F11F00E94121961E0C11001C01D
:1033400060E08D2D0E941019C00FD11FC882DF913F
:10335000CF911F910F91FF90EF90DF90CF90089544
:1033600080E0DFCF0E94D91A809102018091020192
:1033700095E0811190E09093220385E0891B809372
:1033800021030E942C19EDE0F3E0A7E1B3E01192D4
:103390001D9283E0E731F807D1F785E00E94881A93
:1033A0000E94400A0C94E31AFF920F931F93CF934D
:1033B000DF9300D000D00F92CDB7DEB70E94BF1AC6
:1033C000F82E60912203882309F442C08E010F5F1A
:1033D0001F4F85E0F80111928A95E9F7862F90E05A
:1033E000B801895E9C4F0E94F11AE09121039E0171
:1033F0002A5F3F4FF0E0882311F1BF01695E7C4FE7
:10340000D801F12CFB014191BF019D91491731F089
:10341000AF0141505109FA019083F82EA217B3076A
:1034200089F70E94460A8F2D0F900F900F900F90F2
:103430000F90DF91CF911F910F91FF900895E95E5A
:10344000FC4FD80111921D92A217B307D9F7E9CF0B
:1034500070E0695E7C4F8091210390E0895E9C4F13
:103460000E947E1B0E942A19DECFEF92FF920F93DB
:103470001F93CF93DF93CDB7DEB72A970FB6F8949B
:10348000DEBF0FBECDBF8E010F5F1F4F8AE0F80178
:1034900011928A95E9F7F12C6F2DC8010E94471906
:1034A000F394F5E0FF12F8CF4AE050E0B8018DE068
:1034B00093E00E9499327C0121E0892B09F420E0FD
:1034C000E114F10441F08AE0F801ADE0B3E00190CD
:1034D0000D928A95E1F76091220370E0695E7C4F5E
:1034E00045E08DE093E00E94891A81E090E0EF28AA
:1034F00011F40E94D4192A960FB6F894DEBF0FBEBD
:10350000CDBFDF91CF911F910F91FF90EF90089564
:103510000895FF920F931F93CF93DF93F82E092FF7
:10352000162FD72FC42F222349F081E080938702E2
:103530000E94142B909386028093850280918702CB
:103540008823A1F080918502909186020E942C2B05
:10355000059760F0EF2DF02FA12FBD2FCE0FDF2F9D
:10356000D11DEC17FD0741F410928702DF91CF9136
:103570001F910F91FF90089581918D93F2CF8091CB
:103580008A02811107C00E944932882351F081E0EC
:1035900080938A0281E090918A02913009F080E064
:1035A000089582E080938A020E944432F3CF0C9403
:1035B000BF1A0E94D71A809302010E94BF1A81117C
:1035C0000C94271B08950E94BF1A811102C00C940D
:1035D000291B089581E090918B029A3008F080E0D9
:1035E00008950F931F93CF93DF93EC018B0180918C
:1035F0008B028A30B8F4B801CE010E947C1BC82F20
:10360000811122C080918B028F3FB9F40E94142B4C
:1036100090938902809388028C2FDF91CF911F9124
:103620000F91089580918802909189020E942C2B1D
:10363000843F914000F7C0E0EFCF8F5F80938B0213
:103640008A3020F7C1E0E8CF10928B02E5CF0C94CE
:10365000DC270C94DF27EF92FF920F931F93CF93F9
:10366000DF937901C82F880FDD0B41155105A9F0B3
:103670008AE08C9FF0018D9FF00D1124ED5FFE4FCD
:103680008381948184579D4F228130E042175307F4
:1036900008F49A01A9010E94A632CE010E94E928ED
:1036A000892B11F501151105E9F08AE08C9FF001D5
:1036B0008D9FF00D1124ED5FFE4F458150E0041702
:1036C000150708F4A8018AE08C9FF0018D9FF00D8A
:1036D0001124ED5FFE4F6681778164577D4FC701EE
:1036E0000E94A63281E001C080E0DF91CF911F915E
:1036F0000F91FF90EF9008950C941C1D0C94481DA1
:103700000F931F93CF93DF9300D000D0CDB7DEB7D8
:103710006091AA027091AB028091AC029091AD02CF
:103720000E943B2B11E0643671058105910518F16B
:103730000E94762A6E5F7F4F8F4F9F4F69837A83F7
:103740008B839C8310E000E030E020E044E050E018
:10375000BE016F5F7F4F84E00E942B1B182F8823D0
:1037600051F00E94202B6093AA027093AB028093C9
:10377000AC029093AD02812F0F900F900F900F909D
:10378000DF91CF911F910F9108957F928F929F9219
:10379000AF92BF92CF92DF92EF92FF920F931F935F
:1037A000CF93DF930F92CDB7DEB7762E4A01590142
:1037B000680101E010E09E012F5F3F4F50E040E0C4
:1037C00070E060E00E942B1B182F882309F43EC094
:1037D000F40160817181828193810E943B2B643668
:1037E00071058105910558F18701950150E040E090
:1037F00070E060E0872D0E942B1BB82EB701C60138
:103800000E94522111E09981981310E01B2139F098
:103810000E94202BF4016083718382839383812F24
:103820000F90DF91CF911F910F91FF90EF90DF905C
:10383000CF90BF90AF909F908F907F900895B701E9
:10384000C6010E94522199818913CECFA701B601EA
:10385000C5010E94A632E3CFEF92FF920F931F9310
:10386000CF93DF930F92CDB7DEB70091CD011091CA
:10387000CE01095F1F4FEE24E394F12C9E012F5FD0
:103880003F4F46EA52E063E082E00E94C51B182FDA
:10389000882321F0CE0101960E941221812F0F90E2
:1038A000DF91CF911F910F91FF90EF900895CF92EC
:1038B000DF92EF92FF920F931F93CF93DF9300D08D
:1038C00000D00F92CDB7DEB76B010091CD01109102
:1038D000CE010F5F1F4F85E0E82EF12C9E012F5F78
:1038E0003F4F42EA52E061E080E00E94C51B88231E
:1038F00049F095E0FE013196ADE9B2E001900D92FC
:103900009A95E1F795E0EDE9F2E0D60101900D928C
:103910009A95E1F70F900F900F900F900F90DF9115
:10392000CF911F910F91FF90EF90DF90CF9008956E
:103930000F931F93CF93DF930F92CDB7DEB70E9403
:103940002524082F8983E091CD01F091CE011485C3
:103950006091AE027091AF028091B0029091B1027D
:103960000E943B2B643671058105910530F4812F4F
:1039700090E011E008171906C9F010E000E030E00F
:1039800020E041E050E0BE016F5F7F4F85E00E9484
:103990002B1B182F882351F00E94202B6093AE021E
:1039A0007093AF028093B0029093B102812F0F9079
:1039B000DF91CF911F910F910895AF92BF92CF9257
:1039C000DF92EF92FF920F931F93CF93DF937C01CF
:1039D0005B016A010E94EA1A01E010E0882311F0FD
:1039E0000AE010E0C1E0D0E0F894B501C701F601AB
:1039F00009957894811104C021960C171D075CF479
:103A0000DF91CF911F910F91FF90EF90DF90CF90BA
:103A1000BF90AF900895CC9F9001CD9F300D300D99
:103A2000112490E080E045E34A95F1F7000001960B
:103A300082179307C1F7D8CF0F931F93CF93DF93CC
:103A4000EC018B0147E55CE10E94DD1C8823D1F08D
:103A50004CE25CE1B801CE010E94DD1C882391F0AC
:103A600040E85BE1B801CE010E94DD1C882351F0E3
:103A700048E95CE1B801CE01DF91CF911F910F9130
:103A80000C94DD1C80E0DF91CF911F910F91089580
:103A9000CF92DF92EF92FF920F931F93CF93DF931A
:103AA0000F92CDB7DEB7F8940091CD011091CE0101
:103AB000C801019625E0FB01DC0101900D922A95D9
:103AC000E1F765E070E00E945221F801808378946C
:103AD000F894CE0101960E9409218981F80187831B
:103AE00061E070E0CE0101960E945221F8018683C8
:103AF0007894F8946085718582859385C090990249
:103B0000D0909A02E0909B02F0909C026C157D058B
:103B10008E059F0551F06093990270939A028093ED
:103B20009B0290939C020E94592A7894F894F80181
:103B30008485882369F00E94EE2278940F90DF91AB
:103B4000CF911F910F91FF90EF90DF90CF9008954C
:103B50000E940A24F2CF0E94912A0E94FD2C0E940A
:103B6000162D0E94282D0E942416FBCF8091B802AA
:103B700080FF12C06091440185E0689FB00111246C
:103B8000759567957595679560387105A8F5611508
:103B90007105A1F1862F089581FF09C0609144014C
:103BA00085E0689FB001112475956795EDCF609110
:103BB000440182FD0AC08091B7028823D1F0909120
:103BC000430160914401891728F085E0689FB001A6
:103BD0001124DACF869FB001112485E0869F9001E1
:103BE000879F300D1124692F70E0C9010E94763241
:103BF000CBCF65E070E0CECF8FE7089581E00895E8
:103C00008091B80280FF0CC06091400170E0759512
:103C10006795759567956115710549F1862F08952A
:103C200081FF06C06091400170E075956795F3CF04
:103C30006091400182FD0BC09091B6029923A1F0E2
:103C400060913F0180914001961738F0682F70E035
:103C50006038710500F38FE70895899FC001112432
:103C600070E00E947632F4CF61E070E0D7CF81E05F
:103C700008958D3E31F40E94B61D81958093BC025B
:103C800008958E3E19F40E94B61DF8CF8F3E31F490
:103C90000E94B61D81958093BB020895803F19F460
:103CA0000E94B61DF8CF893F29F40E94001E809320
:103CB000BD0208958A3F21F40E94001E8195F7CF2E
:103CC0008B3F31F40E94001E81958093BE020895BF
:103CD0008C3F19F40E94001EF8CF9FE0980F983097
:103CE00070F4815F990B21E030E001C0220F8A95CA
:103CF000EAF78091BA02822B8093BA0208958D3F31
:103D000031F48091B80281608093B80208958E3FAB
:103D100021F48091B8028260F7CF8F3FB9F780918C
:103D2000B8028460F1CF4091BB028D3E59F480917E
:103D3000BC0287FF0DC01092BC0241110BC0109253
:103D4000B70208C08E3E81F48091BC0218169CF325
:103D5000442381F08091BD029091BE02892B09F02D
:103D60005AC01092B60208958F3E49F447FFF0CF33
:103D70001092BB028091BC028111ECCFE0CF803F5A
:103D800019F41416ACF3E4CF9091BD02893F29F4E5
:103D90001916F4F61092BD02DBCF8A3F19F497FF93
:103DA000D7CFF8CF9091BE028B3F29F497FFD0CFA9
:103DB0001092BE02CDCF8C3F19F41916CCF3C8CFA8
:103DC0009FE0980F983090F4815F990B21E030E0EC
:103DD000B90102C0660F771F8A95E2F7CB01809583
:103DE0009091BA0289238093BA02B2CF8D3F31F409
:103DF0008091B8028E7F8093B802AACF8E3F21F4C3
:103E00008091B8028D7FF7CF8F3F09F0A1CF8091CD
:103E1000B8028B7FF0CF08950E94142B9C019091E3
:103E2000BB028091BC02982B21F03093B502209305
:103E3000B4029091BD028091BE02982B21F0309384
:103E4000B3022093B20289EB92E00C94C329EF9263
:103E5000FF920F931F93CF93DF9300D000D000D039
:103E6000CDB7DEB786E0E9EBF2E0DE011196019016
:103E70000D928A95E1F7E090BB02F090BC020091B0
:103E8000BD021091BE021092BB021092BC021092B1
:103E9000BD021092BE028E2D8F2991F08091B40246
:103EA0009091B5020E942C2BAC019091B7029923FE
:103EB00009F43FC0809145018417150608F447C0F6
:103EC000802F812B91F08091B2029091B3020E94D9
:103ED0002C2BAC019091B602992309F477C0809104
:103EE00041018417150608F47FC08091BB029091B0
:103EF000BC02892B9091BD02892B9091BE02892B27
:103F000011F00E940C1F86E0FE013196A9EBB2E091
:103F100001900D928A95E1F726960FB6F894DEBFD0
:103F20000FBECDBFDF91CF911F910F91FF90EF900A
:103F30000895209146018AE0289F900111242417BA
:103F4000350708F0BDCF9F5F9093B70202C09F3F37
:103F5000D1F7EE2059F00E94B61D9FEF1E140CF40D
:103F600091E0899F802D11248093BB02FF2059F09E
:103F70000E94B61D9FEF1F140CF491E0899F802DC5
:103F800011248093BC023091BB02332309F498CFF3
:103F90002091BC02222309F493CF45EB3403C001E6
:103FA0001124992359F09093BB0245EB240390010F
:103FB0001124332339F03093BC0282CF81E0809307
:103FC000BB02F3CF81E08093BC027ACF2091420103
:103FD0008AE0289F900111242417350708F085CF27
:103FE0009F5F9093B60202C09F3FD1F7002359F024
:103FF0000E94001E9FEF10160CF491E0899F802D07
:1040000011248093BD02112359F00E94001E9FEFDE
:1040100011160CF491E0899F802D11248093BE022B
:104020003091BD02332309F460CF2091BE022223D8
:1040300009F45BCF45EB3403C0011124992359F0F7
:104040009093BD0245EB240390011124332339F0F2
:104050003093BE024ACF81E08093BD02F3CF81E06E
:104060008093BE0242CF86E0E9EBF2E0DF011D92D1
:104070008A95E9F71092B7021092B6021092B80230
:1040800008950C94EB0880910201811106C084EF21
:104090008093480185EF8093470120914801A22F2A
:1040A000A295AF70B0E091963C9191972F7081E00E
:1040B00090E0BC01022E01C0660F0A94EAF7462F79
:1040C0004095432391964C93919792963C91929769
:1040D000362B92963C93929740914701E42FE295BC
:1040E000EF70F0E031A14F70042E01C0880F0A94E8
:1040F000EAF7982F9095932391A392A1892B82A3FD
:1041000090968C9190E002C0959587952A95E2F75C
:10411000817020A130E002C0359527954A95E2F7DD
:1041200092E020FF90E0892B8093C40290910201DD
:1041300081E098279093C002891B8093BF02089565
:10414000CF93E091C402EE0FEE0F20914801A22F11
:10415000A295AF70B0E090968C9190E02F7002C065
:10416000959587952A95E2F78170992740914701A7
:10417000A42FA295AF70B0E090962C9130E04F70D4
:1041800002C0359527954A95E2F7A9014170552758
:1041900020FF02C042E050E0842BE82BE093C402F1
:1041A000C091C002EF70F0E0E153FE4F808190912A
:1041B000C302890F8093C30220E0823064F0EC2FA9
:1041C000F0E0EF53FD4F80818F5F808360E08C2FA4
:1041D0000E94412021E08091C3028F3F64F4EC2FC4
:1041E000F0E0EF53FD4F80818150808361E08C2FA0
:1041F0000E94412021E08091C302082E000C990BFF
:1042000062E070E00E9476328093C302822FCF91E9
:104210000895E091C002F0E0EF53FD4F2081FC01D2
:1042200020830895FF920F931F93CF93DF93D09134
:10423000BF020D2F10E00F531D4FFC01C081F8018C
:104240008081C81BFC2E80E01F147CF09C2FC7FDD2
:1042500090E0C91BC11114C08823E9F0DF91CF9110
:104260001F910F91FF900C94F515FA94F80180813D
:104270008F5F808360E08D2F0E94412081E0E4CF3A
:10428000CF5FF80180818150808361E08D2F0E9493
:10429000412081E0DFCFDF91CF911F910F91FF90FF
:1042A00008950895FC01680F791F8FEF91E36E1751
:1042B0007F0709F408952191822728E030E087FFE5
:1042C00006C0880F892721503109C9F7F0CF880F20
:1042D000FACFCF92DF92EF92FF920F931F93CF937B
:1042E000DF936C017B0164E670E088E70E947A2628
:1042F000EC0197FD12C010E000E0F601E00FF11FA5
:10430000849164E670E00E94F426EC01892B29F484
:104310000F5F1F4F0E151F0581F70E947727CE01F3
:10432000DF91CF911F910F91FF90EF90DF90CF9091
:104330000895E4E2F3E080E092E0DF019C011D9249
:1043400021503040E1F7F0932B05E0932A058FEFE1
:104350009FEF9093F1028093F00208950E945C0613
:104360008093EC0280FD0FC080E88093EB020E94F6
:1043700074266DE070E083EA95E00E946921892B44
:1043800021F080E0089580E2F0CF8091EC0263E0BC
:1043900070E081FD26C080EA95E00E946921892BAA
:1043A00081F76DE070E080E995E00E946921892B3A
:1043B00041F70E94202B605A75418F4F9F4F6093A9
:1043C00026057093270580932805909329050E9460
:1043D000992181E08093EF028093EE021092ED022A
:1043E00008958DE995E0D9CF2091EB0236E0839FC7
:1043F000C0011124629F800D911D1124811522E0BE
:10440000920714F090E080E08C5D9C4F90932B0518
:1044100080932A05089520912A0530912B052E516D
:1044200033404091EB02642F70E0C9010E94623278
:10443000481B463010F4240F311D211582E0380747
:1044400010F030E020E02C5D3C4F30932B052093A2
:104450002A0508951F93CF93DF93162F8A3031F4E6
:1044600081E0DF91CF911F910C94A4228D3011F443
:1044700080E0F7CFC0912A05D0912B0596E0FE0190
:10448000A5ECB2E001900D929A95E1F7803EC8F05C
:1044900086E0FE0111928A95E9F711111EC0C091C4
:1044A0002A05D0912B0546E050E0BE0185EC92E054
:1044B0000E949932892BF9F4DF91CF911F910C94CE
:1044C0000B22F6E08F9FB001112460557A4F46E031
:1044D00050E0CE010E949032E0CFE0912A05F091A9
:1044E0002B059F012A5F3F4F2E173F07C1F28081A6
:1044F00080958193F9CFC452D340CE0125E09695A3
:1045000087952A95E1F721E030E0A90102C0440F28
:10451000551F8A95E2F7CA014091F0025091F102CD
:10452000842B952B259645E0D695C7954A95E1F7BE
:1045300002C0220F331FCA95E2F7822B932B909370
:10454000F1028093F002B8CFCF93382FE0912A0583
:10455000F0912B05E452F3402091EB02622F70E0C2
:10456000CF010E946232281B822F332369F066E05C
:104570000E945632C82FC15010F4CF91089560E0C8
:1045800080E20E942A22F7CF9F01280F311D2115BA
:10459000324018F080E0F0E0E0E08E0F9F2F911D98
:1045A0008C5D9C4F90932B0580932A05E6CF1F933B
:1045B000CF93DF93EC01162FFE018491811104C08B
:1045C000DF91CF911F910895612F0E942A22219699
:1045D000F3CF0E94D72281E00C94A4228091EF02B5
:1045E000811103C08091EE0208950E94202B605A31
:1045F00075418F4F9F4F60932605709327058093D9
:104600002805909329058091EE028111EBCF62E09D
:1046100070E08EE895E00E946921892B19F781E00E
:104620008093EE02DFCF2F923F925F926F927F9244
:104630008F929F92AF92BF92CF92DF92EF92FF92B2
:104640000F931F93CF93DF938091EF02882369F03C
:104650002091F0023091F1022115310531F0809165
:10466000ED0261E070E0882399F0DF91CF911F9116
:104670000F91FF90EF90DF90CF90BF90AF909F9001
:104680008F907F906F905F903F902F9008958F5FF5
:10469000082F10E01B01082E02C0220C331C0A94C4
:1046A000E2F7A90142215321452B89F39091EC02B5
:1046B00090FD44C08295880F807680934B019801CD
:1046C000369527953695279520934E01815E8093E8
:1046D0004C0110924F0124E630E047E050E069E4DD
:1046E00071E088E70E942327892B09F0BECFA8013B
:1046F00025E0440F551F2A95E1F78091EC0280FDDB
:104700002BC04C5D5C4F04E610E020E230E060E43A
:1047100088E70E944A27892B09F0A7CF0E94EE2242
:10472000E101C095D0958091F0029091F102C823EB
:10473000D923D093F102C093F00297CF880F880F4E
:10474000880F80934B0110924E01895F80934C013A
:1047500083E080934F01BFCFEBECF2E080E2DF011A
:104760001D928A95E9F7A3EEB1E00FED11E087EE17
:10477000C82E81E0D82E97E0592E772473948D911E
:10478000E80129918E01240F352F311D2C5D3C4FFE
:10479000E82FF0E0E553FD4F90E080E0652C681ACB
:1047A000872C082E01C0880C0A94EAF77901A12C05
:1047B000E701B9907E01B820662D6A196770962EC0
:1047C000062E000C770BDB2D01C0DD0F9A94EAF763
:1047D0007195619571096770772701C0B6946A95E4
:1047E000EAF7BD2A6081962E9B289082A39468E008
:1047F000A612DECF019631968830910579F6CA1659
:10480000DB0609F0BCCF04E610E020E230E04BEC20
:1048100052E07DCF8091EE029091EF02911103C0A2
:1048200091E089270895882369F062E070E08CE8C0
:1048300095E00E946921892B19F08091EE0208957C
:104840001092EE028091EE02EBCF8091EE0208957D
:104850000F931F938091EF02882389F180912405A3
:10486000909125050E942C2BC29760F00E94142B7A
:10487000909325058093240560E080E00E94F42158
:104880000E9465060E9413238091EE028823B9F0EE
:104890000E94202B009126051091270520912805C4
:1048A00030912905601B710B820B930B6F3F7F4F7B
:1048B0008F4F9F4720F41F910F910C940A241F9152
:1048C0000F9108950F931F93CF93DF93C42FD22F8F
:1048D000FC0182818823C9F04093F4020E94142BCA
:1048E0009093F3028093F20280E28C0F883008F0FC
:1048F00050C0C77081E001C0880FCA95EAF7DF9108
:10490000CF911F910F910C94380C1091F402141355
:1049100035C08091F2029091F3020E942C2B8436D4
:10492000910560F5C0E2CD0F1D17B9F080E2810F4F
:10493000883040F4177081E001C0880F1A95EAF7BB
:104940000E943F0CC83048F481E09D2F977001C051
:10495000880F9A95EAF70E94380C802F0E94300C3D
:10496000C830B8F4D77081E001C0880FDA95EAF753
:10497000DF91CF911F910F910C943F0C80E28C0F2F
:10498000883038F4C77081E001C0880FCA95EAF713
:10499000EFCFDF91CF911F910F9108950F939C015D
:1049A000CB01243F4CE5340759F1A8F4293DFCE53F
:1049B0003F0701F12A3D4CE53407D1F1283D3C4544
:1049C00091F406E221EE41EE68ED7CE50E9462245E
:1049D00080E00F910895263FFCE53F07E9F0B0F035
:1049E000273F3C45F9F0FC018281882339F1109280
:1049F000F402EFCF07E225EE45EE69ED7CE5E6CF68
:104A000006E221EE40EE64EF7CE5E0CF07E225EE22
:104A100044EE65EF7CE5DACF06E221EE42EE66EF8A
:104A20007CE5D4CF07E225EE46EE67EF7CE5CECFFE
:104A300008E221E045EE6AED7CE5C8CF81E0C9CF10
:104A4000CF93DF93EC01FB018281882309F420C11D
:104A5000C430FDE5DF07C8F5CB3F9CE5D90730F44E
:104A60009E0122503C452431310598F50E9449159C
:104A700090930C0380930B03C031FCE5DF0709F42E
:104A8000E0C008F061C0C8309CE5D90709F4CBC08C
:104A900088F5C430FCE5DF0709F4B3C0E8F4C230A0
:104AA0009CE5D90709F4A7C080910B038260C3304D
:104AB000DC4509F4A3C080910B0390910C030E9484
:104AC00057150E94390F80E004C0C236EDE5DE07BD
:104AD00069F2DF91CF91089580910B038061C63018
:104AE000FCE5DF0709F48AC008F48FC080910B034E
:104AF000806284C080910B038D7FCC309CE5D90708
:104B000009F47CC070F480910B038C60CA30FCE522
:104B1000DF0709F473C008F48AC080910B038E7F0D
:104B20006DC080910B03877FCE309CE5D90709F4D7
:104B300065C080910B038B7FCF30DC4508F45EC0ED
:104B400080910B038F7E5AC0CD3FFCE5DF0709F44F
:104B500074C040F5C4319CE5D90709F48AC058F403
:104B6000C231FCE5DF0709F474C008F46EC080911F
:104B70000B03837F43C0CB3F9CE5D90709F449C0B1
:104B800008F04DC0C531DC4509F095CF80910B038D
:104B900082FB992790F921E0922790FB82F990FB04
:104BA00083F92CC0C1308DE5D80709F458C088F4CA
:104BB00080910C038360CF3FECE5DE0769F18091C3
:104BC0000C038D7FC115DD4538F180910C038C7F7E
:104BD00023C0C3308DE5D80709F458C008F452C08B
:104BE000C236DD4509F067CF90910B03892F8F7E88
:104BF00094FF806103C080910B03816080930B035D
:104C00005ACF80910B038460F9CF80910B038860A9
:104C1000F5CF80910C03816080930C034CCF809181
:104C20000C038260F9CF80910B038064E7CF0E9470
:104C3000390F80910B038068E1CF80910C038E7F48
:104C4000EBCF80910B038F7DD9CF80910B038F7BAE
:104C5000D5CF0E94390F80910B038F77CFCF8091F2
:104C60000C03982F909591708E7F892B90FB81F982
:104C7000D3CF0E94390F90910B03892F97FB87F9AF
:104C80008058BCCF81E00E94DD1515CF80E0FBCFBE
:104C900081E01FCFCF93DF93EB0186319C4511F567
:104CA0000E9481149A81992399F08A7A91E009F4FB
:104CB00090E09093F502811109C089E20E941514D9
:104CC0000E94C41480E0DF91CF91089585E3F6CF70
:104CD0008091F502811104C089E20E941C14F0CF7A
:104CE00085E3FBCF81E0EFCF1092B9008CE0809399
:104CF000B80008959F92AF92BF92CF92DF92EF9249
:104D0000FF920F931F93CF93DF93B82EEB010E9476
:104D1000142B6C01EE24E394F12CC431D10560F026
:104D200025E0E22EF12CCF3FDC0731F0CE0164E12B
:104D300070E00E9462327B0184EAA82E94E8992EEA
:104D40001092BC00A092BC000E94142B8C01809198
:104D5000BC0087FF0DC08091B900887F883039F191
:104D60008091B900887F803111F10FEF1FEF09C0EA
:104D70000E94142B801B910B8E159F0540F30EEFA4
:104D80001FEFCF3FDC07E1F2C6010E942C2B8C17EE
:104D90009D07B0F2C801DF91CF911F910F91FF9055
:104DA000EF90DF90CF90BF90AF909F900895B0921A
:104DB000BB009092BC000E94142B8C018091BC001F
:104DC00087FF0AC08091B900887F883111F0803454
:104DD00061F610E000E0DECF0E94142B801B910BE7
:104DE0008E159F0558F3CBCF0F931F93CF93DF936F
:104DF000EB018093BB0084E88093BC000E94142BDD
:104E00008C018091BC0087FF11C02091B900287FE0
:104E100081E090E0283211F490E080E09195819556
:104E20009109DF91CF911F910F910895CF3FDC073A
:104E300041F30E94142B801B910B8C179D0708F3E4
:104E40008EEF9FEFEECFCF92DF92EF92FF920F9314
:104E50001F93CF93DF936B018A017901B9010E94FF
:104E60007A26E6010C0D1D1DC017D10761F424E957
:104E70002093BC00DF91CF911F910F91FF90EF9095
:104E8000DF90CF90089597FDF2CFB70189910E94EE
:104E9000F426EACFCF92DF92EF92FF920F931F9307
:104EA000CF93DF93C62F6A017901B8010E947A2659
:104EB00097FD0CC0B8018C2F0E94F426E601EC0C83
:104EC000FD1CCE15DF0511F097FF0CC024E92093DF
:104ED000BC00DF91CF911F910F91FF90EF90DF9079
:104EE000CF900895B80189910E94F426EACF84E911
:104EF0008093BC0008958EE14A9B02C08150E1F787
:104F00004A9BFECF08955A9880E28A95F1F75A9A03
:104F10000895FC013BE03A95F1F798E020E080E04D
:104F200031E040E14A95F1F7880F4A9B02C0816069
:104F3000232742E04A95F1F7000040E14A95F1F756
:104F4000915079F790E19A95F1F799B132E03A955D
:104F5000F1F7000040E14A95F1F792FB992790F9AB
:104F600092272081920F90830895EF92FF920F93E2
:104F70001F93CF93DF930F92CDB7DEB719828C01C9
:104F80007C01E60EF11C0E151F0561F481E099818C
:104F9000911180E00F90DF91CF911F910F91FF90C1
:104FA000EF9008950E947B27CE0101960E948927E9
:104FB000F80181938F01E7CF529A5A9A0895529837
:104FC0005A9AEA9AE9E6F0E080818F7C808308951E
:104FD0006150770B91E001C0990F6A95EAF720E0E4
:104FE00031E0911108C0222391F05A9A80E28A950B
:104FF000F1F75A980895492F482339F05A9A2327F0
:1050000040E24A95F1F79695ECCF5A98F9CF5A9825
:10501000EDCFFF920F931F93CF93DF93EC018C01A1
:10502000060F111DC017D10731F4DF91CF911F91E9
:105030000F91FF900895F9900E94832768E08F2DCB
:105040000E94E827EFCF1F920F920FB60F92112404
:10505000EF92FF920F931F932F933F934F935F9382
:105060006F937F938F939F93AF93BF93EF93FF9330
:10507000CF93DF930F92CDB7DEB719820E947B27C3
:10508000CE0101960E948927A82FA695A695A695E0
:10509000282F229525709A2F9570290F922F9370A3
:1050A00026952695920F982797708981982B09F05D
:1050B00075C0A73008F072C080E18A95F1F75A9A5E
:1050C000529AB2E0BA95F1F700C05A98EA2EF12C44
:1050D000EAE0AE9FD0011124AD5FBE4F1896ED916E
:1050E000FC9119973097B1F06091CD017091CE018C
:1050F00016962D913C911797260F371F13968D9179
:105100009C911497680F791F15964C9115971296DC
:105110008C9109958AE08E9DF0018F9DF00D1124F0
:10512000ED5FFE4F6581662351F02091CD013091F6
:10513000CE0186819781820F931F0E9409280E94C9
:105140008327F0E1FA95F1F75A9852985A9A80E13C
:105150008A95F1F78AE08E9D80018F9D100D1124B4
:105160000D5F1E4FD80112966C911297662371F154
:105170002091CD013091CE0113968D919C91820F9B
:10518000931F0E94B527D801ED91FC91882311F05F
:1051900088E001C082E080830E947B270F90DF912E
:1051A000CF91FF91EF91BF91AF919F918F917F919F
:1051B0006F915F914F913F912F911F910F91FF90B0
:1051C000EF900F900FBE0F901F901895ED91FC91EE
:1051D000DFCF0F931F93CF93DF93EC0107970CF072
:1051E000A9C08AE08C9FF0018D9FF00D1124ED5F26
:1051F000FE4F80819181892B09F49CC0F894529ACA
:105200005A9885E08A95F1F700008C2F8695857075
:105210009C2F9570890F982F937086958695890F8E
:105220008E0193E0000F111F9A95E1F7082B0E9461
:10523000832700C068E0802F0E94E827A0E1AA959C
:10524000F1F752985A9A4A9B27C087E090E04A9912
:1052500025C08AE08C9F80018D9F100D11240D5F69
:105260001E4FF80165816623A1F12091CD01309197
:10527000CE0186819781820F931F0E94B5278111ED
:1052800028C0529A5A9AD801ED91FC9182E080830D
:10529000789482E090E016C000C0D5CF0197B9F4B1
:1052A000529A5A9A8AE08C9FF0018D9FF00D11243A
:1052B000ED5FFE4F0190F081E02D81E080837894D6
:1052C00081E090E0DF91CF911F910F91089500C090
:1052D000BECF0E947B27B0E2BA95F1F75A98529A56
:1052E000E0E1EA95F1F78AE08C9FF0018D9FF00DE7
:1052F0001124ED5FFE4F6281662351F02091CD01B4
:105300003091CE0183819481820F931F0E940928DE
:105310000E9483278AE08C9FF0018D9FF00D11245D
:10532000ED5FFE4F0190F081E02D1082789490E0C7
:1053300080E0C8CF84E090E0C5CF9093FC028093DA
:10534000FB0208950E94BF1A811103C08091F602EA
:105350000895E091FB02F091FC02309721F001905A
:10536000F081E02D099480E008950E94A22908951B
:10537000E091FB02F091FC02309721F00280F38172
:10538000E02D09940895E091FB02F091FC02309722
:1053900039F022E0DC012C930480F581E02D0994A2
:1053A00008952091F9023091FA022817390771F017
:1053B0009093FA028093F902E091FB02F091FC02D3
:1053C000309721F00680F781E02D0994089520910F
:1053D000F7023091F8022817390771F09093F8021C
:1053E0008093F702E091FB02F091FC02309721F0EC
:1053F0000084F185E02D099408959C012E5F3F4FB4
:10540000AC01485F5F4F80E02417350709F4089529
:10541000F90191919F019923B9F38F5FF5CF66232D
:1054200049F0FC01329608962191261729F0E817D9
:10543000F907D1F780E0089581E008959C01FC010F
:1054400032969FEF80E04191461751F09F3F19F44B
:10545000411101C0982F8F5F8630A9F79F3F09F453
:105460000895290F311D97FD3A95F901628308953A
:10547000FC01329608962191261303C0DF01119793
:105480001C92E817F907B9F708950C941E2A0C949A
:10549000382A029626E0FC0111922A95E9F7089530
:1054A00010922C0510922D0510922E0510922F05AA
:1054B0000895CF92DF92EF92FF926B017C010E94E0
:1054C000BF1A81110EC00E94202BC61AD70AE80A03
:1054D000F90AC0922C05D0922D05E0922E05F0928B
:1054E0002F05FF90EF90DF90CF9008950F931F93BB
:1054F0000E94BF1A882321F01F910F910C94202B3A
:105500000E94202B00912C0510912D0520912E0535
:1055100030912F05600F711F821F931F1F910F91F4
:1055200008950895089508950C94932A809138055C
:10553000843049F10E94942A80E00E94FF0A109270
:10554000FD0288E190E020E40FB6F894A8958093DE
:1055500060000FBE2093600083B7817F846083BFAB
:1055600083B7816083BF7894889583B78E7F83BF2C
:105570000FB6F894A89580916000886180936000D0
:10558000109260000FBE08950895CF930E94922A52
:105590000E94351A0E94C42AC0E08C2F0E94031971
:1055A000811105C0CF5FCA30C1F7CF91089581E066
:1055B000FCCF08950C94D92A0E94390F0E94A22989
:1055C0000E94FF0A0C94DA2A1F921FB61F92112420
:1055D0008F939F93AF93BF938091FD02811113C06E
:1055E0008091300590913105A0913205B09133053D
:1055F0004196A11DB11D8093300590933105A09374
:105600003205B0933305BF91AF919F918F911F9059
:105610001FBE1F90189582E084BD93E095BD9AEF60
:1056200097BD80936E0008952FB7F8948091300550
:1056300090913105A0913205B09133052FBF0895A7
:105640002FB7F89460913005709131058091320543
:10565000909133052FBF08959C014FB7F894809126
:10566000300590913105A0913205B09133054FBFBF
:10567000821B930B0895CF92DF92EF92FF922FB788
:10568000F894C0903005D0903105E0903205F0904C
:1056900033052FBFA7019601261B370B480B590B6B
:1056A000CA01B901FF90EF90DF90CF9008957894F0
:1056B0001F921FB61F9211248F939F93AF93BF9396
:1056C0008091300590913105A0913205B09133055C
:1056D0000196A11DB11D8093300590933105A093D3
:1056E0003205B0933305BF91AF919F918F911F9079
:1056F0001FBE1F90189581E08093E00080E28093A8
:10570000D8001092C9008FE19EE40197F1F700C024
:10571000000087E090EBDC01809341059093420507
:10572000A0934305B093440588E19CE00FB6F8943C
:10573000A895809360000FBE90936000FFCF909378
:10574000E9018093E80108958091090308959091FB
:105750003805943031F58093FE0270930003609316
:10576000FF0282E08093E9008FEF9091E800815082
:1057700095FD06C095ED9A95F1F700008111F5CFE2
:105780008091E80085FF0DC050E040E063E070E0EC
:105790008EEF92E00E94B32D8091E8008E77809387
:1057A000E8000895BC0184E00C94A72BBC0183E0C1
:1057B0000C94A72B9C0182E08093E9009FEF8091DD
:1057C000E800915085FD06C085ED8A95F1F700004F
:1057D0009111F5CF8091E80085FF0CC050E040E0CA
:1057E00066E070E0C9010E94B32D8091E8008E77D9
:1057F0008093E8000895CF93DF93EC0181E08093DC
:10580000E9008FEF9091E800815095FD06C095ED7D
:105810009A95F1F700008111F5CF8091E80085FF9E
:1058200014C050E040E068E070E0CE010E94B32D6B
:105830008091E8008E778093E80088E0FE01A1E087
:10584000B3E001900D928A95E1F7DF91CF91089531
:1058500080913705811109C00E94432F0E94A02F1B
:105860008091E20084608093E200089510923705F1
:10587000089508950895089542E061EC81E00E9442
:10588000BF2E42E261EC82E00C94BF2E80913A057B
:10589000833009F45FC030F48130C1F1823009F403
:1058A0009BC008958A3009F487C08B3009F46DC01D
:1058B000893009F04EC080913905813209F049C024
:1058C00080913D0590913E05029708F042C080917D
:1058D000E800877F8093E8008091E80082FF35C070
:1058E0009091F3008091F200029729F48091F100E9
:1058F0008B7F813021F48091F100809309038091A6
:10590000E8008B778093E8000C94F32E80913905A2
:10591000813AF9F48091E800877F8093E8008091D4
:105920003D0590913E05892B61F468E081E093E0AC
:1059300070E00E94022E8091E8008B778093E8004F
:10594000089560E090E080E0F3CF80913805811108
:10595000C3CF089580913905813AD9F780913D05EB
:1059600090913E05892BA9F78091E800877F80936D
:10597000E8008091E80080FFFCCF80915A0180937D
:10598000F1008091E8008E77BDCF8091390581329A
:1059900001F780913D0590913E05892BD1F68091CC
:1059A000E800877F8093E8000E94F32E80913B05FA
:1059B00080935A010C94390F80913905813249F650
:1059C0008091E800877F8093E8000E94F32E809109
:1059D0003C0580930A03089580913905813A09F0C6
:1059E000B8CF8091E800877F8093E8008091E8003D
:1059F00080FFFCCF80910A03C2CF84B7877F84BF2A
:105A00000FB6F894A895809160008861809360003B
:105A1000109260000FBE80E890E00FB6F89480937B
:105A20006100909361000FBE0C9416160E94432FE4
:105A30000E94A02FE2EEF0E0808184608083789461
:105A40000E9429320E94281680E591E00C949D293D
:105A500080913805853031F480913805853021F00A
:105A60000E94DC2A0C9437160E94962A80913605F3
:105A7000882391F30E94C52A882371F30E949D2DEB
:105A80000E94390FE9CF0C94452D292F332723305D
:105A9000310519F168F42130310509F444C0223090
:105AA000310509F445C090E080E030E020E025C0F9
:105AB0002132310549F122323105A9F780E490E025
:105AC00026EE3BE061157105C1F08BE790E02BE617
:105AD0003BE06130710589F0E6CF9927813091056F
