:100000000C9413060C944B060C944B060C94E028AD
:100010000C944B060C944B060C944B060C944B061C
:100020000C944B060C944B060C943E300C941231FD
:100030000C94062B0C944B060C944B060C944B061C
:100040000C944B060C944B060C944B060C944B06EC
:100050000C944B060C94A92B0C944B060C944B0659
:100060000C944B060C944B060C944B060C944B06CC
:100070000C944B060C944B060C944B060C944B06BC
:100080000C944B060C944B060C944B060C944B06AC
:100090000C944B060C944B060C944B060C944B069C
:1000A0000C944B060C944B060C944B060005010572
:1000B0000205030504050505000601060206030600
:1000C00004060506000701070207030704070507E2
:1000D00000080108020803080408050800090109CE
:1000E00002090309040905090000010002000300D8
:1000F00004000500000101010201030104010501E2
:1001000000020102020203020402050200030103CD
:1001100002030303040305030004010402040304AF
:1001200004040504808182838485868788898A8B7C
:100130008C8D8E8F9091929394A0A1A2A3A4A5A63A
:10014000A7A8A9AAABACADAEAFB0B1B2B3B4C0C1B1
:10015000C2C3C4C5C6C7C8C9CACBCCCDCECFD0D107
:10016000D2D3D4004350534C4B000A0A00556E645E
:1001700065660041646A0A004C6F776572005261DF
:1001800069736500426173650A00426173650A0024
:100190004C41594552000A0A00556E646566004E8E
:1001A000756D700047616D65004D6F757365004436
:1001B000766F72616B00517772740057494E004D33
:1001C000414300004D4F4445000A0A0029001E002B
:1001D0001F00200021002200290014001A0008003E
:1001E000150017002B0004001600070009000A0084
:1001F000E1001D001B00060019000500E0000100E1
:10020000E200B45D2A00A800BD5D2700260025009D
:10021000240023002F00130012000C0018001C0003
:10022000340033000F000E000D000B00E500380015
:10023000370036001000110001000100E400B55D38
:100240002C000000165C010001000100010001000B
:100250002B0033003600370013001C00010004009F
:100260001200080018000C00E100340014000D001A
:100270000E001B00E300E200E000B45D2A00A800CD
:1002800001000100010001000100010001000F0058
:10029000150006000A0009002800160011001700CA
:1002A0000B000700E5001D0019001A0010000500F2
:1002B000B65DE600E400B55D2C0000000100010021
:1002C000010001000100010001001E001F002000CC
:1002D0002100220024021F0238022F0230025600A1
:1002E00035022002220236023702570001000100C7
:1002F00001000100010001000100010001000100F6
:1003000001000100E300270026002500240023004F
:1003100031021E022102270226023402350031007A
:100320002E0030002F002D0201000100010001000D
:10033000280001000100010001000100010001008E
:100340003A003B003C003D003E003F0039007B008E
:100350007A007C007D000100C25DBC5DC55DC35DAF
:10036000BE5DC15D01000100010001004C00010003
:1003700001000100010001000100010045004400EE
:10038000430042004100400001004B004F0052007A
:100390005100500001004E00BA5DB85DB75DB95D17
:1003A000010001000100010001000100015D0000E9
:1003B000000000000000000000000000B25DB35D1E
:1003C000000069000000000000000000BF5D680040
:1003D000000000000000000000000000010001001B
:1003E000010001000100000000000000000000000A
:1003F00000000000C05D00000000B700B600A800CB
:10040000000000000000AE00C45D0000000000001D
:10041000B400C85DC75D00000100010001000100DB
:1004200001000000010001000100010001000100C5
:10043000010001000100FE00FF00010001000100B9
:100440000100F100F20001000100010001000100C3
:10045000010001000100010001000100B25D010086
:100460000100010001000100010001000100010084
:100470000100ED000100010001000100F000EE00AC
:10048000EF00F90001000100010001000100FA0085
:10049000010001000100010001000100290001002C
:1004A00001000100010001002B000100010001001A
:1004B0000100010001000100010001000100010034
:1004C000E100010001000100010001000100010044
:1004D000E200E0002C000100010001000100010029
:1004E0000100010001000100010001000100010004
:1004F000B25D0100010001000100010001000100E6
:1005000001000100010001000100010028000100BC
:100510002A000100010001000100010001000100AA
:1005200001000100010001000100010001000100C3
:1005300001000100010001000100010001000100B3
:10054000010001000100010001000100B25D010095
:1005500001000100010001000100010054005500EC
:10056000610060005F005300010056005E005D0006
:100570005C000100010057005B005A005900630055
:1005800001000100620058002A00010000AE00AF27
:1005900000DA0281FFD9F1DB20A4A62EAF00A0C0B3
:1005A00000A1C800AED580A81FD300408D14200044
:1005B00007087F0807003E5B4F5B3E003E6B4F6BBA
:1005C0003E001C3E7C3E1C00183C7E3C18001C5724
:1005D0007D571C001C5E7F5E1C0000183C1800004C
:1005E000FFE7C3E7FF00001824180000FFE7DBE780
:1005F000FF0030483A060E00262979292600407F60
:1006000005050700407F05253F005A3CE73C5A009E
:100610007F3E1C1C0800081C1C3E7F0014227F2209
:1006200014005F5F005F5F0006097F017F000066C6
:1006300089956A0060606060600094A2FFA29400E7
:1006400008047E04080010207E20100008082A1CE0
:100650000800081C2A0808001E10101010000C1EAC
:100660000C1E0C0030383E383000060E3E0E0600E0
:1006700000000000000000005F000000000700070D
:100680000000147F147F1400242A7F2A12002313F1
:100690000864620036495620500000080703000035
:1006A000001C224100000041221C00002A1C7F1C6B
:1006B0002A0008083E080800008070300000080882
:1006C0000808080000006060000020100804020014
:1006D0003E5149453E0000427F4000007249494971
:1006E00046002141494D33001814127F1000274560
:1006F000454539003C4A494931004121110907006B
:10070000364949493600464949291E00000014006F
:1007100000000040340000000008142241001414BE
:1007200014141400004122140800020159090600A3
:100730003E415D594E007C1211127C007F494949AF
:1007400036003E41414122007F4141413E007F4908
:10075000494941007F09090901003E4141517300A7
:100760007F0808087F0000417F4100002040413F92
:1007700001007F08142241007F40404040007F027A
:100780001C027F007F0408107F003E4141413E0073
:100790007F09090906003E4151215E007F091929A0
:1007A000460026494949320003017F0103003F40CA
:1007B00040403F001F2040201F003F4038403F0086
:1007C0006314081463000304780403006159494D5D
:1007D0004300007F41414100020408102000004115
:1007E00041417F00040201020400404040404000BB
:1007F0000003070800002054547840007F28444438
:100800003800384444442800384444287F00385491
:100810005454180000087E09020018A4A49C780013
:100820007F080404780000447D4000002040403DE3
:1008300000007F102844000000417F4000007C043D
:10084000780478007C080404780038444444380074
:10085000FC182424180018242418FC007C08040424
:10086000080048545454240004043F4424003C40ED
:1008700040207C001C2040201C003C4030403C00BC
:100880004428102844004C9090907C004464544CC0
:1008900044000008364100000000770000000041DD
:1008A000360800000201020402003C2623263C0018
:1008B000000000000000404040F0F8F8FF38FFF86A
:1008C000F83FF8F8FF38FFF8F8F04040400000002B
:1008D00000000080C0C0C0800000C0C080000000D8
:1008E00080C0C000C0C0000080C0C0000000000088
:1008F000C0C0C0C0C000C0C00000000000000000B8
:1009000000000000000000000000000000000000E7
:1009100000000000000000000000000000000000D7
:10092000000000000000000000000000000000C007
:10093000F0F8FC3E1E06010000007F4141417F00AF
:100940007F4141417F000080C0E07E5B4F5BFEC085
:100950000000C000DCD7DEDEDED7DC00C000000017
:100960000000000000000000000000000000000087
:10097000000000000000494949FFFFFFFFE0DFBF22
:10098000BF00BFBFDFE0FFFFFFFF49494900000094
:1009900000001F3F6060E0BF1F007F7F071E381E02
:1009A000077F7F007F7F0E1F3B716000000000000B
:1009B0007F7F0C0C0C007E7E007F7E0303007F7E19
:1009C00003037E7E03037F7E000F3E703C063C7077
:1009D0003E0F00327B49493F7E007F7E0303001EAD
:1009E0003F69696F2600000000000000000000035E
:1009F0000F1F3F3C7870600000007F4141417F0045
:100A00007F4141417F00307B7F7830202030787FEC
:100A10003B0003000F7F0F0F0F7F0F00030000004C
:100A200000000000000000000000000000000000C6
:100A3000000000000000010101070F0F7F0F7F0F72
:100A40000F7E0F0F7F0F7F0F0F07010101000000C6
:100A50000000000000000001010000000000000094
:100A60000000000000000000000000000000000086
:100A70000000000000000000000000000000000076
:100A80000000000000000000000000000000000066
:100A90000000000000000000000000000000000056
:100AA0000000000000000000000000000000000046
:100AB0000000000000000000000000000000000036
:100AC0000000000000000000000000000000000026
:100AD0000000000000000000000000000000000016
:100AE0000000000000000000000000000000000006
:100AF0000C0353006F0066006C00650000001A03D1
:100B00004A006F00730065006600410064006100E8
:100B10006D00630069006B00000004030904090212
:100B20003B00020100A0FA090400000103010100DA
:100B3000092111010001224000070581030800017D
:100B40000904010001030000000921110100012234
:100B50007B00070582032000011201000200000053
:100B60000832FC870201000102000105010902A10F
:100B70000185020901A100050919012908150025AF
:100B8000019508750181020501093009311581259A
:100B90007F95027508810609381581257F950175B5
:100BA000088106050C0A38021581257F9501750814
:100BB0008106C0C005010980A101850319012AB77A
:100BC00000150126B700950175108100C0050C09BC
:100BD00001A101850419012AA002150126A0029590
:100BE0000175108100C005010906A101050719E082
:100BF00029E7150025019508750181029501750801
:100C000081010507190029FF150026FF00950675CB
:100C100008810005081901290595057501910295BE
:100C20000175039101C011241FBECFEFDAE0DEBFD2
:100C3000CDBF04B603FE18C08091380590913905E8
:100C4000A0913A05B0913B058730904BA740B04B3F
:100C500059F4109238051092390510923A05109205
:100C60003B05E0E0F8E3099511E0A0E0B1E0E8E73A
:100C7000F7E602C005900D92A83DB107D9F725E02F
:100C8000A8EDB1E001C01D92A833B207E1F70E94C0
:100C9000081D0C949D330C940000CF93C82F0E9424
:100CA0006C1A8111C3E08C2FCF9108950E946C1AA9
:100CB00060E0882309F48CC089EC91E00E941B213C
:100CC00060E084EC91E00E942D2160E083EC91E0F3
:100CD0000E942D218091080360E080FF17C08FEBF8
:100CE00091E00E942D2180910C0290910D020E94B2
:100CF0008B0A8530E1F168F4882399F0813099F10D
:100D000060E089E991E00E941B2110C08BEB91E02B
:100D1000E8CF863081F1873099F760E08FE991E084
:100D200003C060E086EB91E00E942D2160E086E93F
:100D300091E00E941B2160E080E991E00E942D215A
:100D400080910A0290910B020E948B0A8230E1F19D
:100D5000B0F4882389F18130D1F060E08DE691E034
:100D60000E942D2119C060E08FEA91E0DDCF60E0A4
:100D700089EA91E0D9CF60E084EA91E0D5CF833071
:100D8000F9F0843051F760E083E791E003C060E060
:100D90008AE891E00E941B2160E08AE691E00E94CF
:100DA0001B210E941A2A81FB662760F984E691E0E4
:100DB0000E942D2180E0089560E084E891E0EACF70
:100DC00060E08EE791E0E6CF60E088E791E0E2CF77
:100DD00084E291E00E941B21EDCFCF93FB018B3B7E
:100DE0002DE5920709F430C108F059C0843B2DE588
:100DF000920709F4C4C020F58C37910509F434C179
:100E000050F48A37910509F459C18B37910509F4DB
:100E100045C1C1E0A1C0823B2DE5920709F498C00D
:100E200008F09DC08D379105A1F7C28181E0CC23E8
:100E300009F42EC10E9421180E94490C89E11DC1AC
:100E4000873B2DE5920709F4B4C080F4853B2DE57E
:100E5000920709F4A0C0863B9D45D9F6C28184E083
:100E6000CC2309F4A3C00E94C70F7FC0C281209188
:100E70000803893B3DE5930709F4CEC008F4B5C0EB
:100E80002170CC2309F4DCC08DE4222309F49FC037
:100E900081E00E9421180E94490C8FE4C9C0823C65
:100EA0002DE5920709F43AC140F58E3B2DE59207F6
:100EB00009F414C190F48C3B2DE5920709F418C194
:100EC0008D3B9D4509F0A5CFC28183EECC2309F46B
:100ED00021C10E94AA0B8CE2D0C0C281803C2DE5CA
:100EE000920709F448C008F442C081EECC2309F40B
:100EF00040C10E94AA0B8BE2C0C0853C2DE5920741
:100F000009F424C170F4833C2DE5920709F412C161
:100F1000843C9D4509F07DCFC281CC23E9F087E078
:100F200022C0873C2DE5920709F427C108F41EC1B1
:100F3000883C9D4509F06DCFC28180EECC2309F439
:100F40002EC10E94AA0B81EE0E94AA0B87E195C0D8
:100F5000C28180E0C11107C08C2FCF910895C2815A
:100F600081E0CC23C9F30E94C309C0E0F5CF85E03E
:100F7000CC2391F3F8CF86E0CC2371F3F4CFC28178
:100F800082E0CC2359F00E94C70F44E063E082E086
:100F90000E94FA09EACFC28183E0F3CF0E94D70F03
:100FA00044E063E082E00E94FA09D6CF0E94D70FA6
:100FB000D3CFC281809108038170CC2359F088235C
:100FC00089F184E00E9421180E94490C80E50E946A
:100FD000AA0BC2CF882391F184E00E9421180E94BD
:100FE000500C80E50E94F60B14CF2170CC2351F0F9
:100FF000222309F44DCF84E00E9421180E94490C5D
:101000008FE4E5CF84E0211101C081E00E94211826
:101010000E94500C8FE4E6CF2170CC2361F08AE46B
:101020002223A9F281E00E9421180E94490C80E548
:101030000E94AA0BEECE8AE42223A1F281E0CDCF5A
:101040008DE4222379F2E1CFC28181E0CC2331F01B
:101050000E9421180E94490C8AE2B9CF0E942118EF
:101060000E94500C8AE2BECFC28181E0CC2341F0C5
:101070000E9421180E94490C86E00E94AA0B75CF9D
:101080000E9421180E94500C86E00E94F60B64CF4B
:101090000E9421180E94500C89E1F7CFC28181E0A3
:1010A000CC2331F00E9421180E94490C8BE1E5CF3E
:1010B0000E9421180E94500C8BE1E7CFC28181E091
:1010C000CC2331F00E9421180E94490C8DE1D5CF2C
:1010D0000E9421180E94500C8DE1D7CFC28183EE6F
:1010E000CC2319F00E94AA0BA9CE0E94F60BD4CFF4
:1010F000C28183EECC2339F00E94AA0B81EE0E94BC
:10110000AA0B86E1BACF0E94F60B81EE0E94F60B85
:1011100086E1BBCF0E94F60B8CE2B7CFC28180EE96
:10112000CC2321F00E94AA0B88E3A7CF0E94F60BE4
:1011300088E3ABCFC28180EECC2321F00E94AA0BC2
:1011400089E09BCF0E94F60B89E09FCFC28180EEA1
:10115000CC2331F00E94AA0B81EE0E94AA0BB6CFDD
:101160000E94F60B81EE0E94F60BB6CFC28182EE92
:10117000BDCE0E94F60B8BE288CFC28182EECC23DB
:1011800039F00E94AA0B81EE0E94AA0B81E575CF6F
:101190000E94F60B81EE0E94F60B81E576CF0E944D
:1011A000F60B81EE0E94F60B87E16FCF811108C02C
:1011B00089EA611101C08AEA0E94400C81E0089529
:1011C0008130E1F78DE193E0611102C08DE191E0A2
:1011D0000E946C09F3CF9C013A9521153F4150F5CF
:1011E000FC01EE27F170BC0166277270AC01442748
:1011F00054709C012227387094FF0EC080E1EF2BC1
:1012000009F480E0672B09F08062452B09F08064C7
:10121000232B89F08068089581E0EF2B09F480E0AA
:10122000672B09F08260452B09F08460232B19F0AD
:101230008860089580E00895CF93DF93EB010E94CA
:10124000EB08FE010995DF91CF910895CF93DF93CD
:10125000EC01805E9109089720F060E17FE0209723
:1012600011F469E47CE0CE010E941C098C2F0E94DD
:10127000AA0BDF91CF910895CF93DF93EC010E94E9
:10128000F60BCE01805E9109089720F067E17FE0C0
:10129000209711F460E57CE0CE010E941C09DF91EB
:1012A000CF9108950F931F93CF93DF938C01EB01A0
:1012B0000E942609209741F4C8010E943C09DF9151
:1012C000CF911F910F9108958FE99FE00197F1F75A
:1012D00000C000002197EECF6AE070E089339105ED
:1012E00011F460E570E00E945209089581E00895CC
:1012F0000E94ED06089508950E947B090895A5E0D7
:10130000B0E0E5E8F9E00C94143349835A83309156
:10131000E70189819A81311119C0662399F022234E
:1013200089F00E948D10182F682F89819A810E9460
:10133000691069817A81812F0E945F172596E3E009
:101340000C9430330E947B10182FF3CF0E948D1025
:1013500069817A81F1CFFC01262F40815181628120
:10136000738184810E947F09089581E00895CF935D
:10137000DF93EC0160E00E94AB09BE010E947C0992
:10138000DF91CF910895CF93DF93C1E0D0E002C009
:10139000CC0FDD1F8A95E2F78C2F0E94D214CE016C
:1013A0000E94890FDF91CF910895E1E0F0E0DF0125
:1013B00002C0AA0FBB1F6A95E2F7BD01DF0102C0A0
:1013C000AA0FBB1F4A95E2F7AD01462B572B02C06F
:1013D000EE0FFF1F2A95E2F79A01282339232417DD
:1013E000350719F48E2B9F2B0895E095F0958E23E9
:1013F0009F230895242F462F682F80910A029091F1
:101400000B020E94D5090E94AD0F08950E94C618D4
:1014100008950E94CA18089508950E94340F0E94EA
:101420000C0A2FEF84E39CE0215080409040E1F7CC
:1014300000C0000008950E940D0A0E94CD2B08955F
:101440000E940D0A0E94F12B08950F931F93CF93D2
:10145000DF938C0161E00E94AB09EC01B8010E94AE
:101460007809811106C080E0DF91CF911F910F9123
:101470000895B801CE010E9494258823A1F3B801F4
:10148000CE010E940227882371F3B801CE010E9489
:10149000A822882341F3B801CE010E947426882334
:1014A00011F3F8018281882361F0CB35FDE5DF0778
:1014B00001F158F4C115ECE5DE0791F0CF3DDC45B4
:1014C00091F0C8010E947609CFCFCD358DE5D807C0
:1014D00069F090F0C83ADD45A1F70E94200AC3CF19
:1014E0000E941B0AC0CF0E946C15F7CF0E94AB145C
:1014F000E8CF0E94B514E5CF0E94B914E2CF0E9454
:10150000E32A0E94C20A0E944F2208950E94C60A3E
:101510000E94E82A0895292F332740E0211531053C
:1015200011F0C90148E09C0164E0369527956A9561
:10153000E1F72115310511F04C5FC9019C01369589
:101540002795369527952115310511F04E5FC90174
:1015500096958795892B09F04F5F842F08950895FC
:101560000E94AF0A089581E008950E94B30A089589
:101570000895CF93C82F0E94B00A8C2F0E94B50AFD
:10158000CF91089580E00E94B90A08950E94062A2A
:101590000E94B90A0895CF930E94062AC82F80910D
:1015A000DA018C1779F0C093DA010E94722B6093F4
:1015B000DB017093DC018093DD019093DE018C2FC1
:1015C0000E94B90ACF910895442319F08091E9014E
:1015D00008959C0143E0369527954A95E1F7620FFF
:1015E000731F8770992721E030E001C0220F8A9590
:1015F000EAF7FB019081922381E009F480E00895ED
:10160000FC01E770FF2721E030E001C0220FEA95DE
:10161000EAF733E0969587953A95E1F7FB01E80FF5
:10162000F91F8081442319F0282B208308952095E9
:101630002823FBCF0F931F93CF93DF938C01DC0103
:1016400011968C9111978A3048F5CC91C63030F5BF
:10165000D0E0B6E08B9FC00DD11D1124F80142816E
:101660006FED71E0CE010E94E40A40E0882389F02A
:10167000CE01880F991FFC01E355FF4FE491D8017B
:101680001196EC931197FC01E455FF4FE491EC9314
:1016900041E06FED71E0CE010E94000BDF91CF9130
:1016A0001F910F910895ABE0B0E0E9E5FBE00C94E9
:1016B00015334F83588769877A878B8761110E941A
:1016C000F6138A859B85892B29F08F81988589233C
:1016D0008F3F39F51E821D8285E0FE013796DE01BF
:1016E000119601900D928A95E1F78C819D81892B4D
:1016F00061F449815A816B817C818D819E810E9438
:10170000F9122B96E2E00C94313389819A81892376
:101710008F3F79F3CE0101960E94B5098111E9CF7F
:10172000F0CFCE0107960E941A0BD4CFFC01808126
:1017300091810E94BF1092959F70963051F4863F20
:1017400041F08091E90191E089278093E90190932C
:10175000E8010895CF93C82F8823B9F08CEF8C0F40
:10176000813AA8F46C2F80910001909101010E94B0
:10177000742A882329F08C2F0E9490130E9417143A
:101780008C2F0E9488130E941714CF91089580E235
:101790008C0F883048F4C77081E001C0880FCA956B
:1017A000EAF70E94D913EFCFEBE5EC0FE33040F4FA
:1017B000F0E0E158FE4F808190E00E94362AE5CFAC
:1017C000E8E5EC0FE73150F4F0E0EE0FFF1FEF5AC1
:1017D000FE4F808191810E944C2AD7CFCD3EA8F246
:1017E0008C2F0E948C1D0E945F1ECFCF882379F121
:1017F0009CEF980F913A28F40E9490130E941714BE
:10180000089590E2980F983050F4877091E001C0ED
:10181000990F8A95EAF7892F0E94DF13EFCF9BE596
:10182000980F933028F490E080E00E94362A0895C3
:1018300098E5980F973128F490E080E00E944C2AB8
:1018400008958D3E20F00E94E61D0E945F1E0895BF
:101850001F93CF93DF93182FEB010E94AA0B2097C1
:1018600039F4812F0E94F60BDF91CF911F910895DB
:101870008FE99FE00197F1F700C000002197EFCFBB
:101880006AE070E0893311F460E570E00E94280C92
:101890000895882321F00E94D9130E9417140895F7
:1018A000882321F00E94DF130E9417140895B0E0EE
:1018B000A0E0EDE5FCE00C940E336C01C62F172F71
:1018C000FC01D281058102950F700E94CF13E82E92
:1018D0008823D1F0DD2329F1812F807F803441F0EE
:1018E00090E29C0F9830E8F0803611F4C63FC9F0C2
:1018F0008091080382FF15C082E00E947A140E9442
:10190000CF1391E0E82EE926B12EB2949FE0B922E0
:10191000FBE0FB15C0F1EB2DF0E0E156FC4C0C9424
:10192000FF32E12CF1CF012F0F70812F807F11F05A
:101930000295007FDD2399F0002359F080E28C0F9F
:10194000883010F0C11107C0802F0E94D9130E9467
:1019500017148C2F6DC0802F0E94E913F8CF8C2FA5
:101960000E94F60B002379F080E28C0F883010F093
:10197000C11104C0802F0E94DF1303C0802F0E947A
:10198000EF130E9417142B2D2850330B24303105F0
:1019900020F40E94062A0E94B90ADD2339F0107F44
:1019A000103611F4C63F11F00E94C213EE2089F0E8
:1019B0000E94A51380FD0DC0F60112820E949F13A4
:1019C0000E94C70FC6010E94E60E0E949F130E944C
:1019D000D70FCDB7DEB7E9E00C942A33212F2F7053
:1019E000F22E812F807F803219F0F29480EFF8225E
:1019F000CC2381F0C13009F444C0DD2309F44CC08C
:101A0000002309F443C0F601858180FFA2CF8F70C7
:101A100085833CC08091080382FD15C0DD2359F009
:101A2000FF2029F08F2D0E94D9130E94171480E007
:101A30000E94AA0BA8CF80E00E94F60BFF2009F4B9
:101A4000A2CF8F2D98CFDD2381F0011106C00E9417
:101A5000F9138F290E94490C96CF0130C1F70E94DB
:101A6000F9138F290E9400148ECF011106C00E9425
:101A70000D148F2D0E94500C86CF013009F483CFB6
:101A8000F6CFDD2329F0063008F07DCF8F2DE2CF91
:101A9000053008F078CFEDCF002359F3C93309F0B2
:101AA00014C1FFEF27EE33E0F15020403040E1F762
:101AB00000C000008C2F0E94F60B65CF812F869509
:101AC0008695837069F0813009F05DCF8C2F912F5E
:101AD0009370D11102C090E080E00E944C2A53CF55
:101AE0008C2F912F9370D11102C090E080E00E9462
:101AF000362A49CF8C2FDD2329F00E948C1D0E94AD
:101B00005F1E41CF0E94E61DFACF812F8370A9F599
:101B1000D11139CF2C2F229526952770220F220F15
:101B20004C2F4F7050E0022E02C0440F551F0A94F4
:101B3000E2F790E080E0C4FF09C08FE090E002C0CF
:101B4000880F991F2A95E2F780959095212F269569
:101B500026952370842B952B223049F058F42130A0
:101B600019F00E94950F0FCF0E948C0F0CCF0E948E
:101B70009E0F09CF0E94890F06CF8695DD2311F0B5
:101B8000812F8170882309F4FECE2C2F2295269573
:101B90002770220F220F4C2F4F7050E0022E02C0F0
:101BA000440F551F0A94E2F790E080E0C4FF09C09B
:101BB0008FE090E002C0880F991F2A95E2F7809588
:101BC0009095212F269526952370842B952B2230D6
:101BD00049F058F4213019F00E940210D4CE0E942E
:101BE000F90FD1CE0E940B10CECE0E94AD0FCBCEFE
:101BF000012F0F70DD2329F0802F0E94C70F8C2F3B
:101C000029CF8C2F0E94500C802F0E94D70FBBCE63
:101C1000C23F41F160F4C03FB9F0C13F81F0DD2324
:101C200009F447C0011195CE812F8F711FC0C33FAA
:101C300001F1C43FA1F78091080382FD24C0812FE8
:101C40008F71DD2311F312C0DD2341F0053008F060
:101C50009ACE812F8F710E94E90F95CE063008F041
:101C600092CEF7CF812F8F71D111CFCF0E94C70FA6
:101C70008ACEDD2329F0812F8F710E94BB0F83CE86
:101C80000E94B60F80CEDD2351F0012F0F71802FFF
:101C90000E94C70F63E0802F0E945C1474CE81E025
:101CA0000E947A14023008F46ECE82E00E947A1408
:101CB0006ACE002379F0C93341F49FEFE7EEF3E0F9
:101CC0009150E040F040E1F7F3CE8FE39CE90197BB
:101CD000F1F7EECE812F8F7198CFE0E1EC0FE73076
:101CE00090F5F0E0E555FC4C0C94FF32DD2309F44F
:101CF0004ACE8091E90191E089278093E90143CEA2
:101D0000D093E90140CE81E08D27F7CFD1113BCEB2
:101D100081E0F3CFD11137CE1092E90134CEDD232B
:101D200019F00E94A9132FCE0E94B5132CCEDD23EB
:101D300039F08091E8018823E1F21092E80123CE86
:101D40000530B8F220CE8091E8010023D9F0882335
:101D500041F08091E90191E089278093E901109297
:101D6000E801D111F6CDEFE3FCE93197F1F700C0BE
:101D700000008C2F0E94F60B86E0F60111928A95E6
:101D8000E9F701CE882309F4FECDD111FCCD809175
:101D9000E90191E089278093E901CFCF0F931F9349
:101DA000CF93DF93EC01688179818A810E94CA1008
:101DB0008C010E9414100E94880FB801CE010E946D
:101DC000570CDF91CF911F910F910895CF93DF931F
:101DD000EC018B819C81892B29F088819981892351
:101DE0008F3F51F4DF91CF910895CE010E94CE0E26
:101DF000CE010E94B709F6CFCE010E94250A8111BB
:101E0000F4CF0E94CF13882369F38A81882351F38A
:101E10008091080382FFE6CF82E00E947A14E2CF2D
:101E2000882321F00E94E9130E9417140895882343
:101E300021F00E94EF130E941714089590E080E0B3
:101E40000E94362A90E080E00E944C2A0E94F613FD
:101E50000E9417140E947B1E0E945F1E08950E941C
:101E600098130E941E0F08950E94E6130E942F0FE0
:101E7000089592959F70963091F058F4925F9F70FC
:101E8000923058F4803F19F030F4883E30F481E00D
:101E900008959A5FF4CF843FD1F380E00895883E9F
:101EA000B0F3813FD1F7F3CFFC0183819481892B7B
:101EB00029F08081918189238F3F11F480E008957A
:101EC000808191810E94BF100E94390F0895A5E082
:101ED000B0E0EDE6FFE00C9415332596E2E00C94BB
:101EE0003133A6E0B0E0E7E7FFE00C941533269627
:101EF000E2E00C94313308950E947B0F08950E9414
:101F00007C0F90930D0280930C020E941E0F089587
:101F100008950E947F0F089520910C0230910D02C8
:101F2000822B932B0E947F0F089520910C023091F9
:101F30000D02822393230E947F0F089520910C02AB
:101F400030910D02822793270E947F0F08950E94EF
:101F50007B0F08950E94A70F08950E94AA0F9093E7
:101F60000B0280930A020E941E0F089590E080E009
:101F70000E94AD0F089521E030E0A90102C0440F96
:101F8000551F8A95E2F7CA010E94AD0F089521E01E
:101F900030E002C0220F331F8A95E2F780910A02D7
:101FA00090910B02822B932B0E94AD0F089521E09C
:101FB00030E002C0220F331F8A95E2F7209530955A
:101FC00080910A0290910B02822393230E94AD0F0D
:101FD000089521E030E002C0220F331F8A95E2F716
:101FE00080910A0290910B02822793270E94AD0FE5
:101FF000089520910A0230910B02822B932B0E94AC
:10200000AD0F089520910A0230910B028223932391
:102010000E94AD0F089520910A0230910B02822791
:1020200093270E94AD0F08950895262F277091E001
:1020300001C0990F2A95EAF723E0769567952A95CE
:10204000E1F7660F771F660F771FFA01E60FF71F9C
:1020500050E040E0682F70E08191DF0111979B0113
:10206000042E02C0369527950A94E2F72170219537
:102070002827292328272C934F5F5F4F4430510591
:1020800059F70895A82FA77023E0969587952A956C
:10209000E1F7880F991F880F991FFB01E80FF91FBF
:1020A00050E040E080E0219130E00A2E02C03695F9
:1020B00027950A94E2F721703327042E01C0220FDE
:1020C0000A94EAF7822B4F5F5F4F4430510559F76E
:1020D0000895262F9A3070F4863060F4682F70E0EF
:1020E00086E0989F600D711D11244AEE51E0822F09
:1020F0000E9415100895292F9A3068F4863058F4FC
:1021000090E06AEE71E036E0239F800D911D11246E
:102110000E944210089580E00895B0E0A0E0E3E955
:10212000F0E10C940E337C0100910A0210910B0235
:1021300080910C0290910D02082B192BCFE0D0E07A
:10214000CC24C394D12CBC2EC6010C2E02C0880F07
:10215000991F0A94E2F780239123892B49F4219750
:1021600090F7B12C8B2DCDB7DEB7E9E00C942A3374
:10217000B7018C2F0E947A17019789F3F3CFCF9381
:10218000DF93EC010E948D10BE010E947A17DF914F
:10219000CF9108951F93CF93DF93EB019091E701C7
:1021A000992339F0CB010E94BF10DF91CF911F918D
:1021B0000895882369F0CB010E948D10182F682F95
:1021C000CE010E946910BE01812F0E947A17EDCFC7
:1021D000CB010E947B10182FF6CF1F93CF93DF9374
:1021E000C0910E0216E080910F028C1304C0DF91A3
:1021F000CF911F910895D0E01C9FF0011D9FF00D1D
:102200001124E05FFD4F408151816281738184819F
:1022100095810E94710F2196C770E5CF40914002D1
:1022200050914102609142027091430280914402B8
:10223000909145020E94710F08951F93CF93DF93F1
:1022400080914502807F09F049C080914202882335
:1022500009F444C080910E02C0910F0260914002C7
:1022600070914102A0914302B0914402D62FD7232E
:1022700016E0C81799F190E0109711F0DF3F19F4BC
:1022800001968770F6CF189F9001199F300D112489
:10229000F901E05FFD4F41814713F2CF40814613C2
:1022A000EFCF42814111ECCF438154814A1B5B0B3C
:1022B0004436510528F7809145028F7080618093E4
:1022C0004502F901EB5EFD4F80818F708061808354
:1022D00080E492E00E94E60E0E94ED10DF91CF9123
:1022E0001F910895A1E1B0E0E8E7F1E10C940D330E
:1022F0008C0185E0F801DE011D9601900D928A9512
:10230000E1F7F801E28080E4C82E82E0D82E6091E7
:102310004302709144026115710509F44EC1909118
:10232000400220914102892F82238F3F09F445C149
:1023300040815181A380B480F0904202F501E61BF8
:10234000F70BFF2009F4EAC080914502382F307F57
:10235000E436F10508F0A3C031116DC0FE2C251341
:1023600016C0941314C0E11012C08F708061809366
:1023700045020E940E11C6010E94E60E80914502A0
:10238000F80185838F2D6196EAE00C942933A1141E
:10239000B10429F0842F85238F3F09F027C180E005
:1023A000F82FF170DF2E80FF3CC080910E0220914B
:1023B0000F0236E0821315C04D875E878D859E859E
:1023C0000E94BF10292F22952F702230F0F0243068
:1023D00018F59F70F1F0F8019581907FD1F4D12C20
:1023E0001EC090E0389FF001399FF00D1124E05F8E
:1023F000FD4F6181651306C06081641303C0628173
:10240000E6120FC001968770D5CF9F7011F0882318
:1024100031F3805E883018F3C8010E94E60EFD2C6F
:10242000B1CFEE2009F4AECF809145028160809358
:102430004502F12CA7CF251306C0941304C0F80160
:10244000EE2009F487C0C8010E94540F882319F1B7
:10245000EE2009F180914502803270F02091400217
:102460003091410238872F831986BB86AA868C87D4
:10247000CE0107960E94E60E86E0F801A0E4B2E0E5
:1024800001900D928A95E1F70E941D110E940E1194
:10249000FF24F39477CFC8010E94E60EF9CF3111E3
:1024A00013C07A2DB98AA88A6E2D89890E94670F78
:1024B00080E492E00E94E60E86E0F60111928A9591
:1024C000E9F70E940E11B5CF25130FC094130DC06C
:1024D000E1100BC0F8018583C8010E94E60E86E07A
:1024E000F60111928A95E9F74DCFC8010E94540F69
:1024F000882389F2EE2079F280914502803208F437
:10250000BBCF20914002309141023A8329831B8244
:10251000BD82AC828E83CE010196ACCFE436F1054C
:1025200008F03EC0FE2CEE2009F4B5CF25132AC0DA
:10253000941328C08091450280FD1BC0982F907F86
:10254000C1F0F8018583903F31F0982F907F905F24
:102550008F70892B8583C8010E94E60E86E0F80102
:10256000A0E4B2E001900D928A95E1F70E940E116D
:1025700009CF86E0F801A0E4B2E001900D928A95BF
:10258000E1F700CFC8010E94540F811175CF8091EF
:102590004502816080934502C8010E94E60EF2CE9A
:1025A0007A2DB98AA88A6E2D89890E94670F86E0E4
:1025B000F60111928A95E9F7D9CFEE2009F46BCF95
:1025C000C8010E94540FF82E882309F464CF86E0D6
:1025D000F801A0E4B2E001900D928A95E1F780E461
:1025E00092E00E94960B0E941D11C0CF81E08E25C3
:1025F000D7CEACE0B0E0EFEFF2E10C9414334F83B0
:10260000588769877A878B879C87CE0107960E94B7
:102610007211882369F08A859B85892B39F04F8157
:102620005885842F85238F3F09F06BC016E05FC06B
:1026300086E0FE013796DE01119601900D928A9593
:10264000E1F78A859B85892B89F38F81988589237A
:102650008F3F61F320910F0230E0C901019687702E
:10266000992740910E024817190671F40E94340F01
:1026700010920F0210920E0286E0E0E4F2E0DF0119
:102680001D928A95E9F7D2CF96E0929FD001939F51
:10269000B00D1124A05FBD4FFE01319601900D9247
:1026A0009A95E1F780930F020E94ED10BFCF819FB2
:1026B000C0011124805F9D4F0E9472118823E9F0B0
:1026C000E0910E021E9FF0011124E05FFD4F40815A
:1026D000518162817381848195810E94710F809103
:1026E0000E0290E001968770992780930E028091E8
:1026F0000E0290910F028913DACF2C96E3E00C942E
:10270000303369857A858B859C850E94710F8ECFC9
:10271000682F80910001909101010E94AA2A0895DA
:10272000682F80910001909101010E94AD2A0895C7
:1027300080910001909101010E94B02A089580913A
:102740004F02859585958595089580914F028770F4
:10275000089582E080934E0281E08093E90108951C
:1027600010924E021092E901089580914E0282303B
:1027700021F481E080934E020895833011F40E9489
:10278000B013089580914E02823021F483E080934B
:102790004E020895813011F40E94B0130895909173
:1027A0004F02977081E009F480E0089580915A0209
:1027B000089590915A02892B80935A02089580952A
:1027C00090915A02982390935A02089510925A02B7
:1027D000089590915902892B80935902089580950C
:1027E000909159029823909359020895109259029A
:1027F000089580915002089508950E94FC13089551
:102800009091080392FF08C090915002981721F010
:10281000809350020E94FD130895809150028823F6
:1028200029F01092500280E00E94FD130895CF938A
:10283000DF93E0910001F091010180915A028083C1
:10284000E0910001F0910101808190915902892B62
:10285000808390915002992381F0E0910001F091E2
:1028600001018081892B8083809100019091010179
:102870000E94622A81110E940D14C0910001D09122
:10288000010148E050E066E472E0CE010E94453369
:10289000892B59F088E0FE01A6E4B2E001900D9288
:1028A0008A95E1F7CE010E941D2ADF91CF9108950C
:1028B00008950E94581408959091080392FF11C042
:1028C00098E0899F90011124622B60934F020E942F
:1028D000C70F80914F028595859585950E94591463
:1028E00008950E94C70F089510924F0280E00E9441
:1028F0005914089590914F028095892380934F0237
:10290000282F277091F4282F082E000C330B9217D4
:10291000130659F09091080392FF07C0859585959D
:1029200085950E94D70F0E94741408959091080312
:1029300092FB222720F9281769F080FB92F99093E7
:10294000080380910703909108030E94E61482E037
:102950000E947A1408958091080382FB882780F9E9
:1029600091E089270E949614089581E00E949614B0
:10297000089580E00E949614089590E080E00E94FF
:10298000633321E0883E9E4F09F020E0822F0895B6
:1029900082E090E00E945B33089583E090E00E9423
:1029A0005B330895682F83E090E00E9469330895B7
:1029B000CF9384E090E00E945B33C82F82E290E0E6
:1029C0000E945B33982F8C2FCF910895CF93C92FFE
:1029D000682F84E090E00E9469336C2F82E290E0DF
:1029E0000E946933CF910895AB01BC018FE090E064
:1029F0000E947B330895AB01BC0183E190E00E940B
:102A00007B33089560E070E0CB010E94FB140895D1
:102A100060E070E0CB010E94F4140E94021508955A
:102A200068EE7EEF90E080E00E94873360E082E015
:102A300090E00E94693360E083E090E00E94693397
:102A400010920D0210920C0260E084E090E00E946F
:102A5000693364E082E290E00E94693360E085E0DF
:102A600090E00E94693360E086E090E00E94693364
:102A70006FEF87E090E00E94693340E050E0BA01D8
:102A800088E090E00E947B3360E08DE090E00E945F
:102A9000693340E050E0BA0188E190E00E947B3366
:102AA00060E087E190E00E94693340E050E0BA01C5
:102AB0008CE190E00E947B3370E060E080E290E087
:102AC0000E94873340E050E0BA0188E190E00E9424
:102AD0007B330E94081508950E9410150895682FF1
:102AE0008EE090E00E94693308950E94722B6093FB
:102AF0006F027093700280937102909372026093E0
:102B00006B0270936C0280936D0290936E02089535
:102B10000E94722B60936F02709370028093710217
:102B200090937202609367027093680280936902C7
:102B300090936A020895089508950E949C1508953F
:102B400008950E94A015089584EA98E10E94FC2946
:102B50000E949B150E949D1508950E946C1A08956D
:102B6000089508950E94B0150E94B11508950E941D
:102B7000A7180E94B80A08950E945D2B0E9464184D
:102B80000E94871A0E94CD190E94B7150E94991FB2
:102B900080E00E94F11F0E9420240E94911A0E944E
:102BA000A11508950E946C1A81110E94582608955B
:102BB000AAE0B0E0EEEDF5E10C940D330E94F019BF
:102BC0008DE5A82E82E0B82E750110E0F701019185
:102BD0007F01812F0E94CD181F5F1A3009F441C078
:102BE0000817A1F38091730281FD0E94D3180E94FF
:102BF000AD15C82E10E0812F0E94CD18082FF501C9
:102C000081915F01081731F1D02ED826F12CEE24E6
:102C1000E3948D2D8E21B1F0CC20A1F0FE821F8394
:102C200091E0802F8E2109F490E098870E94662B16
:102C30008160782F9A8789874E815F8168858A8530
:102C40000E94530BF394EE0CF6E0FF12E2CFF50175
:102C5000319700831F5F1A3071F60E94751511E0DD
:102C600021C00813BFCF0E94662B8C0180915B02AC
:102C700090915C0208171907A1F08FEF89838A836E
:102C80001B820E94662B8160782F9D838C834981F3
:102C90005A816B818D810E94530B10935C020093CB
:102CA0005B0210E00E94D2150E94A424082F81111B
:102CB0000E9488150E947022111101C001110E940A
:102CC00033210E949D1E0E94CB0A2A96EAE00C94B2
:102CD0002933CF93DF930E947F17EC01811522E502
:102CE000920708F048C0811531E5930708F0B0C09D
:102CF000883E910530F5803E910508F092C0883AF3
:102D0000910588F4853A910508F084C081309105D9
:102D100009F487C0009709F484C0049708F081C0C3
:102D2000D0E0C0E07EC08F3B9105D0F7C85AD0E01C
:102D3000CC0FDD1FCE57DE4F0990D881C02DD46453
:102D400070C0811540E2940750F4C11581E0D807A6
:102D500008F067C0CD3ED10518F3D06562C081157B
:102D600020E49207E8F2811530E5930708F05DC092
:102D7000DF70D06A56C08115964518F5C11585E5F6
:102D8000D80708F07EC0C11524E5D20708F074C04A
:102D90009E01237033279C2F96959695C115D34598
:102DA00008F45BC0C1E0D0E002C0CC0FDD1F2A9563
:102DB000E2F730E2939FC0011124C82BD92BDA68C7
:102DC00030C0C11589E5D80768F4C11528E5D207D8
:102DD00008F062C0C11537E5D30708F0A1CFDD27A1
:102DE000D0661FC0C1154AE5D40708F45AC0CE0109
:102DF00090568115904208F093CF8D2F8F710E94CD
:102E0000211890E0982F882788279F719C012C2BF0
:102E1000E90140C0C55AD0E0C055DE4FC881D0E0BE
:102E2000D064CE01DF91CF9108958370992721E07E
:102E300030E002C0220F331F8A95E2F7C695C6958F
:102E400040E2C49FE0011124C22BD32BDD68E9CFFF
:102E5000D82FCC27C16FD06AE4CFC1E0D0E002C048
:102E6000CC0FDD1F2A95E2F720E2929FC0011124CA
:102E7000C82BD92BDC68D5CFDC2FCC27C46FD06A08
:102E8000D0CF8C2F0E942118C82FD0E0DC2FCC2768
:102E9000CC27DF71D062C5CFDC2FCC27C06FD06AC2
:102EA000C0CF8C2F8F700E94211834E0D695C79523
:102EB0003A95E1F7CF709C2FEC01D069B2CF972FF4
:102EC0007A30A8F4663098F470E026E0929F600DA6
:102ED000711D1124FB019CE3899FE00DF11D11245C
:102EE000EE0FFF1FE453FE4F85919491089580E00B
:102EF00090E008950E945F170E9469160895823835
:102F00009105B9F1B0F48133910509F47DC048F41D
:102F10008932910509F46DC08A32910509F47BC0AC
:102F200008958533910509F45FC08933910509F14E
:102F30000895833E9105D9F138F4803E910529F139
:102F4000823E910579F10895863E9105D9F1873E3B
:102F5000910509F43EC0843E910541F52091080396
:102F600021FF24C08091070384FD19C087EE90E003
:102F7000089520910703237009F05AC02091080397
:102F800023FF14C089E290E008952091070320FDFB
:102F900038C03091080330FF09C024FF43C090E0DF
:102FA00080E008952091070322FDF7CF0895209136
:102FB000070322FD3AC03091080330FD39C024FFD9
:102FC000F5CFEDCF2091070323FFF0CF24FDE7CF0E
:102FD000CDCF2091070323FD2EC03091080331FF90
:102FE000EECF84EE90E008952091070325FFDECF19
:102FF000C9CF2091070325FD21C02091080323FF9D
:10300000D5CF89E390E0D2CF2091070326FFCECF22
:103010008AE290E008952091070326FFC7CF81E35D
:1030200090E0089583EE90E0089582EE90E0089598
:1030300080EE90E0089586EE90E0089585E390E0BC
:1030400008959091070392FF06C0282F2871283019
:10305000F9F4877F846093FF06C0282F28712831F8
:10306000F1F4877E84612091080320FF06C0382F89
:1030700038713830D9F4877F816021FF06C0282F4E
:1030800028712831D1F4877E816194FD877E08956F
:10309000282F24712430F9F68B7F8860DCCF282F0D
:1030A0002471243101F78B7E8861DDCF382F317197
:1030B000313019F78E7F8860E0CF282F21712131C0
:1030C00021F78E7E8861E1CF1092030310920403F2
:1030D00010920503109206030895CF92DF92EF92AB
:1030E000FF926B017C010E946C1A81110EC00E943C
:1030F000722BC61AD70AE80AF90AC0920303D092C3
:103100000403E0920503F0920603FF90EF90DF9036
:10311000CF9008950F931F930E946C1A882329F073
:103120000E94722B1F910F9108950E94722B0091A3
:103130000303109104032091050330910603600FEF
:10314000711F821F931FEECF80E0089508950E94A3
:10315000BD14811102C00E946C150E94C814809396
:1031600073020E94D81490930803809307030E946F
:10317000A6180E94CD1490E00E94890F80910A0247
:1031800090910B020E94AA0F089508950E94C518FD
:10319000089508950E94C9180895E82FF0E0EC5EA4
:1031A000FC4F80810895089580EA8A95F1F708958B
:1031B00000C008950E94D418089508950E94DD1853
:1031C0000895A5E0B0E0E7EEF8E10C9411330E9419
:1031D0006C1AF82E60911E03882309F440C085E024
:1031E000E82E8E010F5F1F4FF8018E2D11928A95E8
:1031F000E9F7862F90E0B8018C5E9C4F0E949F1AE1
:103200008823B9F08091090390E045E050E0B801CF
:103210008C5E9C4F0E94453321E020937402892BE1
:1032200091F4F12C0E94090A8F2D2596E6E00C946A
:103230002D33809174028823A1F3F8011192EA944E
:10324000E9F710927402A0910903B0E0AC5EBC4FA4
:1032500085E0F80101900D928A95E1F7E3CF70E0E7
:103260006C5E7C4F8091090390E08C5E9C4F0E94C5
:10327000261B0E94DE18D8CFF894E82FE295EF7055
:10328000F0E031A1282F2F7081E090E001C0880F7D
:103290002A95EAF7982F9095932391A392A1892BD1
:1032A00082A378940895CF93DF93C9EBD1E08991FD
:1032B0008F3F11F00E943C1981E0CE3BD807B9F74F
:1032C000C3EBD1E089918F3F11F00E943C1981E05E
:1032D000C93BD807B9F7DF91CF910895B0E0A0E0DE
:1032E000E4E7F9E10C940F33EC01D62E062F10E041
:1032F000C80187549E4F7C01FC0180818F3F09F4F7
:1033000045C0F894E82FE295EF70F0E091A18F703E
:1033100021E030E001C0220F8A95EAF7892F822B45
:1033200081A382A12095282322A378940E94D818F3
:10333000E3EBF1E049EB51E031E0C12C21912F3F6B
:1033400051F1A22FA295AF70B0E090968C9190E0D1
:103350002F7002C0959587952A95E2F780FD1BC0D6
:10336000832FC82A330F4E175F0741F7F70180817B
:103370008F3F11F00E943C1961E0C11001C060E074
:103380008D2D0E94DA18C00FD11FC882CDB7DEB7CD
:10339000E8E00C942B3380E0E4CF8091020180912F
:1033A000020195E0811190E090931E0385E0891B56
:1033B000809309030E9453198AE0E4E1F3E0DF01FE
:1033C000982F1D929A95E9F7EAE0F3E0DF011D924C
:1033D0008A95E9F785E00E942E1A0E94060A089550
:1033E000AAE0B0E0E6EFF9E10C9412338E010F5F32
:1033F0001F4F8AE0F80111928A95E9F7F12C6F2DA1
:10340000C8010E946E19F394F5E0FF12F8CF4AE06C
:1034100050E0B8018AE093E00E94453321E0009734
:1034200009F420E0892B41F08AE0F801AAE0B3E03A
:1034300001900D928A95E1F760911E0370E06C5E39
:103440007C4F45E08AE093E00E942F1A182F0E94DB
:10345000E118812B2A96E5E00C942E330895CF9243
:10346000DF92EF92FF920F931F93CF936C017B013A
:10347000042F222349F081E0809377020E94662B7B
:103480009093760280937502C0917702C1110AC0B1
:10349000C0E08C2FCF911F910F91FF90EF90DF90A4
:1034A000CF90089580917502909176020E947E2BB4
:1034B000059770F310E0A801B601C7010E944533DB
:1034C000892B41F0A801B601C7010E945233109226
:1034D0007702DFCFC0E0FBCF80917A02811107C075
:1034E0000E94BE32882351F081E080937A0281E00D
:1034F00090917A02913009F080E0089582E0809303
:103500007A020E94B932F3CF0E946C1A08950E9489
:10351000841A809302010E946C1A81110E94D51AAC
:1035200008950E946C1A811102C00E94D81A089551
:1035300081E090917B029A3008F080E008950F932B
:103540001F93CF93DF93EC018B0180917B028A3034
:10355000B8F4B801CE010E94231BC82F811122C0EC
:1035600080917B028F3FB9F40E94662B9093790281
:10357000809378028C2FDF91CF911F910F91089546
:1035800080917802909179020E947E2B843F914035
:1035900000F7C0E0EFCF8F5F80937B028A3020F787
:1035A000C1E0E8CF10927B02E5CF0E949A280895EF
:1035B0000E949D280895B0E0A0E0E1EEFAE10C94AD
:1035C00010337901C82F880FDD0B41155105A9F083
:1035D000FE0193E0EE0FFF1F9A95E1F7ED5FFE4FBE
:1035E0008181928184589D4F208130E0421753079A
:1035F00008F49A01A9010E945233CE010E94862943
:10360000D82E8823D1F001151105B9F083E0CC0F35
:10361000DD1F8A95E1F7FE01ED5FFE4F438150E02B
:103620000417150708F4A801CD5FDE4F6C817D817A
:1036300064587D4FC7010E9452338D2DCDB7DEB740
:10364000E7E00C942C330E94811C08950E94AA1C70
:103650000895A4E0B0E0EFE2FBE10C941333609135
:103660009A0270919B0280919C0290919D020E940F
:103670008D2B11E0643671058105910518F10E94CA
:103680008A186E5F7F4F8F4F9F4F69837A838B833A
:103690009C8310E000E030E020E044E050E0BE0118
:1036A0006F5F7F4F84E00E94DB1A182F882351F050
:1036B0000E94722B60939A0270939B0280939C02EB
:1036C00090939D02812F2496E4E00C942F33A1E087
:1036D000B0E0EDE6FBE10C940A33762E4A01590185
:1036E000680101E010E09E012F5F3F4F50E040E095
:1036F00070E060E00E94DB1A182F882399F1F40132
:1037000060817181828193810E948D2B6436710565
:103710008105910500F18701950150E040E070E0DE
:1037200060E0872D0E94DB1AB82EB701C6010E9407
:103730009A1F11E09981981310E01B2139F00E9423
:10374000722BF4016083718382839383812F21968E
:10375000EDE00C942633B701C6010E949A1F9981AF
:103760008913D9CFA701B601C5010E945233EECF0C
:10377000A1E0B0E0EEEBFBE10C9411330091BE014F
:103780001091BF01095F1F4FEE24E394F12C9E01BD
:103790002F5F3F4F46E952E063E082E00E94671BE3
:1037A000182F882321F0CE0101960E943425812F05
:1037B0002196E6E00C942D33A5E0B0E0E2EEFBE1CB
:1037C0000C940F336B010091BE011091BF010F5F8C
:1037D0001F4F85E0E82EF12C9E012F5F3F4F42E9FD
:1037E00052E061E080E00E94671B882349F095E089
:1037F000FE013196ADE8B2E001900D929A95E1F7A5
:1038000095E0EDE8F2E0D60101900D929A95E1F78E
:103810002596E8E00C942B33B0E0A0E0E2E1FCE177
:103820000C940D337C015B016A010E94981A01E03F
:1038300010E0882311F00AE010E0C1E0D0E0B5010B
:10384000C701F6010995811104C021960C171D07C7
:103850002CF4CDB7DEB7EAE00C942933CC9F90016D
:10386000CD9F300D300D112490E080E045E34A9566
:10387000F1F70000019682179307C1F7E0CFA1E0AE
:10388000B0E0E5E4FCE10C9413330E946A22082FB7
:103890008983E091BE01F091BF01148560919E0281
:1038A00070919F028091A0029091A1020E948D2BA5
:1038B000643671058105910530F4812F90E011E0A7
:1038C00008171906C9F010E000E030E020E041E000
:1038D00050E0BE016F5F7F4F85E00E94DB1A182F1A
:1038E000882351F00E94722B60939E0270939F0276
:1038F0008093A0029093A102812F2196E4E00C9482
:103900002F330F931F93CF93DF93EC018B014CED7B
:103910005BE10E940C1C811106C080E0DF91CF9119
:103920001F910F91089548EB5BE1B801CE010E9411
:103930000C1C882391F349E25BE1B801CE010E949F
:103940000C1C882351F34FE35CE1B801CE010E94C7
:103950000C1CE4CFA1E0B0E0E0EBFCE10C940F33F1
:103960000091BE011091BF01C801019625E0FB0145
:10397000DC0101900D922A95E1F765E070E00E946C
:103980009A1FF8018083CE0101960E942925898122
:10399000F801878361E070E0CE0101960E949A1FD2
:1039A000F80186836085718582859385C090890240
:1039B000D0908A02E0908B02F0908C026C157D050D
:1039C0008E059F0551F06093890270938A0280935F
:1039D0008B0290938C020E946D18F80184858823D5
:1039E00031F00E9433212196E8E00C942B330E94A1
:1039F0004F22F9CF0E94942D0E94BC150E94A12D48
:103A000008950E94A62D0E94D8150E94C02D0895E9
:103A10000E94FF2A0E947A2D0E94A4150E94FA1C7F
:103A20000E94011D0E94B215FBCF8091A80280FF69
:103A30000DC06091380170E0660F771F6038710526
:103A400070F56115710569F1862F089581FF07C032
:103A50006091380184E0689FB0011124EFCF60913C
:103A6000380182FD0AC08091A7028823A9F0209125
:103A7000370160913801821710F088E0ECCF869F03
:103A8000C001112433E0880F991F3A95E1F7622FA6
:103A900070E00E94EB32D2CF68E070E0D5CF8FE7C4
:103AA000089581E008958091A80280FF0CC0609184
:103AB000340170E075956795759567956115710589
:103AC00049F1862F089581FF06C06091340170E0AE
:103AD00075956795F3CF6091340182FD0BC090918D
:103AE000A6029923A1F060913301809134019617C9
:103AF00038F0682F70E06038710500F38FE70895A3
:103B0000899FC001112470E00E94EB32F4CF61E084
:103B100070E0D7CF81E008958D3E31F40E94151DED
:103B200081958093AC0208958E3E19F40E94151D74
:103B3000F8CF8F3E31F40E94151D81958093AB0222
:103B40000895803F19F40E94151DF8CF893F29F48C
:103B50000E94531D8093AD0208958A3F21F40E9474
:103B6000531D8195F7CF8B3F31F40E94531D8195F2
:103B70008093AE0208958C3F19F40E94531DF8CF34
:103B80009FE0980F983070F4815F990B21E030E04E
:103B900001C0220F8A95EAF78091AA02822B8093B6
:103BA000AA0208958D3F31F48091A802816080932C
:103BB000A80208958E3F21F48091A8028260F7CF79
:103BC0008F3FB9F78091A8028460F1CF4091AB029A
:103BD0008D3E59F48091AC0287FF0DC01092AC026B
:103BE00041110BC01092A70208C08E3E81F4809153
:103BF000AC0218169CF3442381F08091AD029091A1
:103C0000AE02892B09F05AC01092A60208958F3E89
:103C100049F447FFF0CF1092AB028091AC028111C2
:103C2000ECCFE0CF803F19F41416ACF3E4CF9091C1
:103C3000AD02893F29F41916F4F61092AD02DBCFDC
:103C40008A3F19F497FFD7CFF8CF9091AE028B3F00
:103C500029F497FFD0CF1092AE02CDCF8C3F19F44C
:103C60001916CCF3C8CF9FE0980F983090F4815F7D
:103C7000990B21E030E0B90102C0660F771F8A95E9
:103C8000E2F7CB0180959091AA0289238093AA0242
:103C9000B2CF8D3F31F48091A8028E7F8093A8022D
:103CA000AACF8E3F21F48091A8028D7FF7CF8F3F5E
:103CB00009F0A1CF8091A8028B7FF0CF08950E94D8
:103CC000662B9C019091AB028091AC02982B21F065
:103CD0003093A5022093A4029091AD028091AE0290
:103CE000982B21F03093A3022093A20289EA92E05C
:103CF0000E94282A089586E0E9EAF2E0DF011D9299
:103D00008A95E9F71092A7021092A6021092A802D3
:103D10000895FC01828181110EC0838181110BC045
:103D20008481811108C091E08581811101C090E0FA
:103D3000892F8170089581E0FCCFA6E0B0E0E3EA2E
:103D4000FEE10C94143386E0E9EAF2E0DE0111961C
:103D500001900D928A95E1F71092AB021092AC029D
:103D60001092AD021092AE028B819C81892B89F05A
:103D70008091A4029091A5020E947E2BAC019091AB
:103D8000A7029923C9F1809139018417150608F417
:103D900040C08D819E81892B91F08091A2029091EB
:103DA000A3020E947E2BAC019091A602992309F4F4
:103DB00071C0809135018417150608F479C0BE01E1
:103DC0006F5F7F4F89EA92E00E94B72A811105C098
:103DD00089EA92E00E94891E81110E945F1E86E09E
:103DE000FE013196A9EAB2E001900D928A95E1F7C1
:103DF0002696E3E00C94303320913A018AE0289F24
:103E0000900111242417350720F69F5F9093A70295
:103E100002C09F3FD1F71B81112359F00E94151D4D
:103E20009FEF11160CF491E0899F802D112480934F
:103E3000AB021C81112359F00E94151D9FEF111632
:103E40000CF491E0899F802D11248093AC02309175
:103E5000AB02332309F49DCF2091AC02222309F455
:103E600098CF45EB3403C0011124992359F0909366
:103E7000AB0245EB240390011124332339F0309336
:103E8000AC0287CF81E08093AB02F3CF81E08093D7
:103E9000AC027FCF209136018AE0289F9001112447
:103EA0002417350708F08BCF9F5F9093A60202C0BE
:103EB0009F3FD1F71D81112359F00E94531D9FEFA1
:103EC00011160CF491E0899F802D11248093AD028E
:103ED0001E81112359F00E94531D9FEF11160CF4FF
:103EE00091E0899F802D11248093AE023091AD0224
:103EF000332309F464CF2091AE02222309F45FCF6B
:103F000045EB3403C0011124992359F09093AD027D
:103F100045EB240390011124332339F03093AE0292
:103F20004ECF81E08093AD02F3CF81E08093AE026B
:103F300046CF0895FC01680F791F8FEF91E36E174C
:103F40007F0709F408952191822728E030E087FF58
:103F500006C0880F892721503109C9F7F0CF880F93
:103F6000FACFB0E0A0E0E7EBFFE10C940F336C0177
:103F70007B0164E670E088E70E945A27EC0197FD18
:103F800012C010E000E0F601E00FF11F849164E63A
:103F900070E00E94C627EC01892B29F40F5F1F4FA8
:103FA0000E151F0581F70E943C28CE01CDB7DEB764
:103FB000E8E00C942B330895EFE1F3E080E092E029
:103FC000DF019C011D9221503040E1F7F09326055E
:103FD000E09325058FEF9FEF9093DB028093DA0249
:103FE00008950E94DB1F0E944D068093D60280FD3B
:103FF0000FC080E88093D5020E9454276DE070E0E6
:1040000083EA95E00E94B11F892B21F080E008959A
:1040100080E2F0CF8091D60263E070E081FD26C09F
:1040200080EA95E00E94B11F892B81F76DE070E076
:1040300080E995E00E94B11F892B41F70E94722B05
:10404000605A75418F4F9F4F6093210570932205F1
:1040500080932305909324050E94DC1F81E08093C8
:10406000D9028093D8021092D70208958DE995E085
:10407000D9CF2091D50236E0839FC0011124629FE1
:10408000800D911D1124811522E0920714F090E01B
:1040900080E0815E9C4F90932605809325050895CE
:1040A0002091250530912605295133404091D502B4
:1040B000642F70E0C9010E94D732481B463010F4CB
:1040C000240F311D211582E0380710F030E020E088
:1040D000215E3C4F309326052093250508951F93BC
:1040E000CF93DF93162F8A3039F481E00E94E820C5
:1040F000DF91CF911F9108958D3011F480E0F6CFBC
:10410000C0912505D091260596E0FE01AFEAB2E008
:1041100001900D929A95E1F7803EB8F086E0FE019D
:1041200011928A95E9F711111CC0C0912505D09113
:10413000260546E050E0BE018FEA92E00E9445333A
:10414000892BE9F40E945020D3CFF6E08F9FB00175
:10415000112460557A4F46E050E0CE010E943C3376
:10416000E2CFE0912505F09126059F012A5F3F4FA0
:104170002E173F07D1F2808180958193F9CFCF51DF
:10418000D340CE0125E0969587952A95E1F721E069
:1041900030E0A90102C0440F551F8A95E2F7CA0119
:1041A0004091DA025091DB02842B952B259645E055
:1041B000D695C7954A95E1F702C0220F331FCA95DD
:1041C000E2F7822B932B9093DB028093DA02BACF33
:1041D000CF93382FE0912505F0912605EF51F3405C
:1041E0002091D502622F70E0CF010E94D732281BA8
:1041F000822F332369F066E00E94CB32C82FC15072
:1042000010F4CF91089560E080E20E946F20F7CF14
:104210009F01280F311D2115324018F080E0F0E099
:10422000E0E08E0F9F2F911D815E9C4F909326059D
:1042300080932505E6CF1F93CF93DF93EC01162FD4
:10424000FE018491811104C0DF91CF911F910895E7
:10425000612F0E946F202196F3CF0E941B2181E0E5
:104260000E94E82008958091D902811103C08091B5
:10427000D80208950E94722B605A75418F4F9F4F4C
:104280006093210570932205809323059093240564
:104290008091D8028111EBCF62E070E08EE895E06A
:1042A0000E94B11F892B19F781E08093D802DFCFDC
:1042B0002F923F925F926F927F928F929F92AF92D6
:1042C000BF92CF92DF92EF92FF920F931F93CF9303
:1042D000DF938091D902882369F02091DA0230912E
:1042E000DB022115310531F08091D70261E070E0E9
:1042F000882399F0DF91CF911F910F91FF90EF905C
:10430000DF90CF90BF90AF909F908F907F906F90F5
:104310005F903F902F9008958F5F082F10E01B0152
:10432000082E02C0220C331C0A94E2F7A901422194
:104330005321452B89F39091D60290FD44C082957C
:10434000880F807680933D019801369527953695A4
:10435000279520934001815E80933E011092410198
:1043600024E630E047E050E06BE371E088E70E942C
:10437000F427892B09F0BECFA80125E0440F551F73
:104380002A95E1F78091D60280FD2BC0415E5C4FFB
:1043900004E610E020E230E060E488E70E9415289F
:1043A000892B09F0A7CF0E943321E101C095D09558
:1043B0008091DA029091DB02C823D923D093DB02EB
:1043C000C093DA0297CF880F880F880F80933D0142
:1043D00010924001895F80933E0183E08093410108
:1043E000BFCFE5EBF2E080E2DF011D928A95E9F7AD
:1043F000A4ECB1E000EC11E088ECC82E81E0D82EEE
:1044000097E0592E772473948D91E80129918E01BC
:10441000240F352F311D215E3C4FE82FF0E0EB5487
:10442000FD4F90E080E0652C681A872C082E01C0B3
:10443000880C0A94EAF77901A12CE701B9907E0172
:10444000B820662D6A196770962E062E000C770B21
:10445000DB2D01C0DD0F9A94EAF771956195710922
:104460006770772701C0B6946A95EAF7BD2A608124
:10447000962E9B289082A39468E0A612DECF019628
:1044800031968830910579F6CA16DB0609F0BCCF63
:1044900004E610E020E230E045EB52E07DCF809171
:1044A000D8029091D902911103C091E08927089513
:1044B000882369F062E070E08CE895E00E94B11F0B
:1044C000892B19F08091D80208951092D80280911A
:1044D000D802EBCF8091D80208950E945606089525
:1044E0000F931F938091D902882379F180911F0542
:1044F000909120050E947E2BC29760F00E94662B4F
:104500009093200580931F0560E080E00E94392091
:104510000E946D220E9458218091D8028823A9F020
:104520000E94722B009121051091220520912305F4
:1045300030912405601B710B820B930B6F3F7F4FF3
:104540008F4F9F4710F40E944F221F910F910895A3
:10455000CF93DF93EC01FB018281882309F464C1CE
:10456000C430FDE5DF07E0F5CB3F9CE5D90730F42B
:104570009E0122503C4524313105D8F50E94D814C3
:104580009093080380930703C231ECE5DE0709F43A
:104590001FC108F06EC0C9308CE5D80709F4F2C01D
:1045A00008F03FC0C530ECE5DE0709F4DBC058F584
:1045B000C3308CE5D80709F4CDC008F0CFC0809196
:1045C00007038160C230DC4509F4AEC08091070367
:1045D000909108030E94E6140E94340F80E009C005
:1045E000C63AEDE5DE0751F238F4C2369DE5D9074B
:1045F00029F2DF91CF9108959E012E5A3D45233037
:104600003105B8F7BBCF809107038062C730FCE566
:10461000DF0709F489C008F4B1C080910703806402
:1046200083C0CD309CE5D90709F4BAC070F48091FD
:1046300007038E7FCB30FCE5DF0709F475C008F473
:10464000A7C0809107038D7F6FC0CF309CE5D9074D
:1046500009F4B6C008F4A8C0C031FCE5DF0709F4CE
:10466000B3C0C131DC4509F0B1CF809107038F7B26
:104670005BC0C1159DE5D90709F4B4C098F5CB3FDF
:10468000FCE5DF0709F472C0B8F4C4319CE5D90732
:1046900009F4B6C008F4A2C0C531DC4509F096CFD4
:1046A0008091070382FB992790F921E0922790FBE4
:1046B00082F990FB83F938C0CD3F8CE5D80709F427
:1046C00077C008F457C0CE3FECE5DE0709F474C0AC
:1046D000809108038360CF3FDC4509F077CF80935A
:1046E000080374CFC2368DE5D80709F496C068F484
:1046F000C230EDE5DE0709F48CC008F477C0C330A2
:10470000DD4509F063CF80E085C0CE3A9DE5D9074D
:10471000E9F068F490910703892F8E7F90FF816004
:10472000C63ADD4509F052CF809307034FCFCF3A09
:104730008DE5D80789F1C03BDD4509F047CF909161
:104740000803892F877F93FF8860C9CF8091080372
:104750008860C5CF809107038260E6CF8091070310
:104760008460E2CF809107038860DECF80910803E8
:104770008160B5CF809108038260B1CF809107033B
:104780008061D2CF0E94340F809107038068CCCF24
:10479000809107038C60C8CF80910803877F9FCFEB
:1047A000809107038B7FC0CF80910703877FBCCFA9
:1047B000809108038E7F93CF809108038D7F8FCFE8
:1047C000809107038F7EB0CF809107038F7DACCFA0
:1047D0000E94340F809107038F77A6CF8091070343
:1047E000837FA2CF809108038C7F79CF80910803CB
:1047F000982F909591708E7F892B90FB81F96FCFC8
:104800000E94340F90910703892F97FB87F98058F6
:104810008BCF81E00E946F15D9CE90910703892F2D
:104820008F7E94FF806180CF81E0E3CE8FE891E0BE
:104830000197F1F700C0000008950E94D60808957E
:104840000F931F93CF93DF939091020181E09827FC
:104850009093E002282F291B2093DF029091020100
:104860008093E102909102018093DE028091020127
:10487000811106C084EF8093430185EF809342014C
:1048800020914301E22FE295EF70F0E061A12F70DB
:1048900081E090E0AC0101C0440F2A95EAF7342F83
:1048A0003095362331A322A1242B22A3209142014B
:1048B000E22FE295EF70F0E031A12F7001C0880F78
:1048C0002A95EAF7982F9095932391A392A1892B8B
:1048D00082A30E9416246091E10244EE52E0C3E4F8
:1048E000D1E002E411E0FA0126C02991822F8295DD
:1048F0008F7090E0DC0190968C9190E02F7002C058
:10490000959587952A95E2F78170D8019D918D0143
:10491000292F22952F7030E0D90190962C9130E00C
:104920009F7002C0359527959A95E2F790E020FD9B
:1049300092E0892B81938E2F841B8617B0F2DF9132
:10494000CF911F910F910895CF92DF92FF920F9315
:104950001F93CF93DF9310E000E082E0C82ED12CAC
:104960008091E102181748F0802FDF91CF911F91BD
:104970000F91FF90DF90CF900895C12FD0E0FE01FE
:10498000ED5BFE4F8081E82FE295EF70F0E0E0A153
:10499000F0E08F7002C0F595E7958A95E2F7E17037
:1049A000DE01AE5BBE4F4C91A42FA295AF70B0E07C
:1049B00090968C9190E04F7002C0959587954A959E
:1049C000E2F780FD44C080E08E2BDE01AC51BD4F8C
:1049D000EC919E2F93709817C1F1EE0FEE0FE82B1C
:1049E000EC93F090E002F10EEF70F0E0E853FE4F30
:1049F000CE51DD4F80819881890F888320E08230FD
:104A000064F0EF2DF0E0E452FD4F80818F5F8083F2
:104A100060E08F2D0E941D2421E088818F3F64F487
:104A2000EF2DF0E0E452FD4F80818150808361E002
:104A30008F2D0E941D2421E08881082E000C990BE7
:104A4000B6010E94EB328883022B1F5F89CF82E080
:104A5000BBCF4091E10250E06091E00270E064520F
:104A60007D4F0E9452330895B0E0A0E0EAE3F5E202
:104A70000C940F336C01D0E080E09091DE02D917E6
:104A800040F081110E948815CDB7DEB7E8E00C94A4
:104A90002B33F090DF02FD0E0F2D10E004521D4F5E
:104AA000F601ED0FF11DC081F8019081C91BEC2EBC
:104AB0001E1444F09C2FC7FD90E0C91BC1110DC00E
:104AC000DF5FDBCFEA94F80180818F5F808360E055
:104AD0008F2D0E941D2481E0EBCFCF5FF8018081F4
:104AE0008150808361E08F2D0E941D2481E0E6CFFC
:104AF0008832910548F48E319105A0F4049750F066
:104B000082E00E94E9130EC08D329105C9F320F4B2
:104B10008A9741F080E008958C34910519F08D3228
:104B20009240C1F781E00895EF92FF920F931F9397
:104B3000CF93DF93EC017B018D3A9D4569F4FB0136
:104B40001281112319F00E946A2610E0812FCDB73F
:104B5000DEB7E6E00C942D330E94D613082F0E9496
:104B6000F913082B0E943726811107C0023211F079
:104B700011E0ECCF0E943B26FBCF0E942E26F701CE
:104B800012811123A9F30D7909F059C0C115F5E57A
:104B9000DF0708F5C11523E5D207C0F6C11580E58A
:104BA000D807A0F4C115E0E4DE0778F5C63ED105CC
:104BB00069F20E94F613CE010E947825C82F88233F
:104BC00009F43DC00E9417141C2FC0CFC115F2E597
:104BD000DF0778F7BBCFC11529E5D207E8F4C11587
:104BE00088E5D80708F0B2CFC431E5E5DE0709F45F
:104BF000ADCFF8F2CE0196558F3F910509F0C8F67A
:104C0000C13FF6E5DF0708F0B3CFF7018581807F6C
:104C100009F4AECFDD27CDCFCE019056811590425D
:104C200040F6F7018581807FA9F78D2F8F71823142
:104C300091F040F4C1EED0E0823009F4BACF0E9486
:104C40004B2684CF843109F481CFC6EED2E1863180
:104C500009F4AFCFF4CFC5EED0E0ABCF0E94662B06
:104C600088579C4E9093E7028093E60208958091C6
:104C7000E802089508958091E80281110BC00E9416
:104C8000E6130E940D140E942E2681E08093E80214
:104C90000E943A2608958091E802882341F082E23A
:104CA0000E94170F1092E80280E00E943A260895B1
:104CB0008091E802882369F00E94662B2091E60229
:104CC0003091E702821B930B8F3F9F4710F40E94A5
:104CD0004B2608958091E802882319F00E944B2604
:104CE00008950E943B260895CF93DF93EB01863110
:104CF0009C4511F50E94D6139A81992399F08A7ADE
:104D000091E009F490E09093E902811109C089E2F1
:104D10000E9488130E94171480E0DF91CF910895BC
:104D200085E3F6CF8091E902811104C089E20E94F7
:104D30009013F0CF85E3FBCF81E0EFCF0F931F936C
:104D4000CF93DF93C42FD22FFC0182818823C9F037
:104D50004093EC020E94662B9093EB028093EA0250
:104D600080E28C0F883040F4C77081E001C0880F6A
:104D7000CA95EAF70E94490CDF91CF911F910F91DC
:104D800008951091EC02141332C08091EA029091C0
:104D9000EB020E947E2B8436910548F5C0E2CD0FD0
:104DA0001D17B9F080E2810F883040F4177081E060
:104DB00001C0880F1A95EAF70E94500CC83048F4D9
:104DC00081E09D2F977001C0880F9A95EAF70E94A5
:104DD000490C802F0E94400CC83070F6D77081E0DB
:104DE00001C0880FDA95EAF70E94500CC5CF80E227
:104DF0008C0F883008F6C77081E001C0880FCA9513
:104E0000EAF7F2CF0F939C01CB01243F4CE5340726
:104E100059F1A8F4293DFCE53F0701F12A3D4CE595
:104E20003407D1F1283D3C4591F406E221EE41EEF4
:104E300068ED7CE50E949E2680E00F910895263F54
:104E4000FCE53F07E9F0B0F0273F3C45F9F0FC01F5
:104E50008281882339F11092EC02EFCF07E225EE30
:104E600045EE69ED7CE5E6CF06E221EE40EE64EF2B
:104E70007CE5E0CF07E225EE44EE65EF7CE5DACF96
:104E800006E221EE42EE66EF7CE5D4CF07E225EEA6
:104E900046EE67EF7CE5CECF08E221E045EE6AED15
:104EA0007CE5C8CF81E0C9CF1092B9008CE0809337
:104EB000B8000895B0E0A0E0E0E6F7E20C940C330F
:104EC000B82EEB010E94662B6C01EE24E394F12CCA
:104ED000C431D10560F025E0E22EF12CCF3FDC0794
:104EE00031F0CE0164E170E00E94D7327B0184EAA8
:104EF000A82E94E8992E1092BC00A092BC000E94AB
:104F0000662B8C018091BC0087FF0DC08091B90099
:104F1000887F8830F9F08091B900887F8031D1F0A6
:104F20000FEF1FEF08C0C8010E947E2BE816F9069C
:104F300048F70EEF1FEFCF3FDC07E9F2C6010E94F2
:104F40007E2BC817D907B8F6C801CDB7DEB7EBE09E
:104F50000C942833B092BB009092BC000E94662B48
:104F60008C018091BC0087FF0AC08091B900887FC6
:104F7000883111F08034A1F610E000E0E5CFC801DF
:104F80000E947E2BE816F90660F7D3CF0F931F938C
:104F9000CF93DF93EB018093BB0084E88093BC0048
:104FA0000E94662B8C018091BC0087FF11C020916C
:104FB000B900287F81E090E0283211F490E080E091
:104FC000919581959109DF91CF911F910F9108954E
:104FD000CF3FDC0741F3C8010E947E2BC817D907D9
:104FE00010F78EEF9FEFEFCFB0E0A0E0EAEFF7E22F
:104FF0000C940F336B018A017901B9010E945A2781
:10500000E6010C0D1D1DC017D10711F097FF08C058
:1050100024E92093BC00CDB7DEB7E8E00C942B3335
:10502000B70189910E94C627EECFB0E0A0E0EBE186
:10503000F8E20C940F33C62F6A017901B8010E947F
:105040005A2797FD0CC0B8018C2F0E94C627E60195
:10505000EC0CFD1CCE15DF0511F097FF08C024E90C
:105060002093BC00CDB7DEB7E8E00C942B33B80139
:1050700089910E94C627EECF84E98093BC000895F1
:105080008EE14A9B02C08150E1F74A9BFECF089512
:105090005A9880E28A95F1F75A9A0895FC013BE00C
:1050A0003A95F1F798E020E080E031E040E14A9560
:1050B000F1F7880F4A9B02C08160232742E04A959E
:1050C000F1F7000040E14A95F1F7915079F790E14E
:1050D0009A95F1F799B132E03A95F1F7000040E185
:1050E0004A95F1F792FB992790F992272081920F28
:1050F00090830895A1E0B0E0E0E8F8E20C94113369
:1051000019828C017C01E60EF11C0E151F0541F47D
:1051100081E09981911180E02196E6E00C942D3395
:105120000E944028CE0101960E944E28F8018193EA
:105130008F01EBCF529A5A9A089552985A9AEA9A46
:10514000E9E6F0E080818F7C808308956150770BE1
:1051500091E001C0990F6A95EAF720E031E09111E2
:1051600008C0222391F05A9A80E28A95F1F75A9862
:105170000895492F482339F05A9A232740E24A9547
:10518000F1F79695ECCF5A98F9CF5A98EDCFFF9258
:105190000F931F93CF93DF93EC018C01060F111D2A
:1051A000C017D10729F4CDB7DEB7E5E00C942E3354
:1051B000F9900E94482868E08F2D0E94A628F0CF21
:1051C0001F920F920FB60F9211240F931F932F93DC
:1051D0003F934F935F936F937F938F939F93AF937F
:1051E000BF93EF93FF93CF93DF930F92CDB7DEB7CB
:1051F00019820E944028CE0101960E944E28082F55
:10520000069506950695282F22952570902F957066
:10521000290F922F937026952695920F98279770B5
:105220008981982B09F05CC0073008F059C080E1F3
:105230008A95F1F75A9A529A82E08A95F1F700C05E
:105240005A9888E0089F80011124D801AD5FBE4FB5
:105250001696ED91FC9117973097A9F06091BE01D9
:105260007091BF0114962D913C911597260F371F11
:1052700011968D919C911297680F791F13964C91FE
:1052800013978C910995F801ED5FFE4F63816623BA
:1052900051F02091BE013091BF0184819581820F30
:1052A000931F0E94C7280E94482880E18A95F1F741
:1052B0005A9852985A9A80E18A95F1F7F801ED5F71
:1052C000FE4F6081662351F02091BE013091BF01F5
:1052D00081819281820F931F0E947A280E94402828
:1052E0000F90DF91CF91FF91EF91BF91AF919F917F
:1052F0008F917F916F915F914F913F912F911F916E
:105300000F910F900FBE0F901F9018950F931F9342
:10531000CF93DF93EC0107970CF04CC0F894529AAE
:105320005A9885E08A95F1F700009C2F9695957024
:105330008C2F8570980F892F83709695969523E012
:10534000CC0FDD1F2A95E1F7980F8E01092B0E94E3
:10535000482800C068E0802F0E94A62880E18A9536
:10536000F1F752985A9A4A9B1EC087E090E04A99FA
:105370001CC0FE01ED5FFE4F63816623F9F02091B2
:10538000BE013091BF0184819581820F931F0E94DD
:105390007A28811113C0529A5A9A7894DF91CF914A
:1053A0001F910F91089500C0DECF019729F4529A02
:1053B0005A9A789480E0F2CF00C0D9CF0E9440285A
:1053C00080E28A95F1F75A98529A80E18A95F1F72E
:1053D000CD5FDE4F6881662351F02091BE01309190
:1053E000BF0189819A81820F931F0E94C7280E9462
:1053F0004828789481E0D2CF9093D9018093D80146
:1054000008959093F3028093F20208950E946C1A1B
:10541000811103C08091ED020895E091F202F091B4
:10542000F302309729F00190F081E02D099508955D
:1054300080E008950E94062A0895E091F202F0911A
:10544000F302309721F00280F381E02D0995089551
:10545000E091F202F091F302309739F022E0DC01A2
:105460002C930480F581E02D099508952091F00298
:105470003091F1022817390771F09093F10280936F
:10548000F002E091F202F091F302309721F00680F1
:10549000F781E02D099508952091EE023091EF02F9
:1054A0002817390771F09093EF028093EE02E09194
:1054B000F202F091F302309721F00084F185E02DA3
:1054C000099508959C012E5F3F4FAC01485F5F4FE7
:1054D00080E02417350709F40895F90191919F019F
:1054E0009923B9F38F5FF5CF662349F0FC0132961B
:1054F00008962191261729F0E817F907D1F780E0DF
:10550000089581E008959C01FC0132969FEF80E0B0
:105510004191461751F09F3F19F4411101C0982F56
:105520008F5F8630A9F79F3F09F40895290F311D39
:1055300097FD3A95F90162830895FC013296089629
:105540002191261303C0DF0111971C92E817F90778
:10555000B9F708950E94832A08950E949D2A08950C
:10556000029626E0FC0111922A95E9F7089546E09B
:1055700050E00E94453321E0892B09F420E0822F7E
:10558000089508950E94C12A0895811106C081E0FE
:105590008093F4020E94C22A089582E0F9CF83E04A
:1055A0008093F4020E94C22A08950E94C52A089599
:1055B00081E08093F4020E94C22A08950E94D82AB2
:1055C0000895089508950E94E22A0895089508957F
:1055D0000E94E12A0895CF930E94E62A0E94F019C2
:1055E0000E94E72AC0E08C2F0E94CD18811105C0CF
:1055F000CF5FCA30C1F7CF91089581E0FCCF85B766
:10560000806885BF85B7806885BF08951F921FB6E3
:105610001F9211248F939F93AF93BF938091F502B4
:10562000811113C08091270590912805A09129052B
:10563000B0912A054196A11DB11D80932705909335
:105640002805A0932905B0932A05BF91AF919F919A
:105650008F911F901FBE1F90189580912F05843049
:1056600031F10E947F0A1092F50288E190E020E477
:105670000FB6F894A895809360000FBE2093600049
:1056800083B7817F846083BF83B7816083BF789451
:10569000889583B78E7F83BF0FB6F894A8958091C5
:1056A0006000886180936000109260000FBE0895D2
:1056B0000E94340F0E94860A089582E084BD93E020
:1056C00095BD9AEF97BD80936E0008952FB7F8941B
:1056D0008091270590912805A0912905B0912A0570
:1056E0002FBF08952FB7F894609127057091280572
:1056F0008091290590912A052FBF08959C014FB7ED
:10570000F8948091270590912805A0912905B091E2
:105710002A054FBF821B930B0895CF92DF92EF9221
:10572000FF922FB7F894C0902705D0902805E090FD
:105730002905F0902A052FBFA7019601261B370BDC
:10574000480B590BCA01B901FF90EF90DF90CF9041
:10575000089578941F921FB61F9211248F939F93E0
:10576000AF93BF938091270590912805A0912905BB
:10577000B0912A050196A11DB11D80932705909334
:105780002805A0932905B0932A05BF91AF919F9159
:105790008F911F901FBE1F90189581E08093E000AD
:1057A00080E28093D8001092C9008FE19EE40197B7
:1057B000F1F700C0000087E090EBDC018093380532
:1057C00090933905A0933A05B0933B0588E19CE09E
:1057D0000FB6F894A895809360000FBE9093600078
:1057E000FFCF88E19CE00FB6F894A8958093600005
:1057F0000FBE90936000FFCF80910103089508953C
:105800009C0182E08093E9009FEF8091E800915035
:1058100085FD06C085ED8A95F1F700009111F5CF61
:105820008091E80085FF0CC050E040E066E070E049
:10583000C9010E94322E8091E8008E778093E800A3
:105840000895CF93DF93EC0181E08093E9008FEF1F
:105850009091E800815095FD06C095ED9A95F1F77D
:1058600000008111F5CF8091E80085FF14C050E061
:1058700040E068E070E0CE010E94322E8091E800A6
:105880008E778093E80088E0FE01A9EFB2E00190F6
:105890000D928A95E1F7DF91CF9108958093F602FA
:1058A0007093F8026093F70280912F05843001F520
:1058B00082E08093E9008FEF9091E800815095FDA0
:1058C00006C095ED9A95F1F700008111F5CF809112
:1058D000E80085FF0DC050E040E063E070E086EF37
:1058E00092E00E94322E8091E8008E778093E8004B
:1058F0000895BC0184E00E944E2C0895BC0183E011
:105900000E944E2C089580912E05811109C00E949D
:10591000C22F0E941F308091E20084608093E200D9
:10592000089510922E0508950E94D82A0895609136
:105930002B0581E0611101C080E00E94CF2A08950B
:1059400090912F0581E0943009F080E060912B0563
:105950000E94D52A089542E061EC81E00E943E2F2A
:1059600042E261EC82E00E943E2F90912F0581E09F
:10597000943009F080E060912B050E94C52A0895BB
:1059800080913105833009F461C030F48130D1F168
:10599000823009F49EC008958A3009F48AC08B30A1
:1059A00009F46FC0893009F050C080913005813210
:1059B00009F04BC08091340590913505029708F0AD
:1059C00044C08091E800877F8093E8008091E800E0
:1059D00082FF37C09091F3008091F200029731F47A
:1059E0008091F100813011F0863021F48091F10036
:1059F000809301038091E8008B778093E8000E94F8
:105A0000722F23C080913005813AF9F48091E8002B
:105A1000877F8093E8008091340590913505892B2C
:105A200061F468E089EF92E070E00E94812E80913D
:105A3000E8008B778093E800089560E090E080E0D4
:105A4000F3CF80912F058111C1CF0895809130054A
:105A5000813AD9F78091340590913505892BA9F7C2
:105A60008091E800877F8093E8008091E80080FFC4
:105A7000FCCF809150018093F1008091E8008E77F7
:105A8000BCCF80913005813201F78091340590912F
:105A90003505892BD1F68091E800877F8093E80057
:105AA0000E94722F80913205809350010E94340F22
:105AB000089580913005813241F68091E800877F1A
:105AC0008093E8000E94722F809133058093020337
:105AD000089580913005813A09F0B7CF8091E800B0
