:100000000C9440070C9487070C9487070C9487077F
:100010000C9487070C9487070C9487070C94870728
:100020000C9487070C9487070C94F0260C94C22735
:100030000C94EF1E0C9487070C9487070C94870789
:100040000C9487070C9487070C9487070C948707F8
:100050000C9487070C94571F0C9487070C94870700
:100060000C9487070C9487070C9487070C948707D8
:100070000C9487070C9487070C9487070C948707C8
:100080000C9487070C9487070C9487070C948707B8
:100090000C9487070C9487070C9487070C948707A8
:1000A0000C9487070C9487070C948707450847082A
:1000B000520849084B084D084F0851085408560883
:1000C000580863085A085C085E08600862086508FA
:1000D0000F150F15411541157B159915D916D91610
:1000E000A415D91647164716AC16B516D916D31649
:1000F00054165416541654165416541654165416B0
:10010000541654165416541654165416541654169F
:100110006316711678167F168916591759176B17BB
:100120006B1762176B176B176B17591759176717F0
:100130006B176B1767172F2851284429512844291A
:100140009628B92844290E29212901E0012A000115
:10015000E301190001E301080001E301E1011600D8
:1001600001E3012C022C0029001E001F00200021A9
:10017000002200230024002500260027002D002E49
:1001800000350031002B0014001A0008001500177C
:10019000001C0018000C00120013002F0030002A71
:1001A000004B00075104001600070009000A000B6D
:1001B000000D000E000F0033003400000028004E38
:1001C00000E10031001D001B0006001900050011B0
:1001D000001000360037003800E50052000000E053
:1001E000000000E2000000000000002C0000000100
:1001F000512C000251500051004F004C0000703A49
:10020000003B003C003D003E003F004000410042FA
:10021000004300440045000100010001000100010D
:100220000001000100010038022602270221021EFF
:1002300002010001004C004A00390001002A0001BF
:10024000004C0003512D0234022F02300201000144
:1002500000000001004D000100010001000100014B
:1002600000010006512F003000310231002E000144
:1002700000A900000001000000E3000000000000F1
:10028000000100000001000100E000A800AA00AE8B
:1002900000010001003A003B003C003D003E003FF1
:1002A000004000410042004300440045000100536B
:1002B000000100010001005200010001003470350E
:1002C00070367037700100010001000430085301DE
:1002D000000100500051004F0001000230010001F8
:1002E00000010001000100000001004D00010001BB
:1002F0000001000100010001000100013003300194
:10030000000100055301000452000001000000E359
:1003100000000000000000010000000100010001D9
:10032000000100005201000453010001000100011E
:1003300000010001000100010001000100010001B5
:1003400000010001000100010001000100010001A5
:1003500000010069005F0060006100010001000110
:100360000001000100010001000100010001000185
:100370000068005C005D005E0001000100000001FB
:100380000001000100010001000100010001000165
:1003900000003059005A005B00010001000100001C
:1003A000000100000001000000000000000100004A
:1003B0000001006200E000010001000100010029CD
:1003C000001E001F00200021002200230024002521
:1003D000002600270031002F00300035002B0034AC
:1003E000003600370013001C0009000A0006001543
:1003F000000F0038002E002A0001000751040012EF
:1004000000080018000C0007000B00170011001670
:10041000002D00000028000100E10001003300145D
:10042000000D000E001B00050010001A0019001D31
:1004300000E10052000000E0000000E200000000C7
:100440000000000100000001510100025150005164
:10045000004F000100010001000100010001000146
:100460000001000100010001000100010001000184
:100470000001000100010001000100010001000174
:100480000001000100010001000100010001000164
:100490000001000100010001000100010001000154
:1004A0000001000100010001000000010001000145
:1004B0000001000100010001000100010001000134
:1004C00000F900FA00010001000100000001000035
:1004D0000001000000000000000100000001000118
:1004E0000001000100010001000100010001000104
:1004F00000010001000100010001000100010001F4
:1005000000010001000100010001000100010001E3
:1005100000010001000100F400F000F500010001FD
:1005200000010001000100010001000100010001C3
:10053000000100F900F200F100F3000100010000E9
:1005400000010001000100010001000100010001A3
:10055000000100FA00F600010001000100010001A5
:100560000000000100000001000000000000000188
:100570000000000100010001000100010001000174
:100580000001000100010001000100010001000163
:100590000001000100010001000100010001000153
:1005A0000001000100010001000100010001000143
:1005B0000001000100010001000100010001000133
:1005C0000001000100010001000100500051005233
:1005D000004F0001000000010001000100010001C6
:1005E00000010001000100010000300100010001D4
:1005F00000010001000100000001000000010000F6
:1006000000000000000100000001000100010001E5
:1006100000010001000100010001000100010001D2
:1006200000010001000100010001000100010001C2
:1006300000010001000100010001000100010001B2
:1006400000010001000100010001000100010001A2
:100650000001000100010001000100010001000192
:100660000001000100010001000100000001000183
:100670000001000100010001000100010001000172
:100680000001000100010001000100010000000163
:1006900000000001000000000000002A000000012E
:1006A0000001000100010001000100010001000142
:1006B0000001000100010001000100010001000132
:1006C0000001000100010001000100010001000122
:1006D0000001000100010001000100010001000112
:1006E0000001000100010001000100010001000102
:1006F00000010001000100010001000100010001F2
:1007000000000001000100010001000100010001E2
:1007100000010001000100010001000100010001D1
:1007200000010000000100000001000000000000C6
:1007300000010000000100010001000100010001B2
:1007400000010001000100010001000100010001A1
:100750000001000100010001000100010001000191
:100760000001000100010001000100010001000181
:100770000001000100010001000100010001000171
:100780000001000100010001000100010001000161
:100790000001000100010000000100010001000152
:1007A0000001000100010001000100010001000141
:1007B0000001000100010001000000010000000133
:1007C0000000000000000001000000010001000125
:1007D0000001000100010001000100010001000111
:1007E0000001000100010001000100010001000101
:1007F00000010001000100010001000100010001F1
:1008000000010001000100010001000100010001E0
:1008100000010001000100010001000100010001D0
:1008200000010001000100010001000100000001C1
:1008300000010001000100010001000100010001B0
:1008400000010001000100010001000100010000A1
:100850000001000000010000000000000001000095
:100860000001000100010001000100010001000180
:100870000001000100010001000100010001000170
:100880000001000100010001000100010001000160
:100890000001000100010001000100010001000150
:1008A0000001000100010001000100010001000140
:1008B0000001000100010001000100010001000130
:1008C0000001000000010001000100010001000121
:1008D0000001000100010001000100010001000110
:1008E0000001000100000001000000010000000004
:1008F00000000001000000010001000100010001F2
:1009000000010001000100010001000100010001DF
:1009100000010001000100010001000100010001CF
:1009200000010001000100010001000100010001BF
:1009300000010001000100010001000100010001AF
:10094000000100010001000100010001000100019F
:100950000001000100010001000000010001000190
:10096000000100010001000100010001000100017F
:100970000001000100010001000100000001000071
:100980000001000000000000000100000001000163
:10099000000100010001000100010001000100014F
:1009A000000100010001000100010001000100013F
:1009B000000100010001000100010001000100012F
:1009C000000100010001000100010001000100011F
:1009D000000100010001000100010001000100010F
:1009E0000001000100010001000100010001000000
:1009F00000010001000100010001000100010001EF
:100A000000010001000100010001000100010001DE
:100A100000000001000000010000000000000001D3
:100A200000000001000100010001000100010001BF
:100A300000010001000100010001000100010001AE
:100A4000000100010001000100010001000100019E
:100A5000000100010001000100010001000100018E
:100A6000000100010001000100010001000100017E
:100A7000000100010001000100010001000100016E
:100A8000000100010000000100010001000100015F
:100A9000000100010001000100010001000100014E
:100AA0000001000100010000000100000001000041
:100AB0000000000000010000000100010001000131
:100AC00000010001000100643214643214783C1EFD
:100AD0001E140A05000000000101010202030405C2
:100AE000050607090A0B0C0E0F1112141517191B16
:100AF0001D1F212325282A2C2F313436393B3E4116
:100B00004346494C4F5255585A5D6164676A6D704F
:100B10007376797C7F8386898C8F9295989B9EA231
:100B2000A5A7AAADB0B3B6B9BCBEC1C4C6C9CBCE29
:100B3000D0D3D5D7DADCDEE0E2E4E6E8EAEBEDEEAE
:100B4000F0F1F3F4F5F6F8F9FAFAFBFCFDFDFEFE20
:100B5000FEFFFFFFFFFFFFFFFEFEFEFDFDFCFBFAB9
:100B6000FAF9F8F6F5F4F3F1F0EEEDEBEAE8E6E485
:100B7000E2E0DEDCDAD7D5D3D0CECBC9C6C4C1BE65
:100B8000BCB9B6B3B0ADAAA7A5A29E9B9895928F0B
:100B90008C898683807C797673706D6A6764615D09
:100BA0005A5855524F4C494643413E3B39363431F1
:100BB0002F2C2A282523211F1D1B1917151412114C
:100BC0000F0E0C0B0A0907060505040302020101BA
:100BD000010000000000000000010101010101010D
:100BE00001010202020202020202020303030303E2
:100BF00003030304040404040405050505050606AF
:100C000006060607070707080808080909090A0A67
:100C10000A0A0B0B0B0C0C0C0D0D0D0E0E0F0F0F0B
:100C20001010111111121213131414151516161792
:100C300017181819191A1A1B1C1C1D1D1E1F1F20FE
:100C4000202122222324252526272728292A2B2B49
:100C50002C2D2E2F2F30313233343536363738396C
:100C60003A3B3C3D3E3F4041424344464748494A67
:100C70004B4C4D4F50515253555657585A5B5C5E32
:100C80005F606263646667696A6C6D6E70717374CD
:100C90007678797B7C7E8081838486888A8B8D8F31
:100CA00091929496989A9B9D9FA1A3A5A7A9ABAD5D
:100CB000AFB1B3B5B7B9BBBDBFC1C4C6C8CACCCF4D
:100CC000D1D3D6D8DADCDFE1E4E6E8EBEDF0F2F5FB
:100CD000F7FAFCFF12036B006500790062006F00F9
:100CE0006100720064000000160371006D006B006B
:100CF0006200750069006C0064006500720000000D
:100D00000403090409026D00040100A0FA090400AB
:100D10000001030101000921110100012240000727
:100D200005810308000A090401000103010200090A
:100D30002111010001224D000705820308000A0964
:100D40000402000103000000092111010001223604
:100D5000000705830308000A0904030001030000DB
:100D60000009211101000122390007058403200038
:100D7000011201100100000008EDFE606001000199
:100D800002000105010906A101050719E029E7157F
:100D900000250195087501810205081901290595AD
:100DA0000575019102950175039101050719002947
:100DB000F71500250195F875018102C0050109802C
:100DC000A10185021601002603001A81002A830072
:100DD000751095018100C0050C0901A1018503165C
:100DE0000100269C021A01002A9C027510950181BF
:100DF00000C005010902A1010901A10005091901AD
:100E000029051500250195057501810295017503D8
:100E100081010501093009311581257F9502750889
:100E2000810609381581257F950175088106050C15
:100E30000A38021581257F950175088106C0C00515
:100E4000010906A101050719E029E715002501950B
:100E500008750181029501750881010508190129AC
:100E60000595057501910295017503910105071915
:100E70000029FF150026FF00950675088100C000B7
:100E800011241FBECFEFDAE0DEBFCDBF04B603FEF4
:100E900027C08091AA029091AB02A091AC02B091C0
:100EA000AD028730904BA740B04BD1F41092AA020C
:100EB0001092AB021092AC021092AD0214BE84B735
:100EC000877F84BF0FB6F894A895809160008861F1
:100ED00080936000109260000FBEE0E0F8E3099597
:100EE00011E0A0E0B1E0E2E4F6E502C005900D9269
:100EF000AC33B107D9F722E0ACE3B1E001C01D92F9
:100F0000AA3AB207E1F70E943B240C941F2B0C94E1
:100F10000000FC016230B9F028F4662341F0613032
:100F200061F023C06330A9F06430C9F01EC0828133
:100F30008823D9F080E691E0089582818823A9F082
:100F400089E591E008958281882379F084E591E034
:100F500008958281882349F08FE491E00895828189
:100F6000882319F08AE491E0089580E090E00895E4
:100F70000895089581E0089581FF02C03F9A01C05D
:100F80003F984798089581E008950C94BA070E940D
:100F900045172FEF84E39CE0215080409040E1F71B
:100FA00000C000000C947C1FFF920F931F93CF93FF
:100FB000DF938C01FC01C081D18180918D01811171
:100FC00013C08281882349F0CE010E94C11CF82EF3
:100FD000682FCE010E946A1C04C0CE010E94951C9D
:100FE000F82EBE018F2D04C0CE010E94C11CBE018F
:100FF0000E948809EC01B8010E94C507882309F402
:101000003BC1B801CE010E94B90B882309F434C159
:10101000C633F0E7DF0741F4F8018281882309F441
:101020002BC10E94BE0E28C1C73380E7D80708F045
:101030009AC0C53190E7D90708F07EC0C230E0E71A
:10104000DE0708F452C0F8018281882309F459C0F0
:101050000E947B1E811102C00E94551E0E948E1E9E
:1010600090E090939B0280939A02FE01E350F04738
:10107000E231F10530F4EA5AFF4F80919A020C9464
:10108000D12A80919A02816027C0826025C0846045
:1010900023C0806121C080621FC080641DC0806841
:1010A0001BC08460886018C08E7F16C08D7F14C0FE
:1010B0008B7F12C08F7E10C08F7D0EC08F7B0CC0C7
:1010C0008F770AC08B7F877F07C087FB222720F995
:1010D00091E0922790FB87F980939A0280919A027F
:1010E0000E94921E0E944517C7C0C115F0E7DF0796
:1010F00081F0C130D047A9F081E080933E01809318
:101100003F01C801DF91CF911F910F91FF900C9487
:10111000C307F8018281882309F4AEC00E94C70783
:10112000ABC0F8018281882309F4A6C08091250212
:10113000816080932502A0C0C43390E7D90741F4B1
:10114000F8018281882309F497C00E94DD0F94C0C2
:10115000C533D04789F6F8018281882309F48CC011
:101160000E94D30F89C0CA33F0E7DF0741F4F801CA
:101170008281882309F480C00E942A0F7DC0CB336E
:1011800080E7D807D8F4F8018281C833F0E7DF0799
:1011900031F4882309F470C00E94F50E6DC0C93384
:1011A000D04730F4882309F467C00E94D60E64C08B
:1011B000882309F461C00E94100F5EC0CC33E0E7C1
:1011C000DE0719F5F8018281882351F010923E0163
:1011D0000E94211F90933D0180933C0182E02AC030
:1011E00080913E0181110FC080913C0190913D01A1
:1011F0000E942D1F883C910530F486E20E94B613B0
:1012000086E20E947E1482E01DC0CC33F0E7DF0747
:10121000E0F0CD33D04709F06FCFF8018281882309
:1012200061F010923F010E94211F90933D01809335
:101230003C0180E20E94CD141FC080913F018823B1
:1012400059F080E20E94D41417C0F80182818823EB
:1012500099F00E94450F10C080913C0190913D0192
:101260000E942D1F883C910560F787E20E94B6130B
:1012700087E20E947E14E5CF80E0DF91CF911F913D
:101280000F91FF9008950C940A0C269A2E988FEFD8
:101290009FEF909387008093860082E28093800086
:1012A00089E1809381000C94E2210E9445090C940D
:1012B000080C282F2E9880918000211108C08F7D66
:1012C0008093800010928B0010928A0008958062B3
:1012D00080938000233019F48FEF9FEF0FC083E0DD
:1012E00090E0821B9109880F991F2FEF3FEFA90112
:1012F00002C0569547958A95E2F7CA0190938B00F4
:1013000080938A0008950C94BC070C948309089577
:101310002BE4829FC0011124FC012FE0729FE00D9D
:10132000F11D1124E60FF11DEE0FFF1FE959FE4FCD
:10133000859194910895880F991FFC01E953F54F09
:101340008591949108950E9488090E943C0B811513
:1013500020E5920708F03FC0811530E4930708F0BC
:1013600014C1883E910508F5803E910508F083C1BF
:10137000883A910578F4853A910508F09EC081304D
:10138000910509F478C108F42FC18430910508F063
:1013900072C12AC18D3B910508F49AC0803C910529
:1013A00008F422C1805C9109EAC0811540E29407EB
:1013B00058F4811521E0920708F05DC1803F910546
:1013C00008F412C190650895811530E3930708F081
:1013D000D9C09F70D4C0811545E5940708F044C07A
:1013E000811524E5920708F0E7C0811532E59307DF
:1013F00010F5811541E5940708F0CAC09C0154E03E
:10140000369527955A95E1F7922F9370482F4370A0
:1014100021E030E002C0220F331F4A95E2F73C681A
:10142000392B8F708695869540E2849FC0011124E8
:10143000822B932B0895AC0143705527282F2695B6
:1014400026958115934508F0A8C081E090E002C080
:10145000880F991F4A95E2F740E2249F90011124DA
:10146000822B932B9C680895803340E7940790F477
:10147000803220E7920708F0AAC0811536E593076D
:1014800008F49FC09C0130562115304108F0ACC0D3
:101490009F709BC0813320E7920709F49FC008F436
:1014A0009AC0823340E7940709F49BC08333904786
:1014B00009F09AC080E093ED0895853A910509F40A
:1014C00096C0863A910509F095C082E890E40895A7
:1014D000883A910509F491C0893A910509F490C0C0
:1014E0008A3A910509F48FC08B3A910509F48EC0B0
:1014F0008C3A910509F48DC08B3B910509F48CC0A1
:101500008C3B910509F48BC08D3A910509F48AC092
:10151000803B910509F489C08E3A910509F488C091
:101520008F3A910509F487C0813B910509F486C083
:10153000823B910509F485C0833B910509F484C081
:10154000843B910509F483C0853B910509F482C071
:10155000863B910509F481C0873B910509F480C061
:10156000883B910509F47FC0893B910509F47EC051
:101570008A3B910509F47DC080E094E408950E94BF
:101580009B0908959927906C08959F70906A08951B
:10159000982F8827816F906A089581E090E002C0BB
:1015A000880F991F4A95E2F740E2249F9001112489
:1015B000822B932B9A680895982F8827846F906ABE
:1015C00008958F719927982F8827906208958052E7
:1015D0009047946D089580E091ED089580E090ED3E
:1015E000089580E092ED089580E090E0089581E80C
:1015F00090E4089583E890E4089582EE94E40895D9
:1016000089EE94E408958AEE94E4089585EB94E4D9
:10161000089586EB94E4089583EB94E4089584EBB5
:1016200094E4089587EB94E408958CEC94E4089591
:101630008DEC94E4089583E895E408958AE895E4B0
:10164000089582E995E4089584E995E4089581E296
:1016500096E4089583E296E4089584E296E408957A
:1016600085E296E4089586E296E4089587E296E49A
:1016700008958AE296E408958238910549F1B0F41C
:101680008133910509F459C048F48932910509F470
:101690004FC08A32910509F455C0089585339105EC
:1016A00009F441C08933910599F00895833E91056D
:1016B00031F138F4803E910591F0823E9105A9F018
:1016C0000895863E910501F1873E910539F108950F
:1016D00020919A0220FD3BC021FD39C008958091E0
:1016E0009A0280FF34C089E341C080919A0282FF50
:1016F00030C080919A0284FD2EC083EE37C0809165
:101700009A0282FD26C0F5CF80919A0283FF25C000
:1017100080919A0284FD1FC087EE28C080919A02B2
:1017200083FD1BC0F5CF80919A0285FD18C019C0BA
:1017300080919A0285FD15C012C080919A0286FDA3
:1017400012C013C080919A0286FD0FC00CC080EEBB
:101750000DC082EE0BC080E009C086EE07C089E2B2
:1017600005C085E303C08AE201C081E390E00895EB
:1017700008950F931F93CF93FB012281211102C083
:10178000C1E041C08C01C0914D01C11125C085311E
:101790009047B1F70E94B80B81E080934D010E9401
:1017A000211F90934C0180934B01109240011092A5
:1017B0004201109241011092440110924301109293
:1017C0004601109245011092480110924701109273
:1017D0004A011092490117C080914B0190914C0130
:1017E0000E942D1F883C910558F690914001E92FE9
:1017F000F0E0EE0FFF1FEF5BFE4F118300839F5F52
:1018000090934001C0E08C2FCF911F910F910895CC
:101810000C94B8070C94B907CF93DF9385B7806811
:1018200085BF85B7806885BFA4E1B1E043E251E0A0
:1018300061E070E08D91E82FE295EF70F0E021A17A
:101840008F70EB0102C0CC0FDD1F8A95E2F7CE014D
:101850009C2F9095922391A392A1892B82A34A1742
:101860005B0741F7A3E2B1E048E251E061E070E0DC
:101870008D91E82FE295EF70F0E021A18F70EB01E0
:1018800002C0CC0FDD1F8A95E2F7CE019C2F909508
:10189000922391A392A1892B82A34A175B0741F758
:1018A000E8E5F1E0AEE4B1E082E691E01192119258
:1018B0001D921D928E179F07C9F7DF91CF910C944F
:1018C00055092F923F924F925F926F927F928F9223
:1018D0009F92AF92BF92CF92DF92EF92FF920F93BF
:1018E0001F93CF93DF9300D000D0CDB7DEB784E154
:1018F000E82E81E0F82E1A821982CC24C394D12CD0
:1019000022242394D7018D917D01E82FE295EF7079
:10191000F0E091A18F70560101C0AA0C8A95EAF7F8
:10192000892F8A2981A382A15A2C5094852182A3D0
:10193000B0EABA95F1F7A601098002C0440F551F1D
:101940000A94E2F73A016094709463E271E00EE465
:1019500011E01C830B83312C8B809C80D4018D91F2
:101960009C91DB014D90BD01242D22952F7030E01C
:10197000D90190962C9130E0B42DBF7002C03595FE
:101980002795BA95E2F720FD05C09C01242B352B45
:10199000D40105C09C0126213721AB81BC812D9348
:1019A0003C932B813C812E5F3F4F3C832B83D401A2
:1019B0002D913C918217930711F0332433942B819E
:1019C0003C812855314041F681A1582251A282A183
:1019D000A82AA2A2332041F0209262010E94211F76
:1019E0009093640180936301A981BA811196BA83AF
:1019F000A9831F9709F086CF809162018823B1F0F7
:101A000080916301909164010E942D1F069770F0F0
:101A1000E8E5F1E0D8018D919D918D01819391933D
:101A2000B1E008351B07B1F7109262010E9443092B
:101A300081E00F900F900F900F90DF91CF911F9149
:101A40000F91FF90EF90DF90CF90BF90AF909F905D
:101A50008F907F906F905F904F903F902F90089560
:101A6000E82FF0E0EE0FFF1FE85AFE4F80819181D2
:101A7000089508952EB1342F309523233EB1432B82
:101A80003FB7F894FC01680F791FE617F70789F054
:101A9000819198E04EB9000000C087FF2EB9880FF1
:101AA000000000C000C000C02EB900C09A9591F798
:101AB000ECCF3FBF08952DB1242B2DB99B01220FF0
:101AC000331F620F731F0E943A0D87EC90E001975D
:101AD000F1F700C00000089544E00C945B0DEF9214
:101AE000FF920F931F93CF93DF93E901662309F4CD
:101AF0004BC0242F30E0EFEFF0E0E61BF109B90115
:101B0000E69F9001E79F300DF69F300D1124232FA3
:101B10008B01031B11095CE3E52EF12CB7010E9438
:101B2000A92AFB01BC01069FC001079F900D169FCB
:101B3000900D1124B7010E94A92AE230F105B1F0FD
:101B400040F4309779F0319711F5832F242F461BFD
:101B500021C0E430F105A1F068F03597C1F4842F7D
:101B6000861B18C0832F262F230F14C0862F830FA8
:101B7000E42F03C0E42FE61B842F432F2E2F0AC02F
:101B8000842F462F430F06C0842F242F03C080E0EC
:101B900020E040E0E42FF0E0EC52F44F4491E22FDB
:101BA000F0E0EC52F44F9491E82FF0E0EC52F44F57
:101BB000E49149839883EA83DF91CF911F910F913C
:101BC000FF90EF90089588E090E00C94DF2AAB013D
:101BD000BC0188E090E00C94FD2AE2E5F2E083E0AD
:101BE0008083109253028FEF82838383609152022D
:101BF0007091530280915402909155020C94E70D1C
:101C00008091520280FF06C064E170E08AE592E0B4
:101C10000C946C0DEAE5F2E0118210821282339688
:101C200082E0E639F807C1F7EFCFEAE5F2E0818319
:101C300060834283339692E0E639F907C1F70C944A
:101C4000000EEF92FF920F931F93CF93DF9300D07C
:101C50001F92CDB7DEB7009152021091530220912E
:101C6000540230915502009356021093570220936C
:101C70005802309359022091520220FF21C0042FB4
:101C8000F62EE92E182F9E012F5F3F4F0E946F0DF9
:101C90008091560210FB87F9809356021695809129
:101CA00057028078182BE0FA17F910935702F09238
:101CB0005802009359024B8169818A810E94150E56
:101CC0000F900F900F90DF91CF911F910F91FF9088
:101CD000EF9008950F931F93CF93DF93EC01062F9E
:101CE000142F9091520290FF44C0892F8E7782303A
:101CF00021F4CE010E94210E1BC0892F86958F737F
:101D00002EE3280F2F73243018F41091550210C0C1
:101D1000865C8F73893060F4C92FCC1FCC27CC1F11
:101D2000D09153028D2F880FC82BD7FBDD27D0F918
:101D300080915202C0FB87F980935202C695809130
:101D400053028078C82BD0FBC7F9C093530200938D
:101D50005402109355026091520270915302809187
:101D6000540290915502DF91CF911F910F910C94E5
:101D7000E70DDF91CF911F910F910895E2E5F2E019
:101D80002081221F2227221F30915302432F440F0C
:101D9000842F822B37FB992790F9089668E671E02B
:101DA0000E94BD2A438162810C946A0E20915202E6
:101DB000221F2227221F30915302432F440F842FCA
:101DC000822B37FB992790F9883091051CF4805AB3
:101DD0009E4F05C0089768E671E00E94BD2A4091B9
:101DE0005502609154020C946A0E60915402862F41
:101DF00090E0883F910514F4685F01C06FEF809117
:101E00005202881F8827881F90915302292F220F82
:101E100097FB992790F940915502822B0C946A0EFA
:101E200060915402862F90E0089714F0685001C02A
:101E300060E080915202881F8827881F909153028A
:101E4000292F220F97FB992790F940915502822B59
:101E50000C946A0E40915502842F90E0883F9105C2
:101E600014F4485F01C04FEF80915202881F882709
:101E7000881F90915302292F220F97FB992790F9E1
:101E800060915402822B0C946A0E40915502842F6B
:101E900090E0089714F0485001C040E08091520251
:101EA000881F8827881F90915302292F220F97FBA4
:101EB000992790F960915402822B0C946A0E9091AC
:101EC000520290FF3BC09178811102C0926007C01E
:101ED000893110F0906303C08F73880F982B909313
:101EE000520260915202709153028091540290917B
:101EF00055020E94E70D80915202982F9E779230F2
:101F000019F410927A0109C0982F9695925C9F73EC
:101F1000963118F491E090937A01881F8827881FE2
:101F200090915302292F220F97FB992790F9409106
:101F3000550260915402822B0C946A0E0895809190
:101F4000250281608093250281E080937B010E94BD
:101F50007B1E811104C00E94551E0E94ED0D0E943F
:101F6000E30D609352027093530280935402909356
:101F700055026E7761F40E94ED0D0E94E30D6093AF
:101F8000520270935302809354029093550281E061
:101F900080937A018091520280FF04C086958F73EE
:101FA0000C945F0F08958091520286958F738F5F16
:101FB000893108F081E00C945F0F80915202982FD4
:101FC000909590FB80F9809352026091520270913B
:101FD000530280915402909155020E94E70D809126
:101FE000520280FF04C086958F730C945F0F10928D
:101FF0007A012FEF80E792E0215080409040E1F796
:1020000000C000000C94000ECF93C82F809178017F
:10201000909179010E942D1FEC2FF0E0E053F54FD5
:10202000E491F0E08E179F0718F10E94211F909312
:10203000790180937801E0917701F0E0EC52F54F5F
:10204000449180915202881F8827881F90915302E3
:10205000292F220F97FB992790F960915402822B28
:102060000E94210E8091770190E001968093770184
:10207000CF910895CF93C82F8091750190917601EB
:102080000E942D1FEC2FF0E0E353F54FE491F0E0B8
:102090008E179F07E8F00E94211F9093760180938E
:1020A00075014091550260915402809173019091A5
:1020B00074010E94210E8091730190917401019628
:1020C00068E671E00E94A92A9093740180937301DD
:1020D000CF910895CF92DF92FF920F931F93CF93EA
:1020E000DF93F82E80917101909172010E942D1F53
:1020F000EF2DE695F0E0E353F54FE491F0E08E1715
:102100009F07B8F10E94211F909372018093710183
:102110000AE512E0C0E0D0E088E6C82EDD24D394C2
:1021200080916F01909170018C0F9D1FB6010E94EC
:10213000A92A980140915502609154020E946F0DA6
:1021400062960D5F1F4FC83681E0D80749F70E949D
:10215000000E80916F0190917001F0FE05C0019614
:10216000BE010E94A92A01C001979093700180933B
:102170006F01DF91CF911F910F91FF90DF90CF9072
:102180000895AF92BF92CF92DF92EF92FF920F939A
:102190001F93CF93DF93C82F80FF03C0FF24FA94CF
:1021A00002C0FF24F39480916D0190916E010E9412
:1021B0002D1FC695EC2FF0E0E653F54FE491F0E0CB
:1021C0008E179F0708F45BC00E94211F90936E0139
:1021D00080936D01CAE5D2E000E010E097E0C92EDF
:1021E000D12C198218821A8287E0A82EB12CE12CFA
:1021F00080916C018E0D87FD8C5E082E000C990B72
:1022000008171907E9F4209155022A9DC0012B9D5A
:10221000900D1124B6010E94BD2A462F80915202D2
:10222000881F8827881F90915302592F550F97FBBD
:10223000992790F99E0160915402852B0E946F0DA1
:10224000EF0C81E0A81AB10899F60F5F1F4F239693
:102250000431110531F60E94000E80916C0191E06D
:10226000F91206C0811102C083E107C0815005C088
:1022700090E00196B8010E94BD2A80936C01DF9125
:10228000CF911F910F91FF90EF90DF90CF90BF9073
:10229000AF900895BF92CF92DF92EF92FF920F938B
:1022A0001F93CF93DF93CDB7DEB7EC970FB6F894BB
:1022B000DEBF0FBECDBF182F80916A0190916B01D8
:1022C0000E942D1FE12FF0E0E953F54FE491F0E07B
:1022D0008E179F0708F48EC00E94211F90936B01F8
:1022E00080936A01CE0101967C01C12CD12C8C0116
:1022F000D70111961C9211971C9212961C92B12C28
:102300009091000180916901B99E800D112487FD93
:1023100004C084311CF083E101C080E0082E000C71
:10232000990BC816D906A1F480915202881F8827FC
:10233000881F90915302592F550F97FB992790F9B9
:1023400097014091550260915402852B0E946F0DB8
:10235000B394B7E0BB12D4CFEFEFCE1ADE0AF3E0AE
:10236000EF0EF11C84E1C816D10411F62AE532E023
:1023700059E0E52EF12C64E1C62ED12CC701B6013F
:102380000E94BD2AFC01EE0FFF1F8E0F9F1FF80158
:10239000E80FF91F8181D90111968C9311978081E3
:1023A0008C93828112968C93BFEFEB1AFB0A2D5F00
:1023B0003F4FEDE1EE16F10409F70E94000E9091F7
:1023C000000180916901913049F48A3F2CF489EF32
:1023D000809369018FEF08C081500AC08B313CF0B7
:1023E0008AE18093690181E08093000103C08F5FDF
:1023F00080936901EC960FB6F894DEBF0FBECDBF97
:10240000DF91CF911F910F91FF90EF90DF90CF90D0
:10241000BF900895CF93DF938091670190916801F9
:102420000E942D1F883E934028F10E94211F909307
:102430006801809367018091650190916601019622
:10244000817099279093660180936501CAE5D2E077
:102450009E01409155026091540280E090E00E94FC
:102460006F0D239682E0C639D80791F7DF91CF919F
:102470000C94000EDF91CF91089580917A0188230A
:1024800071F18091520286958F739EE3980F9F732E
:10249000943018F482500C9404109AE3980F9F73B0
:1024A000933018F486500C943A1097E3980F9F736A
:1024B000963018F489500C946A1091E3980F9F732A
:1024C000963018F48F500C94C1109BE2980F9F73B4
:1024D000933018F485510C944A110C940A12089503
:1024E00090938101809380010895E0918001F091A3
:1024F0008101309721F00190F081E02D099480E076
:102500000895E0918001F0918101309721F00280DF
:10251000F381E02D09940895E0918001F09181010B
:10252000309721F00480F581E02D099408952091E1
:102530007E0130917F012817390771F090937F0158
:1025400080937E01E0918001F0918101309721F02C
:102550000680F781E02D0994089520917C01309147
:102560007D012817390771F090937D0180937C01DC
:10257000E0918001F0918101309721F00084F18594
:10258000E02D0994089508950C94C3120E94181F19
:102590000E940C0C0E949E1F0E94E2210C949F0F2F
:1025A0005F926F927F928F929F92AF92BF92CF92E3
:1025B000DF92EF92FF920F931F93CF93DF93CDB7EC
:1025C000DEB72A970FB6F894DEBF0FBECDBF0E94CC
:1025D000610C93E8692E91E0792E00E010E08824E8
:1025E0008394912C502E802F0E94300D6C01F301AA
:1025F000A190B1903F01A826B926A114B104B1F46D
:102600000F5F1F4F0530110569F78FEF89838A83AC
:102610001B820E94211F8160782F9D838C834981BA
:102620005A816B818D810E94881339C08091250267
:1026300081FD0E94390D80E090E07401082E02C0F7
:10264000EE0CFF1C0A94E2F795012E213F21232B6B
:1026500009F18E835F82CE20DF2081E0CD2809F44E
:1026600080E088870E94211F8160782F9A87898760
:102670004E815F8168858A850E948813000F111F33
:10268000F801ED57FE4F80819181E826F926F1820D
:10269000E08205C001968F30910579F6B1CF0E9496
:1026A00031210E947512909182018917D9F00E9400
:1026B0007512809382012A960FB6F894DEBF0FBE82
:1026C000CDBFDF91CF911F910F91FF90EF90DF90E1
:1026D000CF90BF90AF909F908F907F906F905F90C2
:1026E0000C9485092A960FB6F894DEBF0FBECDBFB5
:1026F000DF91CF911F910F91FF90EF90DF90CF90DE
:10270000BF90AF909F908F907F906F905F90089553
:10271000CF93DF93CDB7DEB72B970FB6F894DEBF1C
:102720000FBECDBF4F83588769877A878B87DE01BD
:10273000119686E0FD0111928A95E9F785E0FE0188
:10274000379601900D928A95E1F749815A816B8104
:102750007C818D819E810E94051A2B960FB6F8947C
:10276000DEBF0FBECDBFDF91CF910895882309F45E
:10277000C4C0823859F40E94751281FDBEC089E33D
:102780000E945F1D0E94261E89E30CC0833871F4ED
:102790000E94751280FDB1C083E50E945F1D0E94FA
:1027A000261E83E50E949E1D0C94261E843859F433
:1027B0000E94751282FDA1C087E40E945F1D0E94E5
:1027C000261E87E4EFCF9CEF980F913A18F40E94F1
:1027D0005F1DEACF90E2980F983050F4877091E037
:1027E00001C0990F8A95EAF7892F0E94DF1DDCCF7F
:1027F0009BE5980F933070F4853A29F0863A31F0D2
:1028000083E890E005C081E890E002C082E890E0B3
:102810000C94971298E5980F953108F06EC0883A9D
:1028200061F1893A69F18A3A71F18B3A79F18C3A1E
:1028300081F18B3B89F18C3B91F18D3A99F1803B91
:10284000A1F18E3AA9F18F3AB1F1813BB9F1823B06
:10285000C1F1833BC9F1843BD1F1853BD9F1863B82
:10286000E1F1873BE9F1883BF1F1893BF9F18A3BE2
:1028700009F43FC080E090E03EC082EE90E03BC0B3
:1028800089EE90E038C08AEE90E035C085EB90E0AC
:1028900032C086EB90E02FC083EB90E02CC084EB3D
:1028A00090E029C087EB90E026C08CEC90E023C03C
:1028B0008DEC90E020C083E891E01DC08AE891E0B3
:1028C0001AC082E991E017C084E991E014C081E266
:1028D00092E011C083E292E00EC084E292E00BC06D
:1028E00085E292E008C086E292E005C087E292E0CD
:1028F00002C08AE292E00C94AD120895882309F494
:102900004BC0823859F40E94751281FF45C089E39B
:102910000E945F1D0E94261E89E30CC0833871F45B
:102920000E94751280FF38C083E50E945F1D0E94DF
:10293000261E83E50E949E1D0C94261E843859F4A1
:102940000E94751282FF28C087E40E945F1D0E94CA
:10295000261E87E4EFCF9CEF980F913A58F390E250
:10296000980F983050F4877091E001C0990F8A95C4
:10297000EAF7892F0E94E51DDFCF9BE5980F933082
:1029800020F480E090E00C949712885A853120F46E
:1029900080E090E00C94AD120895882321F00E940D
:1029A000DF1D0C94261E0895882321F00E94E51D4A
:1029B0000C94261E08958F929F92AF92BF92DF9241
:1029C000EF92FF920F931F93CF93DF937C01D62F4B
:1029D000C72FFC01058102950F70128111110E9411
:1029E000FC1D0E94581D882379F0112369F080E2B4
:1029F0008D0F883048F082E00E94411D0E94581DD2
:102A000091E0D82ED92601C0D12CEC2FE295EF70A1
:102A10008E2F90E0FC01E859FF4F0C94D12A8C2FA7
:102A2000807FCF70882311F0C295C07F112399F069
:102A3000CC2309F487C180E28D0F883010F0D111CA
:102A400004C08C2F0E94DF1D03C08C2F0E94EF1D3D
:102A50000E94261E77C18D2F0E947E14CC2309F47C
:102A6000A8C180E28D0F883010F0D11104C08C2FE6
:102A70000E94E51D03C08C2F0E94F51D0E94261E9A
:102A800098C18C2F807FCF70803211F0C295C07FAB
:102A9000DD2319F0D13099F01CC0112341F000233F
:102AA00011F18C2F013001F50E940F1E82C100230D
:102AB00019F0013009F47DC10E94121E1AC01123C1
:102AC00021F0063008F075C10EC0053008F071C164
:102AD00010C0112361F0002331F0F701858180FFE0
:102AE00031C18F7085838C2F0E94CD1462C101117A
:102AF0002FC18C2FE5C08C2F86958695837019F099
:102B0000813061F056C1112321F08D2F9C2F9370DD
:102B100002C080E090E00E9497124BC1112321F087
:102B20008D2F9C2F937002C080E090E00E94AD1228
:102B300040C18D2F112319F00E94392002C00E943C
:102B4000A1200E94262135C18C2F837009F04CC032
:102B500011112FC12D2F229526952770220F220F9C
:102B60006D2F6F70862F90E0A0E0B0E04C015D010A
:102B7000022E04C0880C991CAA1CBB1C0A94D2F714
:102B8000D4FF12C08FE090E0A0E0B0E004C0880F56
:102B9000991FAA1FBB1F2A95D2F7BC01CD016095D2
:102BA00070958095909503C060E070E0CB01C6956C
:102BB000C695C370C23051F080F4682979298A29FA
:102BC0009B29C13071F00E94571BF3C068297929F5
:102BD0008A299B290E94731BECC00E94571BC501C8
:102BE000B4010E943B1BE5C0112319F08C2F8170AA
:102BF00001C08695882309F4DCC02D2F22952695E7
:102C00002770220F220F6D2F6F70862F90E0A0E0AB
:102C1000B0E04C015D01022E04C0880C991CAA1C76
:102C2000BB1C0A94D2F7D4FF12C08FE090E0A0E062
:102C3000B0E004C0880F991FAA1FBB1F2A95D2F7C6
:102C4000BC01CD01609570958095909503C060E0C2
:102C500070E0CB01C695C695C370C23051F080F4C8
:102C6000682979298A299B29C13071F00E94311C79
:102C7000A0C0682979298A299B290E944D1C99C0E6
:102C80000E94311CC501B4010E94151C92C08D2FF9
:102C900090E0FC01E05EF109E531F10508F04EC07D
:102CA000E858FF4F0C94D12ADF708C2F8F711123BD
:102CB00021F00E94AE1B8D2F17CF0E94CF1B8D2FAE
:102CC0000E94D41476C0112341F0053008F071C081
:102CD0008C2F8F710E94F41B6CC0063008F069C005
:102CE000F7CF112339F08C2F8F710E94AE1B61C07A
:102CF0001123C9F38C2F8F710E94CF1B5AC011234F
:102D000029F08C2F8F710E94991B53C00E948F1B3A
:102D100050C0112349F0CF718C2F0E94AE1B63E08D
:102D20008C2F0E94381D45C081E00E94411D023059
:102D300008F43FC082E00E94411D3BC0112331F0E6
:102D4000002389F28D2F0E94B61333C0002391F225
:102D50008D2F0E947E142DC04C2F4F706D2FC701F8
:102D60000E9489070E94B31A24C0111122C0CF709B
:102D7000C23099F038F4CC2369F0C130D1F40E940C
:102D8000102217C0C33061F0C43099F48D2F0E9417
:102D900062220FC00E94F3210CC00E942C2209C0A5
:102DA0000E943F2206C04C2F4F706D2FC7010E941A
:102DB0008709DD20E1F00E94341D80FD18C0F70175
:102DC00012820E942E1D0E94AE1BC7010E94031793
:102DD0000E942E1DDF91CF911F910F91FF90EF90D8
:102DE000DF90BF90AF909F908F900C94CF1BDF919E
:102DF000CF911F910F91FF90EF90DF90BF90AF9018
:102E00009F908F9008950F931F93CF93DF93EC01C2
:102E1000988189812B813C81232B31F08F3F31F4C4
:102E200081E09F3F19F403C081E001C080E080FD94
:102E300013C0CE010E94D407882371F06881798184
:102E40008A810E940B1D8C010E94691C0E94301B0C
:102E5000B801CE010E94DB14DF91CF911F910F9139
:102E600008950E94FC1D0E940C1E0E94D11D0E940C
:102E7000261E0E94D6210E94262180E090E00E941A
:102E8000971280E090E00C94AD120E94EC1D0C941F
:102E900031170E94001DE92FE295EF704E2F50E090
:102EA000FA013297EE30F105B0F4E357FF4F0C947E
:102EB000D12A803F91F018F4803E68F40EC0843F20
:102EC00051F40BC0803E48F0813F29F406C093FBCB
:102ED000882780F9089580E0089581E00895CF93D0
:102EE000DF9300D000D01F92CDB7DEB70F900F90C8
:102EF0000F900F900F90DF91CF910895CF93DF93B4
:102F000000D000D000D0CDB7DEB726960FB6F8942B
:102F1000DEBF0FBECDBFDF91CF9108951F93CF933A
:102F2000DF93C0918E0116E080918F01C81799F050
:102F3000D0E01C9FF0011D9FF00D1124E057FE4FC3
:102F40004081518162817381848195810E947E17C5
:102F50002196C770E9CFDF91CF911F9108954091DD
:102F6000C0015091C1016091C2017091C301809173
:102F7000C4019091C5010C947E17CF938091C50137
:102F800082958F7009F05FC08091C201882309F497
:102F90005AC080918E01B0918F017091C001A091B3
:102FA000C1014091C3015091C40191E07F3F09F0FC
:102FB00090E0692FC6E08B1709F445C04115510513
:102FC00021F0AF3F21F020E003C021E001C0262F17
:102FD00090E020FD35C0C89FF001C99FF00D11247D
:102FE000E057FE4F21812A132BC02081271328C0D0
:102FF0002281211125C0238134812417350710F443
:1030000021503109241B350B283C3105C8F420918F
:10301000C5012F7020612093C50126E0289FF00193
:10302000299FF00D1124EB56FE4F80818F70806137
:10303000808380EC91E00E940317CF910C948E174F
:1030400001968770B8CFCF910895AF92BF92CF927B
:10305000DF92EF92FF920F931F93CF93DF93CDB741
:10306000DEB761970FB6F894DEBF0FBECDBF8C01FF
:1030700085E0F801DE011D9601900D928A95E1F739
:10308000D8014C9111965C9111971296EC90309169
:10309000C0016091C1018091C3019091C40100976A
:1030A00031F06F3F31F421E03F3F19F403C021E0DC
:1030B00001C020E0B22FB170BB2E20FD64C1F80129
:1030C000C380D480A090C201AA2009F4C3C020917B
:1030D000C501C816D90628F0D601A81BB90BCD0129
:1030E00004C0809590958C0D9D1DFF24F394883C21
:1030F000910580F0F12C207F09F09CC07C2DD98AAD
:10310000C88A6E2D89890E946F1780EC91E00E9419
:103110000317B4C0822F807F09F054C0561314C027
:10312000431312C0FE2CE1100FC02F7020612093BA
:10313000C5010E94AF1780EC91E00E9403178091B7
:10314000C501F80185834FC1CD2831F05F3F31F4CF
:1031500081E04F3F19F403C081E001C080E080FDB1
:1031600003C081E08E2502C080E090E0F82FF1706E
:10317000FF2E80FF1CC080918E0120918F0136E0D0
:10318000821709F40DC190E0389FF001399FF00DCE
:103190001124E057FE4F6181561306C0608146132B
:1031A00003C06281E61203C001968770E9CFFE2C4E
:1031B000EE2009F418C18091C50181608093C5019A
:1031C000F12C11C1561309C0431307C0E11005C00B
:1031D0008091C501F8018583B0C04D875E878D85DC
:1031E0009E850E944917882379F1EE2069F120918C
:1031F000C501822F82958F7090E0029774F08091C4
:10320000C0019091C10198878F831986DB86CA8699
:103210002C87CE0107960E94031786E0F801A0ECE8
:10322000B1E001900D928A95E1F70E94BD170E94CE
:10323000AF170DC0561761F14D875E878D859E854E
:103240000E944917811138C0C8010E940317FF244A
:10325000F394C9C0C816D90608F446C0F601E81BA5
:10326000F90BCF01883C910508F443C0F12C7C2D6B
:10327000D98AC88A6E2D89890E946F17E0ECF1E027
:1032800086E0DF011D928A95E9F70E94AF17ABC077
:103290004313D2CFE110D0CF8091C501F8018583CF
:1032A000C8010E94031786E0E0ECF1E0DF011D9207
:1032B0008A95E9F7FA2C97C0EE2031F22091C501EA
:1032C000822F82958F7090E002970CF4A6CF8091A8
:1032D000C0019091C1019A8389831B82DD82CC82D7
:1032E0002E83CE01019697CF809590958C0D9D1DD4
:1032F000B9CFFE2CEE2009F4A7CF561333C04313E9
:1033000031C02091C50120FD24C0822F82958F708D
:10331000482F50E041155105E1F0D80115962C9346
:1033200015974F30510549F08F5F982F9295907FF8
:10333000822F8F70892B15968C93C8010E940317DA
:1033400086E0F801A0ECB1E001900D928A95E1F7DA
:103350009CCF86E0F801A0ECB1E001900D928A9537
:10336000E1F741C04D875E878D859E850E94491794
:10337000811153CF8091C50181608093C501C8013F
:103380000E94031730C0EE2009F45ECF4D875E87A0
:103390008D859E850E944917882309F455CF3DCF1E
:1033A0004D875E878D859E850E94001D292F229561
:1033B0002F70223028F49F7039F0811105C00BC0A6
:1033C000243028F49F7049F4805E883020F0C801D2
:1033D0000E940317BF2CFB2C06C0D80115969C91A8
:1033E000907F91F7F8CF8F2D61960FB6F894DEBFDE
:1033F0000FBECDBFDF91CF911F910F91FF90EF9046
:10340000DF90CF90BF90AF9008951F93CF93DF933D
:10341000CDB7DEB72C970FB6F894DEBF0FBECDBF89
:103420004F83588769877A878B879C87CE01079659
:103430000E9425188823D1F09F8188852A853B85A5
:10344000232B31F08F3F31F481E09F3F19F403C00B
:1034500081E001C080E080FD47C04F8158856985CB
:103460007A858B859C850E947E173EC086E0FE0192
:103470003796DE01119601900D928A95E1F7FF8152
:10348000E8856A857B856115710531F0EF3F31F480
:1034900081E0FF3F19F403C081E001C080E080FDBE
:1034A00023C020918F0130E0C901019687709927D0
:1034B00040918E0150E084179507F1F1F983EA837A
:1034C0007D836C8396E0929FD001939FB00D112471
:1034D000A057BE4FFE01319601900D929A95E1F7EB
:1034E00080938F010E948E1716E080918E0190913B
:1034F0008F01891771F1189FC001112480579E4FC9
:103500000E942518882329F1E0918E011E9FF00169
:103510001124E057FE4F4081518162817381848183
:1035200095810E947E1780918E0190E001968770B0
:10353000992780938E01D9CF0E94451710928F0151
:1035400010928E01E0ECF1E086E0DF011D928A9599
:10355000E9F72C960FB6F894DEBF0FBECDBFDF9112
:10356000CF911F910895EF92FF920F931F93CF93E6
:10357000DF938C01892B09F46CC0F12CEE24E394C9
:10358000E8012196F8018491843740F4843008F0F2
:1035900051C0813081F0823019F15BC0853709F468
:1035A00044C0A8F19CE7980F903708F052C08F777D
:1035B0000E947E1441C00E5F1F4FFE01849190E275
:1035C000980F983050F48770FE2D01C0FF0F8A9538
:1035D000EAF78F2F0E94FF1D14C00E94B6132DC062
:1035E0000E5F1F4FFE01849190E2980F983060F4B7
:1035F0008770FE2D01C0FF0F8A95EAF78F2F0E947A
:10360000051E0E94261E19C00E947E1416C00E5F61
:103610001F4FFE01C491CC2381F08FE99FE00197F9
:10362000F1F700C00000C150F6CF0E5F1F4FFE0142
:10363000F49003C00E94B6138E018F2D882309F4E5
:103640009FCFEFE9FFE03197F1F700C00000815014
:10365000F5CFDF91CF911F910F91FF90EF900895DB
:1036600008956093FC017093FD018093FE01909397
:10367000FF010C9431170F931F930091FC011091DF
:10368000FD012091FE013091FF01DC01CB01802B77
:10369000912BA22BB32B8093FC019093FD01A0935F
:1036A000FE01B093FF011F910F910C9431170F93FE
:1036B0001F930091FC011091FD012091FE013091BA
:1036C000FF01DC01CB0180239123A223B32380934C
:1036D000FC019093FD01A093FE01B093FF011F91A7
:1036E0000F910C9431170F931F930091FC011091CF
:1036F000FD012091FE013091FF01DC01CB0180270B
:103700009127A227B3278093FC019093FD01A093FA
:10371000FE01B093FF011F910F910C94311710928D
:10372000F8011092F9011092FA011092FB010C9429
:10373000311741E050E060E070E004C0440F551FD5
:10374000661F771F8A95D2F74093F8015093F901CD
:103750006093FA017093FB010C94311741E050E043
:1037600060E070E004C0440F551F661F771F8A9504
:10377000D2F78091F8019091F901A091FA01B091EE
:10378000FB01482B592B6A2B7B2B4093F80150935C
:10379000F9016093FA017093FB010C94311741E039
:1037A00050E060E070E004C0440F551F661F771FB3
:1037B0008A95D2F740955095609570958091F80163
:1037C0009091F901A091FA01B091FB01482359238E
:1037D0006A237B234093F8015093F9016093FA0127
:1037E0007093FB010C94311741E050E060E070E011
:1037F00004C0440F551F661F771F8A95D2F780912A
:10380000F8019091F901A091FA01B091FB014827CC
:1038100059276A277B274093F8015093F901609359
:10382000FA017093FB010C9431170F931F930091D1
:10383000F8011091F9012091FA013091FB01DC01AE
:10384000CB01802B912BA22BB32B8093F80190936B
:10385000F901A093FA01B093FB011F910F910C9411
:1038600031170F931F930091F8011091F9012091E6
:10387000FA013091FB01DC01CB0180239123A223CB
:10388000B3238093F8019093F901A093FA01B093C8
:10389000FB011F910F910C9431170F931F9300910F
:1038A000F8011091F9012091FA013091FB01DC013E
:1038B000CB0180279127A227B3278093F80190930B
:1038C000F901A093FA01B093FB011F910F910C94A1
:1038D000311708952FE0929F800D1124E82FE6956F
:1038E000E695E695877051E001C0550F8A95EAF795
:1038F00085E0E89FF0011124EA53FE4F20E030E01C
:1039000070E04081CB01022E02C0969587950A9403
:10391000E2F78170819584278523842781932F5F27
:103920003F4F2530310569F708952FE0929F800DB4
:103930001124682F669566956695982F977085E097
:10394000689FB001112440E050E080E0FB01E40FEB
:10395000F51FEA53FE4F208130E0092E02C0369554
:1039600027950A94E2F721703327042E01C0220F15
:103970000A94EAF7822B4F5F5F4F4530510531F7CC
:103980000895CF92DF92EF92FF920F931F93CF9300
:10399000DF938C01C090F801D090F901E090FA011A
:1039A000F090FB018091FC019091FD01A091FE013E
:1039B000B091FF01C82AD92AEA2AFB2ACFE1D0E038
:1039C000D701C6010C2E04C0B695A795979587958B
:1039D0000A94D2F780FD04C0219790F780E007C0D9
:1039E000B8018C2F0E94A3090197B1F38C2FDF91AE
:1039F000CF911F910F91FF90EF90DF90CF9008959E
:103A0000CF93DF93EC010E94C11CBE010E94A30969
:103A1000DF91CF9108951F93CF93DF93EB019091A6
:103A20008D01992321F0CB010E94001D13C0882332
:103A300049F0CB010E94C11C182F682FCE010E94B3
:103A40006A1C04C0CB010E94951C182FBE01812F57
:103A50000E94A309DF91CF911F91089580910002E8
:103A600085958595859508958091000287700895C4
:103A700098E0899F90011124262B209300020C943A
:103A8000AE1B209100028095822380930002982F24
:103A9000977069F430E0482F082E000C550B24175E
:103AA000350729F08595859585950C94CF1B08954C
:103AB00090910002977081E009F480E00895909160
:103AC00013019923F1F090919A0297FF1AC0982F51
:103AD0009695969596959F3181F1E0910101F0912F
:103AE0000201E90FF11D877021E030E0A90102C059
:103AF000440F551F8A95E2F7CA019181892B818372
:103B000008952091010130910201F90132969FEF51
:103B100040E05191851789F09F3F19F4511101C080
:103B2000942F4F5F4E31A9F79F3F39F0F901E90F0C
:103B3000F11D97FDFA9582830895089590911301E0
:103B40009923F9F090919A0297FF1BC0982F9695B0
:103B5000969596959F3121F1E0910101F091020136
:103B6000E90FF11D877021E030E0A90102C0440F88
:103B7000551F8A95E2F7CA01809591818923818337
:103B80000895E0910101F09102019F01225E3F4FF3
:103B90009281891301C012823196E217F307C1F7AF
:103BA000089581E090E0E0910101F0910201E80FB9
:103BB000F91F1082019680329105A9F7089590911E
:103BC0002402892B809324020895809590912402E9
:103BD00089238093240208951092240208959091DD
:103BE0002302892B809323020895809590912302CC
:103BF00089238093230208951092230208959091BF
:103C00002202892B809322020895809590912202AE
:103C100089238093220208951092220208958093AE
:103C2000010208951092010208958091010190917E
:103C30000201FC0131969C01205E3F4F80E0919192
:103C400091118F5FE217F307D1F70895E091010119
:103C5000F0910201809124028083E0910101F091B2
:103C60000201908180912302892B8083E0910101E0
:103C7000F0910201908180912202892B80838091B2
:103C80000102882361F0E0910101F091020190812D
:103C9000892B80830E94151E811110920102809150
:103CA0000101909102010C9481126DEE7EEF80E093
:103CB00090E00E94092B60E082E090E00E94EB2AF5
:103CC00060E083E090E00E94EB2A60E084E090E016
:103CD0000E94EB2A60E085E090E00E94EB2A60E021
:103CE00086E090E00E94EB2A40E050E0BA0188E0D4
:103CF00090E00C94FD2A80E090E00E94E52A21E00B
:103D00008D3E9E4F09F020E0822F089582E090E0E2
:103D10000C94D72A83E090E00C94D72A84E090E0BA
:103D20000C94D72A682F84E090E00C94EB2A86E06C
:103D300090E00C94D72A682F86E090E00C94EB2A50
:103D40008091A102843051F11092260220E488E192
:103D500090E00FB6F894A895809360000FBE209372
:103D6000600080E00E94590980E00E94850983B7C5
:103D7000817F846083BF83B7816083BF7894889597
:103D800083B78E7F83BF0FB6F894A89580916000AB
:103D9000886180936000109260000FBE08950895BE
:103DA0000C94CF1ECF930E94D01E0E94610C0E94E3
:103DB000CF1EC0E08C2F0E94300D892B29F4CF5FDD
:103DC000C530C1F780E001C081E0CF9108950E9425
:103DD00045170E94E2210E9475120C9485091F92DA
:103DE0000F920FB60F9211248F939F93AF93BF93AF
:103DF00080912602811113C08091960290919702C2
:103E0000A0919802B09199024196A11DB11D809395
:103E1000960290939702A0939802B0939902BF9153
:103E2000AF919F918F910F900FBE0F901F9018959B
:103E300082E084BD93E095BD9AEF97BD80936E00BC
:103E400008952FB7F8948091960290919702A091CF
:103E50009802B09199022FBF0895CF92DF92EF920E
:103E6000FF920F931F932FB7F894409196025091B1
:103E7000970260919802709199022FBF6A017B01AD
:103E8000EE24FF248C0120E030E0C016D106E206CB
:103E9000F30610F4415051099A01281B390BC9014E
:103EA0001F910F91FF90EF90DF90CF9008951F9298
:103EB0000F920FB60F9211248F939F93AF93BF93DE
:103EC0008091960290919702A0919802B0919902E8
:103ED0000196A11DB11D8093960290939702A09325
:103EE0009802B0939902BF91AF919F918F910F90DB
:103EF0000FBE0F901F9018950E947526F8942FEF13
:103F000087EA91E6215080409040E1F700C0000030
:103F100087E090EBDC018093AA029093AB02A09320
:103F2000AC02B093AD029CE088E10FB6F894A8957E
:103F3000809360000FBE90936000FFCF0E947B1EB5
:103F4000811102C00E94551E0E94861E8093250288
:103F50000E948E1E90E090939B0280939A020E9492
:103F60008A1E682F70E080E090E00C94311B8091F5
:103F7000290280FF0BC06091060185E0689FB001B7
:103F8000112475956795759567952BC081FF09C0BC
:103F90006091060185E0689FB001112475956795D1
:103FA00020C082FF07C06091060185E0689FB001D4
:103FB000112417C090912A029923D1F06091050134
:103FC000961788F72091060185E0289F900111241B
:103FD000929FA001939F500D112470E0CA010E948E
:103FE000BD2A6038710540F46115710519F406C0E9
:103FF00065E070E0862F08958FE7089581E00895C9
:104000008091290280FF08C06091040170E07595DD
:1040100067957595679521C081FF06C06091040181
:1040200070E07595679519C082FF04C06091040126
:1040300070E010C090912A02992399F060910301D9
:104040009617A0F780910401899FC001112470E0A8
:104050000E94BD2A6038710540F46115710519F49C
:1040600006C061E070E0862F08958FE7089581E033
:104070000895803F21F40E94B71F819504C0813FBD
:1040800029F40E94B71F80932D020895823F21F4E6
:104090000E94B71F819504C0833F29F40E94B71F77
:1040A00080932C020895893F19F40E94002005C0D6
:1040B0008A3F31F40E940020819580932E0208955A
:1040C0008B3F21F40E940020819504C08C3F29F48D
:1040D0000E94002080932F020895843F21F4809154
:1040E0002B02816017C0853F21F480912B028260F2
:1040F00011C0863F21F480912B0284600BC0873F62
:1041000021F480912B02886005C0883F31F48091B2
:104110002B02806180932B0208958D3F21F48091C2
:10412000290281600BC08E3F21F4809129028260B8
:1041300005C08F3F29F48091290284608093290271
:104140000895803F39F480912D0287FF6CC0109252
:104150002D0269C0813F29F480912D021816BCF30D
:1041600062C090912C02823F29F497FF5CC01092AC
:104170002C0259C0833F19F41916CCF354C0893F5F
:1041800041F480912E0218160CF04DC010922E02B0
:104190004AC08A3F29F480912E0287FF44C0F6CF9F
:1041A0008B3F39F480912F0287FF3DC010922F0280
:1041B0003AC08C3F29F480912F021816BCF333C00B
:1041C000843F21F480912B028E7F17C0853F21F41C
:1041D00080912B028D7F11C0863F21F480912B02AC
:1041E0008B7F0BC0873F21F480912B02877F05C016
:1041F000883F31F480912B028F7E80932B0213C075
:104200008D3F21F4809129028E7F0BC08E3F21F4D7
:10421000809129028D7F05C08F3F29F4809129026A
:104220008B7F8093290280912C0281110EC0809196
:104230002D0281110AC080912E02811106C0809149
:104240002F02811102C010922A0208958BE292E09F
:104250000E948C120E94211F9093280280932702B3
:1042600008951F93CF93DF938091270290912802A6
:104270000E942D1FAC0190912A02992321F02091D8
:10428000070130E006C0209108018AE0289F9001D4
:1042900011244217530708F485C080912C02C09165
:1042A0002D02D0912E0210912F02811107C0C11151
:1042B00075C0D11173C0111171C074C09F3F19F046
:1042C0009F5F90932A02181624F40E94B71F8093D0
:1042D0002C0280912C0287FF05C00E94B71F819598
:1042E00080932C021C1624F40E94B71F80932D0289
:1042F00080912D0287FF05C00E94B71F8195809392
:104300002D0260912C02662331F1C0912D02CC2345
:1043100011F1062E000C770B880B990B0E94B02927
:1043200023E333E343E35FE30E94142A0E947829E6
:1043300060932C026C2FCC0F770B880B990B0E948B
:10434000B02923E333E343E35FE30E94142A0E948E
:10435000782960932D021D1624F40E94002080937A
:104360002E0280912E0287FF05C00E9400208195B9
:1043700080932E02111624F40E94002080932F02B5
:1043800080912F0287FF05C00E94002081958093B5
:104390002F02DF91CF911F910C9426219F3F09F0AE
:1043A0008FCFA0CFDF91CF911F910895EBE2F2E084
:1043B00085E0DF011D928A95E9F710922A0210929A
:1043C000290208950E947B1E811102C00E94551E81
:1043D0000E94971E80939C0280FF02C0869501C0B8
:1043E00080E00C94590920919C02822F8695482FD9
:1043F00050E04330510544F48F5F982F990F822F7E
:104400008170892B80939C0280919C0281608093B3
:104410009C020E949B1E80919C0286950C945909D7
:1044200080919C02982F969591F09158990F8170E8
:10443000892B80939C028E7F91E009F490E080911B
:104440009C0290FB80F980939C020E949B1E8091AD
:104450009C0286950C94590980919C02982F909506
:1044600090FB80F980939C020E949B1E80919C028D
:1044700080FF02C0869501C080E00C94590990919C
:104480009C02892F86958F5F8F779170843028F4F6
:10449000880F892B80939C0202C090939C0280918C
:1044A0009C028E7F91E009F490E080919C0290FB49
:1044B00080F980939C020E949B1E80919C028695AD
:1044C0000C94590920919C02922F96958927982F38
:1044D000990F822F8170892B80939C028E7F91E0AF
:1044E00009F490E080919C0290FB80F980939C02FB
:1044F0000E949B1E80919C0286950C945909809184
:1045000050020895CF93DF9300D01F92CDB7DEB74E
:104510009C018091A102843019F593E099833B833B
:104520002A839093E9008FEF9091E800815095FDE8
:1045300006C095ED9A95F1F700008111F5CF8091B5
:10454000E80085FF0DC040E050E063E070E0CE0180
:1045500001960E94E4248091E8008E778093E80021
:104560000F900F900F90DF91CF910895CF93DF932D
:1045700000D01F92CDB7DEB72091A102243031F5D3
:1045800022E02983805891099B838A8383E080936A
:10459000E9008FEF9091E800815095FD06C095ED00
:1045A0009A95F1F700008111F5CF8091E80085FF21
:1045B0000DC040E050E063E070E0CE0101960E9443
:1045C000E4248091E8008E778093E8000F900F90AC
:1045D0000F90DF91CF9108952091A1022430F1F442
:1045E00022E02093E9002FEF3091E800215035FDC3
:1045F00006C035ED3A95F1F700002111F5CF209175
:10460000E80025FF0BC040E050E065E070E00E944C
:10461000E4248091E8008E778093E8000895CF939A
:10462000DF93EC019091A102943009F046C0809193
:1046300013018823D9F080919A0287FF17C09093C5
:10464000E9008FEF9091E800815095FD06C095E15B
:104650009A95F1F700008111F5CF8091E80085FF70
:104660002CC040E050E060E270E017C081E0809331
:10467000E9008FEF9091E800815095FD06C095ED1F
:104680009A95F1F700008111F5CF8091E80085FF40
:1046900014C040E050E068E070E0CE010E94E424E5
:1046A0008091E8008E778093E80080E2FE01A0E32D
:1046B000B2E001900D928A95E1F7DF91CF910895D4
:1046C0008091A002811109C00E9475260E94D22605
:1046D0008091E20084608093E20008951092A0022D
:1046E0000895089508950C94E71E42E061EC81E07E
:1046F0000E94EE2542E061EC82E00E94EE2542E05D
:1047000061EC83E00E94EE2542E261EC84E00C94CF
:10471000EE258091A302833009F455C030F4813036
:1047200071F0823009F48EC008958A3009F47AC09D
:104730008B3009F460C0893009F09CC020C08091A2
:10474000A202813A09F096C08091E800877F8093A9
:10475000E8008091A6029091A702892B21F460E2E3
:1047600080E392E003C060E080E090E070E00E94AF
:104770002F258091E8008B778093E8000895809141
:10478000A202813209F076C08091A6029091A70220
:10479000009719F0039709F06DC08091E800877FBA
:1047A0008093E8008091E80082FD05C08091A1021D
:1047B0008111F8CF5FC08091F10080935002809109
:1047C000E8008B7753C08091A202813A09F052C071
:1047D0008091A6029091A702892B09F04BC080918D
:1047E000E800877F8093E8008091E80080FFFCCF9D
:1047F0008091130136C08091A2028132D9F5809157
:10480000A6029091A702892BA9F58091E800877FE5
:104810008093E8000E9423268091A40280931301D4
:104820000C9445178091A202813221F58091E80015
:10483000877F8093E8000E9423268091A5028093C1
:10484000510208958091A202813AA1F48091E8007A
:10485000877F8093E8008091E80080FFFCCF809103
:1048600051028093F1008091E8008E778093E800F8
:104870000C942326089584B7877F84BF0FB6F894DD
:10488000A89580916000886180936000109260001C
:104890000FBE80E880936100109261000E94C412F4
:1048A0000E9475260E94D2268091E2008460809347
:1048B000E20078940E945D290E94C61289E091E08E
:1048C0000E9470128091A102853069F40E94A01E9E
:1048D00080919F028823B1F30E94D21E882391F316
:1048E0000E94CE24EFCF0E94D0120E943D12EACF48
:1048F000292F332723303105C9F060F421303105E9
:1049000081F02230310509F041C08DE690E024E0CD
:104910003DE040C021323105E1F02232310531F174
:1049200035C082E190E021E73DE034C09927813035
:10493000910549F028F0029749F5E4EDFCE005C047
:10494000E0E0FDE002C0E8EEFCE0849190E09F0131
:1049500021C06430D8F4E62FF0E0EE0FFF1FEC5CCE
:10496000FE4F2081318189E090E014C0643070F402
:1049700070E0FB01EE0FFF1FE45DFE4F20813181EF
:10498000FB01E85DFE4F808190E004C080E090E094
:1049900020E030E0FA0131832083089580E189BD71
:1049A00082E189BD09B400FEFDCF8091D8008F7DE2
:1049B0008093D8008091E00082608093E000809135
:1049C000E00081FDFCCF0895CF92DF92EF92FF923D
:1049D0000F931F93CF93DF93EC018B017A010E9419
:1049E0004226811133C0E114F10439F0F7018081CE
:1049F0009181081B190BC80FD91FC12CD12C01158F
:104A0000110519F18091E80085FD16C08091E8003C
:104A10008E778093E800E114F10449F0F70180817A
:104A20009181C80ED91ED182C08285E00FC00E943C
:104A30004226882321F30AC089918093F100015016
:104A40001109FFEFCF1ADF0ADACF80E0DF91CF91B3
:104A50001F910F91FF90EF90DF90CF9008952091DC
:104A6000A8023091A9022617370748F06115710591
:104A700039F42091E8002E772093E80001C0B901B5
:104A8000FC0120E06115710579F18091A102882374
:104A9000F1F18530F1F18091E80083FD3CC0809117
:104AA000E80082FD2EC08091E80080FFEBCF2091CE
:104AB000F3008091F20090E0922B6115710551F0A6
:104AC0008830910538F421912093F10061507109EB
:104AD0000196F3CF21E0089709F020E08091E800EB
:104AE0008E778093E800CECF2111CFCF0AC080917E
:104AF000A102882361F0853061F08091E80083FD98
:104B00000AC08091E80082FFF2CF80E0089582E041
:104B1000089583E0089581E008952091A8023091DE
:104B2000A9022617370748F06115710539F420915D
:104B3000E8002E772093E80001C0B901FC0120E0D5
:104B40006115710591F18091A102882309F440C09B
:104B5000853009F43FC08091E80083FD3DC080911D
:104B6000E80082FD2FC08091E80080FFE9CF20910E
:104B7000F3008091F20090E0922B6115710559F0DD
:104B80008830910540F424912093F10031966150D2
:104B900071090196F2CF21E0089709F020E0809199
:104BA000E8008E778093E800CBCF2111CCCF0AC0EC
:104BB0008091A102882361F0853061F08091E80046
:104BC00083FD0AC08091E80082FFF2CF80E0089563
:104BD00082E0089583E0089581E00895982F97304A
:104BE00068F59093E900981739F07091EC002091E6
:104BF000ED005091F00003C0242F762F50E021FDEE
:104C000002C09F5FECCF3091EB003E7F3093EB0012
:104C10003091ED003D7F3093ED003091EB0031603D
:104C20003093EB007093EC002093ED005093F00074
:104C30002091EE0027FDE5CF80E008958F708093EE
:104C4000E90081E008958091A20287FF11C0809160
:104C5000E80082FD05C08091A1028111F8CF11C04A
:104C60008091E8008B770BC08091A102882349F0E6
:104C70008091E80080FFF8CF8091E8008E778093E4
:104C8000E80008952091E4003091E50095E6409118
:104C9000EC00842F817040FF23C08091E80080FDEC
:104CA0001DC08091A102882399F0853099F08091F0
:104CB000EB0085FD11C04091E4005091E500241700
:104CC000350729F3915011F09A01E1CF84E008955E
:104CD00082E0089583E0089581E0089580E00895DA
:104CE0004091E80042FFDDCF08950E94E3260E9434
:104CF000EB26E0EEF0E0808181608083E8EDF0E07B
:104D000080818F77808319BCA7EDB0E08C918E7F76
:104D10008C9380818F7E80831092A00208950F93E0
:104D20001F93CF93DF930E94E3260E94EB26C8EDEA
:104D3000D0E088818F7788838881806888838881A4
:104D40008F7D888319BC1092A10210929D0210924F
:104D50009F0210929E0200EE10E0F80180818B7F8E
:104D6000808388818160888342E060E080E00E94E7
:104D7000EE25E1EEF0E080818E7F8083E2EEF0E0D0
:104D8000808181608083808188608083F801808158
:104D90008E7F8083888180618883DF91CF911F918E
:104DA0000F910895E8EDF0E080818F7E8083E7ED3C
:104DB000F0E080818160808384E082BF81E0809325
:104DC000A0020C948F26E8EDF0E080818E7F808336
:104DD0001092E20008951092DA001092E100089516
:104DE0001F920F920FB60F9211242F933F934F9360
:104DF0005F936F937F938F939F93AF93BF93EF9343
:104E0000FF938091E10082FF0BC08091E20082FF5E
:104E100007C08091E1008B7F8093E1000E945C29B4
:104E20008091DA0080FF1FC08091D80080FF1BC0F6
:104E30008091DA008E7F8093DA008091D90080FF24
:104E40000DC080E189BD82E189BD09B400FEFDCFBE
:104E500081E08093A1020E94602305C019BC1092DA
:104E6000A1020E946E238091E10080FF19C0809111
:104E7000E20080FF15C08091E2008E7F8093E20007
:104E80008091E20080618093E2008091D80080628E
:104E90008093D80019BC85E08093A1020E94722300
:104EA0008091E10084FF30C08091E20084FF2CC03B
:104EB00080E189BD82E189BD09B400FEFDCF80910A
:104EC000D8008F7D8093D8008091E1008F7E809301
:104ED000E1008091E2008F7E8093E2008091E20009
:104EE00081608093E20080919D02882311F084E02C
:104EF00007C08091E30087FD02C081E001C083E02C
:104F00008093A1020E9473238091E10083FF29C056
:104F10008091E20083FF25C08091E100877F80932C
:104F2000E10082E08093A10210929D028091E10055
:104F30008E7F8093E1008091E2008E7F8093E2007B
:104F40008091E20080618093E20042E060E080E0D6
:104F50000E94EE258091F00088608093F0000E940E
:104F60007123FF91EF91BF91AF919F918F917F91AD
:104F70006F915F914F913F912F910F900FBE0F90C6
:104F80001F9018951F920F920FB60F9211242F9316
:104F90003F934F935F936F937F938F939F93AF93C1
:104FA000BF93CF93DF93EF93FF93C091E900CF704E
:104FB0008091EC00D82FD17080FDD0E81092E900EC
:104FC0008091F000877F8093F00078940E940628FB
:104FD0001092E9008091F00088608093F000CD2B62
:104FE000CF70C093E900FF91EF91DF91CF91BF9116
:104FF000AF919F918F917F916F915F914F913F9171
:105000002F910F900FBE0F901F9018951F93CF9365
:10501000DF93CDB7DEB7AA970FB6F894DEBF0FBE09
:10502000CDBFE2EAF2E08091F100819322E0EA3A1A
:10503000F207C9F70E9489238091E80083FF24C109
:105040008091A2029091A302492F50E04A3051056D
:1050500008F01AC1FA01E556FF4F0C94D12A8038A6
:1050600081F0823809F010C18091A6028F70809380
:10507000E9008091EB0085FB882780F91092E90018
:1050800006C080919E0290919F0291118260909142
:10509000E800977F9093E8008093F1001092F10070
:1050A000C8C0282F2D7F09F0EFC0882319F0823067
:1050B00061F0EAC08091A402813009F0E5C093302C
:1050C00009F080E080939F022BC08091A40281119F
:1050D00027C08091A6028F7009F4D6C08093E900A2
:1050E0002091EB0020FF1CC0933021F48091EB0055
:1050F000806214C09091EB0090619093EB0021E0EE
:1051000030E0A90102C0440F551F8A95E2F7409391
:10511000EA001092EA008091EB0088608093EB0037
:105120001092E9008091E800877F86C08111ACC0B1
:105130001091A4021F778091E3008078812B8093E7
:10514000E3008091E800877F8093E8000E94232697
:105150008091E80080FFFCCF8091E300806880931D
:10516000E300111102C082E001C083E08093A1023C
:105170008BC08058823008F087C08091A402909143
:10518000A5028C3D53E0950779F583E08A838AE296
:1051900089834FB7F894DE01139620E03EE051E298
:1051A000E32FF0E050935700E49120FF03C0E29515
:1051B000EF703F5FEF708E2F90E0EA3010F0C796EF
:1051C00001C0C0968D939D932F5F243149F74FBF47
:1051D0008091E800877F8093E8006AE270E0CE016A
:1051E00001960E942F2514C0AE014F5F5F4F609162
:1051F000A6020E947824BC01892B09F445C0909135
:10520000E800977F9093E80089819A810E948D251C
:105210008091E8008B778093E80036C08038A1F554
:105220008091E800877F8093E80080919D028093C1
:10523000F1008091E8008E778093E8000E94232699
:1052400023C0811121C08091A4029091A5029927C9
:105250000297D4F48091E800877F8093E8008091E2
:10526000A40280939D020E94232680919D028111B9
:1052700006C08091E30087FD02C081E001C084E0A8
:105280008093A1020E9475238091E80083FF0AC0E9
:105290008091E800877F8093E8008091EB00806236
:1052A0008093EB00AA960FB6F894DEBF0FBECDBF79
:1052B000DF91CF911F9108950895CF938091A1021E
:1052C0008823A1F0C091E900CF709091EC00892F64
:1052D000817090FD80E8C82B1092E9008091E80071
:1052E00083FD0E940628CF70C093E900CF910895F6
:1052F0000E947F296894B1110C940E2A08950E948F
:10530000F32988F09F5798F0B92F9927B751B0F03B
:10531000E1F0660F771F881F991F1AF0BA95C9F739
:1053200014C0B13091F00E940D2AB1E008950C94A0
:105330000D2A672F782F8827B85F39F0B93FCCF353
:10534000869577956795B395D9F73EF490958095B6
:10535000709561957F4F8F4F9F4F0895E89409C0D6
:1053600097FB3EF490958095709561957F4F8F4F98
:105370009F4F9923A9F0F92F96E9BB279395F695AE
:10538000879577956795B795F111F8CFFAF4BB0F2C
:1053900011F460FF1BC06F5F7F4F8F4F9F4F16C090
:1053A000882311F096E911C0772321F09EE8872F1A
:1053B000762F05C0662371F096E8862F70E060E0D6
:1053C0002AF09A95660F771F881FDAF7880F96954F
:1053D000879597F9089557FD9058440F551F59F038
:1053E0005F3F71F04795880F97FB991F61F09F3FD2
:1053F00079F087950895121613061406551FF2CFFB
:105400004695F1DF08C0161617061806991FF1CF4A
:1054100086957105610508940895E894BB27662771
:105420007727CB0197F908950E94272A0C94982A90
:105430000E948A2A38F00E94912A20F0952311F0C8
:105440000C94812A0C94872A11240C940E2A0E9411
:10545000EB2970F3959FC1F3950F50E0551F629FA4
:10546000F001729FBB27F00DB11D639FAA27F00DBD
:10547000B11DAA1F649F6627B00DA11D661F829FE4
:105480002227B00DA11D621F739FB00DA11D621FC9
:10549000839FA00D611D221F749F3327A00D611DE6
:1054A000231F849F600D211D822F762F6A2F1124C8
:1054B0009F5750409AF0F1F088234AF0EE0FFF1FFB
:1054C000BB1F661F771F881F91505040A9F79E3F52
:1054D000510580F00C94812A0C940E2A5F3FE4F36E
:1054E000983ED4F3869577956795B795F795E795A8
:1054F0009F5FC1F7FE2B880F911D9695879597F9B1
:10550000089597F99F6780E870E060E008959FEF45
:1055100080EC089500240A9416161706180609064A
:10552000089500240A941216130614060506089519
:10553000092E0394000C11F4882352F0BB0F40F4A1
:10554000BF2B11F460FF04C06F5F7F4F8F4F9F4FE1
:105550000895AA1BBB1B51E107C0AA1FBB1FA617BA
:10556000B70710F0A61BB70B881F991F5A95A9F70C
:1055700080959095BC01CD01089597FB072E16F4F8
:10558000009407D077FD09D00E94A92A07FC05D016
:105590003EF4909581959F4F0895709561957F4F4A
:1055A0000895EE0FFF1F0590F491E02D0994F999ED
:1055B000FECF92BD81BDF89A992780B50895A6E1E6
:1055C000B0E044E050E00C94112BA8E1B0E042E0E0
:1055D00050E00C94112B262FF999FECF92BD81BD7E
:1055E000F89A019700B4021639F01FBA20BD0FB621
:1055F000F894FA9AF99A0FBE08950396272F0E94FD
:10560000EC2A0E94EB2A252F0E94EC2A242F0C94CE
:10561000EC2A0196272F0E94EC2A0C94EB2ADC013D
:10562000CB01FC01F999FECF06C0F2BDE1BDF89AAD
:10563000319600B40D9241505040B8F70895F89457
:02564000FFCF9A
:10564200FF02022808140A321E7F220F23EC22B620
:1056520022822201909192939594969734F7F6F5CF
:10566200F4F1F03031323337404D36393F0EF20D1E
:0C567200BC0D830D160D2F0D480D610DB1
:00000001FF
