:100000000C94FC060C9434070C9434070C94B9310E
:100010000C9434070C9434070C9434070C94340774
:100020000C9434070C9434070C9405130C94BD17EE
:100030000C94D9290C9434070C9434070C9434078D
:100040000C9434070C9434070C9434070C94340744
:100050000C9434070C94DE130C9434070C9434077E
:100060000C9434070C9434070C9434070C94340724
:100070000C9434070C9434070C9434070C94340714
:100080000C9434070C9434070C9434070C94340704
:100090000C9434070C9434070C9434070C943407F4
:1000A0000C9434070C9434070C9434070D000F00A3
:1000B00000000D000E000000070009000000000510
:1000C00001050205030504050505000601060206F3
:1000D00003060406050600070107020703070407D5
:1000E00005070008010802080308040805080009BC
:1000F00001090209030904090509000001000200C1
:1001000003000400050000010101020103010401D4
:1001100005010002010202020302040205020003BB
:1001200001030203030304030503000401040204A2
:1001300003040404050429001E001F002000210000
:1001400022002B0014001A000800150017002900D7
:1001500004001600070009000A00E1001D001B0052
:10016000060019000500E0000100E200B45D2A006D
:10017000A800BD5D270026002500240023002F00D5
:10018000130012000C0018001C00340002570F006E
:100190000E000D000B00E50038003700360010009F
:1001A000110028000100E400B55D2C430000165C3E
:1001B000010001000100010001002B0033003600A6
:1001C000370013001C000100040012000800180092
:1001D0000C00E100340014000D000E001B00E300D1
:1001E000E200E000B45D2A00A80001000100010067
:1001F00001000100010001000F00150006000A00C7
:10020000090028001600110017000B000700E50088
:100210001D0019001A0010000500B65DE600E4009C
:10022000B55D2C4300000100010001000100010048
:10023000010001001E001F002000210022002402F6
:100240001F0238022F02300256003502200222021D
:1002500036023702570001000100010001000100D1
:100260000100010001000100010001000100E300A4
:100270002700260025002400230031021E0221024F
:10028000270226023402350031002E0030002F00F4
:100290002D02010001000100010028000100010001
:1002A000010001000100010001003A003B003C0098
:1002B0003D003E003F0039007B007A007C007D005D
:1002C0000100C25DBC5DC55DC35DBE5DC15D010079
:1002D0000100010001004C000100010001000100CB
:1002E00001000100010045004400430042004100BC
:1002F000400001004B004F0052005100500001002F
:100300004E00BA5DB85DB75DB95D01000100010046
:10031000010001000100015D00000000000000007C
:10032000000000000000B25DB35D00006900000045
:10033000000000000000BF5D680000000000000039
:1003400000000000000001000100010001000100A8
:100350000000000000000000000000000000C05D80
:1003600000000000B700B600A80000000000000078
:10037000AE00C45D000000000000B400C85DC75DB1
:100380000000010001000100010001000000010067
:100390000100010001000100010001000100010055
:1003A000FE00FF000100010001000100F100F20069
:1003B0000100010001000100010001000100010035
:1003C000010001000100B25D010001000100010017
:1003D000010001000100010001000100ED00010029
:1003E000010001000100F000EE00EF00F900010043
:1003F0000100010001000100FA00010001000100FC
:1004000001000100010029001E001F002000210042
:1004100022002B0001000100010001000100E000AA
:1004200001000100010001000100E10001000100E4
:1004300001000100010001000100E20001002C00A8
:1004400001000100270026002500240023000100F0
:1004500001000100010001000100B25D0100520035
:1004600001000100010001004F0051005000010097
:10047000010001000100280001002A000100010024
:100480000100010001000100010001000100010064
:100490000100010001000100010001000100010054
:1004A0000100010001000100010001000100010044
:1004B000010001000100B25D010001000100010026
:1004C00001000100010054005500610060005F0060
:1004D0005300010056005E005D005C000100010059
:1004E00057005B005A0059006300010001006200E0
:1004F00058002A00010000DA0281FFD9F1DB20A4B4
:10050000A62EAF00A0C000A1C800AED580A81FD302
:1005100000408D1420004350534C4B000A0A0055F4
:100520006E6465660041646A0A0053796D626C000E
:1005300046756E637300426173650A0042617365BC
:100540000A004C41594552000A0A00556E6465661E
:10055000004E756D700047616D65004D6F75736578
:100560000044766F72616B00517772740057494E88
:10057000004D414300004D4F4445000A0A00000071
:10058000000000000000000000000000000000006B
:10059000000000000000000000000000000000005B
:1005A000000000000000800080808000000000004B
:1005B00080C04040406020203010101018080C040B
:1005C0000404040484040404040C08080808181033
:1005D000302060C0000000000000000000000000AB
:1005E000000000000000000000000000000000000B
:1005F00000000000000000000000000000000000FB
:1006000000000000000000000000000000000000EA
:1006100000000000000000000000000000000000DA
:1006200040A0A0A0A000BBAAABA8BB000000000097
:1006300000000000000000000000000000000000BA
:100640000000003F4080808080808080808000802B
:10065000C0F0F81F010101030202020202020202BD
:100660000202020201000000000000000000000081
:10067000000000000000000000000000000000007A
:10068000000000000000000000000000000000006A
:10069000000000000000000000000000000000005A
:1006A0000E0404060400B88889888B00000000004E
:1006B0000003010101010101010101010101010129
:1006C00001310905030301000000000000000103DF
:1006D00003070F1E38E000000102020202020604B6
:1006E00004040400000000000000000000000000FE
:1006F00000000000000000000000000000000000FA
:1007000000000000000000000000000000000000E9
:1007100000000000000000000000000000000000D9
:1007200000000000000003000300030000000000C0
:100730000000000018101010101030202020206041
:1007400040404040404040602020202030101018A1
:100750000808080C04070202060404040404040444
:10076000040C080800000000000000000000000069
:10077000000000000000000000000000000007086A
:100780007F0807003E5B4F5B3E003E6B4F6B3E00B9
:100790001C3E7C3E1C00183C7E3C18001C577D57BC
:1007A0001C001C5E7F5E1C0000183C180000FFE768
:1007B000C3E7FF00001824180000FFE7DBE7FF0095
:1007C00030483A060E00262979292600407F050583
:1007D0000700407F05253F005A3CE73C5A007F3E1A
:1007E0001C1C0800081C1C3E7F0014227F221400E1
:1007F0005F5F005F5F0006097F017F0000668995EB
:100800006A0060606060600094A2FFA29400080427
:100810007E04080010207E20100008082A1C080012
:10082000081C2A0808001E10101010000C1E0C1EB8
:100830000C0030383E383000060E3E0E0600000038
:100840000000000000005F0000000007000700003B
:10085000147F147F1400242A7F2A120023130864B3
:100860006200364956205000000807030000001CB3
:10087000224100000041221C00002A1C7F1C2A008B
:1008800008083E08080000807030000008080808CA
:1008900008000000606000002010080402003E51C3
:1008A00049453E0000427F400000724949494600E8
:1008B0002141494D33001814127F1000274545454A
:1008C00039003C4A494931004121110907003649A4
:1008D00049493600464949291E000000140000001D
:1008E00000403400000000081422410014141414C5
:1008F00014000041221408000201590906003E417B
:100900005D594E007C1211127C007F494949360026
:100910003E41414122007F4141413E007F494949DA
:1009200041007F09090901003E41415173007F08E0
:1009300008087F0000417F4100002040413F010046
:100940007F08142241007F40404040007F021C028B
:100950007F007F0408107F003E4141413E007F0937
:10096000090906003E4151215E007F091929460010
:1009700026494949320003017F0103003F404040BE
:100980003F001F2040201F003F4038403F006314BD
:10099000081463000304780403006159494D4300BF
:1009A000007F414141000204081020000041414104
:1009B0007F00040201020400404040404000000368
:1009C000070800002054547840007F284444380031
:1009D000384444442800384444287F003854545450
:1009E000180000087E09020018A4A49C78007F0863
:1009F0000404780000447D4000002040403D000099
:100A00007F102844000000417F4000007C047804EF
:100A100078007C0804047800384444443800FC180A
:100A20002424180018242418FC007C08040408005E
:100A300048545454240004043F4424003C404020C3
:100A40007C001C2040201C003C4030403C004428DE
:100A5000102844004C9090907C004464544C440016
:100A60000008364100000000770000000041360811
:100A700000000201020402003C2623263C00000084
:100A800000000000404040F0F8F8FF38FFF8F83F61
:100A9000F8F8FF38FFF8F8F0404040000000000090
:100AA0000080C0C0C0800000C0C08000000080C0C6
:100AB000C000C0C0000080C0C00000000000C0C076
:100AC000C0C0C000C0C00000000000000000000066
:100AD0000000000000000000000000000000000016
:100AE0000000000000000000000000000000000006
:100AF00000000000000000000000000000C0F0F84E
:100B0000FC3E1E06010000007F4141417F007F4105
:100B100041417F000080C0E07E5B4F5BFEC0000073
:100B2000C000DCD7DEDEDED7DC00C0000000000045
:100B300000000000000000000000000000000000B5
:100B400000000000494949FFFFFFFFE0DFBFBF0091
:100B5000BFBFDFE0FFFFFFFF494949000000000081
:100B60001F3F6060E0BF1F007F7F071E381E077FAA
:100B70007F007F7F0E1F3B716000000000007F7FC1
:100B80000C0C0C007E7E007F7E0303007F7E03033F
:100B90007E7E03037F7E000F3E703C063C703E0F5E
:100BA00000327B49493F7E007F7E0303001E3F6980
:100BB000696F2600000000000000000000030F1F06
:100BC0003F3C7870600000007F4141417F007F41E1
:100BD00041417F00307B7F7830202030787F3B00A0
:100BE00003000F7F0F0F0F7F0F00030000000000B6
:100BF00000000000000000000000000000000000F5
:100C000000000000010101070F0F7F0F7F0F0F7E13
:100C10000F0F7F0F7F0F0F07010101000000000081
:100C200000000000000101000000000000000000C2
:100C300000000000000000000000000000000000B4
:100C400000000000000000000000000000000000A4
:100C50000000000000000000000000000000000094
:100C60000000000000000000000000000000000084
:100C70000000000000000000000000000000000074
:100C80000000000000000000000000000000000064
:100C90000000000000000000000000000000000054
:100CA0000000000000000000000000000000000044
:100CB000000000000000000000000000000000AF85
:100CC00000AE05010902A10185020901A100050983
:100CD00019012908150025019508750181020501F2
:100CE000093009311581257F95027508810609387B
:100CF0001581257F950175088106050C0A380215B6
:100D000081257F950175088106C0C005010980A174
:100D100001850319012AB700150126B70095017551
:100D2000108100C0050C0901A101850419012AA048
:100D300002150126A002950175108100C005010968
:100D400006A101050719E029E71500250195087599
:100D50000181029501750881010507190029FF1518
:100D60000026FF0095067508810005081901290570
:100D7000950575019102950175039101C009023B2A
:100D800000020100A0FA09040000010301010009AA
:100D9000211101000122400007058103080001091B
:100DA0000401000103000000092111010001227B60
:100DB0000007058203200001120100020000000864
:100DC00032FC87020100010200010C0353006F0096
:100DD00066006C00650000001A034A006F00730093
:100DE000650066004100640061006D0063006900F9
:100DF0006B0000000403090411241FBECFEFDAE0EA
:100E0000DEBFCDBF04B603FE18C08091BD05909132
:100E1000BE05A091BF05B091C0058730904BA7409B
:100E2000B04B59F41092BD051092BE051092BF054B
:100E30001092C005E0E0F8E3099511E0A0E0B1E010
:100E4000ECE8F7E602C005900D92AA3EB107D9F78B
:100E500025E0AAEEB1E001C01D92AD3BB207E1F77B
:100E60000E94002A0C94A7330C940000E8EDF0E0F7
:100E700080818E7F80831092E2001092DA001092BF
:100E8000E100A0EEB0E08C9181608C9380818F773F
:100E9000808319BCA7EDB0E08C918E7F8C9380810C
:100EA0008F7E80831092A10508952091E4003091F7
:100EB000E50095E6A9012091EC00822F817020FFCA
:100EC00006C08091E80080FF06C080E00895209170
:100ED000E80022FD1AC08091AE05882389F0853094
:100EE00089F08091EB0085FD0FC02091E4003091E6
:100EF000E50042175307F9F29150E1F684E00895B6
:100F000082E0089583E0089581E00895EF92FF92D2
:100F10000F931F93CF937C018B010E945507C82F1D
:100F2000811117C08091E80085FD0BC08091E80019
:100F30008E778093E8000E945507882399F3C82F85
:100F400008C0F70181917F018093F10001501109E0
:100F500049F78C2FCF911F910F91FF90EF9008953B
:100F60008091B00587FF13C08091E80082FF06C022
:100F70008091E8008B778093E80004C08091AE05F3
:100F80008111F2CF08958091AE058823D9F3809125
:100F9000E80080FFF8CF8091E8008E77ECCF982FA3
:100FA0009093E900242F762F50E0891731F070914B
:100FB000EC002091ED005091F00021FD07C09F5FF3
:100FC000973071F78093E90081E008953091EB004C
:100FD0003E7F3093EB003091ED003D7F3093ED008C
:100FE0003091EB0031603093EB007093EC00209374
:100FF000ED005093F0002091EE0027FDE0CF80E05F
:101000000895B0E0A0E0E7E0F8E00C94F332C8ED1A
:10101000D0E088818F7E8883E7EDF0E08081816079
:10102000808384E082BF81E08093A10588818E7FE8
:10103000888302EE10E0F80110821092DA0081EE4F
:10104000C82ED12CF601108288818F778883888101
:101050008068888388818F7D888319BC1092AE0553
:101060001092AF051092AD051092AC0590EEE92EEE
:10107000F12CF70180818B7F808388818160888358
:1010800042E060E080E00E94CF07F60180818E7F21
:101090008083F80180818160808380818860808383
:1010A000F70180818E7F8083888180618883CDB7BE
:1010B000DEB7E8E00C940F33FC018091B605909107
:1010C000B70586179707A0F06115710529F490916F
:1010D000E8009E779093E80090E06115710551F467
:1010E000911108C08091E80082FF34C080E008952B
:1010F000BC01F2CF8091AE058823C1F18530C1F1EA
:101100008091E80083FD30C08091E80082FDEACF45
:101110008091E80080FFE1CF8091F3002091F20000
:10112000382F6115710519F02830310558F091E01C
:101130002830310509F090E02091E8002E772093C7
:10114000E800CBCF81918093F100615071092F5F4E
:101150003F4FE7CF8091AE05882341F0853041F0C5
:101160008091E80083FFBECF81E0089582E008957A
:1011700083E0089508958091A30508952FB7F8940A
:1011800060919A0570919B0580919C0590919D05B9
:101190002FBF08959C01FC0132969FEF80E04191A2
:1011A000461751F09F3F19F4411101C0982F8F5FEE
:1011B0008630A9F79F3F09F40895290F311D97FD47
:1011C0003A95F90162830895209197053091980529
:1011D0002817390771F09093980580939705E0914F
:1011E0009505F0919605309721F00084F185E02D6A
:1011F0000995089520919305309194052817390792
:1012000071F09093940580939305E0919505F0918A
:101210009605309721F00680F781E02D0995089515
:10122000452B39F0682381E06F3F09F080E0817041
:10123000089581E0FCCFDC0160918B0580918C05E5
:10124000962F891301C00895292F30E0F901EE0F80
:10125000FF1FED57FA4F408151814A175B07A1F4F8
:1012600087E08A9FA0018B9F500D112444585E4F48
:1012700081E0FA0184839613E6CF2F5F3F4F2370FE
:10128000332720938B0508952F5F3F4F922F937044
:10129000D8CF1092200510921F05ECE7F1E0858170
:1012A000811102C014821682379681E0E139F80775
:1012B000B1F70895FC01680F791F8FEF91E3219139
:1012C000822728E030E087FF09C0880F8927215056
:1012D0003109C9F7E617F70791F70895880FF7CF97
:1012E000409107038D3E59F48091080387FF0DC09C
:1012F0001092080341110BC01092FF0208C08E3EED
:1013000081F48091080318169CF3442381F08091A6
:10131000090390910A03892B09F05AC01092FE022A
:1013200008958F3E49F447FFF0CF10920703809154
:1013300008038111ECCFE0CF803F19F41416ACF311
:10134000E4CF90910903893F29F41916F4F610921D
:101350000903DBCF8A3F19F497FFD7CFF8CF9091DD
:101360000A038B3F29F497FFD0CF10920A03CDCF09
:101370008C3F19F41916CCF3C8CF9FE0980F983022
:1013800090F4815F990B21E030E0B90102C0660F53
:10139000771F8A95E2F7CB01809590910603892308
:1013A00080930603B2CF8D3F31F4809100038E7F8E
:1013B00080930003AACF8E3F21F4809100038D7F9C
:1013C000F7CF8F3F09F0A1CF809100038B7FF0CF43
:1013D00008958091000380FD16C081FD16C082FD36
:1013E00016C08091FE028823A1F0883280F428E0A4
:1013F000829FC001112468E270E00E942C33862F86
:10140000672B39F0089582E0089584E0089588E01C
:10141000089581E008958091000380FD14C081FD4E
:1014200014C082FD16C08091FF02882381F08E31A6
:1014300080F420E5829FC00111246EE170E00E94DB
:101440002C33862F089584E1089588E2089588E07A
:10145000089580E508958D3E31F40E940B0A819530
:101460008093080308958E3E19F40E940B0AF8CF6A
:101470008F3E31F40E940B0A8195809307030895F3
:10148000803F19F40E940B0AF8CF893F29F40E948B
:10149000E9098093090308958A3F21F40E94E9092C
:1014A0008195F7CF8B3F31F40E94E90981958093B4
:1014B0000A0308958C3F19F40E94E909F8CF9FE0D0
:1014C000980F983070F4815F990B21E030E001C0F3
:1014D000220F8A95EAF780910603822B80930603F8
:1014E00008958D3F31F48091000381608093000363
:1014F00008958E3F21F4809100038260F7CF8F3FE3
:10150000B9F7809100038460F1CF80E00895F894EA
:10151000E82FE295EF70F0E031A1282F2F7081E0E5
:1015200090E001C0880F2A95EAF7982F90959323B1
:1015300091A392A1892B82A3789408959091D702C8
:1015400092FF06C0282F28712830F9F4877F846025
:1015500093FF06C0282F28712831F1F4877E84611B
:101560002091D80220FF06C0382F38713830D9F4C6
:10157000877F816021FF06C0282F28712831D1F490
:10158000877E816194FD877E0895282F2471243001
:10159000F9F68B7F8860DCCF282F2471243101F786
:1015A0008B7E8861DDCF382F3171313019F78E7F16
:1015B0008860E0CF282F2171213121F78E7E88614C
:1015C000E1CF972F7A30A8F4663098F470E026E0E7
:1015D000929F600D711D1124FB019CE3899FE00D1A
:1015E000F11D1124EE0FFF1FEA5CFE4F85919491CF
:1015F000089580E090E00895CF93DF93EC01823866
:101600009105B1F108F040C08133910509F49DC006
:1016100048F58932910509F48DC08A9709F49CC078
:10162000C11522E5D20708F0C8C0C11531E5D307BE
:1016300008F02FC1C83ED10508F0A3C0C13ED105B6
:1016400088F5C83AD10508F08EC0C53AD10508F032
:1016500004C1C130D10531F1209721F1C430D10549
:1016600008F545C08533910509F45FC0C997C1F6F7
:101670008091D702837009F046C18091D80283FF20
:1016800011C0C9E2D0E00EC0833E910599F170F41B
:10169000803E910501F1823E910511F68091D702BD
:1016A00082FD21C0CE01DF91CF910895863E910544
:1016B00061F1873E910571F1843E910509F0B0CF4B
:1016C0008091D80281FFEECF8091D702C7EED0E0A3
:1016D00084FD0DC0E7CF8091D70280FD33C090918B
:1016E000D80290FFDFCFC3EED0E084FFDBCFD0E0A5
:1016F000C0E0D8CF8091D70282FD02C19091D8027C
:1017000090FD01C184FFCECFF2CF8091D70283FD3F
:10171000DDCFC8CF8091D70283FDF8C09091D80269
:1017200091FFF0CFC4EED0E0BDCF8091D70285FF0E
:10173000B9CFA7CF8091D70285FDEBC08091D802A9
:1017400083FFB0CFC9E3D0E0ADCF8091D70286FF51
:10175000A9CFCAE2D0E0A6CF8091D70286FFA2CF60
:10176000C1E3D0E09FCFCF3BD10508F6C85AD0E007
:10177000CC0FDD1FCA56DE4F0990D881C02DD4642E
:1017800091CFC11540E2D40758F4C11581E0D807C4
:1017900008F088CFCD3ED10508F4A9CFD06582CF1F
:1017A000C11520E4D20708F4A2CFC11530E5D30754
:1017B00008F05BC0DF70D06A75CFC11546E5D4076D
:1017C00018F5C11585E5D80708F07CC0C11524E5DA
:1017D000D20708F072C09E01237033279C2F969584
:1017E0009695C115D34508F459C0C1E0D0E002C0B8
:1017F000CC0FDD1F2A95E2F730E2939FC001112440
:10180000C82BD92BDA684ECFC11589E5D80768F403
:10181000C11528E5D20708F060C0C11537E5D30728
:1018200008F065CFDD27D0663DCFC1154AE5D40766
:1018300008F458C0CE0190568115904208F057CF59
:101840008D2F8F710E949E0A90E0982F88278827FD
:101850009F719C012C2BE9013EC0C55AD0E0CD56AA
:10186000DE4FC881D0E0D0641DCFCE0183709927B0
:1018700021E030E002C0220F331F8A95E2F7C695BF
:10188000C69540E2C49FE0011124C22BD32BDD6832
:1018900009CFDC2FCC27C16FD06A04CFC1E0D0E0E4
:1018A00002C0CC0FDD1F2A95E2F720E2929FC00113
:1018B0001124C82BD92BDC68F5CEDC2FCC27C46FC4
:1018C000D06AF0CE8C2F0E949E0AC82FD0E0DC2F69
:1018D000CC27CC27DF71D062E5CEDC2FCC27C06FC0
:1018E000D06AE0CE8C2F8F700E949E0A34E0D6958D
:1018F000C7953A95E1F7CF709C2FEC01D069D2CE15
:10190000C2EED0E0CFCEC0EED0E0CCCEC6EED0E07E
:10191000C9CEC5E3D0E0C6CE0E94BE08089580912E
:1019200073028111109273020895809590918F0532
:10193000982390938F050895809590919005982312
:1019400090939005089580916902909128029813D0
:1019500001C008958F5F8770FACFB0E0A0E0E3EB9D
:10196000FCE00C94F2327C010091BB051091BC05A7
:101970008091D5029091D602082B192BCFE0D0E0B0
:10198000CC24C394D12CBC2EC6010C2E02C0880FCF
:10199000991F0A94E2F780239123892B49F4219718
:1019A00090F7B12C8B2DCDB7DEB7E9E00C940E3358
:1019B000B7018C2F0E94E10A0E94FC0A019779F37B
:1019C000F1CFCF93DF93EC010E94AD0CBE010E94DA
:1019D000E10A0E94FC0ADF91CF9108959A3078F5D0
:1019E000863068F5E82FF0E086E0989FE00DF11D65
:1019F00011249E2F977083E0F695E7958A95E1F77D
:101A0000EE0FFF1FEE0FFF1FE250FE4F50E040E0D1
:101A100080E0219130E0092E02C0369527950A9486
:101A2000E2F721703327042E01C0220F0A94EAF74F
:101A3000822B4F5F5F4F4430510559F7089580E086
:101A400008959A3098F5863088F5E82FF0E086E022
:101A5000989FE00DF11D11248E2F877041E001C089
:101A6000440F8A95EAF783E0F695E7958A95E1F7C2
:101A7000EE0FFF1FEE0FFF1FE250FE4F30E020E0A1
:101A800070E05191DF011197CB01022E02C09695B3
:101A900087950A94E2F781708195852784238527AD
:101AA0008C932F5F3F4F2430310559F708950F93E2
:101AB0001F93CF938C01FC0143815481618180810C
:101AC0000E941009C82F81112AC0F80186819781D0
:101AD000009791F00E94FC0A92959F709630D1F089
:101AE00080F4925F9F70923080F4803F19F058F438
:101AF000883E58F4C1E009C0808191810E94E10CC8
:101B0000EBCF9A5FEFCF843FA9F38C2FCF911F913A
:101B10000F910895883E70F3813FB9F7EBCFC0E095
:101B2000F4CF292F332740E02115310511F0C901E9
:101B300048E09C0164E0369527956A95E1F7211508
:101B4000310511F04C5FC9019C01369527953695FA
:101B500027952115310511F04E5FC901969587959E
:101B6000892B09F04F5F842F0895A5E0B0E0EBEBDF
:101B7000FDE00C94F8329C01FC018681978100976E
:101B8000E1F485E0DE01119601900D928A95E1F76E
:101B9000F901228189819A81222399F0662389F0B3
:101BA0000E94AD0C182F682F89819A810E94210D07
:101BB00069817A81812F0E94E10A2596E3E00C94E5
:101BC00014330E94EE0C182FF3CF9C013A95211587
:101BD0003F4150F5FC01EE27F170BC0166277270A1
:101BE000AC01442754709C012227387094FF0EC02A
:101BF00080E1EF2B09F480E0672B09F08062452B30
:101C000009F08064232B89F08068089581E0EF2B30
:101C100009F480E0672B09F08260452B09F08460AD
:101C2000232B19F08860089580E00895B0E0A0E0CB
:101C3000ECE1FEE00C94F3326C017B0164E670E0B1
:101C400088E70E943330EC0197FD12C010E000E0FD
:101C5000F601E00FF11F849164E670E00E949F306E
:101C6000EC01892B29F40F5F1F4F0E151F0581F71B
:101C70000E941531CE01CDB7DEB7E8E00C940F33EA
:101C800080911A0590911B05911103C091E089275D
:101C90000895882369F062E070E080EC9CE00E9487
:101CA000160E892B19F080911A05089510921A05C5
:101CB00080911A05EBCFCF93C0911A0580911B0537
:101CC0008823D1F00E94BE08605A75418F4F9F4F04
:101CD0006093160570931705809318059093190566
:101CE000C11108C062E070E08EEB9CE00E94160E0D
:101CF000892B29F0C0911A058C2FCF91089581E08E
:101D000080931A05F7CF80939E057093A00560938A
:101D10009F058091AE05843001F582E08093E90053
:101D20008FEF9091E800815095FD06C095ED9A9552
:101D3000F1F700008111F5CF8091E80085FF0DC01B
:101D400050E040E063E070E08EE995E00E94860795
:101D50008091E8008E778093E8000895BC0184E0CC
:101D60000E94830E0895BC0183E00E94830E0895B3
:101D70009C0182E08093E9009FEF8091E800915000
:101D800085FD06C085ED8A95F1F700009111F5CF2C
:101D90008091E80085FF0CC050E040E066E070E014
:101DA000C9010E9486078091E8008E778093E80041
:101DB0000895CF93DF93EC0181E08093E9008FEFEA
:101DC0009091E800815095FD06C095ED9A95F1F748
:101DD00000008111F5CF8091E80085FF14C050E02C
:101DE00040E068E070E0CE010E9486078091E80044
:101DF0008E778093E80088E0FE01A4EAB5E00190C8
:101E00000D928A95E1F7DF91CF910895B0E0A0E0BF
:101E1000ECE0FFE00C94F1327C015B016A018091FF
:101E2000A10201E010E08A3010F40AE010E0C1E005
:101E3000D0E0B501C701F6010995811104C02196D2
:101E40000C171D072CF4CDB7DEB7EAE00C940D3368
:101E5000CC9F9001CD9F300D300D112490E080E09B
:101E600045E34A95F1F70000019682179307C1F701
:101E7000E0CF80917E02811110C08091D8008061F6
:101E80008093D8008AE18A95F1F700C08091D9004B
:101E900080FF0AC081E080937E0281E090917E0203
:101EA000913009F080E0089582E080937E020E94E4
:101EB00036071092AE05F1CF0E94390F882359F0F2
:101EC000E0919505F0919605309729F00190F08109
:101ED000E02D0995089580E00895809190059091F6
:101EE0008F05892B8093EC0190917302992391F0D7
:101EF000892B8093EC0120E08EEE91E0FC01319182
:101F0000CF0131112F5FF1E0843F9F07B9F7211115
:101F10000E948F0C48E050E06BE672E08CEE91E09E
:101F20000E944F33892BA9F088E0ECEEF1E0ABE69C
:101F3000B2E001900D928A95E1F7E0919505F0915C
:101F40009605309731F00280F381E02D8CEE91E020
:101F500009950895CF93DF93EC01EA85FB853097CF
:101F600019F06C857D8509958B810E94950C8C817B
:101F70000E949C0C0E946D0F86E0FE0111928A95D2
:101F8000E9F7DF91CF910895CF93DF93EC018D8135
:101F900081FD18C082608D8380918F059B81892B84
:101FA00080938F05809190059C81892B809390056B
:101FB0000E946D0FE885F985309721F06C857D854D
:101FC000CE01099510929205109291058D8180FDA8
:101FD00003C0CE010E94AA0FDF91CF9108958823FC
:101FE00021F00E94950C0E946D0F089580911E05AE
:101FF000882329F082E20E94EF0F10921E050895B7
:10200000882339F090918F05982B90938F050E942B
:102010006D0F0895882321F00E949C0C0E946D0F83
:102020000895882339F090919005982B909390050E
:102030000E946D0F08951F93CF93DF93162F8A3060
:1020400039F481E00E94BE10DF91CF911F91089575
:102050008D3011F480E0F6CFC0911405D0911505B4
:1020600096E0FE01AEE0B5E001900D929A95E1F7A1
:10207000803E90F186E0FE0111928A95E9F7C091C9
:102080001405D0911505111133C046E050E0BE0192
:102090008EE095E00E944F339E012E503340892BF5
:1020A00091F52A5F3F4F40910B03642F70E0C90107
:1020B0000E94D532481B463010F4240F311D2115E3
:1020C00072E0370710F030E020E0225F3C4F3093A1
:1020D000150520931405B8CFF6E08F9FB0011124A9
:1020E0006258784F46E050E0CE010E944633C7CF99
:1020F0009E012A5F3F4FFE012E173F0731F280817C
:1021000080958193F9CFC90145E0969587954A95C9
:10211000E1F741E050E0BA0102C0660F771F8A95EF
:10212000E2F7CB0160910C0370910D03862B972B86
:10213000B9016B5F7F4FE5E076956795EA95E1F72A
:1021400002C0440F551F6A95E2F7842B952B90939C
:102150000D0380930C03A5CF1F93CF93DF93EC0166
:10216000162FFE018491811104C0DF91CF911F9140
:102170000895612F0E941B102196F3CFCF93382F23
:10218000E0911405F0911505EE50F34020910B03FA
:10219000622F70E0CF010E94D532281B822F33239B
:1021A00069F066E00E942033C82FC15010F4CF912F
:1021B000089560E080E20E941B10F7CF9F01280F76
:1021C000311D2115324018F080E0F0E0E0E08E0F84
:1021D0009F2F911D825F9C4F90931505809314054E
:1021E000E6CF0E94AC1081E00E94BE100895CF930C
:1021F00084E090E00E946533C82F82E290E00E9464
:102200006533982F8C2FCF910895CF92DF92EF9264
:10221000FF921F93CF93DF930F92CDB7DEB720913C
:102220001A05298380919C02C0909D02D0909E0245
:10223000E0909F02F090A0029FB7F89440919A0519
:1022400050919B0560919C0570919D059FBF4C1915
:102250005D096E097F09443651056105710528F451
:1022600090E011E02817190621F180913501909135
:10227000360180579D4F4091340150E04115510582
:1022800011F041E050E0BE016F5F7F4F0E945C3370
:1022900085E090E00E945F32182F882351F00E9461
:1022A000BE0860939D0270939E0280939F0290935C
:1022B000A002812F0F90DF91CF911F91FF90EF909F
:1022C000DF90CF900895A4E0B0E0E9E6F1E10C944E
:1022D000F73240918C0250918D0260918E02709184
:1022E0008F022FB7F89480919A0590919B05A09149
:1022F0009C05B0919D052FBF841B950BA60BB70BBA
:1023000011E084369105A105B10590F10E94390FC5
:10231000882399F10E94BE086E5F7F4F8F4F9F4FB9
:1023200069837A838B839C8380912D0190912E0108
:1023300080579D4F40912C0150E04530510510F0E1
:1023400044E050E0BE016F5F7F4F0E945C3384E049
:1023500090E00E945F32182F882351F00E94BE083F
:1023600060938C0270938D0280938E0290938F0203
:10237000812F2496E4E00C9413330E94BE08009150
:10238000A2021091A3022091A4023091A502600F35
:10239000711F821F931FC0CF4F925F927F928F92C7
:1023A0009F92AF92BF92CF92DF92EF92FF920F93E4
:1023B0001F93CF93DF930F92CDB7DEB7C62E4A019E
:1023C0005901482E880F5508C2010E945F32782EAD
:1023D000882309F480C0C20133E0880F991F3A9521
:1023E000E1F7FC01E45FFE4F438150E041155105E8
:1023F00011F041E050E0845F9E4FFC0164817581E3
:1024000060577D4FCE0101960E945C33F4014081FC
:102410005181628173812FB7F89480919A059091D0
:102420009B05A0919C05B0919D052FBF841B950B2A
:10243000A60BB70B84369105A105B10540F4B70191
:10244000C8010E945A099981891709F444C00C2CCB
:10245000000CDD08C6010E945F32782E811113C086
:10246000712C872D0F90DF91CF911F910F91FF90CD
:10247000EF90DF90CF90BF90AF909F908F907F9024
:102480005F904F900895C60123E0880F991F2A9509
:10249000E1F7FC01E45FFE4F438150E0E416F506EE
:1024A00008F4A701845F9E4FFC0164817581605729
:1024B0007D4FC5010E945C33B701C8010E945A09D3
:1024C00099818913CDCF0E94BE08F4016083718386
:1024D00082839383C6CFA701B801C5010E945C33F4
:1024E000C0CFA5E0B0E0E7E7F2E10C94F3326B0176
:1024F00085E0E82EF12C01E912E09E012F5F3F4FAD
:1025000044E852E061E080E00E94CC11882349F069
:1025100095E0FE013196AFE7B2E001900D929A95F9
:10252000E1F795E0EFE7F2E0D60101900D929A9580
:10253000E1F72596E8E00C940F3368EE7EEF90E02B
:1025400080E00E94913360E082E090E00E9473336B
:1025500060E083E090E00E9473331092D602109204
:10256000D50260E084E090E00E94733364E082E290
:1025700090E00E94733360E085E090E00E94733346
:1025800060E086E090E00E9473336FEF87E090E0B8
:102590000E94733340E050E0BA0188E090E00E946E
:1025A000853360E08DE090E00E94733340E050E0BE
:1025B000BA0188E190E00E94853360E087E190E015
:1025C0000E94733340E050E0BA018CE190E00E9439
:1025D000853370E060E080E290E00E94913340E05B
:1025E00050E0BA0188E190E00E94853340E050E07D
:1025F000BA018FE090E00E94853340E050E0BA01DC
:1026000083E190E00E94853308951F920F920FB6E8
:102610000F9211242F933F934F935F936F937F9368
:102620008F939F93AF93BF93EF93FF938091E100BC
:1026300082FF09C08091E20082FF05C08091E10025
:102640008B7F8093E1008091DA0080FF24C080912D
:10265000D80080FF20C08091DA008E7F8093DA005E
:102660008091D90080FF9DC080E189BD82E189BD54
:1026700009B400FEFDCF81E08093AE058091A105F5
:10268000811109C00E9436070E9401088091E20072
:1026900084608093E2008091E10080FF17C0809108
:1026A000E20080FF13C08091E2008E7F8093E20001
:1026B0008091E20080618093E2008091D800806286
:1026C0008093D80019BC85E08093AE058091E1002D
:1026D00084FF2BC08091E20084FF27C080E189BD88
:1026E00082E189BD89B5982F917080FFFBCF8091E1
:1026F000D8008F7D8093D8008091E1008F7E8093F9
:10270000E1008091E2008F7E8093E2008091E20000
:1027100081608093E2008091AF05882309F447C06F
:1027200084E08093AE058091AE058091E10083FF47
:1027300027C08091E20083FF23C08091E100877F62
:102740008093E10082E08093AE051092AF05809106
:10275000E1008E7F8093E1008091E2008E7F809384
:10276000E2008091E20080618093E20042E060E05C
:1027700080E00E94CF078091F00088608093F00095
:10278000FF91EF91BF91AF919F918F917F916F9149
:102790005F914F913F912F910F900FBE0F901F901F
:1027A000189519BC1092AE051092A10574CF8091B6
:1027B000E30087FD93E09093AE05B5CF78941F9228
:1027C0001FB61F9211248F939F93AF93BF93809155
:1027D0009A0590919B05A0919C05B0919D0501964D
:1027E000A11DB11D80939A0590939B05A0939C0514
:1027F000B0939D05BF91AF919F918F911F901FBE88
:102800001F9018959C014FB7F89480919A0590916C
:102810009B05A0919C05B0919D054FBF821B930B1A
:1028200008952FB7F89480919A0590919B05A091F7
:102830009C05B0919D052FBF089580911E058111C3
:102840000FC0109290050E948F0C0E94111488579F
:102850009C4E90931D0580931C0581E080931E057E
:1028600008950E9411149C01909107038091080320
:10287000982B21F0309304032093030390910903D4
:1028800080910A03982B21F03093020320930103D7
:10289000E0919505F0919605309749F082E080939C
:1028A00005030480F581E02D85E093E00995089506
:1028B00090E080E00E94FA0890E080E00E94E40846
:1028C00010928F050E946D0F86E0E5E0F3E0DF01D6
:1028D0001D928A95E9F71092FF021092FE02109263
:1028E00000030E94311408959093BC058093BB05AA
:1028F0000E94581408958091BB059091BC059C01DD
:102900002C7033272C30310521F480610E9474141F
:1029100008958F7EFBCF21E030E002C0220F331FED
:102920008A95E2F7209530958091BB059091BC0582
:10293000822393230E947414089590916A028095D3
:10294000892380936A02282F277091F4282F082E5C
:10295000000C330B9217130659F09091D80292FF96
:1029600007C08595859585950E948B1410926A0203
:102970000895CF93C091D802C2FB992790F9981778
:1029800091F080FBC2F9C093D8026091D70284E035
:1029900090E00E9473336C2F82E290E00E947333C8
:1029A00082E00E949D14CF91089521E030E002C0A2
:1029B000220F331F8A95E2F78091BB059091BC05E9
:1029C000822B932B0E94741408959093D6028093C7
:1029D000D5020E9458140895CF93DF93C1E0D0E050
:1029E00002C0CC0FDD1F8A95E2F76C2F83E090E0E8
:1029F0000E947333CE010E94E514DF91CF910895B8
:102A000010929005EEEEF1E086E0DF011D928A95CE
:102A1000E9F70E9458140895AAE2B0E0E2E1F5E176
:102A20000C94F83280EB95E02091F100FC012193A9
:102A3000CF01F5E0883B9F07B9F78091B10583305E
:102A400009F470C0B8F4813009F447C0823009F449
:102A5000B1C08091E80083FF7EC28091B005909163
:102A6000B1059A3008F077C2E92FF0E0E755FC4C49
:102A70000C9440338A3009F48CC08B3009F46FC059
:102A8000893039F78091B005813219F78091B4050A
:102A90009091B5050297E8F68091E800877F8093D2
:102AA000E8008091E80082FF38C09091F3008091A7
:102AB000F200029731F48091F100813011F08630FC
:102AC00021F48091F1008093A3058091E8008B7739
:102AD0008093E8000E94B007BCCF8091B005813A96
:102AE00009F0B7CF8091E800877F8093E80080915C
:102AF000B4059091B505892B61F468E084EA95E00E
:102B000070E00E945C088091E8008B778093E80079
:102B1000A0CF60E090E080E0F3CF8091AE0581111E
:102B2000C0CF97CF8091B005813A09F092CF8091C4
:102B3000B4059091B505892B09F08BCF8091E80001
:102B4000877F8093E8008091E80080FFFCCF809130
:102B500092018093F1008091E8008E77B9CF809147
:102B6000B005813209F075CF8091B4059091B5051B
:102B7000892B09F06ECF8091E800877F8093E80071
:102B80000E94B0078091B205809392010E940015C7
:102B900060CF8091B005813209F05BCF8091E80071
:102BA000877F8093E8000E94B0078091B3058093EF
:102BB000A2054FCF8091B005813A09F04ACF8091AC
:102BC000E800877F8093E8008091E80080FFFCCFD9
:102BD0008091A205BECF803899F0823809F0BBC140
:102BE0008091B4058F70873008F0B5C18093E900FB
:102BF0008091EB0085FB882780F91092E90006C0E0
:102C00008091AC059091AD05911182609091E800A2
:102C1000977F9093E8008093F1001092F1008091EB
:102C2000E8008E7794C1882309F482C1823009F0CC
:102C300092C18091B205811185C18091B4058F70D8
:102C40002FEF280F263008F086C18093E9002091ED
:102C5000EB0020FF77C1933031F48091EB0080626C
:102C60008093EB006FC19091EB0090619093EB002B
:102C700021E030E001C0220F8A95EAF72093EA00B4
:102C80001092EA008091EB008860EACF811163C165
:102C90001091B2051F778091E3008078812B80939B
:102CA000E3008091E800877F8093E8000E94B007EE
:102CB0008091E80080FFFCCF8091E30080688093E2
:102CC000E30082E0111183E08093AE0544C1805897
:102CD000823008F040C18091B2059091B3058C3DDF
:102CE00023E09207A1F583E08A838AE289834FB7C4
:102CF000F894DE01139620E03EE051E2E32FF0E08D
:102D000050935700E49120FF03C0E295EF703F5FBE
:102D1000EF708E2F90E0EA30C0F0C7968D939D93B0
:102D20002F5F243159F74FBF8091E800877F809350
:102D3000E8006AE270E0CE0101960E945C08809192
:102D4000E8008B778093E80006C1C096E7CF4091FA
:102D5000B4055091B505292F33272330310509F4E7
:102D600044C078F52130310509F46FC08BE390E061
:102D7000EDE7FDE02230310509F0EDC02091E800DB
:102D8000277F2093E8002091B6053091B705821780
:102D9000930708F49C0140E02115310509F064C057
:102DA000411162C08091E80082FDC9CF8091AE05DB
:102DB000882329F2853019F28091E80083FFF2CF51
:102DC000BECF21323105A9F12232310509F0C3C04D
:102DD0004115510509F443C04130510509F0BBC00C
:102DE0008BE790E0E2ECFCE0C9CF992781309105B8
:102DF000C1F0009759F0029709F0ADC0EAECFDE090
:102E0000E4918E2F90E0EAECFDE007C0E4EFFDE0F6
:102E1000E4918E2F90E0E4EFFDE0009709F49BC071
:102E2000ADCFE8EDFDE0E4918E2F90E0E8EDFDE020
:102E3000F4CF4115510571F04130510509F08BC0B7
:102E400089E090E0E8EAFDE099CF82E190E0E8EBEC
:102E5000FDE094CF89E090E0EFE8FDE08FCF80E4E3
:102E600090E0EDE3FDE08ACF8091AE05882309F480
:102E700066CF853009F463CF8091E80083FD5FCF92
:102E80008091E80082FD8ECF8091E80080FF84CFA2
:102E90009091F3008091F2002115310519F08830EE
:102EA000910550F041E0089709F040E08091E8007A
:102EB0008E778093E80070CF44914093F100319673
:102EC000215031090196E8CF803809F044C0809143
:102ED000E800877F8093E8008091AF058093F10040
:102EE0009ECE811138C01091B2051230A0F58091AC
:102EF000E800877F8093E8001093AF050E94B00739
:102F0000112311F084E005C08091E30087FDFACF22
:102F100081E08093AE0542E061EC81E00E94CF0742
:102F200042E261EC82E00E94CF078091AE0513C0BF
:102F30008091B205813079F481E0933009F080E02E
:102F40008093AD051092E9008091E800877F80931F
:102F5000E8000E94B0078091E80083FF0AC08091DA
:102F6000E800877F8093E8008091EB008062809387
:102F7000EB00AA96E3E00C9414331F920F920FB665
:102F80000F9211242F933F934F935F936F937F93EF
:102F90008F939F93AF93BF93CF93DF93EF93FF9361
:102FA000D091E900DF708091EC00C82FC17080FDE6
:102FB000C0E81092E9008091F000877F8093F000D4
:102FC00078940E940C151092E9008091F0008860BE
:102FD0008093F000CD2BCF70C093E900FF91EF916B
:102FE000DF91CF91BF91AF919F918F917F916F9121
:102FF0005F914F913F912F910F900FBE0F901F90B7
:1030000018950E9400152FEF84E39CE0215080402A
:103010009040E1F700C0000088E19CE00FB6F89412
:10302000A895809360000FBE90936000FFCF882327
:10303000C9F19CEF980F913A78F4EEEEF1E091919E
:10304000891303C0DF0111971C9291E0E43FF90757
:10305000B1F70E946D0F089590E2980F983050F4E8
:10306000877091E001C0990F8A95EAF7892F0E9435
:103070009C0CEFCF9BE5980F933028F490E080E014
:103080000E94FA08089598E5980F973128F490E087
:1030900080E00E94E40808958D3E20F00E947009AF
:1030A0000E9431140895CF93DF93EC010E9417180A
:1030B000CE010E94E50D9E01205E310928303105C8
:1030C00010F0CD2B29F40E940A10DF91CF910895C2
:1030D0000E94EF0FFACFFC018281813061F48FE30F
:1030E0009CE90197F1F700C00000FB01808191810C
:1030F0000E94531808958230E9F7FB018281938181
:10310000F7CFCF93C82F8823B1F08CEF8C0F813A83
:1031100000F5EEEEF1E084EF91E0DF012D91C217B2
:1031200061F08A179B07D1F76C2F8CEE91E00E941B
:10313000CA080E946D0FCF9108952191C21303C058
:10314000DF0111971C928E179F07B9F70E946D0F30
:10315000EBCF80E28C0F883068F4C77021E030E05C
:1031600001C0220FCA95EAF780919005822B8093C7
:103170009005DFCFEBE5EC0FE33040F4F0E0ED56E7
:10318000FE4F808190E00E94FA08D5CFE8E5EC0F71
:10319000E73150F4F0E0EE0FFF1FEA56FE4F80815A
:1031A00091810E94E408C7CFCD3E28F28C2F0E9467
:1031B0002B0A0E943114BFCF1F93CF93DF93182F98
:1031C000EB010E9481188FE99FE00197F1F700C0A1
:1031D00000002197C1F7812F0E941718DF91CF912E
:1031E0001F9108950F931F93CF93DF93C62FD42F72
:1031F000022FFC0182818823A9F06093BA050E9406
:1032000011149093B9058093B805C77081E001C08F
:10321000880FCA95EAF70E941110DF91CF911F9194
:103220000F9108958091BA05681334C08091B80554
:103230009091B9050E9402148F3A910558F510E259
:103240001D0FCD17B9F080E28C0F883040F4C770A5
:1032500081E001C0880FCA95EAF70E940A10183071
:1032600048F481E09D2F977001C0880F9A95EAF786
:103270000E9411106AE070E0802F0E94DC18183064
:1032800060F6D77081E001C0880FDA95EAF70E94F6
:103290000A10C3CFC77081E001C0880FCA95EAF752
:1032A000F6CFCF93DF93EC010E94E50D9E01205EE7
:1032B00031092830310510F0209741F40E94111097
:1032C0008C2F0E948118DF91CF9108950E940010E9
:1032D000F7CFFB01808191810E9451190895CF930E
:1032E000DF93EC018A81823041F4FB01828193817A
:1032F0000E9451198D8182608D83DF91CF91089555
:1033000081110DC0662339F06AE070E089EA0E94FD
:10331000DC1881E008956AE070E08AEAF8CF813035
:10332000C1F7662399F08DE193E00E9451198AE07C
:1033300090E0EFE9FFE03197F1F700C0000001975E
:10334000C1F78DE193E00E945318E3CF8DE191E046
:103350000E9451198AE090E0EFE9FFE03197F1F720
:1033600000C000000197C1F78DE191E0ECCFA1E032
:10337000B0E0EDEBF9E10C94F232EE24E394F12CA1
:1033800007E912E09E012F5F3F4F48E852E063E0FB
:1033900082E00E94CC11C82E882339F100E080E041
:1033A0001DC0D090B302D00E2D2D30E0A9014353A3
:1033B0005D4F7A01E1E0F0E0EC0FFD1FE00FF11D41
:1033C0001081FA019081191BB12E1B149CF0912FD2
:1033D00017FD90E0191B111118C00F5F9091B202F8
:1033E0000917F8F281110E948C0C8C2D2196E9E0CE
:1033F0000C940E33BA94F70180818F5F808360E074
:103400008D2D0E9480198C2DE0CF1F5FF7018081E8
:103410008150808361E08D2D0E9480198C2DDBCF3F
:10342000AFE0B0E0E6E1FAE10C94EE328E010F5F1E
:103430001F4F8AE0D8011D928A95E9F786ECC82EC5
:1034400081E0D82EF12CE12CAA24A394B12C21EDFB
:10345000822E21E0922EF60181916F018F3F09F4B7
:1034600042C0F894E82FE295EF70F0E021A18F7050
:10347000A50102C0440F551F8A95E2F7CA01922F99
:10348000982B91A392A18095892382A3789400C060
:10349000EBECF1E0712C31E021912F3F09F46BC08E
:1034A000A22FA295AF70B0E090968C9190E02F7013
:1034B00002C0959587952A95E2F780FD5CC0832F21
:1034C000782A330F8E169F0639F7F60131978081DF
:1034D0008F3F11F00E94870A50EA5A95F1F7F801E0
:1034E000EE0DFF1D70828FEFE81AF80A95E0E916DD
:1034F000F10409F0B0CF4AE050E0B80186EA92E06A
:103500000E944F33009741F02AE0F801A6EAB2E0AA
:1035100001900D922A95E1F70091B102892B69F192
:1035200081E0809376020E9411149093750280933B
:10353000740280917402909175020E9402140597A2
:1035400000F110E00A541D4F45E050E066EA72E0D9
:10355000C8010E944F33D12C892B51F085E0E6EA57
:10356000F2E0D80101900D928A95E1F7DD24D39421
:103570001092760207C080E0A3CF8091760281117D
:10358000D8CFD12C0E94390FC82EE091B102DE01B4
:103590001B967D01882309F47AC085E01D928A95E7
:1035A000E9F70E2F10E00A541D4F8091A1028A30D6
:1035B000D8F541E752E1B701C8010E94060F882300
:1035C00009F454C047EB59E1B701C8010E94060F46
:1035D000882309F44BC043E651E1B701C8010E94BA
:1035E000060F882309F442C045E051E1B701C80144
:1035F0000E94060F8823D1F11092A1028091B0029F
:1036000090E045E050E0B7018A549D4F0E944F334F
:1036100021E020937D02892BE1F4C12C8C2D8D2992
:103620002F96EDE00C940A33809177029091780206
:103630000E940214843F914008F0BBCF80917D022C
:10364000882359F385E0F70111928A95E9F71092E2
:103650007D02A091B002B0E0AA54BD4F85E0FE010A
:103660003B9601900D928A95E1F7D8CF8091A10207
:103670008F3F31F08F5F8093A1028A3008F4BECF74
:103680000E9411149093780280937702D7CFF0E0D4
:10369000EA54FD4F85E0A1E9B2E001900D928A95D0
:1036A000E1F765E070E081E992E00E945A098093B9
:1036B00090024091D20250E06091D10270E06353D9
:1036C0007D4FC7010E945C338B858093970261E038
:1036D00070E0C7010E945A09809396028090980278
:1036E00090909902A0909A02B0909B0280917902EA
:1036F00090917A02A0917B02B0917C028816990683
:10370000AA06BB06D1F08092790290927A02A0922A
:103710007B02B0927C020E94390F81110EC00E9480
:10372000BE08861A970AA80AB90A8092A202909245
:10373000A302A092A402B092A50280919C028823C9
:1037400019F00E945B0E6ACF0E94400E67CFB0E076
:10375000A0E0EDEAFBE10C94F1328C01DC01139660
:103760004D915C91149711966C9111978C910E94D8
:103770001009C82E811171C161E0C8010E94B50D08
:10378000EC01F80182818823E1F08091910590910C
:1037900092050097B1F0C817D90799F0FEE08F9F06
:1037A000C0011124FC01E25BFE4F208124602083D4
:1037B000875B9E4FDC01CD93DC930E94C40F109277
:1037C0008F05CB3BBDE5DB0709F4BFC108F0CEC0D8
:1037D000C43BFDE5DF0709F454C108F09AC0CC37BB
:1037E000D10509F4C2C108F07CC0CA37D10509F47B
:1037F000E2C1CB37D10509F4CFC1CE0197558F3F38
:10380000910511F008F072C25E01BB242EE0C29F48
:10381000F0011124AF01475B5E4F7A01D801129687
:103820008C91E25BFE4F908180FB90F9908388231E
:1038300009F454C20E9411149093CC028093CB02DD
:10384000F70182818F5F828380918F05909190052F
:10385000892B83838091730284830680F781E02D16
:10386000309731F0D7011C966D917C91C701099575
:103870008EE08A9DF0018B9DF00D1124E75BFE4FD9
:10388000858181FF28C290E080E09093910580932C
:103890009205F090730280919005F82A80911E05A0
:1038A000811139C2B2E2FB1202C00E941D14C43F52
:1038B000ECE5DE0709F425C308F00EC3C93D2CE58D
:1038C000D20709F41AC3CA3D3CE5D30709F425C35E
:1038D000C83D4CE5D40709F04AC226E241EE61EE4C
:1038E00008C3C23B3DE5D30709F4A0C008F0BAC045
:1038F000CD37D10509F081CF81E00E949E0AD80121
:1039000012969C91992309F443C10E94111089E1F8
:1039100036C1C73B5DE5D50709F4CEC0A0F4C53B71
:103920009DE5D90709F4BCC0C63BADE5DA0709F04F
:1039300064CFD80112968C91882309F4B9C084E031
:103940000E94D5147AC0F80192818091D802C93BB7
:10395000FDE5DF0709F4EAC008F4CFC081709923C0
:1039600009F4EFC08111D5C08DE4B5C0C23C3DE57E
:10397000D30709F45BC158F5CE3B5DE5D50709F4E3
:103980002AC1A0F4CC3B9DE5D90709F430C1CD3B59
:10399000ADE5DA0709F031CFF8018281882309F417
:1039A0003BC183EE0E9481188CE2E9C0F80182815C
:1039B000C03CFDE5DF0709F460C008F45AC0882365
:1039C00009F42FC181EE0E9481188BE2D8C0C53C5A
:1039D0003DE5D30709F447C180F4C33C5DE5D50755
:1039E00009F433C1C43C8DE5D80709F006CFF801CE
:1039F0008281882311F187E01EC0C73C9DE5D9076D
:103A000009F44CC108F442C1C83CBDE5DB0709F02C
:103A1000F4CEF8018281882309F455C180EE0E941A
:103A2000811881EE0E94811887E1A9C0F801828186
:103A3000882319F080E00E94EC1480916A0287705C
:103A400061F0D80112968C91882339F08091D802C8
:103A500082FF03C082E00E949D14CDB7DEB7EAE08A
:103A60000C940D33D80112968C91882331F381E0A8
:103A7000E2CF882311F385E0DECF8823F1F286E0E0
:103A8000DACFD80112968C91882331F082E00E941F
:103A9000D5140E947B14D1CF82E00E948B14F9CF01
:103AA000F8018281882311F083E0F1CF83E0F5CF24
:103AB00084E00E948B14C1CF8091D8028170F801FC
:103AC0009281992369F0882349F084E00E949E0A3C
:103AD0000E94111080E50E9481188FCE81E0F6CF00
:103AE000882349F084E00E949E0A0E940A1080E523
:103AF0000E94171882CE81E0F6CF8170992359F089
:103B0000882339F084E00E949E0A0E9411108FE4FD
:103B1000E2CF81E0F8CF882339F084E00E949E0A4A
:103B20000E940A108FE4E4CF81E0F8CF81709923DE
:103B300021F08111D3CF8AE4CECF8111DCCF8AE48A
:103B4000D7CF8111F1CF8DE4D3CF81E00E949E0ABF
:103B5000D80112969C91992321F00E9411108AE2BB
:103B6000BACF0E940A108AE2C3CF81E00E949E0A67
:103B7000F8019281992331F00E94111086E00E9491
:103B800081185BCF0E940A1086E00E94171855CF5B
:103B90000E940A1089E1F9CF81E00E949E0AF80193
:103BA0009281992321F00E9411108BE1E8CF0E94AD
:103BB0000A108BE1EACF81E00E949E0AD80112969A
:103BC0009C91992321F00E9411108DE1D8CF0E9481
:103BD0000A108DE1DACFF8018281882321F083EE8B
:103BE0000E94811894CE83EE0E941718D3CFD8017B
:103BF00012968C91882341F083EE0E94811881EE09
:103C00000E94811886E1BBCF83EE0E94171881EED7
:103C10000E94171886E1B9CF83EE0E9417188CE234
:103C2000B4CF81EE0E9417188BE2AFCFD801129665
:103C30008C91882329F080EE0E94811888E39FCF21
:103C400080EE0E94171888E3A0CFF80182818823B4
:103C500029F080EE0E94811889E091CF80EE0E94C9
:103C6000171889E092CFD80112968C91882339F0E9
:103C700080EE0E94811881EE0E948118A6CF80EE0E
:103C80000E94171881EE0E941718A3CFF8018281B5
:103C9000882311F082EE97CE82EEC4CFD80112961F
:103CA0008C91882341F082EE0E94811881EE0E945F
:103CB000811881E564CF82EE0E94171881EE0E9480
:103CC000171881E562CF80EE0E94171881EE0E94DE
:103CD000171887E15ACF9C2F8D2FD7CDFA018581F8
:103CE00081FFD7CDCA010E94AA0FD3CDCD3AFDE501
:103CF000DF0709F0CECDD80112968C91882309F404
:103D00009CCE80911E05882319F00E94F60F95CE57
:103D10000E941D1492CE0E94111488579C4E9093BD
:103D20001D0580931C05F8018281882309F4BFCD0D
:103D30008F2D8D7909F0A0C0C115F5E5DF0708F0DA
:103D400067C0C11523E5D20790F4C11530E5D3074C
:103D500050F4C11540E4D40708F099C0C63ED1051F
:103D600031F0CE019BC0C11552E5D507D0F7D8017F
:103D700012968C91882309F463C51092BA05C43059
:103D8000BDE5DB0708F0CCC0CB3FECE5DE0738F43F
:103D90009E0122503C452431310508F0CCC00E94E0
:103DA000F7109093D8028093D702C2314CE5D40724
:103DB00009F4C6C108F01BC1C9308CE5D80709F465
:103DC0009DC108F0E7C0C530ACE5DA0709F48AC147
:103DD00008F0CFC0C330ECE5DE0709F47BC108F082
:103DE0007DC18091D7028160C230DC4509F4FCC0FE
:103DF0006091D702C091D80284E090E00E947333B2
:103E00006C2F82E290E00E9473330E94001515CE61
:103E1000C11589E5D807F0F4C11598E5D90708F070
:103E2000A6CFC431A5E5DA0709F4A1CFCE01C4318C
:103E3000B5E5DB0798F196558F3F910511F008F035
:103E400090CFC13FF6E5DF0708F031CDD8011596D8
:103E50008C911FC0CE0190568115904208F081CF01
:103E6000D80115968C91807FB9F48D2F8F71823196
:103E700059F028F4823041F00E94F60F18CD8431B9
:103E800009F415CD8631C1F710928F05F5CFF801F1
:103E90008581807F09F40BCDCE01992710928F0583
:103EA0008832910548F48E31910560F4049720F32F
:103EB00082E080938F0506C08D329105C9F328F406
:103EC0008A97D1F60E946D0FF2CC8C349105D1F314
:103ED0008D329240B9F3D0CFC63F5CE5D507C9F02B
:103EE000A0F027E245EE66EEC73F9CE5D90709F052
:103EF0003ECFC8010E94F218A0CD27E245EE65EE44
:103F0000F8CF26E241EE60EEF4CF27E245EE64EE14
:103F1000F0CF26E241EE62EEECCF28E241E0EFCFB7
:103F2000C63AFDE5DF0709F43ACFE0F4C2363DE5D5
:103F3000D30709F434CFC631ECE5DE0709F02CC114
:103F4000809190058A7A91E009F490E09093FC01C9
:103F500069E2811165E38CEE91E00E94CA080E943B
:103F60006D0F6BCD9E012E5A3D452330310518F75C
:103F700016CF8091D7028062C7303CE5D307A1F10C
:103F80008091D7028061C830DC4570F18091D70202
:103F900080642AC0CD305CE5D50709F4B9C088F447
:103FA0008091D7028E7FCB309CE5D907E9F08091D4
:103FB000D7028C60CC30DC45B8F08091D7028D7F81
:103FC00013C0CF30BCE5DB0709F4B2C008F4A4C0CD
:103FD000C031FCE5DF0709F4AFC08091D7028F7BC9
:103FE000C131DC4509F004CF8093D70201CFC11560
:103FF0003DE5D30709F4AEC098F5CB3F5CE5D507A6
:1040000009F474C0B8F4C4319CE5D90709F4B0C010
:1040100008F49CC0C531DC4509F0EACE8091D70296
:1040200082FB992790F921E0922790FB82F990FB7F
:1040300083F9DACFCD3FECE5DE0709F471C008F46F
:1040400059C0CE3F2CE5D20709F46EC08091D8024A
:104050008360CF3FDC4509F0CBCE8093D802C8CE39
:10406000C2364DE5D40709F48EC088F4C2308DE520
:10407000D80709F486C008F471C060E0C330DD459C
:1040800009F0B6CE8EE090E00E947333B1CECE3A06
:10409000BDE5DB07D9F058F49091D702892F8E7FC8
:1040A00090FF8160C63ADD4509F49ECFA1CECF3A9C
:1040B0002DE5D20749F1C03BDD4509F099CE90913D
:1040C000D802892F877F93FF8860C7CF8091D8025D
:1040D0008860C3CF8091D702826086CF8091D7025B
:1040E000846082CF8091D70288607ECF8091D80291
:1040F0008160B3CF8091D8028260AFCF0E9400155B
:104100008091D702806870CF8091D802877FA5CF39
:104110008091D7028B7F68CF8091D702877F64CF51
:104120008091D8028E7F99CF8091D8028D7F95CFD4
:104130008091D7028F7E58CF8091D7028F7D54CF48
:104140000E9400158091D7028F774ECF8091D702C1
:10415000837F4ACF8091D8028C7F7FCF8091D80215
:10416000982F909591708E7F892B90FB81F975CF58
:104170000E9400159091D702892F97FB87F98058EC
:1041800033CF61E07FCF9091D702892F8F7E94FF4C
:1041900080612ACF85E35DC3882381F0CB354DE56F
:1041A000D40709F492C008F047C0C1158CE5D807C0
:1041B00009F44FC0CF3DDC4509F47AC0F80186818F
:1041C0009781009709F485C00E94FC0AC82FF92E38
:1041D000F801D580D2943FE0D322D28180916A0247
:1041E0008770E1F0DD23C9F0892F807F803441F0B2
:1041F00090E29C0F983090F0803611F4C63F71F039
:104200008091D80282FF0AC082E00E949D148091B2
:104210006A028770CC24C3948111C12CBF2CB29444
:104220002FE0B222FBE0FB1508F4D4C0EB2DF0E048
:10423000ED54FC4C0C944033CD35ADE5DA0709F470
:104240003AC008F444C0C83ADD4509F0B7CF0E942F
:1042500001180E940015FFEF24E33CE0F1502040DC
:104260003040E1F700C0000081E08093E00080E290
:104270008093D8001092C9008FE19EE40197F1F776
:1042800000C0000087E090EBDC018093BD059093B7
:10429000BE05A093BF05B093C00588E19CE00FB6B2
:1042A000F894A895809360000FBE90936000FFCFB4
:1042B0000E949D12CCCF8091D80282FB882780F982
:1042C00091E089270E94B91479CF81E0FBCF80E08B
:1042D000F9CF8281C081D181882369F0CE010E940B
:1042E000AD0CF82E682FCE010E94210DBE018F2D3E
:1042F0000E94E10A69CFCE010E94EE0CF82EF6CFA3
:104300002F2D2F70E22E8F2D807F19F0E29490EFE9
:10431000E922DD23B9F0EE2069F080E28C0F8830CD
:1043200010F0C11109C080919005E82AE092900533
:104330000E946D0F8C2F4CC080918F05E82AE0926F
:104340008F05F6CF8C2F0E941718EE2009F442C07B
:1043500080E28C0F883010F0C11104C08E2D0E94B5
:104360009C0C03C08E2D0E94950C0E946D0F32C0D4
:104370003F2D3F70E32E8F2D807F803219F0E29425
:1043800080EFE822CC2399F0C13009F480C0DD230E
:1043900009F48AC0DD2009F480C0D80115968C91FB
:1043A000159780FFC7CF8F7015968C9376C020919C
:1043B000D80222FD49C0DD2309F440C0EE2039F0C7
:1043C00080919005E82AE09290050E946D0F80E0B0
:1043D0000E948118EB2DE850FF0B349710F40E94D7
:1043E0005C0FDD2371F09F2D907F903611F4C63F56
:1043F00041F08091FD01823009F01AC283E0809380
:10440000FD01CC20B1F080916A0280FD12C0D8017C
:1044100012961C928595859585950E94D514C801A4
:104420000E94A71B80916A028595859585950E94BB
:104430008B1460E0C8010E94B50D0FCB80E00E9494
:104440001718EE2039F28ACFDD23A1F09091730284
:104450008E2D892BD11003C00E941110BBCF41E0DB
:10446000D412FACF22FFB6CF981709F4B3CF8093B6
:104470007302B0CFD11006C00E948F0C8E2D0E9407
:104480000A10A8CF51E0D51609F4A4CFF5CFDD234B
:1044900031F085E08D1508F49DCF8E2DDDCF94E0B1
:1044A0009D1508F497CFEACFDD2041F3C93369F4B5
:1044B000BFEFE7EEF3E0B150E040F040E1F700C0BD
:1044C00000008C2F0E94171885CF8FE39CE901977D
:1044D000F1F7F5CF8F2D86958695837069F0813041
:1044E00009F078CF8C2F9F2D9370D11102C090E0EE
:1044F00080E00E94E4086ECF8C2F9F2D9370D11125
:1045000002C090E080E00E94FA0864CF8C2FDD2387
:1045100029F00E942B0A0E9431145CCF0E9470097E
:10452000FACF8F2D837009F040C0D11153CF4C2F9B
:10453000429546954770440F440F8C2F8F7090E042
:10454000042E02C0880F991F0A94E2F730E020E0A1
:10455000C4FF09C02FE030E002C0220F331F4A958C
:10456000E2F7209530954F2D4695469543704230A1
:1045700099F078F46091D5027091D602413039F00B
:10458000822B932B862397230E94E51423CF862B1F
:10459000972B822B932BF8CF822B932B2091D50234
:1045A0003091D60282279327EFCF8695DD2311F035
:1045B0008F2D8170882309F40DCF4C2F429546959D
:1045C0004770440F440F8C2F8F7090E0042E02C070
:1045D000880F991F0A94E2F730E020E0C4FF09C079
:1045E0002FE030E002C0220F331F4A95E2F72095FA
:1045F00030954F2D469546954370423099F078F4AA
:104600006091BB057091BC05413039F0822B932B32
:10461000862397230E947414DDCE862B972B822B42
:10462000932BF8CF822B932B2091BB053091BC05A7
:1046300082279327EFCF9F2D9F70E92EDD2329F04E
:10464000892F0E94D5148C2F07CF8C2F0E940A101F
:104650008E2D0E948B14BECEC23F79F160F4C03F14
:10466000B9F0C13F81F0DD2309F45FC0D11062CE03
:104670008F2D8F7126C0C33F39F1C43FA1F78091C0
:10468000D80282FD32C08F2D8F71DD2311F319C046
:10469000DD2371F0A4E0AD1508F49CCE2F2D2F7111
:1046A00081E090E002C0880F991F2A95E2F7BCCF05
:1046B000B5E0BD1508F48ECEF1CF8F2D8F71D111DD
:1046C000C8CF0E94D51486CE90E080E0DD2309F4A7
:1046D000A1CF21E030E09F2D9F71F90102C0EE0FC4
:1046E000FF1F9A95E2F7CF0195CFDD2399F0FF2DBB
:1046F000FF71EF2E8F2F0E94D5148091D80282FF78
:1047000007C028E0E29EC0011124836080936A0202
:104710008E2DD7CF81E00E949D1431E03D1508F029
:1047200059CE82E00E949D1455CEDD2079F0C93328
:1047300041F44FEF57EE83E0415050408040E1F7A5
:10474000BECEAFE3BCE91197F1F7B9CE8F2D8F71D3
:1047500080CFE0E1EC0FE73008F03FC0F0E0E1543B
:10476000FC4C0C944033DD2309F434CE80911F02BD
:1047700091E0892780931F022DCED0931F022ACE6D
:1047800081E08D27F7CFD11125CE81E0F3CFD11174
:1047900021CE10921F021ECEDD2321F082E08093F5
:1047A000FD01F3CF8091FD01823021F481E08093FF
:1047B000FD0110CE833009F00DCE1092FD01E9CF3E
:1047C000DD2339F080911E02882381F210921E02AF
:1047D00001CEB4E0BD1550F6FDCD80911E02DD2066
:1047E000D9F0882341F080911F0291E089278093BE
:1047F0001F0210921E02D1119DCDEFE3FCE931970B
:10480000F1F700C000008C2F0E94171888E0D80133
:104810001D928A95E9F7DECD882309F4DBCDD1110D
:10482000D9CD80911F0291E0892780931F02CECFBE
:10483000813009F0E6CD1092FD0110921F02E1CD0A
:10484000C631DC4509F0BACC8091FC018111A2CCC3
:1048500089E2EEEEF1E024EF31E09191891303C09B
:10486000DF0111971C922E173F07B9F778CBEF9213
:10487000FF920F931F93CF93DF9380912502807F48
:1048800009F04CC080912202882309F447C0C091EE
:104890006902E0902802D0912002F090210200915C
:1048A000230210912402EC16C9F1A8016F2D8D2F5F
:1048B0000E9410092C2F30E0811135C0F90183E0EE
:1048C000EE0FFF1F8A95E1F7DF01A75DBD4F11963F
:1048D0008C9111978F1127C08C918D1324C0129643
:1048E0008C91129781111FC013968D919C91801B02
:1048F000910B8F3A9105B8F4809125028F708061F9
:1049000080932502E25DFD4F80818F7080618083FE
:1049100080E292E00E94A71B0E94A30CCDB7DEB7F5
:10492000E6E00C9411332F5F3F4FC22FC770BBCF0F
:10493000A5E1B0E0EEE9F4E20C94EA328C0185E006
:10494000F801DE01519601900D928A95E1F7F80188
:10495000E28040E2A42E42E0B42E4090200230904B
:1049600021028090230290902402A401632D842DC3
:104970000E941009582E811151C1F8016080718088
:10498000C380D480F0902202960128193909FF20B3
:1049900009F410C180912502982F907F2F3A31059C
:1049A00008F0C4C0911176C0FE2C37101DC06410F1
:1049B0001BC0409126025091270226813781421761
:1049C000530791F4E11010C08F708061809325022D
:1049D000C5010E94A71B80912502F80185838F2DB8
:1049E0006596E1E10C940633A601672D862D0E94A1
:1049F0001009811122C081E08E25F82FF170DF2E81
:104A000080FF3EC08091690220912802821317C066
:104A1000698A7A8A89899A890E94E10C292F2295CC
:104A20002F70223008F1243030F59F7009F1F80121
:104A30009581907FE9F4F52CD2CF80E0DECF90E035
:104A4000FC0133E0EE0FFF1F3A95E1F7E75DFD4F04
:104A50003181371106C03081631203C03281E31205
:104A60000FC001968770D2CF9F7011F0882319F381
:104A7000805E883000F3C8010E94A71B5D2CDBCF4D
:104A8000EE2009F4ACCF809125028160809325024D
:104A9000F12CA5CF37101AC0641018C0409126021F
:104AA00050912702268137814217530779F4E1108C
:104AB0000DC08583C8010E94A71B88E0F801A0E211
:104AC000B2E001900D928A95E1F789CFC8010E946A
:104AD000570D882339F1EE2029F18091250280328B
:104AE000A0F020912002309121023A8729871B866D
:104AF000DD86CC868E878091260290912702988B46
:104B00008F87CE0109960E94A71B88E0F801A0E2DA
:104B1000B2E001900D928A95E1F70E943724FF24BC
:104B2000F3945DCFC8010E94A71BF9CF91110AC071
:104B300080E292E00E94A71B88E0F50111928A951D
:104B4000E9F7A6CF371017C0641015C040912602B0
:104B500050912702268137814217530761F4E110F3
:104B60000AC08583C8010E94A71B88E0F501119245
:104B70008A95E9F734CFC8010E94570D882391F236
:104B8000EE2081F280912502803208F4BECF209180
:104B90002002309121023A8329831B82DD82CC825C
:104BA0008E83809126029091270298878F83CE0171
:104BB0000196A9CF2F3A3105C0F6FE2CEE2009F45C
:104BC000B1CF37101DC064101BC020912602309158
:104BD0002702868197812817390791F48091250251
:104BE00080FD6BCF982F907F09F467CF8583903F2E
:104BF00009F460CF982F907F905F8F70892B59CFE9
:104C0000C8010E94570D811180CF809125028160DB
:104C100080932502C8010E94A71BE1CEEE2009F473
:104C200081CFC8010E94570DF82E882309F47ACF4E
:104C300088E0F801A0E2B2E001900D928A95E1F7D8
:104C400080912002909121020E94E10C92959F7028
:104C5000963051F4863F41F080911F0291E0892700
:104C600080931F0290931E020E943724B8CEA0E1C9
:104C7000B0E0EDE3F6E20C94F93229873A874B87EE
:104C80005C876D877E878F87988BCE0109960E94FF
:104C9000982481112FC088E0FE013996DE0111961B
:104CA00001900D928A95E1F74C855D856A8589852D
:104CB0000E94100981111EC0A0912802B0E0CD0110
:104CC0000196877099272091690228171906E1F04B
:104CD00093E0AA0FBB1F9A95E1F7A75DBD4F98E03F
:104CE000FE01319601900D929A95E1F7809328028A
:104CF0000E94A30C8091690290912802891312C02E
:104D00006096E2E00C9415330E9400151092280280
:104D10001092690288E0E0E2F2E0DF011D928A95DC
:104D2000E9F7E8CFB8E08B9FC0011124875D9D4F64
:104D30000E949824882321F38091690290E00196D3
:104D40008770992780936902D5CFB0E0A0E0EBEAA5
:104D5000F6E20C94F43280912205882369F0C09128
:104D60002105E12C8CE0F82E80912205C81748F02F
:104D70001092220510922105CDB7DEB7E7E00C9422
:104D80001033DD24D394DC0ED09221050C2F10E0DB
:104D9000CF9DE0011124CD5DDA4F4B815C816981AB
:104DA00088810E94100981112CC08E819F81892BDE
:104DB00021F488859985019651F4288139814A81A9
:104DC0005B816C817D818E819F810E943726F09E60
:104DD000F001F19EF00D1124ED5DFA4F1482138263
:104DE00010928F05E1100DC0CE010E94570D811168
:104DF00008C08FE39CE90197F1F700C00000EE24A2
:104E0000E394CD2DB1CF10928E0510928D051092A6
:104E1000910180918C0580938B050E9449090E9425
:104E2000A5260895B0E0A0E0E8E1F7E20C94E932AD
:104E3000C0918B05E7E0FE2E01E010E0FCE02F2E94
:104E4000AEEFEA2E80918C058C1309C00E94A52636
:104E50000E944909CDB7DEB7E2E10C940533D0E0FA
:104E6000FE01EE0FFF1FED57FA4F80819181F89EF2
:104E7000F001F99EF00D1124E458FE4F2481211118
:104E800059C030902205A3E2B5E030E020E0412C8B
:104E90005F01231508F04CC01A966D907C901B970B
:104EA000F501808091804FEF5FEF512CC52CD12C04
:104EB000F601EE0FFF1FE80DF91D6591749166165E
:104EC000770609F4A601672B11F05394EFCF4F3FFB
:104ED0005407B9F1B80102C0660F771F4A95E2F78F
:104EE000462AA801052C02C0440F551F0A94E2F778
:104EF000415051094416150601F5229EF001239EEA
:104F0000F00D1124ED5DFA4FF89ED001F99EB00D21
:104F10001124A458BE4F12962D913C9113973783BC
:104F20002683E082E1829187808771E015967C93E9
:104F30000E941B092196C37085CF14961C921E9265
:104F400013972F5F3F4F1C96A4CFA9E1B0E0EBEA87
:104F5000F7E20C94E932F62E6B8B7C8B8D8B142F41
:104F6000052F611110928F054C895D89602F812F6B
:104F70000E941009811133C00A3088F5163078F587
:104F8000E12FF0E026E0029FE00DF11D11249F01CA
:104F90002770332781E090E001C0880F2A95EAF757
:104FA000DF0143E0B695A7954A95E1F7AC50BE4FB7
:104FB0002C9130911F02F11002C0322F382333237D
:104FC00009F440C0AF01440F551FFA01E154FF4FEF
:104FD0000491FA01E254FF4F1491822B8C931D86A9
:104FE0001E861F86188A198B0A8B85E0FE01719632
:104FF000DE01199601900D928A95E1F74C855D8549
:105000006A8589850E941009811111C061E0CE0175
:1050100009960E94B50D5C018B8538EFA3163CE51F
:10502000B30699F4882339F181E0809391012985B1
:105030003A854B855C856D857E858F8598890E9434
:105040003726C5C080958223C9CF49EFA4164CE509
:10505000B40629F4882379F00E940327E8CF5AEF99
:10506000A5165CE5B50639F4882329F080919101F5
:105070008111F2CFD9CF0CE711E0E12CD12CC12C5A
:1050800088248394912C9EEF592E44244394F80154
:105090006081718166246A94762C20E0422F50E072
:1050A000FA01EE0FFF1FE60FF71F85919491A816E6
:1050B000B90609F43A01892B11F02F5FEFCFF12CDB
:1050C000FFEF6F167F0609F444C0F8014481F090A9
:1050D00091018F2D411180E0F82FF170FF2EF80122
:1050E000258086819B85992309F4F2C0FF2009F46D
:1050F000EFC0211014C0A401062C01C0440F0A9473
:10510000EAF7842B868380911F05909120050F97E5
:1051100030F44FE050E05093200540931F05C40148
:1051200002C0880F991F2A95E2F70197F80126819E
:105130002817190671F480918D0590918E050097BE
:1051400009F449C00E940214409708F444C0F801D1
:105150004482EF28FFEFCF1ADF0A095F1F4F23E0D9
:10516000C216D10409F093CF8B85882309F40CC1B2
:10517000EE2009F409C10E94111490938E058093CA
:105180008D0580912205883010F591E0980F90935D
:10519000220598E0FE013996DE01119601900D92EC
:1051A0009A95E1F73CE0839FC00111248D5D9A4FF1
:1051B00028E0FE013196DC0101900D922A95E1F77D
:1051C0002FEF3FEFFC0131872087B386A2866996D7
:1051D000E2E10C94053380918B0560908C05982F4B
:1051E000F0E0E0E0861114C090938B050E171F07C6
:1051F00009F4AFCF90E0FC01EE0FFF1FED57FA4F1F
:10520000D182C08201968370992780938C05A1CFAB
:10521000282E312CF101EE0FFF1FED57FA4F2081A0
:105220003181F7E0F29FD001F39FB00D1124A45813
:10523000BE4F2D913C911197398F288F712C60E0D2
:1052400070E0E72FF0E0EE0FFF1F288D398DE20FA1
:10525000F31F2591349121153105E1F0F8010190FA
:10526000F081E02DFF8BEE8B60E005C02417350741
:1052700009F47F2C6F5FE62FF0E0EE0FFF1F4E89E1
:105280005F89E40FF51F459154914115510571F760
:105290007F5FD7CF7720C9F0F801671708F0FD01CD
:1052A0004482E017F10721F490938B05F72C51CF3E
:1052B000891305C0EA17FB0711F49F5F93709101F2
:1052C0002F5F3F4F822F83708DCFF0E0E0E0F7CF6C
:1052D00090E0211020C0B40102C0660F771F2A950C
:1052E000E2F79B01215031092817390731F4442393
:1052F00009F448C0C6010E941B09C401062C01C064
:10530000880F0A94EAF7982F9095F80186818923EF
:105310008683F22C1ECF9C01062C02C03595279562
:105320000A94E2F7A90141705527BC016150710947
:1053300086239723892B11F5452B01F1F8018281F2
:105340009381892BC1F01B821C821D821E8259828F
:105350005A820E9411148160582F9D838C83F8011A
:10536000828193818F83988729813A814B816D81D6
:105370007E810E943726F8011582BFCFF22FF1708F
:105380002F2EBBCF2F2CB9CF90918B0580918C0500
:10539000981731F00E941227EE2009F448CE17CF5B
:1053A0000E94A52610928E0510928D050E94490933
:1053B000F3CF1F921FB61F9211248F939F93AF9329
:1053C000BF9380919905811113C080919A059091A6
:1053D0009B05A0919C05B0919D054196A11DB11D15
:1053E00080939A0590939B05A0939C05B0939D058F
:1053F000BF91AF919F918F911F901FBE1F901895E5
:10540000CDB7DEB762970FB6F894DEBF0FBECDBF43
:1054100085B7806885BF85B7806885BF84B7877F7B
:1054200084BF0FB6F894A89580916000886180933E
:105430006000109260000FBE80E890E00FB6F89414
:1054400080936100909361000FBE85E89AE090938D
:10545000EB018093EA010E9436070E9401088091C7
:10546000E20084608093E20078948091AE05882306
:10547000A1F01091E9001F709091EC00892F8170CC
:1054800090FD80E8182B1092E9008091E80083FDE0
:105490000E940C151F701093E90082E084BD93E018
:1054A00095BD9AEF97BD80936E001092A202109264
:1054B000A3021092A4021092A5020E94390F8093B9
:1054C0003C010E94390F81110E94733180913C018F
:1054D00080913C0195E0811190E09093B10285E0CC
:1054E000891B8093B00206EC11E0D8018D918D01EB
:1054F0008F3F11F00E94870AB1E00B3C1B07A9F710
:105500000BEC11E0F80181918F018F3F11F00E94A7
:10551000870AF1E0013D1F07A9F78AE0E6EBF2E018
:10552000DF01082F1D920A95E9F7E6EAF2E0DF01B4
:105530001D928A95E9F790E080E00E946D33883EE5
:105540009E4F11F00E949D1282E090E00E94653310
:105550008093C0020E94F7109093D8028093D702E4
:1055600083E090E00E94653390E00E94E5140E9481
:10557000390F882309F4A6C083E08093F90280FDE7
:10558000A3C080E880930B030E942D306DE070E093
:1055900089E095E00E94160E892BE9F58091F902C9
:1055A00063E070E081FD92C086E095E00E94160EF7
:1055B000892B89F56DE070E086EF94E00E94160E6D
:1055C000892B49F50E94BE08605A75418F4F9F4F45
:1055D000609316057093170580931805909319052D
:1055E000EEE0F3E080E092E0DF018C011D920150DB
:1055F0001040E1F7F0931505E09314058FEF9FEF4E
:1056000090930D0380930C0381E080931B0580939E
:105610001A051092FA0290913C0181E0982790932C
:10562000D102182F191B1093B30290913C01809363
:10563000D20290913C018093B20280913C01811191
:1056400006C084EF8093740185EF809373012091ED
:105650007401E22FE295EF70F0E061A12F7081E01C
:1056600090E0AC0101C0440F2A95EAF7342F309541
:10567000362331A322A1242B22A320917301E22FF0
:10568000E295EF70F0E031A12F7001C0880F2A95EC
:10569000EAF7982F9095932391A392A1892B82A347
:1056A0008FE891E00197F1F700C000001091D2025D
:1056B00063ED72E044E751E083E7E82E81E0F82EE5
:1056C000FB012FC080E059CF80E25CCF83E095E002
:1056D0006DCFDA012D91AD01822F82958F7090E010
:1056E000DC0190968C9190E02F7002C09595879583
:1056F0002A95E2F78170D7019D917D01292F22958E
:105700002F7030E0D90190962C9130E09F7002C04C
:10571000359527959A95E2F790E020FD92E0892B48
:1057200081938E2F861B8117A0F20E94390F811161
:1057300002C00E9476318DE391E0909396058093AC
:10574000950590E4692E8091AE0500E112E1853067
:1057500009F488C00E94101A01ECE02E02E0F02E3D
:1057600086EBC82E82E0D82E2BEC32E0D601F70172
:1057700091918D912E173F0709F47EC09817C1F3C0
:105780000E94390F882E10E0D6010D916D01F701AE
:1057900091907F01901629F19026B12CAA24A39410
:1057A000892D8A21B1F08820A1F0BC861D8791E067
:1057B000802F8A2109F490E09E870E941114816055
:1057C000782F988B8F874C855D856E8588890E94A0
:1057D000A527B394AA0CF6E0BF12E2CFF7013197E8
:1057E00000831F5F1A3081F60E94BE08EE24E39406
:1057F00064C08091AE05843029F10E94400E109261
:105800009905E8E1F0E00FB6F894A895E093600000
:105810000FBE6092600083B7817F846083BF83B7CF
:10582000816083BF7894889583B78E7F83BF0FB6DE
:10583000F894A89580916000886180936000109230
:1058400060000FBE8091AD05882361F00E94101AA0
:10585000E6EBF2E081918111E0C320EC32E02E17FB
:105860003F07C1F78091AE05853009F4C2CF0E9491
:1058700000150E945C0F6ECF981382CF0E94111406
:105880008C018091B4029091B50208171907A1F01C
:105890008FEF8F83888719860E9411148160782F7B
:1058A0009B878A874F81588569858B850E94A527AC
:1058B0001093B5020093B402E12C0E94390F8823A3
:1058C00009F453C00091910510919205011511053D
:1058D000B9F08091CB029091CC020E940214803BDF
:1058E000910570F02EE0029FC0011124FC01E25BE3
:1058F000FE4F208122FD04C0875B9E4F0E94C40F93
:1059000080919101882301F180918D0590918E0500
:105910000097D1F00E94021420911F0530912005BC
:105920002817390788F490918B0580918C0598177A
:1059300009F435C10E9412271092200510921F050C
:1059400010928E0510928D0580911E05882369F0B6
:105950000E94111420911C0530911D05821B930B90
:105960008F3F9F4710F40E94F60FC12CF12C8091BD
:10597000D202C81608F41CC1F1100E948C0C809150
:105980001B05882351F18091FB029091FC020E943B
:105990000214C29708F07DC120910C0330910D03D1
:1059A0002115310509F056C280911A058823A9F006
:1059B0000E94BE0800911605109117052091180548
:1059C00030911905601B710B820B930B6F3F7F4F5A
:1059D0008F4F9F4710F40E94400EE11001C0F1105C
:1059E0000E945B0E86E0E5E0F3E0DE011196019097
:1059F0000D928A95E1F71092070310920803109216
:105A0000090310920A038B819C81892B09F44AC0F7
:105A100080910303909104030E9402149C019091D1
:105A2000FF02992309F414C325313105D8F19F3FB2
:105A300019F09F5F9093FF021B81112359F00E9480
:105A40000B0A9FEF11160CF491E0899F802D112411
:105A5000809307031C81112359F00E940B0A9FEFCA
:105A600011160CF491E0899F802D11248093080376
:105A7000309107033323B1F020910803222391F0E2
:105A800045EB3403C0011124992309F4B6C2909365
:105A9000070305EB200390011124332309F4B1C25D
:105AA000309308038D819E81892B09F44AC080912F
:105AB0000103909102030E9402149C019091FE0246
:105AC000992309F4C0C221353105D8F19F3F19F05F
:105AD0009F5F9093FE021D81112359F00E94E909F6
