:100000000C946E070C94A6070C94A6070C94173357
:100010000C94A6070C94A6070C94A6070C94A607AC
:100020000C94A6070C94A6070C9477130C942F1825
:100030000C94372B0C94A6070C94A6070C94A607D7
:100040000C94A6070C94A6070C94A6070C94A6077C
:100050000C94A6070C9450140C94A6070C94A607B5
:100060000C94A6070C94A6070C94A6070C94A6075C
:100070000C94A6070C94A6070C94A6070C94A6074C
:100080000C94A6070C94A6070C94A6070C94A6073C
:100090000C94A6070C94A6070C94A6070C94A6072C
:1000A0000C94A6070C94A6070C94A6070D000E004E
:1000B000000016000700000007000900000000050E
:1000C00001050205030504050505000601060206F3
:1000D00003060406050600070107020703070407D5
:1000E00005070008010802080308040805080009BC
:1000F00001090209030904090509000001000200C1
:1001000003000400050000010101020103010401D4
:1001100005010002010202020302040205020003BB
:1001200001030203030304030503000401040204A2
:100130000304040405040102E00102E1010150018D
:1001400003E10103E0000102E001014F0102E101CE
:1001500001500103E10103E0000102E00102E101BD
:1001600001500103E10103E00029001E001F0020EF
:1001700000210022002B0014001A000800150017AF
:1001800000290004001600070009000A00E1001D14
:10019000001B00060019000500E0000100E200B4A9
:1001A0005D2A42A800BD5D2700260025002400230B
:1001B000002F00130012000C0018001C0034000275
:1001C000570F000E000D000B00E500380037003619
:1001D000001000110028000100E400B55D2C430070
:1001E00000165C010001000100010001002B00333A
:1001F000003600370013001C000100040012000844
:100200000018000C00E100340014000D000E001B6B
:1002100000E300E200E000B45D2A42A80001000112
:1002200000010001000100010001000F001500069F
:10023000000A00090028001600110017000B000733
:1002400000E5001D0019001A0010000500B65DE66B
:1002500000E400B55D2C4300000100010001000135
:10026000000100010001001E001F002000210022EB
:100270000024021F0238022F0230025600350220ED
:10028000022202360237025700010001000100017C
:100290000001000100010001000100010001000156
:1002A00000E3002700260025002400230031021E61
:1002B000022102270226023402350031002E0030CE
:1002C000002F002D020100010001000100280001A3
:1002D000000100010001000100010001003A003BA3
:1002E000003C003D003E003F0039007B007A007C6E
:1002F000007D000100C25DBC5DC55DC35DBE5DC12A
:100300005D01000100010001004C0001000100013D
:1003100000010001000100010045004400430042CB
:10032000004100400001004B004F005200510050BE
:100330000001004E00BA5DB85DB75DB95D01000116
:10034000000100010001000100015D00000000004B
:10035000000000000000000000B25DB35D00006915
:100360000000000000B25D0000BF5D6800000000FA
:100370000000000000000000000100010001000179
:10038000000100000000000000000000000000006C
:1003900000C05D00000000B700B600A8000000002B
:1003A000000000AE00C45D000000000000B400C802
:1003B0005DC75D00000100010001000100010000B7
:1003C0000001000100010001000100010001000125
:1003D000000100FE00FF000100010001000100F12A
:1003E00000F2000100010001000100010001000114
:1003F000000100010001000100B25D0100010001E7
:10040000000100010001000100010001000100EDF8
:10041000000100010001000100F000EE00EF00F912
:100420000001000100010001000100FA00010001CB
:1004300000010001000100010029001E001F002032
:1004400000210022002B0001000100010001000139
:1004500000E00001000100010001000100E10001D5
:1004600000010001000100010001000100E20001A3
:10047000002C000100010027002600250024002395
:1004800000010001000100010001000100B25D0156
:1004900000520001000100010001004F0051005016
:1004A000000100010001000100280001002A0001F4
:1004B0000001000100010001000100010001000134
:1004C0000001000100010001000100010001000124
:1004D0000001000100010001000100010001000114
:1004E000000100010001000100B25D0100010001F6
:1004F000000100010001000100540055006100608E
:10050000005F005300010056005E005D005C0001CA
:1005100000010057005B005A005900630001000110
:1005200000620058002A00010000DA0281FFD9F1C0
:10053000DB20A4A62EAF00A0C000A1C800AED580CD
:10054000A81FD300408D1420004350534C4B000A89
:100550000A00556E6465660041646A0A0053796D4D
:10056000626C0046756E637300426173650A0042F7
:100570006173650A004C41594552000A0A00556EE4
:10058000646566004E756D700047616D65004D6F66
:100590007573650044766F72616B005177727400F9
:1005A00057494E004D414300004D4F4445000A0A53
:1005B000000000000000000000000000000000003B
:1005C000000000000000000000000000000000002B
:1005D000000000000000000000800080808000001B
:1005E00000000080C04040406020203010101018F3
:1005F000080C040404040484040404040C0808081B
:10060000081810302060C00000000000000000004A
:1006100000000000000000000000000000000000DA
:1006200000000000000000000000000000000000CA
:1006300000000000000000000000000000000000BA
:1006400000000000000000000000000000000000AA
:1006500000000040A0A0A0A000BBAAABA8BB000067
:10066000000000000000000000000000000000008A
:100670000000000000003F408080808080808080FB
:10068000800080C0F0F81F01010103020202020293
:10069000020202020202020100000000000000004B
:1006A000000000000000000000000000000000004A
:1006B000000000000000000000000000000000003A
:1006C000000000000000000000000000000000002A
:1006D0000000000E0404060400B88889888B00001E
:1006E00000000000030101010101010101010101FC
:1006F00001010101310905030301000000000000B0
:1007000000010303070F1E38E0000001020202028D
:1007100002060404040400000000000000000000C1
:1007200000000000000000000000000000000000C9
:1007300000000000000000000000000000000000B9
:1007400000000000000000000000000000000000A9
:100750000000000000000000000300030003000090
:1007600000000000000000181010101010302020B1
:100770002020604040404040404060202020203009
:100780001010180808080C040702020604040404E8
:10079000040404040C08080000000000000000002D
:1007A0000000000000000000000000000000000049
:1007B0000007087F0807003E5B4F5B3E003E6B4F23
:1007C0006B3E001C3E7C3E1C00183C7E3C18001C0E
:1007D000577D571C001C5E7F5E1C0000183C1800F3
:1007E00000FFE7C3E7FF00001824180000FFE7DB65
:1007F000E7FF0030483A060E0026297929260040F6
:100800007F05050700407F05253F005A3CE73C5A1D
:10081000007F3E1C1C0800081C1C3E7F0014227F29
:100820002214005F5F005F5F0006097F017F000008
:100830006689956A0060606060600094A2FFA2947F
:100840000008047E04080010207E20100008082AFA
:100850001C0800081C2A0808001E10101010000CAC
:100860001E0C1E0C0030383E383000060E3E0E06C0
:100870000000000000000000005F00000000070012
:10088000070000147F147F1400242A7F2A120023FB
:100890001308646200364956205000000807030020
:1008A00000001C224100000041221C00002A1C7F85
:1008B0001C2A0008083E080800008070300000086C
:1008C000080808080000006060000020100804020A
:1008D000003E5149453E0000427F400000724949B8
:1008E0004946002141494D33001814127F1000275A
:1008F00045454539003C4A49493100412111090724
:1009000000364949493600464949291E000000146D
:1009100000000000403400000000081422410014D0
:10092000141414140000412214080002015909068D
:10093000003E415D594E007C1211127C007F4949F6
:100940004936003E41414122007F4141413E007F06
:1009500049494941007F09090901003E414151735C
:10096000007F0808087F0000417F410000204041CF
:100970003F01007F08142241007F40404040007F3B
:10098000021C027F007F0408107F003E4141413E6F
:10099000007F09090906003E4151215E007F0919C7
:1009A00029460026494949320003017F0103003FDF
:1009B0004040403F001F2040201F003F4038403F44
:1009C00000631408146300030478040300615949A8
:1009D0004D4300007F414141000204081020000007
:1009E0004141417F00040201020400404040404078
:1009F000000003070800002054547840007F28447A
:100A0000443800384444442800384444287F00389F
:100A1000545454180000087E09020018A4A49C78BD
:100A2000007F080404780000447D4000002040401E
:100A30003D00007F102844000000417F4000007C02
:100A400004780478007C080404780038444444386E
:100A500000FC182424180018242418FC007C080426
:100A600004080048545454240004043F4424003C27
:100A70004040207C001C2040201C003C4030403C7A
:100A8000004428102844004C9090907C004464540A
:100A90004C440000083641000000007700000000D0
:100AA00041360800000201020402003C2623263CD5
:100AB00000000000000000404040F0F8F8FF38FF60
:100AC000F8F83FF8F8FF38FFF8F8F0404040000031
:100AD0000000000080C0C0C0800000C0C0800000D6
:100AE0000080C0C000C0C0000080C0C00000000086
:100AF00000C0C0C0C0C000C0C000000000000000B6
:100B000000000000000000000000000000000000E5
:100B100000000000000000000000000000000000D5
:100B200000000000000000000000000000000000C5
:100B3000C0F0F8FC3E1E06010000007F4141417FED
:100B4000007F4141417F000080C0E07E5B4F5BFE43
:100B5000C00000C000DCD7DEDEDED7DC00C0000055
:100B60000000000000000000000000000000000085
:100B700000000000000000494949FFFFFFFFE0DFDF
:100B8000BFBF00BFBFDFE0FFFFFFFF4949490000D3
:100B90000000001F3F6060E0BF1F007F7F071E381E
:100BA0001E077F7F007F7F0E1F3B716000000000EB
:100BB000007F7F0C0C0C007E7E007F7E0303007F95
:100BC0007E03037E7E03037F7E000F3E703C063C67
:100BD000703E0F00327B49493F7E007F7E03030059
:100BE0001E3F69696F260000000000000000000041
:100BF000030F1F3F3C7870600000007F4141417F40
:100C0000007F4141417F00307B7F78302020307869
:100C10007F3B0003000F7F0F0F0F7F0F00030000CB
:100C200000000000000000000000000000000000C4
:100C300000000000000000010101070F0F7F0F7F7F
:100C40000F0F7E0F0F7F0F7F0F0F070101010000B5
:100C50000000000000000000010100000000000092
:100C60000000000000000000000000000000000084
:100C70000000000000000000000000000000000074
:100C80000000000000000000000000000000000064
:100C90000000000000000000000000000000000054
:100CA0000000000000000000000000000000000044
:100CB0000000000000000000000000000000000034
:100CC0000000000000000000000000000000000024
:100CD0000000000000000000000000000000000014
:100CE0000000000000000000000000000000000004
:100CF0000000AF00AE05010902A10185020901A1B2
:100D000000050919012908150025019508750181BB
:100D1000020501093009311581257F950275088189
:100D20000609381581257F950175088106050C0A8D
:100D300038021581257F950175088106C0C005011F
:100D40000980A101850319012AB700150126B70002
:100D5000950175108100C0050C0901A101850419D8
:100D6000012AA002150126A002950175108100C07C
:100D700005010906A101050719E029E7150025016C
:100D80009508750181029501750881010507190013
:100D900029FF150026FF0095067508810005081932
:100DA000012905950575019102950175039101C011
:100DB00009023B00020100A0FA090400000103013E
:100DC00001000921110100012240000705810308EB
:100DD00000010904010001030000000921110100C4
:100DE00001227B000705820320000112010002009E
:100DF00000000832FC87020100010200010C0353CD
:100E0000006F0066006C00650000001A034A006F66
:100E1000007300650066004100640061006D0063BE
:100E20000069006B000000040309040000000000DA
:100E300000000000000000000000000000000000B2
:100E40000000000000000000000000000000007E24
:100E50000F00D4FFFFFFC700000078000000000073
:100E60000000002A2B280000000000000000000005
:100E700000000000000029000000002C1E3420218A
:100E80002224342627252E362D3738271E1F2021D1
:100E900022232425263333362E37381F0405060730
:100EA00008090A0B0C0D0E0F10111213141516174A
:100EB00018191A1B1C1D2F3130232D350405060768
:100EC00008090A0B0C0D0E0F10111213141516172A
:100ED00018191A1B1C1D2F3130354C0011241FBE50
:100EE000CFEFDAE0DEBFCDBF04B603FE18C08091BD
:100EF000C1059091C205A091C305B091C40587308A
:100F0000904BA740B04B59F41092C1051092C20506
:100F10001092C3051092C405E0E0F8E3099511E0D2
:100F2000A0E0B1E0E8E4FAE602C005900D92AA3E26
:100F3000B107D9F725E0AAEEB1E001C01D92A13CAE
:100F4000B207E1F70E945E2B0C9405350C9400006B
:100F5000E8EDF0E080818E7F80831092E2001092B5
:100F6000DA001092E100A0EEB0E08C9181608C93E9
:100F700080818F77808319BCA7EDB0E08C918E7F44
:100F80008C9380818F7E80831092A5050895209197
:100F9000E4003091E50095E6A9012091EC00822F54
:100FA000817020FF06C08091E80080FF06C080E0CD
:100FB00008952091E80022FD1AC08091B20588238F
:100FC00089F0853089F08091EB0085FD0FC020917C
:100FD000E4003091E50042175307F9F29150E1F631
:100FE00084E0089582E0089583E0089581E0089503
:100FF000EF92FF920F931F93CF937C018B010E947E
:10100000C707C82F811117C08091E80085FD0BC06C
:101010008091E8008E778093E8000E94C7078823BC
:1010200099F3C82F08C0F70181917F018093F100E7
:101030000150110949F78C2FCF911F910F91FF900B
:10104000EF9008958091B40587FF13C08091E80068
:1010500082FF06C08091E8008B778093E80004C08F
:101060008091B2058111F2CF08958091B205882355
:10107000D9F38091E80080FFF8CF8091E8008E7767
:10108000ECCF982F9093E900242F762F50E089170A
:1010900031F07091EC002091ED005091F00021FDB5
:1010A00007C09F5F973071F78093E90081E0089552
:1010B0003091EB003E7F3093EB003091ED003D7FAF
:1010C0003093ED003091EB0031603093EB00709382
:1010D000EC002093ED005093F0002091EE0027FDEE
:1010E000E0CF80E00895B0E0A0E0E9E7F8E00C94FC
:1010F0005134C8EDD0E088818F7E8883E7EDF0E041
:1011000080818160808384E082BF81E08093A50537
:1011100088818E7F888302EE10E0F80110821092A1
:10112000DA0081EEC82ED12CF601108288818F77EB
:10113000888388818068888388818F7D888319BCB3
:101140001092B2051092B3051092B1051092B0053D
:1011500090EEE92EF12CF70180818B7F80838881CE
:101160008160888342E060E080E00E944108F601EF
:1011700080818E7F8083F80180818160808380817F
:1011800088608083F70180818E7F80838881806181
:101190008883CDB7DEB7E8E00C946D34FC01809114
:1011A000BA059091BB0586179707A0F061157105E8
:1011B00029F49091E8009E779093E80090E0611503
:1011C000710551F4911108C08091E80082FF34C08C
:1011D00080E00895BC01F2CF8091B2058823C1F16F
:1011E0008530C1F18091E80083FD30C08091E80036
:1011F00082FDEACF8091E80080FFE1CF8091F3008B
:101200002091F200382F6115710519F02830310551
:1012100058F091E02830310509F090E02091E80085
:101220002E772093E800CBCF81918093F10061501D
:1012300071092F5F3F4FE7CF8091B205882341F0BE
:10124000853041F08091E80083FFBECF81E00895B2
:1012500082E0089583E0089508958091A705089598
:101260002FB7F89460919E0570919F058091A0051D
:101270009091A1052FBF08959C01FC0132969FEF2C
:1012800080E04191461751F09F3F19F4411101C090
:10129000982F8F5F8630A9F79F3F09F40895290F93
:1012A000311D97FD3A95F9016283089520919B05C0
:1012B00030919C052817390771F090939C05809315
:1012C0009B05E0919905F0919A05309721F00084F3
:1012D000F185E02D099508952091970530919805A5
:1012E0002817390771F09093980580939705E0913E
:1012F0009905F0919A05309721F00680F781E02D4D
:1013000009950895452B39F0682381E06F3F09F076
:1013100080E08170089581E0FCCFDC0160918F0551
:1013200080919005962F891301C00895292F30E0F0
:10133000F901EE0FFF1FE957FA4F408151814A171B
:101340005B07A1F487E08A9FA0018B9F500D1124B9
:1013500044585E4F81E0FA0184839613E6CF2F5FF5
:101360003F4F2370332720938F0508952F5F3F4F02
:10137000922F9370D8CF1092240510922305ECE79A
:10138000F1E08581811102C014821682379681E0D6
:10139000E139F807B1F70895FC01680F791F8FEF65
:1013A00091E32191822728E030E087FF09C0880F70
:1013B000892721503109C9F7E617F70791F70895F2
:1013C000880FF7CF40910B038D3E59F480910C03A9
:1013D00087FF0DC010920C0341110BC01092030344
:1013E00008C08E3E81F480910C0318169CF34423B0
:1013F00081F080910D0390910E03892B09F05AC062
:101400001092020308958F3E49F447FFF0CF1092E7
:101410000B0380910C038111ECCFE0CF803F19F4D6
:101420001416ACF3E4CF90910D03893F29F41916FB
:10143000F4F610920D03DBCF8A3F19F497FFD7CF54
:10144000F8CF90910E038B3F29F497FFD0CF1092E5
:101450000E03CDCF8C3F19F41916CCF3C8CF9FE003
:10146000980F983090F4815F990B21E030E0B9013A
:1014700002C0660F771F8A95E2F7CB0180959091A5
:101480000A03892380930A03B2CF8D3F31F4809100
:1014900004038E7F80930403AACF8E3F21F48091B2
:1014A00004038D7FF7CF8F3F09F0A1CF8091040314
:1014B0008B7FF0CF08958091040380FD16C081FDDD
:1014C00016C082FD16C0809102038823A1F08832E5
:1014D00080F428E0829FC001112468E270E00E943D
:1014E0008A34862F672B39F0089582E0089584E0CE
:1014F000089588E0089581E008958091040380FDB7
:1015000014C081FD14C082FD16C08091030388239E
:1015100081F08E3180F420E5829FC00111246EE1BC
:1015200070E00E948A34862F089584E1089588E24D
:10153000089588E0089580E508958D3E31F40E9475
:101540007D0A819580930C0308958E3E19F40E94C4
:101550007D0AF8CF8F3E31F40E947D0A81958093F9
:101560000B030895803F19F40E947D0AF8CF893F4C
:1015700029F40E945B0A80930D0308958A3F21F4A9
:101580000E945B0A8195F7CF8B3F31F40E945B0A82
:10159000819580930E0308958C3F19F40E945B0A95
:1015A000F8CF9FE0980F983070F4815F990B21E09D
:1015B00030E001C0220F8A95EAF780910A03822B5E
:1015C00080930A0308958D3F31F480910403816074
:1015D0008093040308958E3F21F480910403826078
:1015E000F7CF8F3FB9F7809104038460F1CF80E09B
:1015F0000895F894E82FE295EF70F0E031A1282FDC
:101600002F7081E090E001C0880F2A95EAF7982FAB
:101610009095932391A392A1892B82A37894089506
:101620009091DB0292FF06C0282F28712830F9F430
:10163000877F846093FF06C0282F28712831F1F43A
:10164000877E84612091DC0220FF06C0382F38712C
:101650003830D9F4877F816021FF06C0282F287198
:101660002831D1F4877E816194FD877E0895282FEB
:1016700024712430F9F68B7F8860DCCF282F247109
:10168000243101F78B7E8861DDCF382F3171313005
:1016900019F78E7F8860E0CF282F2171213121F743
:1016A0008E7E8861E1CF972F7A30A8F4663098F467
:1016B00070E026E0929F600D711D1124FB019CE3F8
:1016C000899FE00DF11D1124EE0FFF1FE759FE4F1A
:1016D00085919491089580E090E00895CF93DF93F1
:1016E000EC0182389105B1F108F040C081339105D9
:1016F00009F49DC048F58932910509F48DC08A9797
:1017000009F49CC0C11522E5D20708F0C8C0C11574
:1017100031E5D30708F02FC1C83ED10508F0A3C0BA
:10172000C13ED10588F5C83AD10508F08EC0C53A4A
:10173000D10508F004C1C130D10531F1209721F164
:10174000C430D10508F545C08533910509F45FC063
:10175000C997C1F68091DB02837009F046C1809180
:10176000DC0283FF11C0C9E2D0E00EC0833E9105C8
:1017700099F170F4803E910501F1823E910511F6D8
:101780008091DB0282FD21C0CE01DF91CF910895CF
:10179000863E910561F1873E910571F1843E910588
:1017A00009F0B0CF8091DC0281FFEECF8091DB02A7
:1017B000C7EED0E084FD0DC0E7CF8091DB0280FD55
:1017C00033C09091DC0290FFDFCFC3EED0E084FF06
:1017D000DBCFD0E0C0E0D8CF8091DB0282FD02C138
:1017E0009091DC0290FD01C184FFCECFF2CF8091B9
:1017F000DB0283FDDDCFC8CF8091DB0283FDF8C023
:101800009091DC0291FFF0CFC4EED0E0BDCF80918B
:10181000DB0285FFB9CFA7CF8091DB0285FDEBC04E
:101820008091DC0283FFB0CFC9E3D0E0ADCF8091DF
:10183000DB0286FFA9CFCAE2D0E0A6CF8091DB020F
:1018400086FFA2CFC1E3D0E09FCFCF3BD10508F602
:10185000C85AD0E0CC0FDD1FCA56DE4F0990D881A0
:10186000C02DD46491CFC11540E2D40758F4C115FE
:1018700081E0D80708F088CFCD3ED10508F4A9CF84
:10188000D06582CFC11520E4D20708F4A2CFC115DC
:1018900030E5D30708F05BC0DF70D06A75CFC115A3
:1018A00046E5D40718F5C11585E5D80708F07CC0D2
:1018B000C11524E5D20708F072C09E0123703327BA
:1018C0009C2F96959695C115D34508F459C0C1E053
:1018D000D0E002C0CC0FDD1F2A95E2F730E2939FE3
:1018E000C0011124C82BD92BDA684ECFC11589E568
:1018F000D80768F4C11528E5D20708F060C0C11503
:1019000037E5D30708F065CFDD27D0663DCFC11599
:101910004AE5D40708F458C0CE019056811590428C
:1019200008F057CF8D2F8F710E94100B90E0982FE9
:10193000882788279F719C012C2BE9013EC0C55A3E
:10194000D0E0CD56DE4FC881D0E0D0641DCFCE01AF
:101950008370992721E030E002C0220F331F8A955F
:10196000E2F7C695C69540E2C49FE0011124C22B60
:10197000D32BDD6809CFDC2FCC27C16FD06A04CF11
:10198000C1E0D0E002C0CC0FDD1F2A95E2F720E2D3
:10199000929FC0011124C82BD92BDC68F5CEDC2F17
:1019A000CC27C46FD06AF0CE8C2F0E94100BC82FAA
:1019B000D0E0DC2FCC27CC27DF71D062E5CEDC2F46
:1019C000CC27C06FD06AE0CE8C2F8F700E94100B96
:1019D00034E0D695C7953A95E1F7CF709C2FEC018E
:1019E000D069D2CEC2EED0E0CFCEC0EED0E0CCCE29
:1019F000C6EED0E0C9CEC5E3D0E0C6CE0E94300925
:101A00000895809174028111109274020895809556
:101A100090919305982390939305089580959091C4
:101A20009405982390939405089580916A0290916B
:101A30002902981301C008958F5F8770FACFB0E034
:101A4000A0E0E5E2FDE00C9450347C010091BF057C
:101A50001091C0058091D9029091DA02082B192BC0
:101A6000CFE0D0E0CC24C394D12CBC2EC6010C2EE8
:101A700002C0880F991F0A94E2F780239123892BD3
:101A800049F4219790F7B12C8B2DCDB7DEB7E9E063
:101A90000C946C34B7018C2F0E94530B0E946E0B78
:101AA000019779F3F1CFCF93DF93EC010E941F0DE3
:101AB000BE010E94530B0E946E0BDF91CF910895DF
:101AC0009A3078F5863068F5E82FF0E086E0989F48
:101AD000E00DF11D11249E2F977083E0F695E79598
:101AE0008A95E1F7EE0FFF1FEE0FFF1FE150FE4F4B
:101AF00050E040E080E0219130E0092E02C03695B0
:101B000027950A94E2F721703327042E01C0220F93
:101B10000A94EAF7822B4F5F5F4F4430510559F723
:101B2000089580E008959A3098F5863088F5E82F7A
:101B3000F0E086E0989FE00DF11D11248E2F877054
:101B400041E001C0440F8A95EAF783E0F695E795F6
:101B50008A95E1F7EE0FFF1FEE0FFF1FE150FE4FDA
:101B600030E020E070E05191DF011197CB01022EAF
:101B700002C0969587950A94E2F781708195852732
:101B8000842385278C932F5F3F4F2430310559F7ED
:101B900008950F931F93CF938C01FC0143815481CF
:101BA000618180810E948209C82F81112AC0F801B9
:101BB00086819781009791F00E946E0B92959F709D
:101BC0009630D1F080F4925F9F70923080F4803F25
:101BD00019F058F4883E58F4C1E009C08081918121
:101BE0000E94530DEBCF9A5FEFCF843FA9F38C2F68
:101BF000CF911F910F910895883E70F3813FB9F7FF
:101C0000EBCFC0E0F4CF292F332740E02115310579
:101C100011F0C90148E09C0164E0369527956A956A
:101C2000E1F72115310511F04C5FC9019C01369592
:101C30002795369527952115310511F04E5FC9017D
:101C400096958795892B09F04F5F842F0895A5E01D
:101C5000B0E0EDE2FEE00C9456349C01FC0186817C
:101C600097810097E1F485E0DE01119601900D92D5
:101C70008A95E1F7F901228189819A81222399F0DD
:101C8000662389F00E941F0D182F682F89819A8181
:101C90000E94930D69817A81812F0E94530B2596B2
:101CA000E3E00C9472340E94600D182FF3CF9C0176
:101CB0003A9521153F4150F5FC01EE27F170BC012A
:101CC00066277270AC01442754709C01222738703B
:101CD00094FF0EC080E1EF2B09F480E0672B09F040
:101CE0008062452B09F08064232B89F08068089579
:101CF00081E0EF2B09F480E0672B09F08260452B2F
:101D000009F08460232B19F08860089580E008951D
:101D10008093A2057093A4056093A3058091B205FA
:101D2000843001F582E08093E9008FEF9091E80024
:101D3000815095FD06C095ED9A95F1F7000081114F
:101D4000F5CF8091E80085FF0DC050E040E063E0F2
:101D500070E082EA95E00E94F8078091E8008E77B3
:101D60008093E8000895BC0184E00E94880E0895E5
:101D7000BC0183E00E94880E08959C0182E080935C
:101D8000E9009FEF8091E800915085FD06C085ED48
:101D90008A95F1F700009111F5CF8091E80085FF59
:101DA0000CC050E040E066E070E0C9010E94F80716
:101DB0008091E8008E778093E8000895CF93DF93B9
:101DC000EC0181E08093E9008FEF9091E800815071
:101DD00095FD06C095ED9A95F1F700008111F5CFBC
:101DE0008091E80085FF14C050E040E068E070E0BA
:101DF000CE010E94F8078091E8008E778093E8007A
:101E000088E0FE01A8EAB5E001900D928A95E1F71D
:101E1000DF91CF910895B0E0A0E0E1E1FFE00C9404
:101E20004F347C015B016A018091A50201E010E062
:101E30008A3010F40AE010E0C1E0D0E0B501C7013B
:101E4000F6010995811104C021960C171D072CF489
:101E5000CDB7DEB7EAE00C946B34CC9F9001CD9FF8
:101E6000300D300D112490E080E045E34A95F1F704
:101E70000000019682179307C1F7E0CF809182029C
:101E8000811110C08091D80080618093D8008AE1D0
:101E90008A95F1F700C08091D90080FF0AC081E0E7
:101EA0008093820281E090918202913009F080E07B
:101EB000089582E0809382020E94A8071092B205E2
:101EC000F1CF0E943E0F882359F0E0919905F091DF
:101ED0009A05309729F00190F081E02D0995089539
:101EE00080E00895B0E0A0E0E8E7FFE00C94513412
:101EF0006C017B0164E670E088E70E949131EC019F
:101F000097FD12C010E000E0F601E00FF11F849190
:101F100064E670E00E94FD31EC01892B29F40F5F2B
:101F20001F4F0E151F0581F70E947332CE01CDB7EA
:101F3000DEB7E8E00C946D3480911E0590911F058A
:101F4000911103C091E089270895882369F062E028
:101F500070E083EF9CE00E94720F892B19F0809152
:101F60001E05089510921E0580911E05EBCFCF939C
:101F7000C0911E0580911F058823D1F00E94300971
:101F8000605A75418F4F9F4F60931A0570931B05E0
:101F900080931C0590931D05C11108C062E070E09C
:101FA00081EF9CE00E94720F892B29F0C0911E05E1
:101FB0008C2FCF91089581E080931E05F7CF8091FB
:101FC000940590919305892B8093EC019091740274
:101FD000992391F0892B8093EC0120E08EEE91E023
:101FE000FC013191CF0131112F5FF1E0843F9F0758
:101FF000B9F721110E94010D48E050E06CE672E053
:102000008CEE91E00E94AD34892BA9F088E0ECEED3
:10201000F1E0ACE6B2E001900D928A95E1F7E09133
:102020009905F0919A05309731F00280F381E02D07
:102030008CEE91E009950895CF93DF93EC01EA854A
:10204000FB85309719F06C857D8509958B810E9401
:10205000070D8C810E940E0D0E94DF0F86E0FE01AD
:1020600011928A95E9F7DF91CF910895CF93DF938D
:10207000EC018D8181FD18C082608D838091930574
:102080009B81892B80939305809194059C81892B5A
:10209000809394050E94DF0FE885F985309721F041
:1020A0006C857D85CE010995109296051092950557
:1020B0008D8180FD03C0CE010E941C10DF91CF9165
:1020C0000895882321F00E94070D0E94DF0F0895D4
:1020D00080912205882329F082E20E9461101092EB
:1020E00022050895882339F090919305982B9093B9
:1020F00093050E94DF0F0895882321F00E940E0DA2
:102100000E94DF0F0895882339F090919405982B51
:10211000909394050E94DF0F08951F93CF93DF9350
:10212000162F8A3039F481E00E943011DF91CF916F
:102130001F9108958D3011F480E0F6CFC0911805FD
:10214000D091190596E0FE01A2E1B5E001900D9253
:102150009A95E1F7803E90F186E0FE0111928A9512
:10216000E9F7C0911805D0911905111133C046E067
:1021700050E0BE0182E195E00E94AD349E01225103
:102180003340892B91F52A5F3F4F40910F03642F15
:1021900070E0C9010E943334481B463010F4240F0C
:1021A000311D211572E0370710F030E020E02E5E7F
:1021B0003C4F3093190520931805B8CFF6E08F9F58
:1021C000B00111246F54784F46E050E0CE010E94D8
:1021D000A434C7CF9E012A5F3F4FFE012E173F0751
:1021E00031F2808180958193F9CFC90145E09695C0
:1021F00087954A95E1F741E050E0BA0102C0660FC9
:10220000771F8A95E2F7CB0160911003709111035B
:10221000862B972BB9016B5F7F4FE5E0769567952D
:10222000EA95E1F702C0440F551F6A95E2F7842B47
:10223000952B9093110380931003A5CF1F93CF93F9
:10224000DF93EC01162FFE018491811104C0DF9110
:10225000CF911F910895612F0E948D102196F3CF89
:10226000CF93382FE0911805F0911905E251F34012
:1022700020910F03622F70E0CF010E943334281B9E
:10228000822F332369F066E00E947E34C82FC1504C
:1022900010F4CF91089560E080E20E948D10F7CF96
:1022A0009F01280F311D2115324018F080E0F0E029
:1022B000E0E08E0F9F2F911D8E5E9C4F909319052D
:1022C00080931805E6CF0E941E1181E00E94301114
:1022D0000895CF9384E090E00E94C334C82F82E237
:1022E00090E00E94C334982F8C2FCF910895CF9205
:1022F000DF92EF92FF921F93CF93DF930F92CDB7B0
:10230000DEB720911E0529838091A002C090A10212
:10231000D090A202E090A302F090A4029FB7F8949C
:1023200040919E0550919F056091A0057091A10577
:102330009FBF4C195D096E097F094436510561053F
:10234000710528F490E011E02817190621F1809119
:102350003501909136018C569D4F4091340150E0EB
:102360004115510511F041E050E0BE016F5F7F4F14
:102370000E94BA3485E090E00E94BD33182F882374
:1023800051F00E9430096093A1027093A2028093E1
:10239000A3029093A402812F0F90DF91CF911F9100
:1023A000FF90EF90DF90CF900895A4E0B0E0EBEDC8
:1023B000F1E10C945534409190025091910260915A
:1023C0009202709193022FB7F89480919E0590919C
:1023D0009F05A091A005B091A1052FBF841B950B6F
:1023E000A60BB70B11E084369105A105B10590F15C
:1023F0000E943E0F882399F10E9430096E5F7F4F43
:102400008F4F9F4F69837A838B839C8380912D01AB
:1024100090912E018C569D4F40912C0150E04530FB
:10242000510510F044E050E0BE016F5F7F4F0E9405
:10243000BA3484E090E00E94BD33182F882351F015
:102440000E943009609390027093910280939202EF
:1024500090939302812F2496E4E00C9471340E94AF
:1024600030090091A6021091A7022091A802309194
:10247000A902600F711F821F931FC0CF4F925F92FE
:102480007F928F929F92AF92BF92CF92DF92EF9204
:10249000FF920F931F93CF93DF930F92CDB7DEB7C9
:1024A000C62E4A015901482E880F5508C2010E94C4
:1024B000BD33782E882309F480C0C20133E0880F31
:1024C000991F3A95E1F7FC01E45FFE4F438150E02C
:1024D0004115510511F041E050E0845F9E4FFC0131
:1024E000648175816C567D4FCE0101960E94BA348D
:1024F000F40140815181628173812FB7F8948091FA
:102500009E0590919F05A091A005B091A1052FBFB8
:10251000841B950BA60BB70B84369105A105B1055D
:1025200040F4B701C8010E94CC099981891709F4C8
:1025300044C00C2C000CDD08C6010E94BD33782E6F
:10254000811113C0712C872D0F90DF91CF911F91B6
:102550000F91FF90EF90DF90CF90BF90AF909F9042
:102560008F907F905F904F900895C60123E0880F71
:10257000991F2A95E1F7FC01E45FFE4F438150E08B
:10258000E416F50608F4A701845F9E4FFC01648100
:1025900075816C567D4FC5010E94BA34B701C801E0
:1025A0000E94CC0999818913CDCF0E943009F40192
:1025B0006083718382839383C6CFA701B801C5016D
:1025C0000E94BA34C0CFA5E0B0E0E9EEF2E10C948D
:1025D00051346B0185E0E82EF12C05E912E09E01F3
:1025E0002F5F3F4F48E852E061E080E00E943E12DA
:1025F000882349F095E0FE013196A3E8B2E001900E
:102600000D929A95E1F795E0E3E8F2E0D6010190AA
:102610000D929A95E1F72596E8E00C946D3468EEFA
:102620007EEF90E080E00E94EF3460E082E090E096
:102630000E94D13460E083E090E00E94D134109297
:10264000DA021092D90260E084E090E00E94D13476
:1026500064E082E290E00E94D13460E085E090E0A6
:102660000E94D13460E086E090E00E94D1346FEFA8
:1026700087E090E00E94D13440E050E0BA0188E069
:1026800090E00E94E33460E08DE090E00E94D1345D
:1026900040E050E0BA0188E190E00E94E33460E05D
:1026A00087E190E00E94D13440E050E0BA018CE133
:1026B00090E00E94E33470E060E080E290E00E94ED
:1026C000EF3440E050E0BA0188E190E00E94E3344A
:1026D00040E050E0BA018FE090E00E94E33440E037
:1026E00050E0BA0183E190E00E94E33408951F9224
:1026F0000F920FB60F9211242F933F934F935F9336
:102700006F937F938F939F93AF93BF93EF93FF93B9
:102710008091E10082FF09C08091E20082FF05C044
:102720008091E1008B7F8093E1008091DA0080FF4F
:1027300024C08091D80080FF20C08091DA008E7F75
:102740008093DA008091D90080FF9DC080E189BD2F
:1027500082E189BD09B400FEFDCF81E08093B2051E
:102760008091A505811109C00E94A8070E947308E5
:102770008091E20084608093E2008091E10080FF1C
:1027800017C08091E20080FF13C08091E2008E7F2D
:102790008093E2008091E20080618093E20080916A
:1027A000D80080628093D80019BC85E08093B20580
:1027B0008091E10084FF2BC08091E20084FF27C05C
:1027C00080E189BD82E189BD89B5982F917080FF34
:1027D000FBCF8091D8008F7D8093D8008091E1005D
:1027E0008F7E8093E1008091E2008F7E8093E200F3
:1027F0008091E20081608093E2008091B30588239C
:1028000009F447C084E08093B2058091B2058091BD
:10281000E10083FF27C08091E20083FF23C0809105
:10282000E100877F8093E10082E08093B2051092FF
:10283000B3058091E1008E7F8093E1008091E200FA
:102840008E7F8093E2008091E20080618093E200BD
:1028500042E060E080E00E9441088091F0008860E2
:102860008093F000FF91EF91BF91AF919F918F9175
:102870007F916F915F914F913F912F910F900FBE7C
:102880000F901F90189519BC1092B2051092A505D3
:1028900074CF8091E30087FD93E09093B205B5CFAC
:1028A00078941F921FB61F9211248F939F93AF931A
:1028B000BF9380919E0590919F05A091A005B09136
:1028C000A1050196A11DB11D80939E0590939F05C2
:1028D000A093A005B093A105BF91AF919F918F9157
:1028E0001F901FBE1F9018959C014FB7F8948091C0
:1028F0009E0590919F05A091A005B091A1054FBFA5
:10290000821B930B08952FB7F89480919E059091A8
:102910009F05A091A005B091A1052FBF08958091BA
:10292000220581110FC0109294050E94010D0E9492
:10293000831488579C4E909321058093200581E055
:102940008093220508950E9483149C0190910B03AB
:1029500080910C03982B21F03093080320930703F8
:1029600090910D0380910E03982B21F03093060374
:1029700020930503E0919905F0919A05309749F06D
:1029800082E0809309030480F581E02D89E093E0E3
:102990000995089590E080E00E946C0990E080E045
:1029A0000E945609109293050E94DF0F86E0E9E02D
:1029B000F3E0DF011D928A95E9F71092030310926C
:1029C0000203109204030E94A31408959093C0057B
:1029D0008093BF050E94CA1408958091BF0590910D
:1029E000C0059C012C7033272C30310521F4806107
:1029F0000E94E61408958F7EFBCF21E030E002C0F4
:102A0000220F331F8A95E2F7209530958091BF05FC
:102A10009091C005822393230E94E614089590911B
:102A20006B028095892380936B02282F277091F485
:102A3000282F082E000C330B9217130659F0909193
:102A4000DC0292FF07C08595859585950E94FD144F
:102A500010926B020895CF93C091DC02C2FB9927BC
:102A600090F9981791F080FBC2F9C093DC02609155
:102A7000DB0284E090E00E94D1346C2F82E290E08F
:102A80000E94D13482E00E940F15CF91089521E079
:102A900030E002C0220F331F8A95E2F78091BF0514
:102AA0009091C005822B932B0E94E6140895909379
:102AB000DA028093D9020E94CA140895CF93DF935B
:102AC000C1E0D0E002C0CC0FDD1F8A95E2F76C2F89
:102AD00083E090E00E94D134CE010E945715DF912F
:102AE000CF91089510929405EEEEF1E086E0DF01BB
:102AF0001D928A95E9F70E94CA140895AAE2B0E0EF
:102B0000E4E8F5E10C94563484EB95E02091F10073
:102B1000FC012193CF01F5E08C3B9F07B9F7809131
:102B2000B505833009F470C0B8F4813009F447C0AA
:102B3000823009F4B1C08091E80083FF7EC28091A9
:102B4000B4059091B5059A3008F077C2E92FF0E00E
:102B5000E95FFA4C0C949E348A3009F48CC08B30B7
:102B600009F46FC0893039F78091B405813219F7C3
:102B70008091B8059091B9050297E8F68091E80038
:102B8000877F8093E8008091E80082FF38C09091B1
:102B9000F3008091F200029731F48091F1008130CE
:102BA00011F0863021F48091F1008093A705809187
:102BB000E8008B778093E8000E942208BCCF8091C8
:102BC000B405813A09F0B7CF8091E800877F809300
:102BD000E8008091B8059091B905892B61F468E00F
:102BE00088EA95E070E00E94CE088091E8008B773B
:102BF0008093E800A0CF60E090E080E0F3CF809188
:102C0000B2058111C0CF97CF8091B405813A09F008
:102C100092CF8091B8059091B905892B09F08BCF9F
:102C20008091E800877F8093E8008091E80080FF32
:102C3000FCCF809192018093F1008091E8008E7723
:102C4000B9CF8091B405813209F075CF8091B80574
:102C50009091B905892B09F06ECF8091E800877FAC
:102C60008093E8000E9422088091B605809392012B
:102C70000E94721560CF8091B405813209F05BCF5C
:102C80008091E800877F8093E8000E94220880916D
:102C9000B7058093A6054FCF8091B405813A09F01E
:102CA0004ACF8091E800877F8093E8008091E80018
:102CB00080FFFCCF8091A605BECF803899F0823886
:102CC00009F0BBC18091B8058F70873008F0B5C19D
:102CD0008093E9008091EB0085FB882780F91092B2
:102CE000E90006C08091B0059091B1059111826014
:102CF0009091E800977F9093E8008093F100109204
:102D0000F1008091E8008E7794C1882309F482C194
:102D1000823009F092C18091B605811185C1809100
:102D2000B8058F702FEF280F263008F086C18093EA
:102D3000E9002091EB0020FF77C1933031F48091BE
:102D4000EB0080628093EB006FC19091EB0090618B
:102D50009093EB0021E030E001C0220F8A95EAF762
:102D60002093EA001092EA008091EB008860EACF9D
:102D7000811163C11091B6051F778091E3008078BF
:102D8000812B8093E3008091E800877F8093E800A7
:102D90000E9422088091E80080FFFCCF8091E30030
:102DA00080688093E30082E0111183E08093B20594
:102DB00044C18058823008F040C18091B60590919E
:102DC000B7058C3D23E09207A1F583E08A838AE270
:102DD00089834FB7F894DE01139620E03EE051E27C
:102DE000E32FF0E050935700E49120FF03C0E295F9
:102DF000EF703F5FEF708E2F90E0EA30C0F0C79623
:102E00008D939D932F5F243159F74FBF8091E80038
:102E1000877F8093E8006AE270E0CE0101960E940D
:102E2000CE088091E8008B778093E80006C1C096B9
:102E3000E7CF4091B8055091B905292F33272330AA
:102E4000310509F444C078F52130310509F46FC02B
:102E50008BE390E0E0EBFDE02230310509F0EDC0BE
:102E60002091E800277F2093E8002091BA05309157
:102E7000BB058217930708F49C0140E0211531053A
:102E800009F064C0411162C08091E80082FDC9CFA1
:102E90008091B205882329F2853019F28091E800EB
:102EA00083FFF2CFBECF21323105A9F122323105A5
:102EB00009F0C3C04115510509F443C04130510523
:102EC00009F0BBC08BE790E0E5EFFCE0C9CF9927A4
:102ED00081309105C1F0009759F0029709F0ADC01B
:102EE000EDEFFDE0E4918E2F90E0EDEFFDE007C007
:102EF000E7E2FEE0E4918E2F90E0E7E2FEE000974B
:102F000009F49BC0ADCFEBE0FEE0E4918E2F90E0A2
:102F1000EBE0FEE0F4CF4115510571F04130510571
:102F200009F08BC089E090E0EBEDFDE099CF82E104
:102F300090E0EBEEFDE094CF89E090E0E2ECFDE084
:102F40008FCF80E490E0E0E7FDE08ACF8091B2058A
:102F5000882309F466CF853009F463CF8091E800B7
:102F600083FD5FCF8091E80082FD8ECF8091E800E5
:102F700080FF84CF9091F3008091F20021153105FC
:102F800019F08830910550F041E0089709F040E0D1
:102F90008091E8008E778093E80070CF4491409351
:102FA000F1003196215031090196E8CF803809F0BF
:102FB00044C08091E800877F8093E8008091B3054A
:102FC0008093F1009ECE811138C01091B605123069
:102FD000A0F58091E800877F8093E8001093B30507
:102FE0000E942208112311F084E005C08091E300C3
:102FF00087FDFACF81E08093B20542E061EC81E089
:103000000E94410842E261EC82E00E944108809106
:10301000B20513C08091B605813079F481E0933018
:1030200009F080E08093B1051092E9008091E800FA
:10303000877F8093E8000E9422088091E80083FF48
:103040000AC08091E800877F8093E8008091EB00C0
:1030500080628093EB00AA96E3E00C9472341F9296
:103060000F920FB60F9211242F933F934F935F93BC
:103070006F937F938F939F93AF93BF93CF93DF9380
:10308000EF93FF93D091E900DF708091EC00C82F9F
:10309000C17080FDC0E81092E9008091F000877F48
:1030A0008093F00078940E947E151092E900809140
:1030B000F00088608093F000CD2BCF70C093E900C2
:1030C000FF91EF91DF91CF91BF91AF919F918F9140
:1030D0007F916F915F914F913F912F910F900FBE14
:1030E0000F901F9018950E9472152FEF84E39CE0BB
:1030F000215080409040E1F700C0000088E19CE052
:103100000FB6F894A895809360000FBE909360006E
:10311000FFCF8823C9F19CEF980F913A78F4EEEE37
:10312000F1E09191891303C0DF0111971C9291E0A6
:10313000E43FF907B1F70E94DF0F089590E2980F7E
:10314000983050F4877091E001C0990F8A95EAF7A2
:10315000892F0E940E0DEFCF9BE5980F933028F436
:1031600090E080E00E946C09089598E5980F9731EF
:1031700028F490E080E00E94560908958D3E20F0EA
:103180000E94E2090E94A3140895CF93DF93EC01FB
:103190000E948918CE010E94570E9E01205E3109BF
:1031A0002830310510F0CD2B29F40E947C10DF91DE
:1031B000CF9108950E946110FACFFC018281813085
:1031C00061F48FE39CE90197F1F700C00000FB0177
:1031D000808191810E94C51808958230E9F7FB0132
:1031E00082819381F7CFCF93C82F8823B1F08CEFE2
:1031F0008C0F813A00F5EEEEF1E084EF91E0DF0113
:103200002D91C21761F08A179B07D1F76C2F8CEEB6
:1032100091E00E943C090E94DF0FCF910895219117
:10322000C21303C0DF0111971C928E179F07B9F7D5
:103230000E94DF0FEBCF80E28C0F883068F4C770FC
:1032400021E030E001C0220FCA95EAF78091940591
:10325000822B80939405DFCFEBE5EC0FE33040F455
:10326000F0E0ED56FE4F808190E00E946C09D5CFD2
:10327000E8E5EC0FE73150F4F0E0EE0FFF1FEA56FF
:10328000FE4F808191810E945609C7CFCD3E28F222
:103290008C2F0E949D0A0E94A314BFCF1F93CF932F
:1032A000DF93182FCAE0D0E0893311F4C0E5D0E0F5
:1032B000812F0E94F3188FE99FE00197F1F700C07A
:1032C00000002197C1F7812F0E948918DF91CF91CB
:1032D0001F910895B0E0A0E0E0E7F9E10C944F34CD
:1032E000EC018AE0A82EFE012491222309F497C064
:1032F000213009F03EC031968491813031F422961C
:10330000FE0184910E944E1907C0823039F4229642
:10331000FE0184910E94F3182196E5CF833031F4A9
:103320002296FE0184910E948918F6CF843009F01C
:1033300074C02296FE01249190E080E0FE01319657
:103340002053330B2A30310548F0019728F3EFE979
:10335000FFE03197F1F700C00000F7CFA89EA00171
:10336000A99E500D1124C901840F951F2491EF01CE
:10337000E5CFE22FF0E0E55AF14FB490822F869529
:103380008695869590E0FC01E55BF14FE49027700F
:10339000F12C022E02C0F594E7940A94E2F731E092
:1033A000E322FF24FC01E55CF14FC490D12C022EF6
:1033B00002C0D594C7940A94E2F7E1E0CE22DD245E
:1033C000FC01E55DF14F049110E002C015950795F1
:1033D0002A95E2F701701127E114F10419F081EE4A
:1033E0000E94F318C114D10419F086EE0E94F3185C
:1033F0008B2D0E944E19C114D10419F086EE0E9443
:103400008918E114F10419F081EE0E948918011560
:10341000110509F481CF8CE275CFEF017DCFCDB7D7
:10342000DEB7EAE00C946B340F931F93CF93DF93D6
:10343000C62FD42F022FFC0182818823A9F060932C
:10344000BE050E9483149093BD058093BC05C77090
:1034500081E001C0880FCA95EAF70E948310DF91CE
:10346000CF911F910F9108958091BE05681332C0CE
:103470008091BC059091BD050E9474148F3A91050E
:1034800048F510E21D0FCD17B9F080E28C0F88309F
:1034900040F4C77081E001C0880FCA95EAF70E9426
:1034A0007C10183048F481E09D2F977001C0880F80
:1034B0009A95EAF70E948310802F0E944E191830C7
:1034C00070F6D77081E001C0880FDA95EAF70E94A4
:1034D0007C10C5CFC77081E001C0880FCA95EAF79C
:1034E000F6CFCF93DF93EC010E94570E9E01205E32
:1034F00031092830310510F0209741F40E948310E3
:103500008C2F0E94F318DF91CF9108950E947210C2
:10351000F7CFFB01808191810E94711A0895CF93AA
:10352000DF93EC018A81823041F4FB018281938137
:103530000E94711A8D8182608D83DF91CF910895F1
:10354000811108C089EA611101C08AEA0E944E19FE
:1035500081E008958130E1F7662399F08DE193E0F1
:103560000E94711A8AE090E0EFE9FFE03197F1F7ED
:1035700000C000000197C1F78DE193E00E94C518DB
:10358000E7CF8DE191E00E94711A8AE090E0EFE9C7
:10359000FFE03197F1F700C000000197C1F78DE11E
:1035A00091E0ECCFA1E0B0E0E8EDFAE10C9450340A
:1035B000EE24E394F12C0BE912E09E012F5F3F4FC4
:1035C0004CE852E063E082E00E943E12C82E88235D
:1035D00039F100E080E01DC0D090B702D00E2D2D53
:1035E00030E0A9014F525D4F7A01E1E0F0E0EC0FCD
:1035F000FD1FE00FF11D1081FA019081191BB12E02
:103600001B149CF0912F17FD90E0191B111118C08D
:103610000F5F9091B6020917F8F281110E94FE0C1B
:103620008C2D2196E9E00C946C34BA94F7018081DA
:103630008F5F808360E08D2D0E94A01A8C2DE0CFDB
:103640001F5FF70180818150808361E08D2D0E9492
:10365000A01A8C2DDBCFAFE0B0E0E1E3FBE10C94EE
:103660004C348E010F5F1F4F8AE0D8011D928A955E
:10367000E9F786ECC82E81E0D82EF12CE12CAA24A3
:10368000A394B12C21ED822E21E0922EF60181919E
:103690006F018F3F09F442C0F894E82FE295EF7074
:1036A000F0E021A18F70A50102C0440F551F8A953B
:1036B000E2F7CA01922F982B91A392A180958923BA
:1036C00082A3789400C0EBECF1E0712C31E0219101
:1036D0002F3F09F46BC0A22FA295AF70B0E0909677
:1036E0008C9190E02F7002C0959587952A95E2F70E
:1036F00080FD5CC0832F782A330F8E169F0639F722
:10370000F601319780818F3F11F00E94F90A50EA4B
:103710005A95F1F7F801EE0DFF1D70828FEFE81A50
:10372000F80A95E0E916F10409F0B0CF4AE050E05C
:10373000B8018AEA92E00E94AD34009741F02AE095
:10374000F801AAEAB2E001900D922A95E1F7009102
:10375000B502892B69F181E0809377020E9483147E
:103760009093760280937502809175029091760213
:103770000E947414059700F110E006541D4F45E0B7
:1037800050E06AEA72E0C8010E94AD34D12C892B66
:1037900051F085E0EAEAF2E0D80101900D928A95B5
:1037A000E1F7DD24D3941092770207C080E0A3CF25
:1037B000809177028111D8CFD12C0E943E0FC82E64
:1037C000E091B502DE011B967D01882309F48BC0D0
:1037D00085E01D928A95E9F70E2F10E006541D4FE3
:1037E0008091A5028A3008F04BC043EE52E1B70148
:1037F000C8010E940B0F882309F464C042ED5AE10E
:10380000B701C8010E940B0F882309F45BC045ED86
:1038100051E1B701C8010E940B0F882309F452C07F
:1038200047E751E1B701C8010E940B0F882309F453
:1038300049C01092A5028091B40290E045E050E0AA
:10384000B70186549D4F0E94AD3421E02093810240
:10385000892B59F5C12C80917C02882359F08091E5
:103860007A0290917B020E9474148F3E924010F075
:1038700010927C028C2D8D292F96EDE00C946834EB
:1038800080917802909179020E947414843F914053
:1038900008F0ABCF809181028823E1F285E0F70147
:1038A00011928A95E9F710928102A091B402B0E0DA
:1038B000A654BD4F85E0FE013B9601900D928A957E
:1038C000E1F7C9CF8091A5028F3F31F08F5F8093E0
:1038D000A5028A3008F4AFCF0E9483149093790236
:1038E00080937802D7CFF0E0E654FD4F85E0A5E95C
:1038F000B2E001900D928A95E1F765E070E085E90C
:1039000092E00E94CC09809394024091D60250E04C
:103910006091D50270E06F527D4FC7010E94BA34AA
:103920008B8580939B0261E070E0C7010E94CC0907
:1039300080939A0280909C0290909D02A0909E029B
:10394000B0909F0280917D0290917E02A0917F02B3
:10395000B091800288169906AA06BB06D1F0809223
:103960007D0290927E02A0927F02B09280020E941D
:103970003E0F81110EC00E943009861A970AA80ACC
:10398000B90A8092A6029092A702A092A802B092D1
:10399000A9028091A002882319F00E94B70F6ACF74
:1039A0000E949C0F67CFB0E0A0E0E9EDFCE10C9431
:1039B0004F348C01DC0113964D915C911497119654
:1039C0006C9111978C910E948209C82E811183C13C
:1039D00061E0C8010E94270EEC01F8018281882372
:1039E000E1F080919505909196050097B1F0C81788
:1039F000D90799F0FEE08F9FC0011124FC01E25B22
:103A0000FE4F208124602083875B9E4FDC01CD9395
:103A1000DC930E94361010929305C93CBDE5DB078C
:103A200011F40C94592510927C02CE018D7F8D34B7
:103A3000910519F481E08093FC01CB3BEDE5DE07B5
:103A400009F4C7C108F0D1C0C43B2DE5D20709F481
:103A500056C108F09DC0CC37D10509F4CAC108F0A1
:103A60007FC0CA37D10509F4EAC1CB37D10509F4C3
:103A7000D7C1CE0197558F3F910511F008F07AC25A
:103A80005E01BB242EE0C29FF0011124AF01475B11
:103A90005E4F7A01D80112968C91E25BFE4F9081C5
:103AA00080FB90F99083882309F45CC20E94831400
:103AB0009093D0028093CF02F70182818F5F82833F
:103AC0008091930590919405892B83838091740252
:103AD00084830680F781E02D309731F0D7011C9662
:103AE0006D917C91C70109958EE08A9DF0018B9DB7
:103AF000F00D1124E75BFE4F858181FF30C290E01D
:103B000080E09093950580939605F09074028091E3
:103B10009405F82A80912205811141C2B2E2FB127C
:103B200002C00E948F14C43FECE5DE0709F42AC3EB
:103B300008F0C5C2C93D2CE5D20709F41FC3CA3D30
:103B40003CE5D30709F42AC3C83D4CE5D40709F086
:103B5000C5C226E241EE61EEC8010E94141AACC053
:103B6000C23B4DE5D40709F4A0C008F0B9C0CD3779
:103B7000D10509F07ECF81E00E94100BD80112968A
:103B80009C91992309F448C10E94831089E13BC1AB
:103B9000C73B8DE5D80709F4D3C0A0F4C53BADE51C
:103BA000DA0709F4BBC0C63BBDE5DB0709F061CF0E
:103BB000D80112968C91882309F4B8C084E00E9441
:103BC00047157AC0F80192818091DC02C93BFDE57E
:103BD000DF0709F4EFC008F4D4C08170992309F419
:103BE000F4C08111DAC08DE4BAC0C23C3DE5D30710
:103BF00009F460C158F5CE3B5DE5D50709F42FC146
:103C0000A0F4CC3B9DE5D90709F435C1CD3BADE52A
:103C1000DA0709F02ECFF8018281882309F440C128
:103C200083EE0E94F3188CE2EEC0F8018281C03C62
:103C3000FDE5DF0709F45FC008F459C0882309F4E3
:103C400034C181EE0E94F3188BE2DDC0C53C3DE536
:103C5000D30709F44CC180F4C33C5DE5D50709F4F2
:103C600038C1C43C8DE5D80709F003CFF801828143
:103C7000882311F187E01EC0C73C9DE5D90709F4F0
:103C800051C108F447C1C83CBDE5DB0709F0F1CEDE
:103C9000F8018281882309F45AC180EE0E94F3184A
:103CA00081EE0E94F31887E1AEC0F801828188237B
:103CB00019F080E00E945E1580916B02877059F0C8
:103CC000F8018281882339F08091DC0282FF03C0F1
:103CD00082E00E940F15CDB7DEB7EAE00C946B349A
:103CE000D80112968C91882339F381E0E3CF8823A1
:103CF00019F385E0DFCF8823F9F286E0DBCFD80126
:103D000012968C91882331F082E00E9447150E9420
:103D1000ED14D2CF82E00E94FD14F9CFF801828128
:103D2000882311F083E0F1CF83E0F5CF84E00E9497
:103D3000FD14C2CF86E491E0CFC686E391E0CCC605
:103D40008091DC028170F8019281992369F08823C7
:103D500049F084E00E94100B0E94831080E50E94CD
:103D6000F31887CE81E0F6CF882349F084E00E94E3
:103D7000100B0E947C1080E50E9489187ACE81E0A9
:103D8000F6CF8170992359F0882339F084E00E949E
:103D9000100B0E9483108FE4E2CF81E0F8CF8823DC
:103DA00039F084E00E94100B0E947C108FE4E4CF75
:103DB00081E0F8CF8170992321F08111D3CF8AE47B
:103DC000CECF8111DCCF8AE4D7CF8111F1CF8DE442
:103DD000D3CF81E00E94100BD80112969C919923B9
:103DE00021F00E9483108AE2BACF0E947C108AE2FE
:103DF000C3CF81E00E94100BF8019281992331F02A
:103E00000E94831086E00E94F31856CF0E947C1017
:103E100086E00E94891850CF0E947C1089E1F9CF7A
:103E200081E00E94100BF8019281992321F00E94F9
:103E300083108BE1E8CF0E947C108BE1EACF81E018
:103E40000E94100BD80112969C91992321F00E9498
:103E500083108DE1D8CF0E947C108DE1DACFF8017C
:103E60008281882321F083EE0E94F3188FCE83EEA7
:103E70000E948918D3CFD80112968C91882341F0E3
:103E800083EE0E94F31881EE0E94F31886E1BBCF07
:103E900083EE0E94891881EE0E94891886E1B9CFCD
:103EA00083EE0E9489188CE2B4CF81EE0E948918BB
:103EB0008BE2AFCFD80112968C91882329F080EE47
:103EC0000E94F31888E39FCF80EE0E94891888E350
:103ED000A0CFF8018281882329F080EE0E94F31898
:103EE00089E091CF80EE0E94891889E092CFD801B5
:103EF00012968C91882339F080EE0E94F31881EE9F
:103F00000E94F318A6CF80EE0E94891881EE0E94CD
:103F10008918A3CFF8018281882311F082EE92CE16
:103F200082EEC4CFD80112968C91882341F082EEA4
:103F30000E94F31881EE0E94F31881E564CF82EEAF
:103F40000E94891881EE0E94891881E562CF80EE77
:103F50000E94891881EE0E94891887E15ACF9C2F10
:103F60008D2FCFCDFA01858181FFCFCDCA010E946F
:103F70001C10CBCDCD3AFDE5DF0709F0C6CDD80149
:103F800012968C91882309F497CE8091220588237C
:103F900019F00E94681090CE0E948F148DCE0E945E
:103FA000831488579C4E9093210580932005F80137
:103FB0008281882309F4B7CD8F2D8D7909F04FC008
:103FC000C115F5E5DF07C8F4C11523E5D20708F0F0
:103FD000AACDC11530E5D30758F4C11540E4D40784
:103FE00008F048C0C63ED10509F49DCDCE0149C0B8
:103FF000C11552E5D507D0F796CDC11589E5D8078B
:10400000E8F4C11598E5D90708F08DCDC431A5E5D0
:10401000DA0709F488CDCE01C431B5E5DB0788F1B4
:1040200096558F3F910509F008F7C13FF6E5DF0788
:1040300008F079CDD80115968C911EC0CE0190560E
:104040008115904298F6D80115968C91807FB9F42D
:104050008D2F8F71823159F028F4823041F00E9407
:10406000681061CD843109F45ECD8631C1F71092BC
:104070009305F5CFF8018581807F09F454CDCE01F9
:104080009927109293058832910548F48E31910555
:1040900060F4049720F382E08093930506C08D328C
:1040A0009105C9F328F48A97D1F60E94DF0F3BCD22
:1040B0008C349105D1F38D329240B9F3D0CFC63F05
:1040C0005CE5D50709F466C008F460C027E245EE58
:1040D00066EEC73F9CE5D90709F43ECDD80112969C
:1040E0008C91882309F4CEC41092BE05C430BDE57E
:1040F000DB0708F056C0CB3FECE5DE0730F4CE011D
:1041000082509C45449708F057C00E9469119093D3
:10411000DC028093DB02C2314CE5D40709F450C1C4
:1041200008F0A5C0C9308CE5D80709F427C108F00C
:1041300071C0C530ACE5DA0709F414C108F059C004
:10414000C330ECE5DE0709F405C108F007C1809132
:10415000DB028160C230DC4509F486C06091DB027D
:10416000C091DC0284E090E00E94D1346C2F82E2A6
:1041700090E00E94D1340E9472159ECD27E245EE58
:1041800065EEEACC26E241EE60EEE6CC27E245EEB3
:1041900064EEE2CC26E241EE62EEDECC28E241E0C3
:1041A000EFCFC63AFDE5DF0709F4AFCFE0F4C23642
:1041B0003DE5D30709F4A9CFC6314CE5D40709F092
:1041C00096C4809194058A7A91E009F490E09093E6
:1041D000FD0169E2811165E38CEE91E00E943C09EA
:1041E0000E94DF0F69CDCE018E5A9D45039720F7BF
:1041F0008CCF8091DB028062C7303CE5D307A1F110
:104200008091DB028061C830DC4570F18091DB0277
:1042100080642AC0CD305CE5D50709F4B9C088F4C4
:104220008091DB028E7FCB309CE5D907E9F080914D
:10423000DB028C60CC30DC45B8F08091DB028D7FF6
:1042400013C0CF30BCE5DB0709F4B2C008F4A4C04A
:10425000C031FCE5DF0709F4AFC08091DB028F7B42
:10426000C131DC4509F07ACF8093DB0277CFC115ED
:104270003DE5D30709F4AEC098F5CB3F5CE5D50723
:1042800009F474C0B8F4C4319CE5D90709F4B0C08E
:1042900008F49CC0C531DC4509F060CF8091DB0299
:1042A00082FB992790F921E0922790FB82F990FBFD
:1042B00083F9DACFCD3FECE5DE0709F471C008F4ED
:1042C00059C0CE3F2CE5D20709F46EC08091DC02C4
:1042D0008360CF3FDC4509F041CF8093DC023ECFC5
:1042E000C2364DE5D40709F48EC088F4C2308DE59E
:1042F000D80709F486C008F471C060E0C330DD451A
:1043000009F02CCF8EE090E00E94D13427CFCE3A36
:10431000BDE5DB07D9F058F49091DB02892F8E7F41
:1043200090FF8160C63ADD4509F49ECF17CFCF3AA2
:104330002DE5D20749F1C03BDD4509F00FCF909143
:10434000DC02892F877F93FF8860C7CF8091DC02D2
:104350008860C3CF8091DB02826086CF8091DB02D0
:10436000846082CF8091DB0288607ECF8091DC0206
:104370008160B3CF8091DC028260AFCF0E94721562
:104380008091DB02806870CF8091DC02877FA5CFAF
:104390008091DB028B7F68CF8091DB02877F64CFC7
:1043A0008091DC028E7F99CF8091DC028D7F95CF4A
:1043B0008091DB028F7E58CF8091DB028F7D54CFBE
:1043C0000E9472158091DB028F774ECF8091DB02C5
:1043D000837F4ACF8091DC028C7F7FCF8091DC028B
:1043E000982F909591708E7F892B90FB81F975CFD6
:1043F0000E9472159091DB02892F97FB87F98058F4
:1044000033CF61E07FCF9091DB02892F8F7E94FFC5
:1044100080612ACF85E33FC30E9472155FEF84E37A
:104420009CE0515080409040E1F700C0000081E0E6
:104430008093E00080E28093D8001092C900AFE141
:10444000BEE41197F1F700C0000087E090EBDC01BB
:104450008093C1059093C205A093C305B093C40592
:1044600088E19CE00FB6F894A895809360000FBE99
:1044700090936000FFCF8091DC0282FB882780F957
:1044800091E089270E942B15D80116968D919C9159
:10449000009709F43FC00E946E0BC82FF92ED80177
:1044A0001596DC901597D2943FE0D3221296DC91BA
:1044B00080916B028770E1F0DD23C9F0892F807F46
:1044C000803441F090E29C0F983090F0803611F4E7
:1044D000C63F71F08091DC0282FF0AC082E00E9438
:1044E0000F1580916B028770CC24C3948111C12C6D
:1044F000BF2CB2942FE0B222BBE0BB1508F48CC0F5
:10450000EB2DF0E0EF5EFA4C0C949E3481E0BACFD4
:1045100080E0B8CFF8018281C081D181882369F021
:10452000CE010E941F0DF82E682FCE010E94930D20
:10453000BE018F2D0E94530BAECFCE010E94600DA5
:10454000F82EF6CFEF2DEF70EE2E8F2D807F19F025
:10455000E29490EFE922DD23B9F0EE2069F080E2E9
:104560008C0F883010F0C11109C080919405E82AA1
:10457000E09294050E94DF0F8C2F4CC08091930530
:10458000E82AE0929305F6CF8C2F0E948918EE203E
:1045900009F442C080E28C0F883010F0C11104C0D1
:1045A0008E2D0E940E0D03C08E2D0E94070D0E94BD
:1045B000DF0F32C0FF2DFF70EF2E8F2D807F8032F6
:1045C00019F0E29480EFE822CC2399F0C13009F48D
:1045D00080C0DD2309F48AC0DD2009F480C0D80141
:1045E00015968C91159780FFC7CF8F7015968C9379
:1045F00076C02091DC0222FD49C0DD2309F440C0D1
:10460000EE2039F080919405E82AE09294050E940A
:10461000DF0F80E00E94F318EB2DE850FF0B34977A
:1046200010F40E94610FDD2371F09F2D907F903672
:1046300011F4C63F41F08091FE01823009F01AC2A8
:1046400083E08093FE01CC20B1F080916B0280FD6D
:1046500012C0D80112961C928595859585950E9469
:104660004715C8010E94D31C80916B0285958595E2
:1046700085950E94FD1460E0C8010E94270E2BCB97
:1046800080E00E948918EE2039F28ACFDD23A1F064
:10469000909174028E2D892BD11003C00E9483103B
:1046A000BBCF31E0D312FACF22FFB6CF981709F46F
:1046B000B3CF80937402B0CFD11006C00E94010D19
:1046C0008E2D0E947C10A8CF41E0D41609F4A4CF0F
:1046D000F5CFDD2331F055E05D1508F49DCF8E2D2B
:1046E000DDCF84E08D1508F497CFEACFDD2041F3CC
:1046F000C93369F4BFEFE7EEF3E0B150E040F040BA
:10470000E1F700C000008C2F0E94891885CF8FE34D
:104710009CE90197F1F7F5CF8F2D869586958370EB
:1047200069F0813009F078CF8C2F9F2D9370D111D3
:1047300002C090E080E00E9456096ECF8C2F9F2D22
:104740009370D11102C090E080E00E946C0964CFA8
:104750008C2FDD2329F00E949D0A0E94A3145CCFB8
:104760000E94E209FACF8F2D837009F040C0D11169
:1047700053CF4C2F429546954770440F440F8C2FD2
:104780008F7090E0042E02C0880F991F0A94E2F700
:1047900030E020E0C4FF09C02FE030E002C0220F6B
:1047A000331F4A95E2F7209530954F2D4695469553
:1047B0004370423099F078F46091D9027091DA0236
:1047C000413039F0822B932B862397230E94571573
:1047D00023CF862B972B822B932BF8CF822B932BD7
:1047E0002091D9023091DA0282279327EFCF869564
:1047F000DD2311F08F2D8170882309F40DCF4C2F0C
:10480000429546954770440F440F8C2F8F7090E06F
:10481000042E02C0880F991F0A94E2F730E020E0CE
:10482000C4FF09C02FE030E002C0220F331F4A95B9
:10483000E2F7209530954F2D4695469543704230CE
:1048400099F078F46091BF057091C005413039F05E
:10485000822B932B862397230E94E614DDCE862B92
:10486000972B822B932BF8CF822B932B2091BF0574
:104870003091C00582279327EFCF9F2D9F70E92E9F
:10488000DD2329F0892F0E9447158C2F07CF8C2F0D
:104890000E947C108E2D0E94FD14BECEC23F79F185
:1048A00060F4C03FB9F0C13F81F0DD2309F45FC07F
:1048B000D11062CE8F2D8F7126C0C33F39F1C43F16
:1048C000A1F78091DC0282FD32C08F2D8F71DD2334
:1048D00011F319C0DD2371F0A4E0AD1508F49CCEEE
:1048E0002F2D2F7181E090E002C0880F991F2A952B
:1048F000E2F7BCCFB5E0BD1508F48ECEF1CF8F2D19
:104900008F71D111C8CF0E94471586CE90E080E00C
:10491000DD2309F4A1CF21E030E09F2D9F71F90143
:1049200002C0EE0FFF1F9A95E2F7CF0195CFDD236E
:1049300099F0FF2DFF71EF2E8F2F0E944715809168
:10494000DC0282FF07C028E0E29EC00111248360E0
:1049500080936B028E2DD7CF81E00E940F1531E03E
:104960003D1508F059CE82E00E940F1555CEDD208E
:1049700079F0C93341F44FEF57EE83E04150504096
:104980008040E1F7BECEAFE3BCE91197F1F7B9CEB5
:104990008F2D8F7180CFE0E1EC0FE73008F03FC042
:1049A000F0E0E35EFA4C0C949E34DD2309F434CE3F
:1049B0008091200291E08927809320022DCED09310
:1049C00020022ACE81E08D27F7CFD11125CE81E0BC
:1049D000F3CFD11121CE109220021ECEDD2321F083
:1049E00082E08093FE01F3CF8091FE01823021F4BA
:1049F00081E08093FE0110CE833009F00DCE10923D
:104A0000FE01E9CFDD2339F080911F02882381F276
:104A100010921F0201CEB4E0BD1550F6FDCD80917D
:104A20001F02DD20D9F0882341F08091200291E01F
:104A300089278093200210921F02D1119DCDEFE3B0
:104A4000FCE93197F1F700C000008C2F0E94891813
:104A500088E0D8011D928A95E9F7DECD882309F414
:104A6000DBCDD111D9CD8091200291E089278093AF
:104A70002002CECF813009F0E6CD1092FE011092D7
:104A80002002E1CDC631DC4509F0FECC8091FD016C
:104A90008111C0CC89E2EEEEF1E024EF31E091919A
:104AA000891303C0DF0111971C922E173F07B9F736
:104AB00097CBF8018281882309F4FEC880917C029B
:104AC00081113BC981E080937C028091FC018823A5
:104AD00009F430C989E591E00E946A191092FC013D
:104AE0000E94831490937B0280937A02E5C8CB35B1
:104AF000FDE5DF0709F40ACD68F4C1153CE5D307ED
:104B000009F48ACCCF3DDC4509F0BECC0E940F13DE
:104B10000E947318CD355DE5D50709F4ACCC08F4D7
:104B2000F7CCC83ADD45A1F3AFCCEF92FF920F93DB
:104B30001F93CF93DF9380912602807F09F04CC0B2
:104B400080912302882309F447C0C0916A02E09053
:104B50002902D0912102F0902202009124021091AA
:104B60002502EC16C9F1A8016F2D8D2F0E94820934
:104B70002C2F30E0811135C0F90183E0EE0FFF1FCB
:104B80008A95E1F7DF01A65DBD4F11968C911197D3
:104B90008F1127C08C918D1324C012968C9112977F
:104BA00081111FC013968D919C91801B910B8F3AA0
:104BB0009105B8F4809126028F708061809326025F
:104BC000E15DFD4F80818F708061808381E292E0A2
:104BD0000E94D31C0E94150DCDB7DEB7E6E00C9401
:104BE0006F342F5F3F4FC22FC770BBCFA5E1B0E03E
:104BF000ECEFF5E20C9448348C0185E0F801DE011D
:104C0000519601900D928A95E1F7F801E28041E218
:104C1000A42E42E0B42E40902102309022028090D7
:104C2000240290902502A401632D842D0E94820904
:104C3000582E811151C1F80160807180C380D480E9
:104C4000F0902302960128193909FF2009F410C1B8
:104C500080912602982F907F2F3A310508F0C4C02A
:104C6000911176C0FE2C37101DC064101BC04091FE
:104C7000270250912802268137814217530791F469
:104C8000E11010C08F70806180932602C5010E94E0
:104C9000D31C80912602F80185838F2D6596E1E172
:104CA0000C946434A601672D862D0E94820981111F
:104CB00022C081E08E25F82FF170DF2E80FF3EC0EC
:104CC00080916A0220912902821317C0698A7A8A28
:104CD00089899A890E94530D292F22952F7022309D
:104CE00008F1243030F59F7009F1F8019581907F2B
:104CF000E9F4F52CD2CF80E0DECF90E0FC0133E088
:104D0000EE0FFF1F3A95E1F7E65DFD4F3181371158
:104D100006C03081631203C03281E3120FC00196D6
:104D20008770D2CF9F7011F0882319F3805E88308E
:104D300000F3C8010E94D31C5D2CDBCFEE2009F4E8
:104D4000ACCF80912602816080932602F12CA5CF02
:104D500037101AC0641018C04091270250912802E1
:104D6000268137814217530779F4E1100DC08583FE
:104D7000C8010E94D31C88E0F801A1E2B2E00190D2
:104D80000D928A95E1F789CFC8010E94C90D882349
:104D900039F1EE2029F1809126028032A0F0209195
:104DA0002102309122023A8729871B86DD86CC8634
:104DB0008E878091270290912802988B8F87CE0151
:104DC00009960E94D31C88E0F801A1E2B2E00190AC
:104DD0000D928A95E1F70E949525FF24F3945DCF0B
:104DE000C8010E94D31CF9CF91110AC081E292E060
:104DF0000E94D31C88E0F50111928A95E9F7A6CFAD
:104E0000371017C0641015C0409127025091280236
:104E1000268137814217530761F4E1100AC0858368
:104E2000C8010E94D31C88E0F50111928A95E9F728
:104E300034CFC8010E94C90D882391F2EE2081F27F
:104E400080912602803208F4BECF20912102309159
:104E500022023A8329831B82DD82CC828E83809159
:104E600027029091280298878F83CE010196A9CFBF
:104E70002F3A3105C0F6FE2CEE2009F4B1CF3710E1
:104E80001DC064101BC0209127023091280286812A
:104E900097812817390791F48091260280FD6BCF06
:104EA000982F907F09F467CF8583903F09F460CFF6
:104EB000982F907F905F8F70892B59CFC8010E94E7
:104EC000C90D811180CF80912602816080932602D6
:104ED000C8010E94D31CE1CEEE2009F481CFC801A5
:104EE0000E94C90DF82E882309F47ACF88E0F801D2
:104EF000A1E2B2E001900D928A95E1F78091210242
:104F0000909122020E94530D92959F70963051F419
:104F1000863F41F08091200291E089278093200212
:104F200090931F020E949525B8CEA0E1B0E0EBE976
:104F3000F7E20C94573429873A874B875C876D8753
:104F40007E878F87988BCE0109960E94F625811166
:104F50002FC088E0FE013996DE01119601900D9276
:104F60008A95E1F74C855D856A8589850E9482096D
:104F700081111EC0A0912902B0E0CD010196877079
:104F8000992720916A0228171906E1F093E0AA0FE9
:104F9000BB1F9A95E1F7A65DBD4F98E0FE013196E3
:104FA00001900D929A95E1F7809329020E94150DC8
:104FB00080916A0290912902891312C06096E2E002
:104FC0000C9473340E9472151092290210926A0296
:104FD00088E0E1E2F2E0DF011D928A95E9F7E8CF8F
:104FE000B8E08B9FC0011124865D9D4F0E94F6257D
:104FF000882321F380916A0290E0019687709927B7
:1050000080936A02D5CFB0E0A0E0E9E0F8E20C942A
:10501000523480912605882369F0C0912505E12C42
:105020008CE0F82E80912605C81748F010922605CE
:1050300010922505CDB7DEB7E7E00C946E34DD2481
:10504000D394DC0ED09225050C2F10E0CF9DE0010B
:105050001124C95DDA4F4B815C81698188810E948E
:10506000820981112CC08E819F81892B21F4888532
:105070009985019651F4288139814A815B816C813F
:105080007D818E819F810E949527F09EF001F19E87
:10509000F00D1124E95DFA4F1482138210929305EA
:1050A000E1100DC0CE010E94C90D811108C08FE32F
:1050B0009CE90197F1F700C00000EE24E394CD2DA8
:1050C000B1CF1092920510929105109291018091AA
:1050D000900580938F050E94BB090E9403280895C4
:1050E000B0E0A0E0E6E7F8E20C944734C0918F0509
:1050F000E7E0FE2E01E010E0FCE02F2EAEEFEA2EFE
:10510000809190058C1309C00E9403280E94BB095E
:10511000CDB7DEB7E2E10C946334D0E0FE01EE0FD0
:10512000FF1FE957FA4F80819181F89EF001F99EA7
:10513000F00D1124E458FE4F2481211159C0309004
:105140002605A7E2B5E030E020E0412C5F01231501
:1051500008F04CC01A966D907C901B97F5018080EA
:1051600091804FEF5FEF512CC52CD12CF601EE0F43
:10517000FF1FE80DF91D659174916616770609F415
:10518000A601672B11F05394EFCF4F3F5407B9F1AD
:10519000B80102C0660F771F4A95E2F7462AA801B8
:1051A000052C02C0440F551F0A94E2F741505109E3
:1051B0004416150601F5229EF001239EF00D1124E0
:1051C000E95DFA4FF89ED001F99EB00D1124A45864
:1051D000BE4F12962D913C91139737832683E08220
:1051E000E1829187808771E015967C930E948D09FA
:1051F0002196C37085CF14961C921E9213972F5F31
:105200003F4F1C96A4CFA9E1B0E0E9E0F9E20C948D
:105210004734F62E6B8B7C8B8D8B142F052F6111F1
:10522000109293054C895D89602F812F0E9482091D
:10523000811133C00A3088F5163078F5E12FF0E09F
:1052400026E0029FE00DF11D11249F0127703327F6
:1052500081E090E001C0880F2A95EAF7DF0143E082
:10526000B695A7954A95E1F7AC50BE4F2C91309179
:105270002002F11002C0322F3823332309F440C03A
:10528000AF01440F551FFA01E154FF4F0491FA0199
:10529000E254FF4F1491822B8C931D861E861F862D
:1052A000188A198B0A8B85E0FE017196DE0119962A
:1052B00001900D928A95E1F74C855D856A85898517
:1052C0000E948209811111C061E0CE0109960E94FD
:1052D000270E5C018B8538EFA3163CE5B30699F4E5
:1052E000882339F181E08093910129853A854B85A6
:1052F0005C856D857E858F8598890E949527C5C0C0
:1053000080958223C9CF49EFA4164CE5B40629F451
:10531000882379F00E946128E8CF5AEFA5165CE552
:10532000B50639F4882329F0809191018111F2CFDB
:10533000D9CF0CE711E0E12CD12CC12C8824839427
:10534000912C9EEF592E44244394F8016081718181
:1053500066246A94762C20E0422F50E0FA01EE0F8A
:10536000FF1FE60FF71F85919491A816B90609F45F
:105370003A01892B11F02F5FEFCFF12CFFEF6F1661
:105380007F0609F444C0F8014481F09091018F2D0B
:10539000411180E0F82FF170FF2EF8012580868101
:1053A0009B85992309F4F2C0FF2009F4EFC0211076
:1053B00014C0A401062C01C0440F0A94EAF7842B00
:1053C000868380912305909124050F9730F44FE058
:1053D00050E05093240540932305C40102C0880F78
:1053E000991F2A95E2F70197F801268128171906D7
:1053F00071F48091910590919205009709F449C04C
:105400000E947414409708F444C0F8014482EF28C5
:10541000FFEFCF1ADF0A095F1F4F23E0C216D10446
:1054200009F093CF8B85882309F40CC1EE2009F491
:1054300009C10E94831490939205809391058091F5
:105440002605883010F591E0980F9093260598E096
:10545000FE013996DE01119601900D929A95E1F7C1
:105460003CE0839FC0011124895D9A4F28E0FE0132
:105470003196DC0101900D922A95E1F72FEF3FEF75
:10548000FC0131872087B386A2866996E2E10C94FD
:10549000633480918F0560909005982FF0E0E0E0F4
:1054A000861114C090938F050E171F0709F4AFCF14
:1054B00090E0FC01EE0FFF1FE957FA4FD182C08246
:1054C00001968370992780939005A1CF282E312CC7
:1054D000F101EE0FFF1FE957FA4F20813181F7E00C
:1054E000F29FD001F39FB00D1124A458BE4F2D910F
:1054F0003C911197398F288F712C60E070E0E72F75
:10550000F0E0EE0FFF1F288D398DE20FF31F25917C
:10551000349121153105E1F0F8010190F081E02D81
:10552000FF8BEE8B60E005C02417350709F47F2C54
:105530006F5FE62FF0E0EE0FFF1F4E895F89E40FEB
:10554000F51F459154914115510571F77F5FD7CFF4
:105550007720C9F0F801671708F0FD014482E017D1
:10556000F10721F490938F05F72C51CF891305C0D3
:10557000EA17FB0711F49F5F937091012F5F3F4F74
:10558000822F83708DCFF0E0E0E0F7CF90E0211024
:1055900020C0B40102C0660F771F2A95E2F79B0175
:1055A000215031092817390731F4442309F448C040
:1055B000C6010E948D09C401062C01C0880F0A94FF
:1055C000EAF7982F9095F801868189238683F22C3B
:1055D0001ECF9C01062C02C0359527950A94E2F750
:1055E000A90141705527BC01615071098623972399
:1055F000892B11F5452B01F1F80182819381892BCB
:10560000C1F01B821C821D821E8259825A820E9416
:1056100083148160582F9D838C83F801828193814C
:105620008F83988729813A814B816D817E810E9489
:105630009527F8011582BFCFF22FF1702F2EBBCF27
:105640002F2CB9CF90918F0580919005981731F04C
:105650000E947028EE2009F448CE17CF0E9403283C
:1056600010929205109291050E94BB09F3CF1F92F0
:105670001FB61F9211248F939F93AF93BF93809176
:105680009D05811113C080919E0590919F05A09169
:10569000A005B091A1054196A11DB11D80939E0565
:1056A00090939F05A093A005B093A105BF91AF91E2
:1056B0009F918F911F901FBE1F901895CDB7DEB799
:1056C00062970FB6F894DEBF0FBECDBF85B7806876
:1056D00085BF85B7806885BF84B7877F84BF0FB6D5
:1056E000F894A89580916000886180936000109282
:1056F00060000FBE80E890E00FB6F89480936100E0
:10570000909361000FBE87EF9AE09093EB01809336
:10571000EA010E94A8070E9473088091E200846059
:105720008093E20078948091B2058823A1F01091D3
:10573000E9001F709091EC00892F817090FD80E846
:10574000182B1092E9008091E80083FD0E947E15DD
:105750001F701093E90082E084BD93E095BD9AEF3D
:1057600097BD80936E001092A6021092A70210922D
:10577000A8021092A9020E943E0F80933C010E9451
:105780003E0F81110E94D13280913C0180913C01F9
:1057900095E0811190E09093B50285E0891B80939C
:1057A000B40206EC11E0D8018D918D018F3F11F00C
:1057B0000E94F90AB1E00B3C1B07A9F70BEC11E0C2
:1057C000F80181918F018F3F11F00E94F90AF1E0F9
:1057D000013D1F07A9F78AE0EAEBF2E0DF01082F9D
:1057E0001D920A95E9F7EAEAF2E0DF011D928A9537
:1057F000E9F790E080E00E94CB34883E9E4F11F0A4
:105800000E940F1382E090E00E94C3348093C40290
:105810000E9469119093DC028093DB0283E090E0A8
:105820000E94C33490E00E9457150E943E0F8823C7
:1058300009F4A6C083E08093FD0280FDA3C080E848
:1058400080930F030E948B316DE070E08CE395E054
:105850000E94720F892BE9F58091FD0263E070E0F0
:1058600081FD92C089E395E00E94720F892B89F532
:105870006DE070E089E295E00E94720F892B49F596
:105880000E943009605A75418F4F9F4F60931A05EF
:1058900070931B0580931C0590931D05E2E1F3E0D6
:1058A00080E092E0DF018C011D9201501040E1F791
:1058B000F0931905E09318058FEF9FEF9093110374
:1058C0008093100381E080931F0580931E05109242
:1058D000FE0290913C0181E098279093D502182F09
:1058E000191B1093B70290913C018093D6029091BE
:1058F0003C018093B60280913C01811106C084EF87
:105900008093740185EF8093730120917401E22FDD
:10591000E295EF70F0E061A12F7081E090E0AC01C2
:1059200001C0440F2A95EAF7342F3095362331A36E
:1059300022A1242B22A320917301E22FE295EF7084
:10594000F0E031A12F7001C0880F2A95EAF7982F57
:105950009095932391A392A1892B82A38FE891E044
:105960000197F1F700C000001091D60267ED72E0D8
:1059700044E751E083E7E82E81E0F82EFB012FC0D9
:1059800080E059CF80E25CCF86E395E06DCFDA010D
:105990002D91AD01822F82958F7090E0DC01909661
:1059A0008C9190E02F7002C0959587952A95E2F72B
:1059B0008170D7019D917D01292F22952F7030E0B4
:1059C000D90190962C9130E09F7002C035952795B3
:1059D0009A95E2F790E020FD92E0892B81938E2F3B
:1059E000861B8117A0F20E943E0F811102C00E9407
:1059F000D4328DE391E090939A058093990590E4D9
:105A0000692E8091B20500E112E1853009F488C069
:105A10000E942B1B05ECE02E02E0F02E8AEBC82E34
:105A200082E0D82E2FEC32E0D601F70191918D91D2
:105A30002E173F0709F47EC09817C1F30E943E0F4E
:105A4000882E10E0D6010D916D01F70191907F0134
:105A5000901629F19026B12CAA24A394892D8A218D
:105A6000B1F08820A1F0BC861D8791E0802F8A21AB
:105A700009F490E09E870E9483148160782F988BB0
:105A80008F874C855D856E8588890E940329B39434
:105A9000AA0CF6E0BF12E2CFF701319700831F5F37
:105AA0001A3081F60E943009EE24E39464C080919C
:105AB000B205843029F10E949C0F10929D05E8E107
:105AC000F0E00FB6F894A895E09360000FBE6092E6
:105AD000600083B7817F846083BF83B7816083BFA9
